{
  "_format": "hh-sol-artifact-1",
  "contractName": "StoreFunctions",
  "sourceName": "contracts/StoreFunctions.sol",
  "abi": [
    {
      "inputs": [
        {
          "internalType": "address[]",
          "name": "_payees",
          "type": "address[]"
        },
        {
          "internalType": "uint256[]",
          "name": "_shares",
          "type": "uint256[]"
        },
        {
          "internalType": "address",
          "name": "_addr",
          "type": "address"
        }
      ],
      "stateMutability": "nonpayable",
      "type": "constructor"
    },
    {
      "anonymous": false,
      "inputs": [
        {
          "indexed": false,
          "internalType": "uint256",
          "name": "tokenId",
          "type": "uint256"
        },
        {
          "indexed": true,
          "internalType": "address",
          "name": "seller",
          "type": "address"
        },
        {
          "indexed": false,
          "internalType": "uint256",
          "name": "value",
          "type": "uint256"
        },
        {
          "indexed": false,
          "internalType": "uint64",
          "name": "amount",
          "type": "uint64"
        }
      ],
      "name": "CancelSellOffer",
      "type": "event"
    },
    {
      "anonymous": false,
      "inputs": [
        {
          "indexed": true,
          "internalType": "contract IERC20",
          "name": "token",
          "type": "address"
        },
        {
          "indexed": false,
          "internalType": "address",
          "name": "to",
          "type": "address"
        },
        {
          "indexed": false,
          "internalType": "uint256",
          "name": "amount",
          "type": "uint256"
        }
      ],
      "name": "ERC20PaymentReleased",
      "type": "event"
    },
    {
      "anonymous": false,
      "inputs": [
        {
          "indexed": false,
          "internalType": "uint256",
          "name": "tokenId",
          "type": "uint256"
        },
        {
          "indexed": true,
          "internalType": "address",
          "name": "seller",
          "type": "address"
        },
        {
          "indexed": false,
          "internalType": "uint256",
          "name": "value",
          "type": "uint256"
        },
        {
          "indexed": false,
          "internalType": "uint64",
          "name": "amount",
          "type": "uint64"
        },
        {
          "indexed": true,
          "internalType": "address",
          "name": "buyer",
          "type": "address"
        },
        {
          "indexed": false,
          "internalType": "uint256",
          "name": "itemSoldId",
          "type": "uint256"
        }
      ],
      "name": "ItemSold",
      "type": "event"
    },
    {
      "anonymous": false,
      "inputs": [
        {
          "indexed": true,
          "internalType": "address",
          "name": "_from",
          "type": "address"
        },
        {
          "indexed": false,
          "internalType": "uint256",
          "name": "_amount",
          "type": "uint256"
        }
      ],
      "name": "MoneyReceived",
      "type": "event"
    },
    {
      "anonymous": false,
      "inputs": [
        {
          "indexed": false,
          "internalType": "uint256",
          "name": "tokenIdLength",
          "type": "uint256"
        },
        {
          "indexed": true,
          "internalType": "address",
          "name": "seller",
          "type": "address"
        },
        {
          "indexed": false,
          "internalType": "uint256",
          "name": "value",
          "type": "uint256"
        }
      ],
      "name": "NewBatchSellOffer",
      "type": "event"
    },
    {
      "anonymous": false,
      "inputs": [
        {
          "indexed": false,
          "internalType": "uint256",
          "name": "tokenId",
          "type": "uint256"
        },
        {
          "indexed": true,
          "internalType": "address",
          "name": "seller",
          "type": "address"
        },
        {
          "indexed": false,
          "internalType": "uint256",
          "name": "value",
          "type": "uint256"
        },
        {
          "indexed": false,
          "internalType": "uint64",
          "name": "amount",
          "type": "uint64"
        }
      ],
      "name": "NewSellOffer",
      "type": "event"
    },
    {
      "anonymous": false,
      "inputs": [
        {
          "indexed": true,
          "internalType": "address",
          "name": "previousOwner",
          "type": "address"
        },
        {
          "indexed": true,
          "internalType": "address",
          "name": "newOwner",
          "type": "address"
        }
      ],
      "name": "OwnershipTransferred",
      "type": "event"
    },
    {
      "anonymous": false,
      "inputs": [
        {
          "indexed": false,
          "internalType": "address",
          "name": "account",
          "type": "address"
        }
      ],
      "name": "Paused",
      "type": "event"
    },
    {
      "anonymous": false,
      "inputs": [
        {
          "indexed": false,
          "internalType": "address",
          "name": "account",
          "type": "address"
        },
        {
          "indexed": false,
          "internalType": "uint256",
          "name": "shares",
          "type": "uint256"
        }
      ],
      "name": "PayeeAdded",
      "type": "event"
    },
    {
      "anonymous": false,
      "inputs": [
        {
          "indexed": false,
          "internalType": "address",
          "name": "from",
          "type": "address"
        },
        {
          "indexed": false,
          "internalType": "uint256",
          "name": "amount",
          "type": "uint256"
        }
      ],
      "name": "PaymentReceived",
      "type": "event"
    },
    {
      "anonymous": false,
      "inputs": [
        {
          "indexed": false,
          "internalType": "address",
          "name": "to",
          "type": "address"
        },
        {
          "indexed": false,
          "internalType": "uint256",
          "name": "amount",
          "type": "uint256"
        }
      ],
      "name": "PaymentReleased",
      "type": "event"
    },
    {
      "anonymous": false,
      "inputs": [
        {
          "indexed": false,
          "internalType": "address",
          "name": "account",
          "type": "address"
        }
      ],
      "name": "Unpaused",
      "type": "event"
    },
    {
      "inputs": [
        {
          "internalType": "uint256",
          "name": "",
          "type": "uint256"
        }
      ],
      "name": "activeSellOffers",
      "outputs": [
        {
          "internalType": "uint256",
          "name": "itemId",
          "type": "uint256"
        },
        {
          "internalType": "address",
          "name": "seller",
          "type": "address"
        },
        {
          "internalType": "uint256",
          "name": "price",
          "type": "uint256"
        },
        {
          "internalType": "uint64",
          "name": "initialAmount",
          "type": "uint64"
        },
        {
          "internalType": "uint64",
          "name": "amount",
          "type": "uint64"
        },
        {
          "internalType": "uint256",
          "name": "createTime",
          "type": "uint256"
        },
        {
          "internalType": "uint256",
          "name": "IDtoken",
          "type": "uint256"
        },
        {
          "internalType": "bool",
          "name": "sold",
          "type": "bool"
        }
      ],
      "stateMutability": "view",
      "type": "function"
    },
    {
      "inputs": [],
      "name": "addressOf1155",
      "outputs": [
        {
          "internalType": "address",
          "name": "",
          "type": "address"
        }
      ],
      "stateMutability": "view",
      "type": "function"
    },
    {
      "inputs": [],
      "name": "balance",
      "outputs": [
        {
          "internalType": "uint256",
          "name": "",
          "type": "uint256"
        }
      ],
      "stateMutability": "view",
      "type": "function"
    },
    {
      "inputs": [
        {
          "internalType": "address",
          "name": "account",
          "type": "address"
        },
        {
          "internalType": "uint256",
          "name": "id",
          "type": "uint256"
        }
      ],
      "name": "balanceOf",
      "outputs": [
        {
          "internalType": "uint256",
          "name": "",
          "type": "uint256"
        }
      ],
      "stateMutability": "view",
      "type": "function"
    },
    {
      "inputs": [
        {
          "internalType": "uint256[]",
          "name": "tokenId",
          "type": "uint256[]"
        },
        {
          "internalType": "uint64[]",
          "name": "amounts",
          "type": "uint64[]"
        },
        {
          "internalType": "uint256",
          "name": "price",
          "type": "uint256"
        }
      ],
      "name": "batchSellOffer",
      "outputs": [],
      "stateMutability": "nonpayable",
      "type": "function"
    },
    {
      "inputs": [
        {
          "internalType": "uint256",
          "name": "item",
          "type": "uint256"
        },
        {
          "internalType": "uint64",
          "name": "amount",
          "type": "uint64"
        }
      ],
      "name": "buyToken",
      "outputs": [
        {
          "components": [
            {
              "internalType": "uint256",
              "name": "itemId",
              "type": "uint256"
            },
            {
              "internalType": "address",
              "name": "seller",
              "type": "address"
            },
            {
              "internalType": "uint256",
              "name": "price",
              "type": "uint256"
            },
            {
              "internalType": "uint64",
              "name": "initialAmount",
              "type": "uint64"
            },
            {
              "internalType": "uint64",
              "name": "amount",
              "type": "uint64"
            },
            {
              "internalType": "uint256",
              "name": "createTime",
              "type": "uint256"
            },
            {
              "internalType": "uint256",
              "name": "IDtoken",
              "type": "uint256"
            },
            {
              "internalType": "bool",
              "name": "sold",
              "type": "bool"
            }
          ],
          "internalType": "struct StoreFunctions.SellOffer",
          "name": "",
          "type": "tuple"
        }
      ],
      "stateMutability": "payable",
      "type": "function"
    },
    {
      "inputs": [
        {
          "internalType": "uint256",
          "name": "_pageNumber",
          "type": "uint256"
        },
        {
          "internalType": "uint256",
          "name": "_resultsPerPage",
          "type": "uint256"
        }
      ],
      "name": "fetchMarketItems",
      "outputs": [
        {
          "components": [
            {
              "internalType": "uint256",
              "name": "itemId",
              "type": "uint256"
            },
            {
              "internalType": "address",
              "name": "seller",
              "type": "address"
            },
            {
              "internalType": "uint256",
              "name": "price",
              "type": "uint256"
            },
            {
              "internalType": "uint64",
              "name": "initialAmount",
              "type": "uint64"
            },
            {
              "internalType": "uint64",
              "name": "amount",
              "type": "uint64"
            },
            {
              "internalType": "uint256",
              "name": "createTime",
              "type": "uint256"
            },
            {
              "internalType": "uint256",
              "name": "IDtoken",
              "type": "uint256"
            },
            {
              "internalType": "bool",
              "name": "sold",
              "type": "bool"
            }
          ],
          "internalType": "struct StoreFunctions.SellOffer[]",
          "name": "",
          "type": "tuple[]"
        }
      ],
      "stateMutability": "view",
      "type": "function"
    },
    {
      "inputs": [
        {
          "internalType": "uint256",
          "name": "tokenId",
          "type": "uint256"
        },
        {
          "internalType": "uint256",
          "name": "price",
          "type": "uint256"
        },
        {
          "internalType": "uint64",
          "name": "amount",
          "type": "uint64"
        }
      ],
      "name": "makeSellOffer",
      "outputs": [],
      "stateMutability": "nonpayable",
      "type": "function"
    },
    {
      "inputs": [],
      "name": "owner",
      "outputs": [
        {
          "internalType": "address",
          "name": "",
          "type": "address"
        }
      ],
      "stateMutability": "view",
      "type": "function"
    },
    {
      "inputs": [],
      "name": "pause",
      "outputs": [],
      "stateMutability": "nonpayable",
      "type": "function"
    },
    {
      "inputs": [],
      "name": "paused",
      "outputs": [
        {
          "internalType": "bool",
          "name": "",
          "type": "bool"
        }
      ],
      "stateMutability": "view",
      "type": "function"
    },
    {
      "inputs": [
        {
          "internalType": "uint256",
          "name": "index",
          "type": "uint256"
        }
      ],
      "name": "payee",
      "outputs": [
        {
          "internalType": "address",
          "name": "",
          "type": "address"
        }
      ],
      "stateMutability": "view",
      "type": "function"
    },
    {
      "inputs": [
        {
          "internalType": "address payable",
          "name": "account",
          "type": "address"
        }
      ],
      "name": "release",
      "outputs": [],
      "stateMutability": "nonpayable",
      "type": "function"
    },
    {
      "inputs": [
        {
          "internalType": "contract IERC20",
          "name": "token",
          "type": "address"
        },
        {
          "internalType": "address",
          "name": "account",
          "type": "address"
        }
      ],
      "name": "release",
      "outputs": [],
      "stateMutability": "nonpayable",
      "type": "function"
    },
    {
      "inputs": [
        {
          "internalType": "contract IERC20",
          "name": "token",
          "type": "address"
        },
        {
          "internalType": "address",
          "name": "account",
          "type": "address"
        }
      ],
      "name": "released",
      "outputs": [
        {
          "internalType": "uint256",
          "name": "",
          "type": "uint256"
        }
      ],
      "stateMutability": "view",
      "type": "function"
    },
    {
      "inputs": [
        {
          "internalType": "address",
          "name": "account",
          "type": "address"
        }
      ],
      "name": "released",
      "outputs": [
        {
          "internalType": "uint256",
          "name": "",
          "type": "uint256"
        }
      ],
      "stateMutability": "view",
      "type": "function"
    },
    {
      "inputs": [],
      "name": "renounceOwnership",
      "outputs": [],
      "stateMutability": "nonpayable",
      "type": "function"
    },
    {
      "inputs": [
        {
          "internalType": "address",
          "name": "account",
          "type": "address"
        }
      ],
      "name": "shares",
      "outputs": [
        {
          "internalType": "uint256",
          "name": "",
          "type": "uint256"
        }
      ],
      "stateMutability": "view",
      "type": "function"
    },
    {
      "inputs": [
        {
          "internalType": "uint256",
          "name": "",
          "type": "uint256"
        }
      ],
      "name": "soldOffers",
      "outputs": [
        {
          "internalType": "uint256",
          "name": "itemSoldId",
          "type": "uint256"
        },
        {
          "internalType": "address",
          "name": "seller",
          "type": "address"
        },
        {
          "internalType": "address",
          "name": "buyer",
          "type": "address"
        },
        {
          "internalType": "uint256",
          "name": "blockId",
          "type": "uint256"
        },
        {
          "internalType": "uint256",
          "name": "price",
          "type": "uint256"
        },
        {
          "internalType": "uint64",
          "name": "initialAmount",
          "type": "uint64"
        },
        {
          "internalType": "uint64",
          "name": "amount",
          "type": "uint64"
        },
        {
          "internalType": "uint256",
          "name": "createTime",
          "type": "uint256"
        },
        {
          "internalType": "uint256",
          "name": "IDtoken",
          "type": "uint256"
        }
      ],
      "stateMutability": "view",
      "type": "function"
    },
    {
      "inputs": [
        {
          "internalType": "contract IERC20",
          "name": "token",
          "type": "address"
        }
      ],
      "name": "totalReleased",
      "outputs": [
        {
          "internalType": "uint256",
          "name": "",
          "type": "uint256"
        }
      ],
      "stateMutability": "view",
      "type": "function"
    },
    {
      "inputs": [],
      "name": "totalReleased",
      "outputs": [
        {
          "internalType": "uint256",
          "name": "",
          "type": "uint256"
        }
      ],
      "stateMutability": "view",
      "type": "function"
    },
    {
      "inputs": [],
      "name": "totalShares",
      "outputs": [
        {
          "internalType": "uint256",
          "name": "",
          "type": "uint256"
        }
      ],
      "stateMutability": "view",
      "type": "function"
    },
    {
      "inputs": [
        {
          "internalType": "address",
          "name": "newOwner",
          "type": "address"
        }
      ],
      "name": "transferOwnership",
      "outputs": [],
      "stateMutability": "nonpayable",
      "type": "function"
    },
    {
      "inputs": [],
      "name": "unpause",
      "outputs": [],
      "stateMutability": "nonpayable",
      "type": "function"
    },
    {
      "inputs": [],
      "name": "uri",
      "outputs": [
        {
          "internalType": "string",
          "name": "",
          "type": "string"
        }
      ],
      "stateMutability": "view",
      "type": "function"
    },
    {
      "stateMutability": "payable",
      "type": "receive"
    }
  ],
  "bytecode": "0x60806040523480156200001157600080fd5b506040516200323d3803806200323d8339810160408190526200003491620004ed565b82826200004133620001b0565b6000805460ff60a01b19169055600180558051825114620000c45760405162461bcd60e51b815260206004820152603260248201527f5061796d656e7453706c69747465723a2070617965657320616e6420736861726044820152710cae640d8cadccee8d040dad2e6dac2e8c6d60731b60648201526084015b60405180910390fd5b6000825111620001175760405162461bcd60e51b815260206004820152601a60248201527f5061796d656e7453706c69747465723a206e6f207061796565730000000000006044820152606401620000bb565b60005b825181101562000183576200016e8382815181106200013d576200013d620005cf565b60200260200101518383815181106200015a576200015a620005cf565b60200260200101516200020060201b60201c565b806200017a81620005fb565b9150506200011a565b5050600e80546001600160a01b0319166001600160a01b0393909316929092179091555062000634915050565b600080546001600160a01b038381166001600160a01b0319831681178455604051919092169283917f8be0079c531659141344cd1fd0a4f28419497f9722a3daafe3b4186f6b6457e09190a35050565b6001600160a01b0382166200026d5760405162461bcd60e51b815260206004820152602c60248201527f5061796d656e7453706c69747465723a206163636f756e74206973207468652060448201526b7a65726f206164647265737360a01b6064820152608401620000bb565b60008111620002bf5760405162461bcd60e51b815260206004820152601d60248201527f5061796d656e7453706c69747465723a207368617265732061726520300000006044820152606401620000bb565b6001600160a01b038216600090815260046020526040902054156200033b5760405162461bcd60e51b815260206004820152602b60248201527f5061796d656e7453706c69747465723a206163636f756e7420616c726561647960448201526a206861732073686172657360a81b6064820152608401620000bb565b60068054600181019091557ff652222313e28459528d920b65115c16c04f3efc82aaedc97be59f3f377c0d3f0180546001600160a01b0319166001600160a01b0384169081179091556000908152600460205260409020819055600254620003a590829062000619565b600255604080516001600160a01b0384168152602081018390527f40c340f65e17194d14ddddb073d3c9f888e3cb52b5aae0c6c7706b4fbc905fac910160405180910390a15050565b634e487b7160e01b600052604160045260246000fd5b604051601f8201601f191681016001600160401b03811182821017156200042f576200042f620003ee565b604052919050565b60006001600160401b03821115620004535762000453620003ee565b5060051b60200190565b80516001600160a01b03811681146200047557600080fd5b919050565b600082601f8301126200048c57600080fd5b81516020620004a56200049f8362000437565b62000404565b82815260059290921b84018101918181019086841115620004c557600080fd5b8286015b84811015620004e25780518352918301918301620004c9565b509695505050505050565b6000806000606084860312156200050357600080fd5b83516001600160401b03808211156200051b57600080fd5b818601915086601f8301126200053057600080fd5b81516020620005436200049f8362000437565b82815260059290921b8401810191818101908a8411156200056357600080fd5b948201945b838610156200058c576200057c866200045d565b8252948201949082019062000568565b91890151919750909350505080821115620005a657600080fd5b50620005b5868287016200047a565b925050620005c6604085016200045d565b90509250925092565b634e487b7160e01b600052603260045260246000fd5b634e487b7160e01b600052601160045260246000fd5b6000600019821415620006125762000612620005e5565b5060010190565b600082198211156200062f576200062f620005e5565b500190565b612bf980620006446000396000f3fe6080604052600436106101695760003560e01c80638456cb59116100d1578063a325f7fd1161008a578063d79779b211610064578063d79779b214610612578063e33b7de314610648578063eac989f81461065d578063f2fde38b1461067f57600080fd5b8063a325f7fd146105a9578063b69ef8a8146105c9578063ce7c2ac2146105dc57600080fd5b80638456cb59146104e0578063871dc151146104f55780638b83209b146105155780638d82cca7146105355780638da5cb5b146105555780639852595c1461057357600080fd5b806348b750441161012357806348b75044146103415780635c975abb14610361578063629b46751461038b5780637063b64e146103c3578063715018a6146103f057806373ae783e1461040557600080fd5b8062fdd58e146101b757806303c55649146101ea57806319165587146102af5780633a98ef39146102d15780633f4ba83a146102e6578063406072a9146102fb57600080fd5b366101b2577f6ef95f06320e7a25a04a175ca677b7052bdd97131872c2192525a629f51be77033604080516001600160a01b0390921682523460208301520160405180910390a1005b600080fd5b3480156101c357600080fd5b506101d76101d23660046124d5565b61069f565b6040519081526020015b60405180910390f35b3480156101f657600080fd5b50610260610205366004612501565b600c60205260009081526040902080546001820154600283015460038401546004850154600586015460069096015494956001600160a01b039094169492936001600160401b0380841694600160401b909404169260ff1688565b604080519889526001600160a01b039097166020890152958701949094526001600160401b0392831660608701529116608085015260a084015260c0830152151560e0820152610100016101e1565b3480156102bb57600080fd5b506102cf6102ca36600461251a565b61071c565b005b3480156102dd57600080fd5b506002546101d7565b3480156102f257600080fd5b506102cf610853565b34801561030757600080fd5b506101d7610316366004612537565b6001600160a01b03918216600090815260086020908152604080832093909416825291909152205490565b34801561034d57600080fd5b506102cf61035c366004612537565b610887565b34801561036d57600080fd5b50600054600160a01b900460ff1660405190151581526020016101e1565b34801561039757600080fd5b50600e546103ab906001600160a01b031681565b6040516001600160a01b0390911681526020016101e1565b3480156103cf57600080fd5b506103e36103de366004612570565b610a60565b6040516101e191906125f9565b3480156103fc57600080fd5b506102cf610d28565b34801561041157600080fd5b50610484610420366004612501565b600d602052600090815260409020805460018201546002830154600384015460048501546005860154600687015460079097015495966001600160a01b03958616969490951694929391926001600160401b0380831693600160401b909304169189565b60408051998a526001600160a01b0398891660208b01529690971695880195909552606087019390935260808601919091526001600160401b0390811660a08601521660c084015260e0830152610100820152610120016101e1565b3480156104ec57600080fd5b506102cf610d5c565b610508610503366004612664565b610d8e565b6040516101e19190612690565b34801561052157600080fd5b506103ab610530366004612501565b611727565b34801561054157600080fd5b506102cf61055036600461277a565b611757565b34801561056157600080fd5b506000546001600160a01b03166103ab565b34801561057f57600080fd5b506101d761058e36600461251a565b6001600160a01b031660009081526005602052604090205490565b3480156105b557600080fd5b506102cf6105c436600461283b565b611b5c565b3480156105d557600080fd5b50476101d7565b3480156105e857600080fd5b506101d76105f736600461251a565b6001600160a01b031660009081526004602052604090205490565b34801561061e57600080fd5b506101d761062d36600461251a565b6001600160a01b031660009081526007602052604090205490565b34801561065457600080fd5b506003546101d7565b34801561066957600080fd5b50610672611e5c565b6040516101e191906128a0565b34801561068b57600080fd5b506102cf61069a36600461251a565b611ed3565b600e54604051627eeac760e11b81526001600160a01b03848116600483015260248201849052600092169062fdd58e90604401602060405180830381865afa1580156106ef573d6000803e3d6000fd5b505050506040513d601f19601f8201168201806040525081019061071391906128d3565b90505b92915050565b6001600160a01b03811660009081526004602052604090205461075a5760405162461bcd60e51b8152600401610751906128ec565b60405180910390fd5b600061076560035490565b61076f9047612948565b9050600061079c8383610797866001600160a01b031660009081526005602052604090205490565b611f6e565b9050806107bb5760405162461bcd60e51b815260040161075190612960565b6001600160a01b038316600090815260056020526040812080548392906107e3908490612948565b9250508190555080600360008282546107fc9190612948565b9091555061080c90508382611fb6565b604080516001600160a01b0385168152602081018390527fdf20fd1e76bc69d672e4814fafb2c449bba3a5369d8359adf9e05e6fde87b056910160405180910390a1505050565b6000546001600160a01b0316331461087d5760405162461bcd60e51b8152600401610751906129ab565b6108856120d4565b565b6001600160a01b0381166000908152600460205260409020546108bc5760405162461bcd60e51b8152600401610751906128ec565b6001600160a01b0382166000908152600760205260408120546040516370a0823160e01b81523060048201526001600160a01b038516906370a0823190602401602060405180830381865afa158015610919573d6000803e3d6000fd5b505050506040513d601f19601f8201168201806040525081019061093d91906128d3565b6109479190612948565b90506000610980838361079787876001600160a01b03918216600090815260086020908152604080832093909416825291909152205490565b90508061099f5760405162461bcd60e51b815260040161075190612960565b6001600160a01b038085166000908152600860209081526040808320938716835292905290812080548392906109d6908490612948565b90915550506001600160a01b03841660009081526007602052604081208054839290610a03908490612948565b90915550610a149050848483612171565b604080516001600160a01b038581168252602082018490528616917f3be5b7a71e84ed12875d241991c70855ac5817d847039e17a9d895c1ceb0f18a910160405180910390a250505050565b60606000610a6d600b5490565b9050600080826001600160401b03811115610a8a57610a8a61269f565b604051908082528060200260200182016040528015610ac357816020015b610ab061245e565b815260200190600190039081610aa85790505b50905060005b83811015610ba2576000818152600c6020908152604080832054808452928190208151610100810183528154815260018201546001600160a01b03169381019390935260028101549183019190915260038101546001600160401b038082166060850152600160401b909104166080830152600481015460a0830152600581015460c0830152600681015460ff16151560e08301528451909190859087908110610b7557610b756129e0565b6020908102919091010152610b8b600186612948565b945050508080610b9a906129f6565b915050610ac9565b50600085610bb08882612a11565b610bba9190612a30565b9050815160001480610bd8575060018251610bd59190612a30565b81115b15610c1a576040805160008082526020820190925290610c0e565b610bfb61245e565b815260200190600190039081610bf35790505b50945050505050610716565b6000866001600160401b03811115610c3457610c3461269f565b604051908082528060200260200182016040528015610c6d57816020015b610c5a61245e565b815260200190600190039081610c525790505b50905060005b610c7d8989612a11565b831015610d1c5760018451610c929190612a30565b8311610cd457838381518110610caa57610caa6129e0565b6020026020010151828281518110610cc457610cc46129e0565b6020026020010181905250610cfc565b610cdc61245e565b80838381518110610cef57610cef6129e0565b6020026020010181905250505b80610d06816129f6565b9150508280610d14906129f6565b935050610c73565b50979650505050505050565b6000546001600160a01b03163314610d525760405162461bcd60e51b8152600401610751906129ab565b61088560006121c3565b6000546001600160a01b03163314610d865760405162461bcd60e51b8152600401610751906129ab565b610885612213565b610d9661245e565b600054600160a01b900460ff1615610dc05760405162461bcd60e51b815260040161075190612a47565b60026001541415610de35760405162461bcd60e51b815260040161075190612a71565b600260018190556000848152600c6020526040902090810154341015610e5d5760405162461bcd60e51b815260206004820152602960248201527f596f752063616e27742073656e64206c657373207468616e20746865206f666660448201526865722070726963652160b81b6064820152608401610751565b6000836001600160401b031611610eb65760405162461bcd60e51b815260206004820152601760248201527f596f752063616e277420627579203020746f6b656e73210000000000000000006044820152606401610751565b6003810154600160401b90046001600160401b0316610f175760405162461bcd60e51b815260206004820152601760248201527f54686973206f66666572206973206e6f2076616c6964210000000000000000006044820152606401610751565b60038101546001600160401b03808516600160401b909204161015610f985760405162461bcd60e51b815260206004820152603160248201527f596f752061726520747279696e6720746f20627579206d6f7265207468616e20604482015270746865206f6666657220616d6f756e742160781b6064820152608401610751565b348160020154846001600160401b0316610fb29190612a11565b111561100c5760405162461bcd60e51b8152602060048201526024808201527f596f752063616e20706179206c657373207468616e20746865206275792076616044820152636c75652160e01b6064820152608401610751565b600681015460ff16156110615760405162461bcd60e51b815260206004820152601860248201527f54686973206f6666657220616c726561647920736f6c642100000000000000006044820152606401610751565b60405134815233907f27b15ed4cf832749ed39f33a64e4707ed60a761485e41ffec7343ecaddc0c02a9060200160405180910390a260006110a1600a5490565b90506110b1600a80546001019055565b6040518061012001604052808281526020018360010160009054906101000a90046001600160a01b03166001600160a01b03168152602001336001600160a01b03168152602001438152602001836002015481526020018360030160009054906101000a90046001600160401b03166001600160401b03168152602001856001600160401b031681526020014281526020018360050154815250600d60008381526020019081526020016000206000820151816000015560208201518160010160006101000a8154816001600160a01b0302191690836001600160a01b0316021790555060408201518160020160006101000a8154816001600160a01b0302191690836001600160a01b03160217905550606082015181600301556080820151816004015560a08201518160050160006101000a8154816001600160401b0302191690836001600160401b0316021790555060c08201518160050160086101000a8154816001600160401b0302191690836001600160401b0316021790555060e082015181600601556101008201518160070155905050336001600160a01b03168260010160009054906101000a90046001600160a01b03166001600160a01b03167fc1e2151078761874e3c704184d54d368acc68e30f01cb08ffcc7d55ca1b3c18b8460050154856002015488866040516112cf949392919093845260208401929092526001600160401b03166040830152606082015260800190565b60405180910390a360038201546000906112fa908690600160401b90046001600160401b0316612aa8565b90506001600160401b0381161561148b57604051806101000160405280846000015481526020018460010160009054906101000a90046001600160a01b03166001600160a01b03168152602001846002015481526020018460030160009054906101000a90046001600160401b03166001600160401b03168152602001826001600160401b03168152602001846004015481526020018460050154815260200160001515815250600c60008881526020019081526020016000206000820151816000015560208201518160010160006101000a8154816001600160a01b0302191690836001600160a01b031602179055506040820151816002015560608201518160030160006101000a8154816001600160401b0302191690836001600160401b0316021790555060808201518160030160086101000a8154816001600160401b0302191690836001600160401b0316021790555060a0820151816004015560c0820151816005015560e08201518160060160006101000a81548160ff021916908315150217905550905050611607565b604051806101000160405280846000015481526020018460010160009054906101000a90046001600160a01b03166001600160a01b03168152602001846002015481526020018460030160009054906101000a90046001600160401b03166001600160401b03168152602001826001600160401b03168152602001846004015481526020018460050154815260200160011515815250600c60008881526020019081526020016000206000820151816000015560208201518160010160006101000a8154816001600160a01b0302191690836001600160a01b031602179055506040820151816002015560608201518160030160006101000a8154816001600160401b0302191690836001600160401b0316021790555060808201518160030160086101000a8154816001600160401b0302191690836001600160401b0316021790555060a0820151816004015560c0820151816005015560e08201518160060160006101000a81548160ff0219169083151502179055509050505b600e5460018401546005850154604051637921219560e11b81526001600160a01b03928316600482015233602482015260448101919091526001600160401b038816606482015260a06084820152600260a482015261060f60f31b60c482015291169063f242432a9060e401600060405180830381600087803b15801561168d57600080fd5b505af11580156116a1573d6000803e3d6000fd5b50506040805161010081018252865481526001808801546001600160a01b0316602083015260028801549282019290925260038701546001600160401b038082166060840152600160401b909104166080820152600487015460a0820152600587015460c082015260069096015460ff16151560e0870152805550929695505050505050565b60006006828154811061173c5761173c6129e0565b6000918252602090912001546001600160a01b031692915050565b600054600160a01b900460ff16156117815760405162461bcd60e51b815260040161075190612a47565b600260015414156117a45760405162461bcd60e51b815260040161075190612a71565b600260015560005b8351811015611b1557600082116118055760405162461bcd60e51b815260206004820152601c60248201527f5072696365206d757374206265206174206c65617374203120776569000000006044820152606401610751565b6000838281518110611819576118196129e0565b60200260200101516001600160401b0316116118715760405162461bcd60e51b8152602060048201526017602482015276596f752063616e27742073656c6c203020746f6b656e7360481b6044820152606401610751565b828181518110611883576118836129e0565b60200260200101516001600160401b0316600e60009054906101000a90046001600160a01b03166001600160a01b031662fdd58e338785815181106118ca576118ca6129e0565b60200260200101516040518363ffffffff1660e01b81526004016119039291906001600160a01b03929092168252602082015260400190565b602060405180830381865afa158015611920573d6000803e3d6000fd5b505050506040513d601f19601f8201168201806040525081019061194491906128d3565b101561199c5760405162461bcd60e51b815260206004820152602160248201527f596f7520646f6e277420686176652073756666696369656e742062616c616e636044820152606560f81b6064820152608401610751565b60006119a7600b5490565b90506119b7600b80546001019055565b604051806101000160405280828152602001336001600160a01b031681526020018481526020018584815181106119f0576119f06129e0565b60200260200101516001600160401b03168152602001858481518110611a1857611a186129e0565b60200260200101516001600160401b03168152602001428152602001868481518110611a4657611a466129e0565b60209081029190910181015182526000918101829052928152600c835260409081902082518155928201516001840180546001600160a01b039092166001600160a01b03199092169190911790558101516002830155606081015160038301805460808401516001600160401b03908116600160401b026001600160801b031990921693169290921791909117905560a0810151600483015560c0810151600583015560e001516006909101805491151560ff1990921691909117905580611b0d816129f6565b9150506117ac565b508251604080519182526020820183905233917fcc0363c7416057b2528038da07e5ee87e946973d81297419c02021c75c01379b910160405180910390a250506001805550565b600054600160a01b900460ff1615611b865760405162461bcd60e51b815260040161075190612a47565b60026001541415611ba95760405162461bcd60e51b815260040161075190612a71565b6002600155600e54604051627eeac760e11b81523360048201526024810185905284916001600160a01b03169062fdd58e90604401602060405180830381865afa158015611bfb573d6000803e3d6000fd5b505050506040513d601f19601f82011682018060405250810190611c1f91906128d3565b611c6b5760405162461bcd60e51b815260206004820152601860248201527f596f7520646f6e2774206861766520616e7920746f6b656e00000000000000006044820152606401610751565b60008311611cbb5760405162461bcd60e51b815260206004820152601c60248201527f5072696365206d757374206265206174206c65617374203120776569000000006044820152606401610751565b6000826001600160401b031611611d0e5760405162461bcd60e51b8152602060048201526017602482015276596f752063616e27742073656c6c203020746f6b656e7360481b6044820152606401610751565b6000611d19600b5490565b9050611d29600b80546001019055565b60408051610100810182528281523360208083018281528385018981526001600160401b03808a1660608701818152608088019182524260a0890190815260c089018f8152600060e08b018181528d8252600c9099528b902099518a55955160018a0180546001600160a01b03929092166001600160a01b0319909216919091179055935160028901555160038801805492518416600160401b026001600160801b03199093169190931617179055516004850155516005840155516006909201805492151560ff199093169290921790915590517fc8c599d7b89c50312627212263226d393b020feea1ba2ae355b166b10a1ba77990611e499088908890889092835260208301919091526001600160401b0316604082015260600190565b60405180910390a2505060018055505050565b600e546040516303a24d0760e21b8152600060048201526060916001600160a01b031690630e89341c90602401600060405180830381865afa158015611ea6573d6000803e3d6000fd5b505050506040513d6000823e601f3d908101601f19168201604052611ece9190810190612ad0565b905090565b6000546001600160a01b03163314611efd5760405162461bcd60e51b8152600401610751906129ab565b6001600160a01b038116611f625760405162461bcd60e51b815260206004820152602660248201527f4f776e61626c653a206e6577206f776e657220697320746865207a65726f206160448201526564647265737360d01b6064820152608401610751565b611f6b816121c3565b50565b6002546001600160a01b03841660009081526004602052604081205490918391611f989086612a11565b611fa29190612b63565b611fac9190612a30565b90505b9392505050565b804710156120065760405162461bcd60e51b815260206004820152601d60248201527f416464726573733a20696e73756666696369656e742062616c616e63650000006044820152606401610751565b6000826001600160a01b03168260405160006040518083038185875af1925050503d8060008114612053576040519150601f19603f3d011682016040523d82523d6000602084013e612058565b606091505b50509050806120cf5760405162461bcd60e51b815260206004820152603a60248201527f416464726573733a20756e61626c6520746f2073656e642076616c75652c207260448201527f6563697069656e74206d617920686176652072657665727465640000000000006064820152608401610751565b505050565b600054600160a01b900460ff166121245760405162461bcd60e51b815260206004820152601460248201527314185d5cd8589b194e881b9bdd081c185d5cd95960621b6044820152606401610751565b6000805460ff60a01b191690557f5db9ee0a495bf2e6ff9c91a7834c1ba4fdd244a5e8aa4e537bd38aeae4b073aa335b6040516001600160a01b03909116815260200160405180910390a1565b604080516001600160a01b038416602482015260448082018490528251808303909101815260649091019091526020810180516001600160e01b031663a9059cbb60e01b1790526120cf908490612278565b600080546001600160a01b038381166001600160a01b0319831681178455604051919092169283917f8be0079c531659141344cd1fd0a4f28419497f9722a3daafe3b4186f6b6457e09190a35050565b600054600160a01b900460ff161561223d5760405162461bcd60e51b815260040161075190612a47565b6000805460ff60a01b1916600160a01b1790557f62e78cea01bee320cd4e420270b5ea74000d11b0c9f74754ebdbfc544b05a2586121543390565b60006122cd826040518060400160405280602081526020017f5361666545524332303a206c6f772d6c6576656c2063616c6c206661696c6564815250856001600160a01b031661234a9092919063ffffffff16565b8051909150156120cf57808060200190518101906122eb9190612b85565b6120cf5760405162461bcd60e51b815260206004820152602a60248201527f5361666545524332303a204552433230206f7065726174696f6e20646964206e6044820152691bdd081cdd58d8d9595960b21b6064820152608401610751565b6060611fac8484600085856001600160a01b0385163b6123ac5760405162461bcd60e51b815260206004820152601d60248201527f416464726573733a2063616c6c20746f206e6f6e2d636f6e74726163740000006044820152606401610751565b600080866001600160a01b031685876040516123c89190612ba7565b60006040518083038185875af1925050503d8060008114612405576040519150601f19603f3d011682016040523d82523d6000602084013e61240a565b606091505b509150915061241a828286612425565b979650505050505050565b60608315612434575081611faf565b8251156124445782518084602001fd5b8160405162461bcd60e51b815260040161075191906128a0565b6040518061010001604052806000815260200160006001600160a01b031681526020016000815260200160006001600160401b0316815260200160006001600160401b0316815260200160008152602001600081526020016000151581525090565b6001600160a01b0381168114611f6b57600080fd5b600080604083850312156124e857600080fd5b82356124f3816124c0565b946020939093013593505050565b60006020828403121561251357600080fd5b5035919050565b60006020828403121561252c57600080fd5b8135611faf816124c0565b6000806040838503121561254a57600080fd5b8235612555816124c0565b91506020830135612565816124c0565b809150509250929050565b6000806040838503121561258357600080fd5b50508035926020909101359150565b8051825260018060a01b0360208201511660208301526040810151604083015260608101516001600160401b038082166060850152806080840151166080850152505060a081015160a083015260c081015160c083015260e0810151151560e08301525050565b6020808252825182820181905260009190848201906040850190845b8181101561263c57612628838551612592565b928401926101009290920191600101612615565b50909695505050505050565b80356001600160401b038116811461265f57600080fd5b919050565b6000806040838503121561267757600080fd5b8235915061268760208401612648565b90509250929050565b61010081016107168284612592565b634e487b7160e01b600052604160045260246000fd5b604051601f8201601f191681016001600160401b03811182821017156126dd576126dd61269f565b604052919050565b60006001600160401b038211156126fe576126fe61269f565b5060051b60200190565b600082601f83011261271957600080fd5b8135602061272e612729836126e5565b6126b5565b82815260059290921b8401810191818101908684111561274d57600080fd5b8286015b8481101561276f5761276281612648565b8352918301918301612751565b509695505050505050565b60008060006060848603121561278f57600080fd5b83356001600160401b03808211156127a657600080fd5b818601915086601f8301126127ba57600080fd5b813560206127ca612729836126e5565b82815260059290921b8401810191818101908a8411156127e957600080fd5b948201945b83861015612807578535825294820194908201906127ee565b9750508701359250508082111561281d57600080fd5b5061282a86828701612708565b925050604084013590509250925092565b60008060006060848603121561285057600080fd5b833592506020840135915061286760408501612648565b90509250925092565b60005b8381101561288b578181015183820152602001612873565b8381111561289a576000848401525b50505050565b60208152600082518060208401526128bf816040850160208701612870565b601f01601f19169190910160400192915050565b6000602082840312156128e557600080fd5b5051919050565b60208082526026908201527f5061796d656e7453706c69747465723a206163636f756e7420686173206e6f2060408201526573686172657360d01b606082015260800190565b634e487b7160e01b600052601160045260246000fd5b6000821982111561295b5761295b612932565b500190565b6020808252602b908201527f5061796d656e7453706c69747465723a206163636f756e74206973206e6f742060408201526a191d59481c185e5b595b9d60aa1b606082015260800190565b6020808252818101527f4f776e61626c653a2063616c6c6572206973206e6f7420746865206f776e6572604082015260600190565b634e487b7160e01b600052603260045260246000fd5b6000600019821415612a0a57612a0a612932565b5060010190565b6000816000190483118215151615612a2b57612a2b612932565b500290565b600082821015612a4257612a42612932565b500390565b60208082526010908201526f14185d5cd8589b194e881c185d5cd95960821b604082015260600190565b6020808252601f908201527f5265656e7472616e637947756172643a207265656e7472616e742063616c6c00604082015260600190565b60006001600160401b0383811690831681811015612ac857612ac8612932565b039392505050565b600060208284031215612ae257600080fd5b81516001600160401b0380821115612af957600080fd5b818401915084601f830112612b0d57600080fd5b815181811115612b1f57612b1f61269f565b612b32601f8201601f19166020016126b5565b9150808252856020828501011115612b4957600080fd5b612b5a816020840160208601612870565b50949350505050565b600082612b8057634e487b7160e01b600052601260045260246000fd5b500490565b600060208284031215612b9757600080fd5b81518015158114611faf57600080fd5b60008251612bb9818460208701612870565b919091019291505056fea26469706673582212205cfc8c382c6cef311c1c797ce66f1d3a3d43e7d80bb880f5ddd44c168dcfaca664736f6c634300080a0033",
  "linkReferences": {},
  "deployedLinkReferences": {}
}