{
  "_format": "hh-sol-artifact-1",
  "contractName": "BaseContract",
  "sourceName": "contracts/Base1155.sol",
  "abi": [
    {
      "inputs": [
        {
          "internalType": "string",
          "name": "_contractURI",
          "type": "string"
        },
        {
          "internalType": "string",
          "name": "_name",
          "type": "string"
        },
        {
          "internalType": "address",
          "name": "_client",
          "type": "address"
        },
        {
          "internalType": "uint8",
          "name": "_royaltiesPercentage",
          "type": "uint8"
        },
        {
          "internalType": "address",
          "name": "_royaltiesRecipient",
          "type": "address"
        }
      ],
      "stateMutability": "nonpayable",
      "type": "constructor"
    },
    {
      "anonymous": false,
      "inputs": [
        {
          "indexed": true,
          "internalType": "address",
          "name": "account",
          "type": "address"
        },
        {
          "indexed": true,
          "internalType": "address",
          "name": "operator",
          "type": "address"
        },
        {
          "indexed": false,
          "internalType": "bool",
          "name": "approved",
          "type": "bool"
        }
      ],
      "name": "ApprovalForAll",
      "type": "event"
    },
    {
      "anonymous": false,
      "inputs": [
        {
          "indexed": true,
          "internalType": "bytes32",
          "name": "role",
          "type": "bytes32"
        },
        {
          "indexed": true,
          "internalType": "bytes32",
          "name": "previousAdminRole",
          "type": "bytes32"
        },
        {
          "indexed": true,
          "internalType": "bytes32",
          "name": "newAdminRole",
          "type": "bytes32"
        }
      ],
      "name": "RoleAdminChanged",
      "type": "event"
    },
    {
      "anonymous": false,
      "inputs": [
        {
          "indexed": true,
          "internalType": "bytes32",
          "name": "role",
          "type": "bytes32"
        },
        {
          "indexed": true,
          "internalType": "address",
          "name": "account",
          "type": "address"
        },
        {
          "indexed": true,
          "internalType": "address",
          "name": "sender",
          "type": "address"
        }
      ],
      "name": "RoleGranted",
      "type": "event"
    },
    {
      "anonymous": false,
      "inputs": [
        {
          "indexed": true,
          "internalType": "bytes32",
          "name": "role",
          "type": "bytes32"
        },
        {
          "indexed": true,
          "internalType": "address",
          "name": "account",
          "type": "address"
        },
        {
          "indexed": true,
          "internalType": "address",
          "name": "sender",
          "type": "address"
        }
      ],
      "name": "RoleRevoked",
      "type": "event"
    },
    {
      "anonymous": false,
      "inputs": [
        {
          "indexed": true,
          "internalType": "address",
          "name": "operator",
          "type": "address"
        },
        {
          "indexed": true,
          "internalType": "address",
          "name": "from",
          "type": "address"
        },
        {
          "indexed": true,
          "internalType": "address",
          "name": "to",
          "type": "address"
        },
        {
          "indexed": false,
          "internalType": "uint256[]",
          "name": "ids",
          "type": "uint256[]"
        },
        {
          "indexed": false,
          "internalType": "uint256[]",
          "name": "values",
          "type": "uint256[]"
        }
      ],
      "name": "TransferBatch",
      "type": "event"
    },
    {
      "anonymous": false,
      "inputs": [
        {
          "indexed": true,
          "internalType": "address",
          "name": "operator",
          "type": "address"
        },
        {
          "indexed": true,
          "internalType": "address",
          "name": "from",
          "type": "address"
        },
        {
          "indexed": true,
          "internalType": "address",
          "name": "to",
          "type": "address"
        },
        {
          "indexed": false,
          "internalType": "uint256",
          "name": "id",
          "type": "uint256"
        },
        {
          "indexed": false,
          "internalType": "uint256",
          "name": "value",
          "type": "uint256"
        }
      ],
      "name": "TransferSingle",
      "type": "event"
    },
    {
      "anonymous": false,
      "inputs": [
        {
          "indexed": false,
          "internalType": "string",
          "name": "value",
          "type": "string"
        },
        {
          "indexed": true,
          "internalType": "uint256",
          "name": "id",
          "type": "uint256"
        }
      ],
      "name": "URI",
      "type": "event"
    },
    {
      "inputs": [],
      "name": "DEFAULT_ADMIN_ROLE",
      "outputs": [
        {
          "internalType": "bytes32",
          "name": "",
          "type": "bytes32"
        }
      ],
      "stateMutability": "view",
      "type": "function"
    },
    {
      "inputs": [],
      "name": "OPERATOR",
      "outputs": [
        {
          "internalType": "bytes32",
          "name": "",
          "type": "bytes32"
        }
      ],
      "stateMutability": "view",
      "type": "function"
    },
    {
      "inputs": [
        {
          "internalType": "address",
          "name": "account",
          "type": "address"
        },
        {
          "internalType": "uint256",
          "name": "id",
          "type": "uint256"
        }
      ],
      "name": "balanceOf",
      "outputs": [
        {
          "internalType": "uint256",
          "name": "",
          "type": "uint256"
        }
      ],
      "stateMutability": "view",
      "type": "function"
    },
    {
      "inputs": [
        {
          "internalType": "address[]",
          "name": "accounts",
          "type": "address[]"
        },
        {
          "internalType": "uint256[]",
          "name": "ids",
          "type": "uint256[]"
        }
      ],
      "name": "balanceOfBatch",
      "outputs": [
        {
          "internalType": "uint256[]",
          "name": "",
          "type": "uint256[]"
        }
      ],
      "stateMutability": "view",
      "type": "function"
    },
    {
      "inputs": [
        {
          "internalType": "address",
          "name": "from",
          "type": "address"
        },
        {
          "internalType": "uint256",
          "name": "id",
          "type": "uint256"
        },
        {
          "internalType": "uint256",
          "name": "amount",
          "type": "uint256"
        }
      ],
      "name": "burn",
      "outputs": [],
      "stateMutability": "nonpayable",
      "type": "function"
    },
    {
      "inputs": [
        {
          "internalType": "address",
          "name": "from",
          "type": "address"
        },
        {
          "internalType": "uint256[]",
          "name": "ids",
          "type": "uint256[]"
        },
        {
          "internalType": "uint256[]",
          "name": "amounts",
          "type": "uint256[]"
        }
      ],
      "name": "burnBatch",
      "outputs": [],
      "stateMutability": "nonpayable",
      "type": "function"
    },
    {
      "inputs": [],
      "name": "currentTokenId",
      "outputs": [
        {
          "internalType": "uint256",
          "name": "",
          "type": "uint256"
        }
      ],
      "stateMutability": "view",
      "type": "function"
    },
    {
      "inputs": [
        {
          "internalType": "bytes32",
          "name": "role",
          "type": "bytes32"
        }
      ],
      "name": "getRoleAdmin",
      "outputs": [
        {
          "internalType": "bytes32",
          "name": "",
          "type": "bytes32"
        }
      ],
      "stateMutability": "view",
      "type": "function"
    },
    {
      "inputs": [
        {
          "internalType": "bytes32",
          "name": "role",
          "type": "bytes32"
        },
        {
          "internalType": "address",
          "name": "account",
          "type": "address"
        }
      ],
      "name": "grantRole",
      "outputs": [],
      "stateMutability": "nonpayable",
      "type": "function"
    },
    {
      "inputs": [
        {
          "internalType": "bytes32",
          "name": "role",
          "type": "bytes32"
        },
        {
          "internalType": "address",
          "name": "account",
          "type": "address"
        }
      ],
      "name": "hasRole",
      "outputs": [
        {
          "internalType": "bool",
          "name": "",
          "type": "bool"
        }
      ],
      "stateMutability": "view",
      "type": "function"
    },
    {
      "inputs": [
        {
          "internalType": "address",
          "name": "account",
          "type": "address"
        },
        {
          "internalType": "address",
          "name": "operator",
          "type": "address"
        }
      ],
      "name": "isApprovedForAll",
      "outputs": [
        {
          "internalType": "bool",
          "name": "",
          "type": "bool"
        }
      ],
      "stateMutability": "view",
      "type": "function"
    },
    {
      "inputs": [
        {
          "internalType": "address",
          "name": "to",
          "type": "address"
        },
        {
          "internalType": "uint256",
          "name": "amount",
          "type": "uint256"
        },
        {
          "internalType": "bytes",
          "name": "data",
          "type": "bytes"
        }
      ],
      "name": "mint",
      "outputs": [],
      "stateMutability": "nonpayable",
      "type": "function"
    },
    {
      "inputs": [
        {
          "internalType": "address",
          "name": "to",
          "type": "address"
        },
        {
          "internalType": "uint256[]",
          "name": "ids",
          "type": "uint256[]"
        },
        {
          "internalType": "uint256[]",
          "name": "amounts",
          "type": "uint256[]"
        },
        {
          "internalType": "bytes",
          "name": "data",
          "type": "bytes"
        }
      ],
      "name": "mintBatch",
      "outputs": [],
      "stateMutability": "nonpayable",
      "type": "function"
    },
    {
      "inputs": [],
      "name": "name",
      "outputs": [
        {
          "internalType": "string",
          "name": "",
          "type": "string"
        }
      ],
      "stateMutability": "view",
      "type": "function"
    },
    {
      "inputs": [
        {
          "internalType": "bytes32",
          "name": "role",
          "type": "bytes32"
        },
        {
          "internalType": "address",
          "name": "account",
          "type": "address"
        }
      ],
      "name": "renounceRole",
      "outputs": [],
      "stateMutability": "nonpayable",
      "type": "function"
    },
    {
      "inputs": [
        {
          "internalType": "bytes32",
          "name": "role",
          "type": "bytes32"
        },
        {
          "internalType": "address",
          "name": "account",
          "type": "address"
        }
      ],
      "name": "revokeRole",
      "outputs": [],
      "stateMutability": "nonpayable",
      "type": "function"
    },
    {
      "inputs": [
        {
          "internalType": "uint256",
          "name": "",
          "type": "uint256"
        },
        {
          "internalType": "uint256",
          "name": "_salePrice",
          "type": "uint256"
        }
      ],
      "name": "royaltyInfo",
      "outputs": [
        {
          "internalType": "address",
          "name": "receiver",
          "type": "address"
        },
        {
          "internalType": "uint256",
          "name": "royaltyAmount",
          "type": "uint256"
        }
      ],
      "stateMutability": "view",
      "type": "function"
    },
    {
      "inputs": [
        {
          "internalType": "address",
          "name": "from",
          "type": "address"
        },
        {
          "internalType": "address",
          "name": "to",
          "type": "address"
        },
        {
          "internalType": "uint256[]",
          "name": "ids",
          "type": "uint256[]"
        },
        {
          "internalType": "uint256[]",
          "name": "amounts",
          "type": "uint256[]"
        },
        {
          "internalType": "bytes",
          "name": "data",
          "type": "bytes"
        }
      ],
      "name": "safeBatchTransferFrom",
      "outputs": [],
      "stateMutability": "nonpayable",
      "type": "function"
    },
    {
      "inputs": [
        {
          "internalType": "address",
          "name": "from",
          "type": "address"
        },
        {
          "internalType": "address",
          "name": "to",
          "type": "address"
        },
        {
          "internalType": "uint256",
          "name": "id",
          "type": "uint256"
        },
        {
          "internalType": "uint256",
          "name": "amount",
          "type": "uint256"
        },
        {
          "internalType": "bytes",
          "name": "data",
          "type": "bytes"
        }
      ],
      "name": "safeTransferFrom",
      "outputs": [],
      "stateMutability": "nonpayable",
      "type": "function"
    },
    {
      "inputs": [
        {
          "internalType": "address",
          "name": "operator",
          "type": "address"
        },
        {
          "internalType": "bool",
          "name": "approved",
          "type": "bool"
        }
      ],
      "name": "setApprovalForAll",
      "outputs": [],
      "stateMutability": "nonpayable",
      "type": "function"
    },
    {
      "inputs": [
        {
          "internalType": "address",
          "name": "_newRecipient",
          "type": "address"
        }
      ],
      "name": "setRoyalties",
      "outputs": [],
      "stateMutability": "nonpayable",
      "type": "function"
    },
    {
      "inputs": [
        {
          "internalType": "string",
          "name": "newuri",
          "type": "string"
        }
      ],
      "name": "setURI",
      "outputs": [],
      "stateMutability": "nonpayable",
      "type": "function"
    },
    {
      "inputs": [
        {
          "internalType": "bytes4",
          "name": "interfaceId",
          "type": "bytes4"
        }
      ],
      "name": "supportsInterface",
      "outputs": [
        {
          "internalType": "bool",
          "name": "",
          "type": "bool"
        }
      ],
      "stateMutability": "view",
      "type": "function"
    },
    {
      "inputs": [
        {
          "internalType": "uint256",
          "name": "",
          "type": "uint256"
        }
      ],
      "name": "uri",
      "outputs": [
        {
          "internalType": "string",
          "name": "",
          "type": "string"
        }
      ],
      "stateMutability": "view",
      "type": "function"
    }
  ],
  "bytecode": "0x60806040523480156200001157600080fd5b5060405162002a8d38038062002a8d833981016040819052620000349162000334565b846200004081620000de565b50835162000056906005906020870190620001a4565b506200007260008051602062002a6d83398151915284620000f7565b600680546001600160a01b0319166001600160a01b038316179055620000a860008051602062002a6d83398151915233620000f7565b620000b5600033620000f7565b506006805460ff909216600160a01b0260ff60a01b19909216919091179055506200041a915050565b8051620000f3906002906020840190620001a4565b5050565b60008281526003602090815260408083206001600160a01b0385168452909152902054620000f3908390839060ff16620000f35760008281526003602090815260408083206001600160a01b03851684529091529020805460ff19166001179055620001603390565b6001600160a01b0316816001600160a01b0316837f2f8788117e7eff1d82e926ec794901d17c78024a50270940304540a733656f0d60405160405180910390a45050565b828054620001b290620003dd565b90600052602060002090601f016020900481019282620001d6576000855562000221565b82601f10620001f157805160ff191683800117855562000221565b8280016001018555821562000221579182015b828111156200022157825182559160200191906001019062000204565b506200022f92915062000233565b5090565b5b808211156200022f576000815560010162000234565b634e487b7160e01b600052604160045260246000fd5b600082601f8301126200027257600080fd5b81516001600160401b03808211156200028f576200028f6200024a565b604051601f8301601f19908116603f01168101908282118183101715620002ba57620002ba6200024a565b81604052838152602092508683858801011115620002d757600080fd5b600091505b83821015620002fb5785820183015181830184015290820190620002dc565b838211156200030d5760008385830101525b9695505050505050565b80516001600160a01b03811681146200032f57600080fd5b919050565b600080600080600060a086880312156200034d57600080fd5b85516001600160401b03808211156200036557600080fd5b6200037389838a0162000260565b965060208801519150808211156200038a57600080fd5b50620003998882890162000260565b945050620003aa6040870162000317565b9250606086015160ff81168114620003c157600080fd5b9150620003d16080870162000317565b90509295509295909350565b600181811c90821680620003f257607f821691505b602082108114156200041457634e487b7160e01b600052602260045260246000fd5b50919050565b612643806200042a6000396000f3fe608060405234801561001057600080fd5b50600436106101565760003560e01c806336568abe116100c3578063a217fddf1161007c578063a217fddf1461030b578063a22cb46514610313578063d547741f14610326578063e985e9c514610339578063f242432a14610375578063f5298aca1461038857600080fd5b806336568abe1461028a5780634e1273f41461029d5780636b20c454146102bd57806391d14854146102d057806394d008ef146102e3578063983d2737146102f657600080fd5b80631f7fdffa116101155780631f7fdffa146101e9578063248a9ca3146101fc5780632a55205a1461021f5780632a9e63c6146102515780632eb2c2d6146102645780632f2ff15d1461027757600080fd5b80629a9b7b1461015b578062fdd58e1461017657806301ffc9a71461018957806302fe5305146101ac57806306fdde03146101c15780630e89341c146101d6575b600080fd5b61016361039b565b6040519081526020015b60405180910390f35b6101636101843660046119ee565b6103ab565b61019c610197366004611a31565b610442565b604051901515815260200161016d565b6101bf6101ba366004611aed565b61046d565b005b6101c9610493565b60405161016d9190611b95565b6101c96101e4366004611ba8565b610521565b6101bf6101f7366004611c75565b6105b5565b61016361020a366004611ba8565b60009081526003602052604090206001015490565b61023261022d366004611d0d565b6105e1565b604080516001600160a01b03909316835260208301919091520161016d565b6101bf61025f366004611d2f565b61062c565b6101bf610272366004611d4a565b610641565b6101bf610285366004611df3565b6106d1565b6101bf610298366004611df3565b6106fc565b6102b06102ab366004611e1f565b610776565b60405161016d9190611f24565b6101bf6102cb366004611f37565b61089f565b61019c6102de366004611df3565b6108bc565b6101bf6102f1366004611faa565b6108e7565b6101636000805160206125ee83398151915281565b610163600081565b6101bf610321366004611ff6565b610927565b6101bf610334366004611df3565b610932565b61019c610347366004612032565b6001600160a01b03918216600090815260016020908152604080832093909416825291909152205460ff1690565b6101bf61038336600461205c565b610958565b6101bf6103963660046120c0565b6109df565b60006103a660045490565b905090565b60006001600160a01b03831661041c5760405162461bcd60e51b815260206004820152602b60248201527f455243313135353a2062616c616e636520717565727920666f7220746865207a60448201526a65726f206164647265737360a81b60648201526084015b60405180910390fd5b506000908152602081815260408083206001600160a01b03949094168352929052205490565b60006001600160e01b0319821663152a902d60e11b1480610467575061046782610a9c565b92915050565b6000805160206125ee8339815191526104868133610ac1565b61048f82610b25565b5050565b600580546104a0906120f3565b80601f01602080910402602001604051908101604052809291908181526020018280546104cc906120f3565b80156105195780601f106104ee57610100808354040283529160200191610519565b820191906000526020600020905b8154815290600101906020018083116104fc57829003601f168201915b505050505081565b606060028054610530906120f3565b80601f016020809104026020016040519081016040528092919081815260200182805461055c906120f3565b80156105a95780601f1061057e576101008083540402835291602001916105a9565b820191906000526020600020905b81548152906001019060200180831161058c57829003601f168201915b50505050509050919050565b6000805160206125ee8339815191526105ce8133610ac1565b6105da85858585610b38565b5050505050565b60065460009081906001600160a01b038116906127109061060c90600160a01b900460ff1686612144565b610617906064612144565b6106219190612163565b915091509250929050565b60006106388133610ac1565b61048f82610c83565b6001600160a01b03851633148061065d575061065d8533610347565b6106c45760405162461bcd60e51b815260206004820152603260248201527f455243313135353a207472616e736665722063616c6c6572206973206e6f74206044820152711bdddb995c881b9bdc88185c1c1c9bdd995960721b6064820152608401610413565b6105da8585858585610d10565b6000828152600360205260409020600101546106ed8133610ac1565b6106f78383610eac565b505050565b6001600160a01b038116331461076c5760405162461bcd60e51b815260206004820152602f60248201527f416363657373436f6e74726f6c3a2063616e206f6e6c792072656e6f756e636560448201526e103937b632b9903337b91039b2b63360891b6064820152608401610413565b61048f8282610f32565b606081518351146107db5760405162461bcd60e51b815260206004820152602960248201527f455243313135353a206163636f756e747320616e6420696473206c656e677468604482015268040dad2e6dac2e8c6d60bb1b6064820152608401610413565b600083516001600160401b038111156107f6576107f6611a4e565b60405190808252806020026020018201604052801561081f578160200160208202803683370190505b50905060005b84518110156108975761086a85828151811061084357610843612185565b602002602001015185838151811061085d5761085d612185565b60200260200101516103ab565b82828151811061087c5761087c612185565b60209081029190910101526108908161219b565b9050610825565b509392505050565b60006108ab8133610ac1565b6108b6848484610f99565b50505050565b60009182526003602090815260408084206001600160a01b0393909316845291905290205460ff1690565b6000805160206125ee8339815191526109008133610ac1565b600061090b60045490565b905061091b600480546001019055565b6105da85828686611115565b61048f3383836111e5565b60008281526003602052604090206001015461094e8133610ac1565b6106f78383610f32565b6001600160a01b03851633148061097457506109748533610347565b6109d25760405162461bcd60e51b815260206004820152602960248201527f455243313135353a2063616c6c6572206973206e6f74206f776e6572206e6f7260448201526808185c1c1c9bdd995960ba1b6064820152608401610413565b6105da85858585856112c6565b604051627eeac760e11b8152336004820152602481018390528290309062fdd58e90604401602060405180830381865afa158015610a21573d6000803e3d6000fd5b505050506040513d601f19601f82011682018060405250810190610a4591906121b6565b610a915760405162461bcd60e51b815260206004820152601860248201527f596f7520646f6e2774206861766520616e7920746f6b656e00000000000000006044820152606401610413565b6108b68484846113e3565b60006001600160e01b03198216637965db0b60e01b14806104675750610467826114e5565b610acb82826108bc565b61048f57610ae3816001600160a01b03166014611535565b610aee836020611535565b604051602001610aff9291906121cf565b60408051601f198184030181529082905262461bcd60e51b825261041391600401611b95565b805161048f906002906020840190611939565b6001600160a01b038416610b5e5760405162461bcd60e51b815260040161041390612244565b8151835114610b7f5760405162461bcd60e51b815260040161041390612285565b3360005b8451811015610c1b57838181518110610b9e57610b9e612185565b6020026020010151600080878481518110610bbb57610bbb612185565b602002602001015181526020019081526020016000206000886001600160a01b03166001600160a01b031681526020019081526020016000206000828254610c0391906122cd565b90915550819050610c138161219b565b915050610b83565b50846001600160a01b031660006001600160a01b0316826001600160a01b03167f4a39dc06d4c0dbc64b70af90fd698a233a518aa5d07e595d983b8c0526c8f7fb8787604051610c6c9291906122e5565b60405180910390a46105da816000878787876116d7565b6001600160a01b038116610cee5760405162461bcd60e51b815260206004820152602c60248201527f526f79616c746965733a206e657720726563697069656e74206973207468652060448201526b7a65726f206164647265737360a01b6064820152608401610413565b600680546001600160a01b0319166001600160a01b0392909216919091179055565b8151835114610d315760405162461bcd60e51b815260040161041390612285565b6001600160a01b038416610d575760405162461bcd60e51b815260040161041390612313565b3360005b8451811015610e3e576000858281518110610d7857610d78612185565b602002602001015190506000858381518110610d9657610d96612185565b602090810291909101810151600084815280835260408082206001600160a01b038e168352909352919091205490915081811015610de65760405162461bcd60e51b815260040161041390612358565b6000838152602081815260408083206001600160a01b038e8116855292528083208585039055908b16825281208054849290610e239084906122cd565b9250508190555050505080610e379061219b565b9050610d5b565b50846001600160a01b0316866001600160a01b0316826001600160a01b03167f4a39dc06d4c0dbc64b70af90fd698a233a518aa5d07e595d983b8c0526c8f7fb8787604051610e8e9291906122e5565b60405180910390a4610ea48187878787876116d7565b505050505050565b610eb682826108bc565b61048f5760008281526003602090815260408083206001600160a01b03851684529091529020805460ff19166001179055610eee3390565b6001600160a01b0316816001600160a01b0316837f2f8788117e7eff1d82e926ec794901d17c78024a50270940304540a733656f0d60405160405180910390a45050565b610f3c82826108bc565b1561048f5760008281526003602090815260408083206001600160a01b0385168085529252808320805460ff1916905551339285917ff6391f5c32d9c69d2a47ea670b442974b53935d1edc7fd64eb21e047a839171b9190a45050565b6001600160a01b038316610fbf5760405162461bcd60e51b8152600401610413906123a2565b8051825114610fe05760405162461bcd60e51b815260040161041390612285565b604080516020810190915260009081905233905b83518110156110b657600084828151811061101157611011612185565b60200260200101519050600084838151811061102f5761102f612185565b602090810291909101810151600084815280835260408082206001600160a01b038c16835290935291909120549091508181101561107f5760405162461bcd60e51b8152600401610413906123e5565b6000928352602083815260408085206001600160a01b038b16865290915290922091039055806110ae8161219b565b915050610ff4565b5060006001600160a01b0316846001600160a01b0316826001600160a01b03167f4a39dc06d4c0dbc64b70af90fd698a233a518aa5d07e595d983b8c0526c8f7fb86866040516111079291906122e5565b60405180910390a450505050565b6001600160a01b03841661113b5760405162461bcd60e51b815260040161041390612244565b336111558160008761114c88611833565b6105da88611833565b6000848152602081815260408083206001600160a01b0389168452909152812080548592906111859084906122cd565b909155505060408051858152602081018590526001600160a01b0380881692600092918516917fc3d58168c5ae7397731d063d5bbf3d657854427343f4c083240f7aacaa2d0f62910160405180910390a46105da8160008787878761187e565b816001600160a01b0316836001600160a01b031614156112595760405162461bcd60e51b815260206004820152602960248201527f455243313135353a2073657474696e6720617070726f76616c20737461747573604482015268103337b91039b2b63360b91b6064820152608401610413565b6001600160a01b03838116600081815260016020908152604080832094871680845294825291829020805460ff191686151590811790915591519182527f17307eab39ab6107e8899845ad3d59bd9653f200f220920489ca2b5937696c31910160405180910390a3505050565b6001600160a01b0384166112ec5760405162461bcd60e51b815260040161041390612313565b336112fc81878761114c88611833565b6000848152602081815260408083206001600160a01b038a1684529091529020548381101561133d5760405162461bcd60e51b815260040161041390612358565b6000858152602081815260408083206001600160a01b038b811685529252808320878503905590881682528120805486929061137a9084906122cd565b909155505060408051868152602081018690526001600160a01b03808916928a821692918616917fc3d58168c5ae7397731d063d5bbf3d657854427343f4c083240f7aacaa2d0f62910160405180910390a46113da82888888888861187e565b50505050505050565b6001600160a01b0383166114095760405162461bcd60e51b8152600401610413906123a2565b336114398185600061141a87611833565b61142387611833565b5050604080516020810190915260009052505050565b6000838152602081815260408083206001600160a01b03881684529091529020548281101561147a5760405162461bcd60e51b8152600401610413906123e5565b6000848152602081815260408083206001600160a01b03898116808652918452828520888703905582518981529384018890529092908616917fc3d58168c5ae7397731d063d5bbf3d657854427343f4c083240f7aacaa2d0f62910160405180910390a45050505050565b60006001600160e01b03198216636cdb3d1360e11b148061151657506001600160e01b031982166303a24d0760e21b145b8061046757506301ffc9a760e01b6001600160e01b0319831614610467565b60606000611544836002612144565b61154f9060026122cd565b6001600160401b0381111561156657611566611a4e565b6040519080825280601f01601f191660200182016040528015611590576020820181803683370190505b509050600360fc1b816000815181106115ab576115ab612185565b60200101906001600160f81b031916908160001a905350600f60fb1b816001815181106115da576115da612185565b60200101906001600160f81b031916908160001a90535060006115fe846002612144565b6116099060016122cd565b90505b6001811115611681576f181899199a1a9b1b9c1cb0b131b232b360811b85600f166010811061163d5761163d612185565b1a60f81b82828151811061165357611653612185565b60200101906001600160f81b031916908160001a90535060049490941c9361167a81612429565b905061160c565b5083156116d05760405162461bcd60e51b815260206004820181905260248201527f537472696e67733a20686578206c656e67746820696e73756666696369656e746044820152606401610413565b9392505050565b6001600160a01b0384163b15610ea45760405163bc197c8160e01b81526001600160a01b0385169063bc197c819061171b9089908990889088908890600401612440565b6020604051808303816000875af1925050508015611756575060408051601f3d908101601f191682019092526117539181019061249e565b60015b611803576117626124bb565b806308c379a0141561179c57506117776124d7565b80611782575061179e565b8060405162461bcd60e51b81526004016104139190611b95565b505b60405162461bcd60e51b815260206004820152603460248201527f455243313135353a207472616e7366657220746f206e6f6e20455243313135356044820152732932b1b2b4bb32b91034b6b83632b6b2b73a32b960611b6064820152608401610413565b6001600160e01b0319811663bc197c8160e01b146113da5760405162461bcd60e51b815260040161041390612560565b6040805160018082528183019092526060916000919060208083019080368337019050509050828160008151811061186d5761186d612185565b602090810291909101015292915050565b6001600160a01b0384163b15610ea45760405163f23a6e6160e01b81526001600160a01b0385169063f23a6e61906118c290899089908890889088906004016125a8565b6020604051808303816000875af19250505080156118fd575060408051601f3d908101601f191682019092526118fa9181019061249e565b60015b611909576117626124bb565b6001600160e01b0319811663f23a6e6160e01b146113da5760405162461bcd60e51b815260040161041390612560565b828054611945906120f3565b90600052602060002090601f01602090048101928261196757600085556119ad565b82601f1061198057805160ff19168380011785556119ad565b828001600101855582156119ad579182015b828111156119ad578251825591602001919060010190611992565b506119b99291506119bd565b5090565b5b808211156119b957600081556001016119be565b80356001600160a01b03811681146119e957600080fd5b919050565b60008060408385031215611a0157600080fd5b611a0a836119d2565b946020939093013593505050565b6001600160e01b031981168114611a2e57600080fd5b50565b600060208284031215611a4357600080fd5b81356116d081611a18565b634e487b7160e01b600052604160045260246000fd5b601f8201601f191681016001600160401b0381118282101715611a8957611a89611a4e565b6040525050565b60006001600160401b03831115611aa957611aa9611a4e565b604051611ac0601f8501601f191660200182611a64565b809150838152848484011115611ad557600080fd5b83836020830137600060208583010152509392505050565b600060208284031215611aff57600080fd5b81356001600160401b03811115611b1557600080fd5b8201601f81018413611b2657600080fd5b611b3584823560208401611a90565b949350505050565b60005b83811015611b58578181015183820152602001611b40565b838111156108b65750506000910152565b60008151808452611b81816020860160208601611b3d565b601f01601f19169290920160200192915050565b6020815260006116d06020830184611b69565b600060208284031215611bba57600080fd5b5035919050565b60006001600160401b03821115611bda57611bda611a4e565b5060051b60200190565b600082601f830112611bf557600080fd5b81356020611c0282611bc1565b604051611c0f8282611a64565b83815260059390931b8501820192828101915086841115611c2f57600080fd5b8286015b84811015611c4a5780358352918301918301611c33565b509695505050505050565b600082601f830112611c6657600080fd5b6116d083833560208501611a90565b60008060008060808587031215611c8b57600080fd5b611c94856119d2565b935060208501356001600160401b0380821115611cb057600080fd5b611cbc88838901611be4565b94506040870135915080821115611cd257600080fd5b611cde88838901611be4565b93506060870135915080821115611cf457600080fd5b50611d0187828801611c55565b91505092959194509250565b60008060408385031215611d2057600080fd5b50508035926020909101359150565b600060208284031215611d4157600080fd5b6116d0826119d2565b600080600080600060a08688031215611d6257600080fd5b611d6b866119d2565b9450611d79602087016119d2565b935060408601356001600160401b0380821115611d9557600080fd5b611da189838a01611be4565b94506060880135915080821115611db757600080fd5b611dc389838a01611be4565b93506080880135915080821115611dd957600080fd5b50611de688828901611c55565b9150509295509295909350565b60008060408385031215611e0657600080fd5b82359150611e16602084016119d2565b90509250929050565b60008060408385031215611e3257600080fd5b82356001600160401b0380821115611e4957600080fd5b818501915085601f830112611e5d57600080fd5b81356020611e6a82611bc1565b604051611e778282611a64565b83815260059390931b8501820192828101915089841115611e9757600080fd5b948201945b83861015611ebc57611ead866119d2565b82529482019490820190611e9c565b96505086013592505080821115611ed257600080fd5b50611edf85828601611be4565b9150509250929050565b600081518084526020808501945080840160005b83811015611f1957815187529582019590820190600101611efd565b509495945050505050565b6020815260006116d06020830184611ee9565b600080600060608486031215611f4c57600080fd5b611f55846119d2565b925060208401356001600160401b0380821115611f7157600080fd5b611f7d87838801611be4565b93506040860135915080821115611f9357600080fd5b50611fa086828701611be4565b9150509250925092565b600080600060608486031215611fbf57600080fd5b611fc8846119d2565b92506020840135915060408401356001600160401b03811115611fea57600080fd5b611fa086828701611c55565b6000806040838503121561200957600080fd5b612012836119d2565b91506020830135801515811461202757600080fd5b809150509250929050565b6000806040838503121561204557600080fd5b61204e836119d2565b9150611e16602084016119d2565b600080600080600060a0868803121561207457600080fd5b61207d866119d2565b945061208b602087016119d2565b9350604086013592506060860135915060808601356001600160401b038111156120b457600080fd5b611de688828901611c55565b6000806000606084860312156120d557600080fd5b6120de846119d2565b95602085013595506040909401359392505050565b600181811c9082168061210757607f821691505b6020821081141561212857634e487b7160e01b600052602260045260246000fd5b50919050565b634e487b7160e01b600052601160045260246000fd5b600081600019048311821515161561215e5761215e61212e565b500290565b60008261218057634e487b7160e01b600052601260045260246000fd5b500490565b634e487b7160e01b600052603260045260246000fd5b60006000198214156121af576121af61212e565b5060010190565b6000602082840312156121c857600080fd5b5051919050565b7f416363657373436f6e74726f6c3a206163636f756e7420000000000000000000815260008351612207816017850160208801611b3d565b7001034b99036b4b9b9b4b733903937b6329607d1b6017918401918201528351612238816028840160208801611b3d565b01602801949350505050565b60208082526021908201527f455243313135353a206d696e7420746f20746865207a65726f206164647265736040820152607360f81b606082015260800190565b60208082526028908201527f455243313135353a2069647320616e6420616d6f756e7473206c656e677468206040820152670dad2e6dac2e8c6d60c31b606082015260800190565b600082198211156122e0576122e061212e565b500190565b6040815260006122f86040830185611ee9565b828103602084015261230a8185611ee9565b95945050505050565b60208082526025908201527f455243313135353a207472616e7366657220746f20746865207a65726f206164604082015264647265737360d81b606082015260800190565b6020808252602a908201527f455243313135353a20696e73756666696369656e742062616c616e636520666f60408201526939103a3930b739b332b960b11b606082015260800190565b60208082526023908201527f455243313135353a206275726e2066726f6d20746865207a65726f206164647260408201526265737360e81b606082015260800190565b60208082526024908201527f455243313135353a206275726e20616d6f756e7420657863656564732062616c604082015263616e636560e01b606082015260800190565b6000816124385761243861212e565b506000190190565b6001600160a01b0386811682528516602082015260a06040820181905260009061246c90830186611ee9565b828103606084015261247e8186611ee9565b905082810360808401526124928185611b69565b98975050505050505050565b6000602082840312156124b057600080fd5b81516116d081611a18565b600060033d11156124d45760046000803e5060005160e01c5b90565b600060443d10156124e55790565b6040516003193d81016004833e81513d6001600160401b03816024840111818411171561251457505050505090565b828501915081518181111561252c5750505050505090565b843d87010160208285010111156125465750505050505090565b61255560208286010187611a64565b509095945050505050565b60208082526028908201527f455243313135353a204552433131353552656365697665722072656a656374656040820152676420746f6b656e7360c01b606082015260800190565b6001600160a01b03868116825285166020820152604081018490526060810183905260a0608082018190526000906125e290830184611b69565b97965050505050505056fe523a704056dcd17bcf83bed8b68c59416dac1119be77755efe3bde0a64e46e0ca26469706673582212201ab2717957ccc03bea55770a567bc403ea15bbeec04df8bcb92d853768a8307a64736f6c634300080a0033523a704056dcd17bcf83bed8b68c59416dac1119be77755efe3bde0a64e46e0c",
  "linkReferences": {},
  "deployedLinkReferences": {}
}