{
	"data": {
		"bytecode": {
			"linkReferences": {},
			"object": "60806040523480156200001157600080fd5b5060405162004e1338038062004e13833981810160405281019062000037919062000436565b8462000049816200014360201b60201c565b50836005908051906020019062000062929190620002da565b50620000957f523a704056dcd17bcf83bed8b68c59416dac1119be77755efe3bde0a64e46e0c846200015f60201b60201c565b80600660006101000a81548173ffffffffffffffffffffffffffffffffffffffff021916908373ffffffffffffffffffffffffffffffffffffffff160217905550620001087f523a704056dcd17bcf83bed8b68c59416dac1119be77755efe3bde0a64e46e0c336200015f60201b60201c565b6200011d6000801b336200015f60201b60201c565b81600660146101000a81548160ff021916908360ff1602179055505050505050620006f5565b80600290805190602001906200015b929190620002da565b5050565b6200017182826200017560201b60201c565b5050565b6200018782826200026760201b60201c565b620002635760016003600084815260200190815260200160002060000160008373ffffffffffffffffffffffffffffffffffffffff1673ffffffffffffffffffffffffffffffffffffffff16815260200190815260200160002060006101000a81548160ff02191690831515021790555062000208620002d260201b60201c565b73ffffffffffffffffffffffffffffffffffffffff168173ffffffffffffffffffffffffffffffffffffffff16837f2f8788117e7eff1d82e926ec794901d17c78024a50270940304540a733656f0d60405160405180910390a45b5050565b60006003600084815260200190815260200160002060000160008373ffffffffffffffffffffffffffffffffffffffff1673ffffffffffffffffffffffffffffffffffffffff16815260200190815260200160002060009054906101000a900460ff16905092915050565b600033905090565b828054620002e890620005d2565b90600052602060002090601f0160209004810192826200030c576000855562000358565b82601f106200032757805160ff191683800117855562000358565b8280016001018555821562000358579182015b82811115620003575782518255916020019190600101906200033a565b5b5090506200036791906200036b565b5090565b5b80821115620003865760008160009055506001016200036c565b5090565b6000620003a16200039b8462000525565b620004fc565b905082815260208101848484011115620003c057620003bf620006a1565b5b620003cd8482856200059c565b509392505050565b600081519050620003e681620006c1565b92915050565b600082601f8301126200040457620004036200069c565b5b8151620004168482602086016200038a565b91505092915050565b6000815190506200043081620006db565b92915050565b600080600080600060a08688031215620004555762000454620006ab565b5b600086015167ffffffffffffffff811115620004765762000475620006a6565b5b6200048488828901620003ec565b955050602086015167ffffffffffffffff811115620004a857620004a7620006a6565b5b620004b688828901620003ec565b9450506040620004c988828901620003d5565b9350506060620004dc888289016200041f565b9250506080620004ef88828901620003d5565b9150509295509295909350565b6000620005086200051b565b905062000516828262000608565b919050565b6000604051905090565b600067ffffffffffffffff8211156200054357620005426200066d565b5b6200054e82620006b0565b9050602081019050919050565b600062000568826200056f565b9050919050565b600073ffffffffffffffffffffffffffffffffffffffff82169050919050565b600060ff82169050919050565b60005b83811015620005bc5780820151818401526020810190506200059f565b83811115620005cc576000848401525b50505050565b60006002820490506001821680620005eb57607f821691505b602082108114156200060257620006016200063e565b5b50919050565b6200061382620006b0565b810181811067ffffffffffffffff821117156200063557620006346200066d565b5b80604052505050565b7f4e487b7100000000000000000000000000000000000000000000000000000000600052602260045260246000fd5b7f4e487b7100000000000000000000000000000000000000000000000000000000600052604160045260246000fd5b600080fd5b600080fd5b600080fd5b600080fd5b6000601f19601f8301169050919050565b620006cc816200055b565b8114620006d857600080fd5b50565b620006e6816200058f565b8114620006f257600080fd5b50565b61470e80620007056000396000f3fe608060405234801561001057600080fd5b50600436106101565760003560e01c806336568abe116100c3578063a217fddf1161007c578063a217fddf146103e6578063a22cb46514610404578063d547741f14610420578063e985e9c51461043c578063f242432a1461046c578063f5298aca1461048857610156565b806336568abe146103145780634e1273f4146103305780636b20c4541461036057806391d148541461037c57806394d008ef146103ac578063983d2737146103c857610156565b80631f7fdffa116101155780631f7fdffa14610243578063248a9ca31461025f5780632a55205a1461028f5780632a9e63c6146102c05780632eb2c2d6146102dc5780632f2ff15d146102f857610156565b80629a9b7b1461015b578062fdd58e1461017957806301ffc9a7146101a957806302fe5305146101d957806306fdde03146101f55780630e89341c14610213575b600080fd5b6101636104a4565b6040516101709190613b30565b60405180910390f35b610193600480360381019061018e9190613019565b6104b5565b6040516101a09190613b30565b60405180910390f35b6101c360048036038101906101be9190613200565b61057e565b6040516101d091906138b8565b60405180910390f35b6101f360048036038101906101ee919061325a565b6105f8565b005b6101fd610637565b60405161020a91906138ee565b60405180910390f35b61022d600480360381019061022891906132a3565b6106c5565b60405161023a91906138ee565b60405180910390f35b61025d60048036038101906102589190612f1e565b610759565b005b61027960048036038101906102749190613193565b61079e565b60405161028691906138d3565b60405180910390f35b6102a960048036038101906102a491906132fd565b6107be565b6040516102b7929190613836565b60405180910390f35b6102da60048036038101906102d59190612cc0565b610826565b005b6102f660048036038101906102f19190612d2d565b610848565b005b610312600480360381019061030d91906131c0565b6108e9565b005b61032e600480360381019061032991906131c0565b610912565b005b61034a6004803603810190610345919061311b565b610995565b604051610357919061385f565b60405180910390f35b61037a60048036038101906103759190612e93565b610aae565b005b610396600480360381019061039191906131c0565b610ad4565b6040516103a391906138b8565b60405180910390f35b6103c660048036038101906103c19190613059565b610b3f565b005b6103d0610b9c565b6040516103dd91906138d3565b60405180910390f35b6103ee610bc0565b6040516103fb91906138d3565b60405180910390f35b61041e60048036038101906104199190612fd9565b610bc7565b005b61043a600480360381019061043591906131c0565b610bdd565b005b61045660048036038101906104519190612ced565b610c06565b60405161046391906138b8565b60405180910390f35b61048660048036038101906104819190612dfc565b610c9a565b005b6104a2600480360381019061049d91906130c8565b610d3b565b005b60006104b06004610e1a565b905090565b60008073ffffffffffffffffffffffffffffffffffffffff168373ffffffffffffffffffffffffffffffffffffffff161415610526576040517f08c379a000000000000000000000000000000000000000000000000000000000815260040161051d90613970565b60405180910390fd5b60008083815260200190815260200160002060008473ffffffffffffffffffffffffffffffffffffffff1673ffffffffffffffffffffffffffffffffffffffff16815260200190815260200160002054905092915050565b60007f2a55205a000000000000000000000000000000000000000000000000000000007bffffffffffffffffffffffffffffffffffffffffffffffffffffffff1916827bffffffffffffffffffffffffffffffffffffffffffffffffffffffff191614806105f157506105f082610e28565b5b9050919050565b7f523a704056dcd17bcf83bed8b68c59416dac1119be77755efe3bde0a64e46e0c61062a81610625610ea2565b610eaa565b61063382610f47565b5050565b6005805461064490613e9a565b80601f016020809104026020016040519081016040528092919081815260200182805461067090613e9a565b80156106bd5780601f10610692576101008083540402835291602001916106bd565b820191906000526020600020905b8154815290600101906020018083116106a057829003601f168201915b505050505081565b6060600280546106d490613e9a565b80601f016020809104026020016040519081016040528092919081815260200182805461070090613e9a565b801561074d5780601f106107225761010080835404028352916020019161074d565b820191906000526020600020905b81548152906001019060200180831161073057829003601f168201915b50505050509050919050565b7f523a704056dcd17bcf83bed8b68c59416dac1119be77755efe3bde0a64e46e0c61078b81610786610ea2565b610eaa565b61079785858585610f61565b5050505050565b600060036000838152602001908152602001600020600101549050919050565b600080600660009054906101000a900473ffffffffffffffffffffffffffffffffffffffff166127106064600660149054906101000a900460ff1660ff16866108079190613d56565b6108119190613d56565b61081b9190613d25565b915091509250929050565b6000801b61083b81610836610ea2565b610eaa565b6108448261117f565b5050565b610850610ea2565b73ffffffffffffffffffffffffffffffffffffffff168573ffffffffffffffffffffffffffffffffffffffff161480610896575061089585610890610ea2565b610c06565b5b6108d5576040517f08c379a00000000000000000000000000000000000000000000000000000000081526004016108cc906139f0565b60405180910390fd5b6108e28585858585611233565b5050505050565b6108f28261079e565b610903816108fe610ea2565b610eaa565b61090d8383611547565b505050565b61091a610ea2565b73ffffffffffffffffffffffffffffffffffffffff168173ffffffffffffffffffffffffffffffffffffffff1614610987576040517f08c379a000000000000000000000000000000000000000000000000000000000815260040161097e90613b10565b60405180910390fd5b6109918282611628565b5050565b606081518351146109db576040517f08c379a00000000000000000000000000000000000000000000000000000000081526004016109d290613ab0565b60405180910390fd5b6000835167ffffffffffffffff8111156109f8576109f7614002565b5b604051908082528060200260200182016040528015610a265781602001602082028036833780820191505090505b50905060005b8451811015610aa357610a73858281518110610a4b57610a4a613fd3565b5b6020026020010151858381518110610a6657610a65613fd3565b5b60200260200101516104b5565b828281518110610a8657610a85613fd3565b5b60200260200101818152505080610a9c90613efd565b9050610a2c565b508091505092915050565b6000801b610ac381610abe610ea2565b610eaa565b610ace84848461170a565b50505050565b60006003600084815260200190815260200160002060000160008373ffffffffffffffffffffffffffffffffffffffff1673ffffffffffffffffffffffffffffffffffffffff16815260200190815260200160002060009054906101000a900460ff16905092915050565b7f523a704056dcd17bcf83bed8b68c59416dac1119be77755efe3bde0a64e46e0c610b7181610b6c610ea2565b610eaa565b6000610b7d6004610e1a565b9050610b8960046119bb565b610b95858286866119d1565b5050505050565b7f523a704056dcd17bcf83bed8b68c59416dac1119be77755efe3bde0a64e46e0c81565b6000801b81565b610bd9610bd2610ea2565b8383611b67565b5050565b610be68261079e565b610bf781610bf2610ea2565b610eaa565b610c018383611628565b505050565b6000600160008473ffffffffffffffffffffffffffffffffffffffff1673ffffffffffffffffffffffffffffffffffffffff16815260200190815260200160002060008373ffffffffffffffffffffffffffffffffffffffff1673ffffffffffffffffffffffffffffffffffffffff16815260200190815260200160002060009054906101000a900460ff16905092915050565b610ca2610ea2565b73ffffffffffffffffffffffffffffffffffffffff168573ffffffffffffffffffffffffffffffffffffffff161480610ce85750610ce785610ce2610ea2565b610c06565b5b610d27576040517f08c379a0000000000000000000000000000000000000000000000000000000008152600401610d1e906139b0565b60405180910390fd5b610d348585858585611cd4565b5050505050565b8160003073ffffffffffffffffffffffffffffffffffffffff1662fdd58e33846040518363ffffffff1660e01b8152600401610d78929190613836565b60206040518083038186803b158015610d9057600080fd5b505afa158015610da4573d6000803e3d6000fd5b505050506040513d601f19601f82011682018060405250810190610dc891906132d0565b1415610e09576040517f08c379a0000000000000000000000000000000000000000000000000000000008152600401610e0090613a70565b60405180910390fd5b610e14848484611f56565b50505050565b600081600001549050919050565b60007f7965db0b000000000000000000000000000000000000000000000000000000007bffffffffffffffffffffffffffffffffffffffffffffffffffffffff1916827bffffffffffffffffffffffffffffffffffffffffffffffffffffffff19161480610e9b5750610e9a82612173565b5b9050919050565b600033905090565b610eb48282610ad4565b610f4357610ed98173ffffffffffffffffffffffffffffffffffffffff166014612255565b610ee78360001c6020612255565b604051602001610ef892919061373a565b6040516020818303038152906040526040517f08c379a0000000000000000000000000000000000000000000000000000000008152600401610f3a91906138ee565b60405180910390fd5b5050565b8060029080519060200190610f5d92919061296e565b5050565b600073ffffffffffffffffffffffffffffffffffffffff168473ffffffffffffffffffffffffffffffffffffffff161415610fd1576040517f08c379a0000000000000000000000000000000000000000000000000000000008152600401610fc890613af0565b60405180910390fd5b8151835114611015576040517f08c379a000000000000000000000000000000000000000000000000000000000815260040161100c90613ad0565b60405180910390fd5b600061101f610ea2565b905061103081600087878787612491565b60005b84518110156110e95783818151811061104f5761104e613fd3565b5b602002602001015160008087848151811061106d5761106c613fd3565b5b6020026020010151815260200190815260200160002060008873ffffffffffffffffffffffffffffffffffffffff1673ffffffffffffffffffffffffffffffffffffffff16815260200190815260200160002060008282546110cf9190613ccf565b9250508190555080806110e190613efd565b915050611033565b508473ffffffffffffffffffffffffffffffffffffffff16600073ffffffffffffffffffffffffffffffffffffffff168273ffffffffffffffffffffffffffffffffffffffff167f4a39dc06d4c0dbc64b70af90fd698a233a518aa5d07e595d983b8c0526c8f7fb8787604051611161929190613881565b60405180910390a461117881600087878787612499565b5050505050565b600073ffffffffffffffffffffffffffffffffffffffff168173ffffffffffffffffffffffffffffffffffffffff1614156111ef576040517f08c379a00000000000000000000000000000000000000000000000000000000081526004016111e690613a50565b60405180910390fd5b80600660006101000a81548173ffffffffffffffffffffffffffffffffffffffff021916908373ffffffffffffffffffffffffffffffffffffffff16021790555050565b8151835114611277576040517f08c379a000000000000000000000000000000000000000000000000000000000815260040161126e90613ad0565b60405180910390fd5b600073ffffffffffffffffffffffffffffffffffffffff168473ffffffffffffffffffffffffffffffffffffffff1614156112e7576040517f08c379a00000000000000000000000000000000000000000000000000000000081526004016112de906139d0565b60405180910390fd5b60006112f1610ea2565b9050611301818787878787612491565b60005b84518110156114b257600085828151811061132257611321613fd3565b5b60200260200101519050600085838151811061134157611340613fd3565b5b60200260200101519050600080600084815260200190815260200160002060008b73ffffffffffffffffffffffffffffffffffffffff1673ffffffffffffffffffffffffffffffffffffffff168152602001908152602001600020549050818110156113e2576040517f08c379a00000000000000000000000000000000000000000000000000000000081526004016113d990613a30565b60405180910390fd5b81810360008085815260200190815260200160002060008c73ffffffffffffffffffffffffffffffffffffffff1673ffffffffffffffffffffffffffffffffffffffff168152602001908152602001600020819055508160008085815260200190815260200160002060008b73ffffffffffffffffffffffffffffffffffffffff1673ffffffffffffffffffffffffffffffffffffffff16815260200190815260200160002060008282546114979190613ccf565b92505081905550505050806114ab90613efd565b9050611304565b508473ffffffffffffffffffffffffffffffffffffffff168673ffffffffffffffffffffffffffffffffffffffff168273ffffffffffffffffffffffffffffffffffffffff167f4a39dc06d4c0dbc64b70af90fd698a233a518aa5d07e595d983b8c0526c8f7fb8787604051611529929190613881565b60405180910390a461153f818787878787612499565b505050505050565b6115518282610ad4565b6116245760016003600084815260200190815260200160002060000160008373ffffffffffffffffffffffffffffffffffffffff1673ffffffffffffffffffffffffffffffffffffffff16815260200190815260200160002060006101000a81548160ff0219169083151502179055506115c9610ea2565b73ffffffffffffffffffffffffffffffffffffffff168173ffffffffffffffffffffffffffffffffffffffff16837f2f8788117e7eff1d82e926ec794901d17c78024a50270940304540a733656f0d60405160405180910390a45b5050565b6116328282610ad4565b156117065760006003600084815260200190815260200160002060000160008373ffffffffffffffffffffffffffffffffffffffff1673ffffffffffffffffffffffffffffffffffffffff16815260200190815260200160002060006101000a81548160ff0219169083151502179055506116ab610ea2565b73ffffffffffffffffffffffffffffffffffffffff168173ffffffffffffffffffffffffffffffffffffffff16837ff6391f5c32d9c69d2a47ea670b442974b53935d1edc7fd64eb21e047a839171b60405160405180910390a45b5050565b600073ffffffffffffffffffffffffffffffffffffffff168373ffffffffffffffffffffffffffffffffffffffff16141561177a576040517f08c379a000000000000000000000000000000000000000000000000000000000815260040161177190613a10565b60405180910390fd5b80518251146117be576040517f08c379a00000000000000000000000000000000000000000000000000000000081526004016117b590613ad0565b60405180910390fd5b60006117c8610ea2565b90506117e881856000868660405180602001604052806000815250612491565b60005b835181101561193557600084828151811061180957611808613fd3565b5b60200260200101519050600084838151811061182857611827613fd3565b5b60200260200101519050600080600084815260200190815260200160002060008973ffffffffffffffffffffffffffffffffffffffff1673ffffffffffffffffffffffffffffffffffffffff168152602001908152602001600020549050818110156118c9576040517f08c379a00000000000000000000000000000000000000000000000000000000081526004016118c090613990565b60405180910390fd5b81810360008085815260200190815260200160002060008a73ffffffffffffffffffffffffffffffffffffffff1673ffffffffffffffffffffffffffffffffffffffff16815260200190815260200160002081905550505050808061192d90613efd565b9150506117eb565b50600073ffffffffffffffffffffffffffffffffffffffff168473ffffffffffffffffffffffffffffffffffffffff168273ffffffffffffffffffffffffffffffffffffffff167f4a39dc06d4c0dbc64b70af90fd698a233a518aa5d07e595d983b8c0526c8f7fb86866040516119ad929190613881565b60405180910390a450505050565b6001816000016000828254019250508190555050565b600073ffffffffffffffffffffffffffffffffffffffff168473ffffffffffffffffffffffffffffffffffffffff161415611a41576040517f08c379a0000000000000000000000000000000000000000000000000000000008152600401611a3890613af0565b60405180910390fd5b6000611a4b610ea2565b9050611a6c81600087611a5d88612680565b611a6688612680565b87612491565b8260008086815260200190815260200160002060008773ffffffffffffffffffffffffffffffffffffffff1673ffffffffffffffffffffffffffffffffffffffff1681526020019081526020016000206000828254611acb9190613ccf565b925050819055508473ffffffffffffffffffffffffffffffffffffffff16600073ffffffffffffffffffffffffffffffffffffffff168273ffffffffffffffffffffffffffffffffffffffff167fc3d58168c5ae7397731d063d5bbf3d657854427343f4c083240f7aacaa2d0f628787604051611b49929190613b4b565b60405180910390a4611b60816000878787876126fa565b5050505050565b8173ffffffffffffffffffffffffffffffffffffffff168373ffffffffffffffffffffffffffffffffffffffff161415611bd6576040517f08c379a0000000000000000000000000000000000000000000000000000000008152600401611bcd90613a90565b60405180910390fd5b80600160008573ffffffffffffffffffffffffffffffffffffffff1673ffffffffffffffffffffffffffffffffffffffff16815260200190815260200160002060008473ffffffffffffffffffffffffffffffffffffffff1673ffffffffffffffffffffffffffffffffffffffff16815260200190815260200160002060006101000a81548160ff0219169083151502179055508173ffffffffffffffffffffffffffffffffffffffff168373ffffffffffffffffffffffffffffffffffffffff167f17307eab39ab6107e8899845ad3d59bd9653f200f220920489ca2b5937696c3183604051611cc791906138b8565b60405180910390a3505050565b600073ffffffffffffffffffffffffffffffffffffffff168473ffffffffffffffffffffffffffffffffffffffff161415611d44576040517f08c379a0000000000000000000000000000000000000000000000000000000008152600401611d3b906139d0565b60405180910390fd5b6000611d4e610ea2565b9050611d6e818787611d5f88612680565b611d6888612680565b87612491565b600080600086815260200190815260200160002060008873ffffffffffffffffffffffffffffffffffffffff1673ffffffffffffffffffffffffffffffffffffffff16815260200190815260200160002054905083811015611e05576040517f08c379a0000000000000000000000000000000000000000000000000000000008152600401611dfc90613a30565b60405180910390fd5b83810360008087815260200190815260200160002060008973ffffffffffffffffffffffffffffffffffffffff1673ffffffffffffffffffffffffffffffffffffffff168152602001908152602001600020819055508360008087815260200190815260200160002060008873ffffffffffffffffffffffffffffffffffffffff1673ffffffffffffffffffffffffffffffffffffffff1681526020019081526020016000206000828254611eba9190613ccf565b925050819055508573ffffffffffffffffffffffffffffffffffffffff168773ffffffffffffffffffffffffffffffffffffffff168373ffffffffffffffffffffffffffffffffffffffff167fc3d58168c5ae7397731d063d5bbf3d657854427343f4c083240f7aacaa2d0f628888604051611f37929190613b4b565b60405180910390a4611f4d8288888888886126fa565b50505050505050565b600073ffffffffffffffffffffffffffffffffffffffff168373ffffffffffffffffffffffffffffffffffffffff161415611fc6576040517f08c379a0000000000000000000000000000000000000000000000000000000008152600401611fbd90613a10565b60405180910390fd5b6000611fd0610ea2565b905061200081856000611fe287612680565b611feb87612680565b60405180602001604052806000815250612491565b600080600085815260200190815260200160002060008673ffffffffffffffffffffffffffffffffffffffff1673ffffffffffffffffffffffffffffffffffffffff16815260200190815260200160002054905082811015612097576040517f08c379a000000000000000000000000000000000000000000000000000000000815260040161208e90613990565b60405180910390fd5b82810360008086815260200190815260200160002060008773ffffffffffffffffffffffffffffffffffffffff1673ffffffffffffffffffffffffffffffffffffffff16815260200190815260200160002081905550600073ffffffffffffffffffffffffffffffffffffffff168573ffffffffffffffffffffffffffffffffffffffff168373ffffffffffffffffffffffffffffffffffffffff167fc3d58168c5ae7397731d063d5bbf3d657854427343f4c083240f7aacaa2d0f628787604051612164929190613b4b565b60405180910390a45050505050565b60007fd9b67a26000000000000000000000000000000000000000000000000000000007bffffffffffffffffffffffffffffffffffffffffffffffffffffffff1916827bffffffffffffffffffffffffffffffffffffffffffffffffffffffff1916148061223e57507f0e89341c000000000000000000000000000000000000000000000000000000007bffffffffffffffffffffffffffffffffffffffffffffffffffffffff1916827bffffffffffffffffffffffffffffffffffffffffffffffffffffffff1916145b8061224e575061224d826128e1565b5b9050919050565b6060600060028360026122689190613d56565b6122729190613ccf565b67ffffffffffffffff81111561228b5761228a614002565b5b6040519080825280601f01601f1916602001820160405280156122bd5781602001600182028036833780820191505090505b5090507f3000000000000000000000000000000000000000000000000000000000000000816000815181106122f5576122f4613fd3565b5b60200101907effffffffffffffffffffffffffffffffffffffffffffffffffffffffffffff1916908160001a9053507f78000000000000000000000000000000000000000000000000000000000000008160018151811061235957612358613fd3565b5b60200101907effffffffffffffffffffffffffffffffffffffffffffffffffffffffffffff1916908160001a905350600060018460026123999190613d56565b6123a39190613ccf565b90505b6001811115612443577f3031323334353637383961626364656600000000000000000000000000000000600f8616601081106123e5576123e4613fd3565b5b1a60f81b8282815181106123fc576123fb613fd3565b5b60200101907effffffffffffffffffffffffffffffffffffffffffffffffffffffffffffff1916908160001a905350600485901c94508061243c90613e70565b90506123a6565b5060008414612487576040517f08c379a000000000000000000000000000000000000000000000000000000000815260040161247e90613930565b60405180910390fd5b8091505092915050565b505050505050565b6124b88473ffffffffffffffffffffffffffffffffffffffff1661294b565b15612678578373ffffffffffffffffffffffffffffffffffffffff1663bc197c8187878686866040518663ffffffff1660e01b81526004016124fe959493929190613774565b602060405180830381600087803b15801561251857600080fd5b505af192505050801561254957506040513d601f19601f82011682018060405250810190612546919061322d565b60015b6125ef57612555614031565b806308c379a014156125b2575061256a6145cf565b8061257557506125b4565b806040517f08c379a00000000000000000000000000000000000000000000000000000000081526004016125a991906138ee565b60405180910390fd5b505b6040517f08c379a00000000000000000000000000000000000000000000000000000000081526004016125e690613910565b60405180910390fd5b63bc197c8160e01b7bffffffffffffffffffffffffffffffffffffffffffffffffffffffff1916817bffffffffffffffffffffffffffffffffffffffffffffffffffffffff191614612676576040517f08c379a000000000000000000000000000000000000000000000000000000000815260040161266d90613950565b60405180910390fd5b505b505050505050565b60606000600167ffffffffffffffff81111561269f5761269e614002565b5b6040519080825280602002602001820160405280156126cd5781602001602082028036833780820191505090505b50905082816000815181106126e5576126e4613fd3565b5b60200260200101818152505080915050919050565b6127198473ffffffffffffffffffffffffffffffffffffffff1661294b565b156128d9578373ffffffffffffffffffffffffffffffffffffffff1663f23a6e6187878686866040518663ffffffff1660e01b815260040161275f9594939291906137dc565b602060405180830381600087803b15801561277957600080fd5b505af19250505080156127aa57506040513d601f19601f820116820180604052508101906127a7919061322d565b60015b612850576127b6614031565b806308c379a0141561281357506127cb6145cf565b806127d65750612815565b806040517f08c379a000000000000000000000000000000000000000000000000000000000815260040161280a91906138ee565b60405180910390fd5b505b6040517f08c379a000000000000000000000000000000000000000000000000000000000815260040161284790613910565b60405180910390fd5b63f23a6e6160e01b7bffffffffffffffffffffffffffffffffffffffffffffffffffffffff1916817bffffffffffffffffffffffffffffffffffffffffffffffffffffffff1916146128d7576040517f08c379a00000000000000000000000000000000000000000000000000000000081526004016128ce90613950565b60405180910390fd5b505b505050505050565b60007f01ffc9a7000000000000000000000000000000000000000000000000000000007bffffffffffffffffffffffffffffffffffffffffffffffffffffffff1916827bffffffffffffffffffffffffffffffffffffffffffffffffffffffff1916149050919050565b6000808273ffffffffffffffffffffffffffffffffffffffff163b119050919050565b82805461297a90613e9a565b90600052602060002090601f01602090048101928261299c57600085556129e3565b82601f106129b557805160ff19168380011785556129e3565b828001600101855582156129e3579182015b828111156129e25782518255916020019190600101906129c7565b5b5090506129f091906129f4565b5090565b5b80821115612a0d5760008160009055506001016129f5565b5090565b6000612a24612a1f84613b99565b613b74565b90508083825260208201905082856020860282011115612a4757612a46614058565b5b60005b85811015612a775781612a5d8882612b75565b845260208401935060208301925050600181019050612a4a565b5050509392505050565b6000612a94612a8f84613bc5565b613b74565b90508083825260208201905082856020860282011115612ab757612ab6614058565b5b60005b85811015612ae75781612acd8882612c96565b845260208401935060208301925050600181019050612aba565b5050509392505050565b6000612b04612aff84613bf1565b613b74565b905082815260208101848484011115612b2057612b1f61405d565b5b612b2b848285613e2e565b509392505050565b6000612b46612b4184613c22565b613b74565b905082815260208101848484011115612b6257612b6161405d565b5b612b6d848285613e2e565b509392505050565b600081359050612b8481614665565b92915050565b600082601f830112612b9f57612b9e614053565b5b8135612baf848260208601612a11565b91505092915050565b600082601f830112612bcd57612bcc614053565b5b8135612bdd848260208601612a81565b91505092915050565b600081359050612bf58161467c565b92915050565b600081359050612c0a81614693565b92915050565b600081359050612c1f816146aa565b92915050565b600081519050612c34816146aa565b92915050565b600082601f830112612c4f57612c4e614053565b5b8135612c5f848260208601612af1565b91505092915050565b600082601f830112612c7d57612c7c614053565b5b8135612c8d848260208601612b33565b91505092915050565b600081359050612ca5816146c1565b92915050565b600081519050612cba816146c1565b92915050565b600060208284031215612cd657612cd5614067565b5b6000612ce484828501612b75565b91505092915050565b60008060408385031215612d0457612d03614067565b5b6000612d1285828601612b75565b9250506020612d2385828601612b75565b9150509250929050565b600080600080600060a08688031215612d4957612d48614067565b5b6000612d5788828901612b75565b9550506020612d6888828901612b75565b945050604086013567ffffffffffffffff811115612d8957612d88614062565b5b612d9588828901612bb8565b935050606086013567ffffffffffffffff811115612db657612db5614062565b5b612dc288828901612bb8565b925050608086013567ffffffffffffffff811115612de357612de2614062565b5b612def88828901612c3a565b9150509295509295909350565b600080600080600060a08688031215612e1857612e17614067565b5b6000612e2688828901612b75565b9550506020612e3788828901612b75565b9450506040612e4888828901612c96565b9350506060612e5988828901612c96565b925050608086013567ffffffffffffffff811115612e7a57612e79614062565b5b612e8688828901612c3a565b9150509295509295909350565b600080600060608486031215612eac57612eab614067565b5b6000612eba86828701612b75565b935050602084013567ffffffffffffffff811115612edb57612eda614062565b5b612ee786828701612bb8565b925050604084013567ffffffffffffffff811115612f0857612f07614062565b5b612f1486828701612bb8565b9150509250925092565b60008060008060808587031215612f3857612f37614067565b5b6000612f4687828801612b75565b945050602085013567ffffffffffffffff811115612f6757612f66614062565b5b612f7387828801612bb8565b935050604085013567ffffffffffffffff811115612f9457612f93614062565b5b612fa087828801612bb8565b925050606085013567ffffffffffffffff811115612fc157612fc0614062565b5b612fcd87828801612c3a565b91505092959194509250565b60008060408385031215612ff057612fef614067565b5b6000612ffe85828601612b75565b925050602061300f85828601612be6565b9150509250929050565b600080604083850312156130305761302f614067565b5b600061303e85828601612b75565b925050602061304f85828601612c96565b9150509250929050565b60008060006060848603121561307257613071614067565b5b600061308086828701612b75565b935050602061309186828701612c96565b925050604084013567ffffffffffffffff8111156130b2576130b1614062565b5b6130be86828701612c3a565b9150509250925092565b6000806000606084860312156130e1576130e0614067565b5b60006130ef86828701612b75565b935050602061310086828701612c96565b925050604061311186828701612c96565b9150509250925092565b6000806040838503121561313257613131614067565b5b600083013567ffffffffffffffff8111156131505761314f614062565b5b61315c85828601612b8a565b925050602083013567ffffffffffffffff81111561317d5761317c614062565b5b61318985828601612bb8565b9150509250929050565b6000602082840312156131a9576131a8614067565b5b60006131b784828501612bfb565b91505092915050565b600080604083850312156131d7576131d6614067565b5b60006131e585828601612bfb565b92505060206131f685828601612b75565b9150509250929050565b60006020828403121561321657613215614067565b5b600061322484828501612c10565b91505092915050565b60006020828403121561324357613242614067565b5b600061325184828501612c25565b91505092915050565b6000602082840312156132705761326f614067565b5b600082013567ffffffffffffffff81111561328e5761328d614062565b5b61329a84828501612c68565b91505092915050565b6000602082840312156132b9576132b8614067565b5b60006132c784828501612c96565b91505092915050565b6000602082840312156132e6576132e5614067565b5b60006132f484828501612cab565b91505092915050565b6000806040838503121561331457613313614067565b5b600061332285828601612c96565b925050602061333385828601612c96565b9150509250929050565b6000613349838361371c565b60208301905092915050565b61335e81613db0565b82525050565b600061336f82613c63565b6133798185613c91565b935061338483613c53565b8060005b838110156133b557815161339c888261333d565b97506133a783613c84565b925050600181019050613388565b5085935050505092915050565b6133cb81613dc2565b82525050565b6133da81613dce565b82525050565b60006133eb82613c6e565b6133f58185613ca2565b9350613405818560208601613e3d565b61340e8161406c565b840191505092915050565b600061342482613c79565b61342e8185613cb3565b935061343e818560208601613e3d565b6134478161406c565b840191505092915050565b600061345d82613c79565b6134678185613cc4565b9350613477818560208601613e3d565b80840191505092915050565b6000613490603483613cb3565b915061349b8261408a565b604082019050919050565b60006134b3602083613cb3565b91506134be826140d9565b602082019050919050565b60006134d6602883613cb3565b91506134e182614102565b604082019050919050565b60006134f9602b83613cb3565b915061350482614151565b604082019050919050565b600061351c602483613cb3565b9150613527826141a0565b604082019050919050565b600061353f602983613cb3565b915061354a826141ef565b604082019050919050565b6000613562602583613cb3565b915061356d8261423e565b604082019050919050565b6000613585603283613cb3565b91506135908261428d565b604082019050919050565b60006135a8602383613cb3565b91506135b3826142dc565b604082019050919050565b60006135cb602a83613cb3565b91506135d68261432b565b604082019050919050565b60006135ee602c83613cb3565b91506135f98261437a565b604082019050919050565b6000613611601883613cb3565b915061361c826143c9565b602082019050919050565b6000613634601783613cc4565b915061363f826143f2565b601782019050919050565b6000613657602983613cb3565b91506136628261441b565b604082019050919050565b600061367a602983613cb3565b91506136858261446a565b604082019050919050565b600061369d602883613cb3565b91506136a8826144b9565b604082019050919050565b60006136c0602183613cb3565b91506136cb82614508565b604082019050919050565b60006136e3601183613cc4565b91506136ee82614557565b601182019050919050565b6000613706602f83613cb3565b915061371182614580565b604082019050919050565b61372581613e24565b82525050565b61373481613e24565b82525050565b600061374582613627565b91506137518285613452565b915061375c826136d6565b91506137688284613452565b91508190509392505050565b600060a0820190506137896000830188613355565b6137966020830187613355565b81810360408301526137a88186613364565b905081810360608301526137bc8185613364565b905081810360808301526137d081846133e0565b90509695505050505050565b600060a0820190506137f16000830188613355565b6137fe6020830187613355565b61380b604083018661372b565b613818606083018561372b565b818103608083015261382a81846133e0565b90509695505050505050565b600060408201905061384b6000830185613355565b613858602083018461372b565b9392505050565b600060208201905081810360008301526138798184613364565b905092915050565b6000604082019050818103600083015261389b8185613364565b905081810360208301526138af8184613364565b90509392505050565b60006020820190506138cd60008301846133c2565b92915050565b60006020820190506138e860008301846133d1565b92915050565b600060208201905081810360008301526139088184613419565b905092915050565b6000602082019050818103600083015261392981613483565b9050919050565b60006020820190508181036000830152613949816134a6565b9050919050565b60006020820190508181036000830152613969816134c9565b9050919050565b60006020820190508181036000830152613989816134ec565b9050919050565b600060208201905081810360008301526139a98161350f565b9050919050565b600060208201905081810360008301526139c981613532565b9050919050565b600060208201905081810360008301526139e981613555565b9050919050565b60006020820190508181036000830152613a0981613578565b9050919050565b60006020820190508181036000830152613a298161359b565b9050919050565b60006020820190508181036000830152613a49816135be565b9050919050565b60006020820190508181036000830152613a69816135e1565b9050919050565b60006020820190508181036000830152613a8981613604565b9050919050565b60006020820190508181036000830152613aa98161364a565b9050919050565b60006020820190508181036000830152613ac98161366d565b9050919050565b60006020820190508181036000830152613ae981613690565b9050919050565b60006020820190508181036000830152613b09816136b3565b9050919050565b60006020820190508181036000830152613b29816136f9565b9050919050565b6000602082019050613b45600083018461372b565b92915050565b6000604082019050613b60600083018561372b565b613b6d602083018461372b565b9392505050565b6000613b7e613b8f565b9050613b8a8282613ecc565b919050565b6000604051905090565b600067ffffffffffffffff821115613bb457613bb3614002565b5b602082029050602081019050919050565b600067ffffffffffffffff821115613be057613bdf614002565b5b602082029050602081019050919050565b600067ffffffffffffffff821115613c0c57613c0b614002565b5b613c158261406c565b9050602081019050919050565b600067ffffffffffffffff821115613c3d57613c3c614002565b5b613c468261406c565b9050602081019050919050565b6000819050602082019050919050565b600081519050919050565b600081519050919050565b600081519050919050565b6000602082019050919050565b600082825260208201905092915050565b600082825260208201905092915050565b600082825260208201905092915050565b600081905092915050565b6000613cda82613e24565b9150613ce583613e24565b9250827fffffffffffffffffffffffffffffffffffffffffffffffffffffffffffffffff03821115613d1a57613d19613f46565b5b828201905092915050565b6000613d3082613e24565b9150613d3b83613e24565b925082613d4b57613d4a613f75565b5b828204905092915050565b6000613d6182613e24565b9150613d6c83613e24565b9250817fffffffffffffffffffffffffffffffffffffffffffffffffffffffffffffffff0483118215151615613da557613da4613f46565b5b828202905092915050565b6000613dbb82613e04565b9050919050565b60008115159050919050565b6000819050919050565b60007fffffffff0000000000000000000000000000000000000000000000000000000082169050919050565b600073ffffffffffffffffffffffffffffffffffffffff82169050919050565b6000819050919050565b82818337600083830152505050565b60005b83811015613e5b578082015181840152602081019050613e40565b83811115613e6a576000848401525b50505050565b6000613e7b82613e24565b91506000821415613e8f57613e8e613f46565b5b600182039050919050565b60006002820490506001821680613eb257607f821691505b60208210811415613ec657613ec5613fa4565b5b50919050565b613ed58261406c565b810181811067ffffffffffffffff82111715613ef457613ef3614002565b5b80604052505050565b6000613f0882613e24565b91507fffffffffffffffffffffffffffffffffffffffffffffffffffffffffffffffff821415613f3b57613f3a613f46565b5b600182019050919050565b7f4e487b7100000000000000000000000000000000000000000000000000000000600052601160045260246000fd5b7f4e487b7100000000000000000000000000000000000000000000000000000000600052601260045260246000fd5b7f4e487b7100000000000000000000000000000000000000000000000000000000600052602260045260246000fd5b7f4e487b7100000000000000000000000000000000000000000000000000000000600052603260045260246000fd5b7f4e487b7100000000000000000000000000000000000000000000000000000000600052604160045260246000fd5b600060033d11156140505760046000803e61404d60005161407d565b90505b90565b600080fd5b600080fd5b600080fd5b600080fd5b600080fd5b6000601f19601f8301169050919050565b60008160e01c9050919050565b7f455243313135353a207472616e7366657220746f206e6f6e204552433131353560008201527f526563656976657220696d706c656d656e746572000000000000000000000000602082015250565b7f537472696e67733a20686578206c656e67746820696e73756666696369656e74600082015250565b7f455243313135353a204552433131353552656365697665722072656a6563746560008201527f6420746f6b656e73000000000000000000000000000000000000000000000000602082015250565b7f455243313135353a2062616c616e636520717565727920666f7220746865207a60008201527f65726f2061646472657373000000000000000000000000000000000000000000602082015250565b7f455243313135353a206275726e20616d6f756e7420657863656564732062616c60008201527f616e636500000000000000000000000000000000000000000000000000000000602082015250565b7f455243313135353a2063616c6c6572206973206e6f74206f776e6572206e6f7260008201527f20617070726f7665640000000000000000000000000000000000000000000000602082015250565b7f455243313135353a207472616e7366657220746f20746865207a65726f20616460008201527f6472657373000000000000000000000000000000000000000000000000000000602082015250565b7f455243313135353a207472616e736665722063616c6c6572206973206e6f742060008201527f6f776e6572206e6f7220617070726f7665640000000000000000000000000000602082015250565b7f455243313135353a206275726e2066726f6d20746865207a65726f206164647260008201527f6573730000000000000000000000000000000000000000000000000000000000602082015250565b7f455243313135353a20696e73756666696369656e742062616c616e636520666f60008201527f72207472616e7366657200000000000000000000000000000000000000000000602082015250565b7f526f79616c746965733a206e657720726563697069656e74206973207468652060008201527f7a65726f20616464726573730000000000000000000000000000000000000000602082015250565b7f596f7520646f6e2774206861766520616e7920746f6b656e0000000000000000600082015250565b7f416363657373436f6e74726f6c3a206163636f756e7420000000000000000000600082015250565b7f455243313135353a2073657474696e6720617070726f76616c2073746174757360008201527f20666f722073656c660000000000000000000000000000000000000000000000602082015250565b7f455243313135353a206163636f756e747320616e6420696473206c656e67746860008201527f206d69736d617463680000000000000000000000000000000000000000000000602082015250565b7f455243313135353a2069647320616e6420616d6f756e7473206c656e6774682060008201527f6d69736d61746368000000000000000000000000000000000000000000000000602082015250565b7f455243313135353a206d696e7420746f20746865207a65726f2061646472657360008201527f7300000000000000000000000000000000000000000000000000000000000000602082015250565b7f206973206d697373696e6720726f6c6520000000000000000000000000000000600082015250565b7f416363657373436f6e74726f6c3a2063616e206f6e6c792072656e6f756e636560008201527f20726f6c657320666f722073656c660000000000000000000000000000000000602082015250565b600060443d10156145df57614662565b6145e7613b8f565b60043d036004823e80513d602482011167ffffffffffffffff8211171561460f575050614662565b808201805167ffffffffffffffff81111561462d5750505050614662565b80602083010160043d03850181111561464a575050505050614662565b61465982602001850186613ecc565b82955050505050505b90565b61466e81613db0565b811461467957600080fd5b50565b61468581613dc2565b811461469057600080fd5b50565b61469c81613dce565b81146146a757600080fd5b50565b6146b381613dd8565b81146146be57600080fd5b50565b6146ca81613e24565b81146146d557600080fd5b5056fea26469706673582212208d17078dba51a0a42a26016a6a669220ab613976989b64f778904bba9b7e018464736f6c63430008070033",
			"opcodes": "PUSH1 0x80 PUSH1 0x40 MSTORE CALLVALUE DUP1 ISZERO PUSH3 0x11 JUMPI PUSH1 0x0 DUP1 REVERT JUMPDEST POP PUSH1 0x40 MLOAD PUSH3 0x4E13 CODESIZE SUB DUP1 PUSH3 0x4E13 DUP4 CODECOPY DUP2 DUP2 ADD PUSH1 0x40 MSTORE DUP2 ADD SWAP1 PUSH3 0x37 SWAP2 SWAP1 PUSH3 0x436 JUMP JUMPDEST DUP5 PUSH3 0x49 DUP2 PUSH3 0x143 PUSH1 0x20 SHL PUSH1 0x20 SHR JUMP JUMPDEST POP DUP4 PUSH1 0x5 SWAP1 DUP1 MLOAD SWAP1 PUSH1 0x20 ADD SWAP1 PUSH3 0x62 SWAP3 SWAP2 SWAP1 PUSH3 0x2DA JUMP JUMPDEST POP PUSH3 0x95 PUSH32 0x523A704056DCD17BCF83BED8B68C59416DAC1119BE77755EFE3BDE0A64E46E0C DUP5 PUSH3 0x15F PUSH1 0x20 SHL PUSH1 0x20 SHR JUMP JUMPDEST DUP1 PUSH1 0x6 PUSH1 0x0 PUSH2 0x100 EXP DUP2 SLOAD DUP2 PUSH20 0xFFFFFFFFFFFFFFFFFFFFFFFFFFFFFFFFFFFFFFFF MUL NOT AND SWAP1 DUP4 PUSH20 0xFFFFFFFFFFFFFFFFFFFFFFFFFFFFFFFFFFFFFFFF AND MUL OR SWAP1 SSTORE POP PUSH3 0x108 PUSH32 0x523A704056DCD17BCF83BED8B68C59416DAC1119BE77755EFE3BDE0A64E46E0C CALLER PUSH3 0x15F PUSH1 0x20 SHL PUSH1 0x20 SHR JUMP JUMPDEST PUSH3 0x11D PUSH1 0x0 DUP1 SHL CALLER PUSH3 0x15F PUSH1 0x20 SHL PUSH1 0x20 SHR JUMP JUMPDEST DUP2 PUSH1 0x6 PUSH1 0x14 PUSH2 0x100 EXP DUP2 SLOAD DUP2 PUSH1 0xFF MUL NOT AND SWAP1 DUP4 PUSH1 0xFF AND MUL OR SWAP1 SSTORE POP POP POP POP POP POP PUSH3 0x6F5 JUMP JUMPDEST DUP1 PUSH1 0x2 SWAP1 DUP1 MLOAD SWAP1 PUSH1 0x20 ADD SWAP1 PUSH3 0x15B SWAP3 SWAP2 SWAP1 PUSH3 0x2DA JUMP JUMPDEST POP POP JUMP JUMPDEST PUSH3 0x171 DUP3 DUP3 PUSH3 0x175 PUSH1 0x20 SHL PUSH1 0x20 SHR JUMP JUMPDEST POP POP JUMP JUMPDEST PUSH3 0x187 DUP3 DUP3 PUSH3 0x267 PUSH1 0x20 SHL PUSH1 0x20 SHR JUMP JUMPDEST PUSH3 0x263 JUMPI PUSH1 0x1 PUSH1 0x3 PUSH1 0x0 DUP5 DUP2 MSTORE PUSH1 0x20 ADD SWAP1 DUP2 MSTORE PUSH1 0x20 ADD PUSH1 0x0 KECCAK256 PUSH1 0x0 ADD PUSH1 0x0 DUP4 PUSH20 0xFFFFFFFFFFFFFFFFFFFFFFFFFFFFFFFFFFFFFFFF AND PUSH20 0xFFFFFFFFFFFFFFFFFFFFFFFFFFFFFFFFFFFFFFFF AND DUP2 MSTORE PUSH1 0x20 ADD SWAP1 DUP2 MSTORE PUSH1 0x20 ADD PUSH1 0x0 KECCAK256 PUSH1 0x0 PUSH2 0x100 EXP DUP2 SLOAD DUP2 PUSH1 0xFF MUL NOT AND SWAP1 DUP4 ISZERO ISZERO MUL OR SWAP1 SSTORE POP PUSH3 0x208 PUSH3 0x2D2 PUSH1 0x20 SHL PUSH1 0x20 SHR JUMP JUMPDEST PUSH20 0xFFFFFFFFFFFFFFFFFFFFFFFFFFFFFFFFFFFFFFFF AND DUP2 PUSH20 0xFFFFFFFFFFFFFFFFFFFFFFFFFFFFFFFFFFFFFFFF AND DUP4 PUSH32 0x2F8788117E7EFF1D82E926EC794901D17C78024A50270940304540A733656F0D PUSH1 0x40 MLOAD PUSH1 0x40 MLOAD DUP1 SWAP2 SUB SWAP1 LOG4 JUMPDEST POP POP JUMP JUMPDEST PUSH1 0x0 PUSH1 0x3 PUSH1 0x0 DUP5 DUP2 MSTORE PUSH1 0x20 ADD SWAP1 DUP2 MSTORE PUSH1 0x20 ADD PUSH1 0x0 KECCAK256 PUSH1 0x0 ADD PUSH1 0x0 DUP4 PUSH20 0xFFFFFFFFFFFFFFFFFFFFFFFFFFFFFFFFFFFFFFFF AND PUSH20 0xFFFFFFFFFFFFFFFFFFFFFFFFFFFFFFFFFFFFFFFF AND DUP2 MSTORE PUSH1 0x20 ADD SWAP1 DUP2 MSTORE PUSH1 0x20 ADD PUSH1 0x0 KECCAK256 PUSH1 0x0 SWAP1 SLOAD SWAP1 PUSH2 0x100 EXP SWAP1 DIV PUSH1 0xFF AND SWAP1 POP SWAP3 SWAP2 POP POP JUMP JUMPDEST PUSH1 0x0 CALLER SWAP1 POP SWAP1 JUMP JUMPDEST DUP3 DUP1 SLOAD PUSH3 0x2E8 SWAP1 PUSH3 0x5D2 JUMP JUMPDEST SWAP1 PUSH1 0x0 MSTORE PUSH1 0x20 PUSH1 0x0 KECCAK256 SWAP1 PUSH1 0x1F ADD PUSH1 0x20 SWAP1 DIV DUP2 ADD SWAP3 DUP3 PUSH3 0x30C JUMPI PUSH1 0x0 DUP6 SSTORE PUSH3 0x358 JUMP JUMPDEST DUP3 PUSH1 0x1F LT PUSH3 0x327 JUMPI DUP1 MLOAD PUSH1 0xFF NOT AND DUP4 DUP1 ADD OR DUP6 SSTORE PUSH3 0x358 JUMP JUMPDEST DUP3 DUP1 ADD PUSH1 0x1 ADD DUP6 SSTORE DUP3 ISZERO PUSH3 0x358 JUMPI SWAP2 DUP3 ADD JUMPDEST DUP3 DUP2 GT ISZERO PUSH3 0x357 JUMPI DUP3 MLOAD DUP3 SSTORE SWAP2 PUSH1 0x20 ADD SWAP2 SWAP1 PUSH1 0x1 ADD SWAP1 PUSH3 0x33A JUMP JUMPDEST JUMPDEST POP SWAP1 POP PUSH3 0x367 SWAP2 SWAP1 PUSH3 0x36B JUMP JUMPDEST POP SWAP1 JUMP JUMPDEST JUMPDEST DUP1 DUP3 GT ISZERO PUSH3 0x386 JUMPI PUSH1 0x0 DUP2 PUSH1 0x0 SWAP1 SSTORE POP PUSH1 0x1 ADD PUSH3 0x36C JUMP JUMPDEST POP SWAP1 JUMP JUMPDEST PUSH1 0x0 PUSH3 0x3A1 PUSH3 0x39B DUP5 PUSH3 0x525 JUMP JUMPDEST PUSH3 0x4FC JUMP JUMPDEST SWAP1 POP DUP3 DUP2 MSTORE PUSH1 0x20 DUP2 ADD DUP5 DUP5 DUP5 ADD GT ISZERO PUSH3 0x3C0 JUMPI PUSH3 0x3BF PUSH3 0x6A1 JUMP JUMPDEST JUMPDEST PUSH3 0x3CD DUP5 DUP3 DUP6 PUSH3 0x59C JUMP JUMPDEST POP SWAP4 SWAP3 POP POP POP JUMP JUMPDEST PUSH1 0x0 DUP2 MLOAD SWAP1 POP PUSH3 0x3E6 DUP2 PUSH3 0x6C1 JUMP JUMPDEST SWAP3 SWAP2 POP POP JUMP JUMPDEST PUSH1 0x0 DUP3 PUSH1 0x1F DUP4 ADD SLT PUSH3 0x404 JUMPI PUSH3 0x403 PUSH3 0x69C JUMP JUMPDEST JUMPDEST DUP2 MLOAD PUSH3 0x416 DUP5 DUP3 PUSH1 0x20 DUP7 ADD PUSH3 0x38A JUMP JUMPDEST SWAP2 POP POP SWAP3 SWAP2 POP POP JUMP JUMPDEST PUSH1 0x0 DUP2 MLOAD SWAP1 POP PUSH3 0x430 DUP2 PUSH3 0x6DB JUMP JUMPDEST SWAP3 SWAP2 POP POP JUMP JUMPDEST PUSH1 0x0 DUP1 PUSH1 0x0 DUP1 PUSH1 0x0 PUSH1 0xA0 DUP7 DUP9 SUB SLT ISZERO PUSH3 0x455 JUMPI PUSH3 0x454 PUSH3 0x6AB JUMP JUMPDEST JUMPDEST PUSH1 0x0 DUP7 ADD MLOAD PUSH8 0xFFFFFFFFFFFFFFFF DUP2 GT ISZERO PUSH3 0x476 JUMPI PUSH3 0x475 PUSH3 0x6A6 JUMP JUMPDEST JUMPDEST PUSH3 0x484 DUP9 DUP3 DUP10 ADD PUSH3 0x3EC JUMP JUMPDEST SWAP6 POP POP PUSH1 0x20 DUP7 ADD MLOAD PUSH8 0xFFFFFFFFFFFFFFFF DUP2 GT ISZERO PUSH3 0x4A8 JUMPI PUSH3 0x4A7 PUSH3 0x6A6 JUMP JUMPDEST JUMPDEST PUSH3 0x4B6 DUP9 DUP3 DUP10 ADD PUSH3 0x3EC JUMP JUMPDEST SWAP5 POP POP PUSH1 0x40 PUSH3 0x4C9 DUP9 DUP3 DUP10 ADD PUSH3 0x3D5 JUMP JUMPDEST SWAP4 POP POP PUSH1 0x60 PUSH3 0x4DC DUP9 DUP3 DUP10 ADD PUSH3 0x41F JUMP JUMPDEST SWAP3 POP POP PUSH1 0x80 PUSH3 0x4EF DUP9 DUP3 DUP10 ADD PUSH3 0x3D5 JUMP JUMPDEST SWAP2 POP POP SWAP3 SWAP6 POP SWAP3 SWAP6 SWAP1 SWAP4 POP JUMP JUMPDEST PUSH1 0x0 PUSH3 0x508 PUSH3 0x51B JUMP JUMPDEST SWAP1 POP PUSH3 0x516 DUP3 DUP3 PUSH3 0x608 JUMP JUMPDEST SWAP2 SWAP1 POP JUMP JUMPDEST PUSH1 0x0 PUSH1 0x40 MLOAD SWAP1 POP SWAP1 JUMP JUMPDEST PUSH1 0x0 PUSH8 0xFFFFFFFFFFFFFFFF DUP3 GT ISZERO PUSH3 0x543 JUMPI PUSH3 0x542 PUSH3 0x66D JUMP JUMPDEST JUMPDEST PUSH3 0x54E DUP3 PUSH3 0x6B0 JUMP JUMPDEST SWAP1 POP PUSH1 0x20 DUP2 ADD SWAP1 POP SWAP2 SWAP1 POP JUMP JUMPDEST PUSH1 0x0 PUSH3 0x568 DUP3 PUSH3 0x56F JUMP JUMPDEST SWAP1 POP SWAP2 SWAP1 POP JUMP JUMPDEST PUSH1 0x0 PUSH20 0xFFFFFFFFFFFFFFFFFFFFFFFFFFFFFFFFFFFFFFFF DUP3 AND SWAP1 POP SWAP2 SWAP1 POP JUMP JUMPDEST PUSH1 0x0 PUSH1 0xFF DUP3 AND SWAP1 POP SWAP2 SWAP1 POP JUMP JUMPDEST PUSH1 0x0 JUMPDEST DUP4 DUP2 LT ISZERO PUSH3 0x5BC JUMPI DUP1 DUP3 ADD MLOAD DUP2 DUP5 ADD MSTORE PUSH1 0x20 DUP2 ADD SWAP1 POP PUSH3 0x59F JUMP JUMPDEST DUP4 DUP2 GT ISZERO PUSH3 0x5CC JUMPI PUSH1 0x0 DUP5 DUP5 ADD MSTORE JUMPDEST POP POP POP POP JUMP JUMPDEST PUSH1 0x0 PUSH1 0x2 DUP3 DIV SWAP1 POP PUSH1 0x1 DUP3 AND DUP1 PUSH3 0x5EB JUMPI PUSH1 0x7F DUP3 AND SWAP2 POP JUMPDEST PUSH1 0x20 DUP3 LT DUP2 EQ ISZERO PUSH3 0x602 JUMPI PUSH3 0x601 PUSH3 0x63E JUMP JUMPDEST JUMPDEST POP SWAP2 SWAP1 POP JUMP JUMPDEST PUSH3 0x613 DUP3 PUSH3 0x6B0 JUMP JUMPDEST DUP2 ADD DUP2 DUP2 LT PUSH8 0xFFFFFFFFFFFFFFFF DUP3 GT OR ISZERO PUSH3 0x635 JUMPI PUSH3 0x634 PUSH3 0x66D JUMP JUMPDEST JUMPDEST DUP1 PUSH1 0x40 MSTORE POP POP POP JUMP JUMPDEST PUSH32 0x4E487B7100000000000000000000000000000000000000000000000000000000 PUSH1 0x0 MSTORE PUSH1 0x22 PUSH1 0x4 MSTORE PUSH1 0x24 PUSH1 0x0 REVERT JUMPDEST PUSH32 0x4E487B7100000000000000000000000000000000000000000000000000000000 PUSH1 0x0 MSTORE PUSH1 0x41 PUSH1 0x4 MSTORE PUSH1 0x24 PUSH1 0x0 REVERT JUMPDEST PUSH1 0x0 DUP1 REVERT JUMPDEST PUSH1 0x0 DUP1 REVERT JUMPDEST PUSH1 0x0 DUP1 REVERT JUMPDEST PUSH1 0x0 DUP1 REVERT JUMPDEST PUSH1 0x0 PUSH1 0x1F NOT PUSH1 0x1F DUP4 ADD AND SWAP1 POP SWAP2 SWAP1 POP JUMP JUMPDEST PUSH3 0x6CC DUP2 PUSH3 0x55B JUMP JUMPDEST DUP2 EQ PUSH3 0x6D8 JUMPI PUSH1 0x0 DUP1 REVERT JUMPDEST POP JUMP JUMPDEST PUSH3 0x6E6 DUP2 PUSH3 0x58F JUMP JUMPDEST DUP2 EQ PUSH3 0x6F2 JUMPI PUSH1 0x0 DUP1 REVERT JUMPDEST POP JUMP JUMPDEST PUSH2 0x470E DUP1 PUSH3 0x705 PUSH1 0x0 CODECOPY PUSH1 0x0 RETURN INVALID PUSH1 0x80 PUSH1 0x40 MSTORE CALLVALUE DUP1 ISZERO PUSH2 0x10 JUMPI PUSH1 0x0 DUP1 REVERT JUMPDEST POP PUSH1 0x4 CALLDATASIZE LT PUSH2 0x156 JUMPI PUSH1 0x0 CALLDATALOAD PUSH1 0xE0 SHR DUP1 PUSH4 0x36568ABE GT PUSH2 0xC3 JUMPI DUP1 PUSH4 0xA217FDDF GT PUSH2 0x7C JUMPI DUP1 PUSH4 0xA217FDDF EQ PUSH2 0x3E6 JUMPI DUP1 PUSH4 0xA22CB465 EQ PUSH2 0x404 JUMPI DUP1 PUSH4 0xD547741F EQ PUSH2 0x420 JUMPI DUP1 PUSH4 0xE985E9C5 EQ PUSH2 0x43C JUMPI DUP1 PUSH4 0xF242432A EQ PUSH2 0x46C JUMPI DUP1 PUSH4 0xF5298ACA EQ PUSH2 0x488 JUMPI PUSH2 0x156 JUMP JUMPDEST DUP1 PUSH4 0x36568ABE EQ PUSH2 0x314 JUMPI DUP1 PUSH4 0x4E1273F4 EQ PUSH2 0x330 JUMPI DUP1 PUSH4 0x6B20C454 EQ PUSH2 0x360 JUMPI DUP1 PUSH4 0x91D14854 EQ PUSH2 0x37C JUMPI DUP1 PUSH4 0x94D008EF EQ PUSH2 0x3AC JUMPI DUP1 PUSH4 0x983D2737 EQ PUSH2 0x3C8 JUMPI PUSH2 0x156 JUMP JUMPDEST DUP1 PUSH4 0x1F7FDFFA GT PUSH2 0x115 JUMPI DUP1 PUSH4 0x1F7FDFFA EQ PUSH2 0x243 JUMPI DUP1 PUSH4 0x248A9CA3 EQ PUSH2 0x25F JUMPI DUP1 PUSH4 0x2A55205A EQ PUSH2 0x28F JUMPI DUP1 PUSH4 0x2A9E63C6 EQ PUSH2 0x2C0 JUMPI DUP1 PUSH4 0x2EB2C2D6 EQ PUSH2 0x2DC JUMPI DUP1 PUSH4 0x2F2FF15D EQ PUSH2 0x2F8 JUMPI PUSH2 0x156 JUMP JUMPDEST DUP1 PUSH3 0x9A9B7B EQ PUSH2 0x15B JUMPI DUP1 PUSH3 0xFDD58E EQ PUSH2 0x179 JUMPI DUP1 PUSH4 0x1FFC9A7 EQ PUSH2 0x1A9 JUMPI DUP1 PUSH4 0x2FE5305 EQ PUSH2 0x1D9 JUMPI DUP1 PUSH4 0x6FDDE03 EQ PUSH2 0x1F5 JUMPI DUP1 PUSH4 0xE89341C EQ PUSH2 0x213 JUMPI JUMPDEST PUSH1 0x0 DUP1 REVERT JUMPDEST PUSH2 0x163 PUSH2 0x4A4 JUMP JUMPDEST PUSH1 0x40 MLOAD PUSH2 0x170 SWAP2 SWAP1 PUSH2 0x3B30 JUMP JUMPDEST PUSH1 0x40 MLOAD DUP1 SWAP2 SUB SWAP1 RETURN JUMPDEST PUSH2 0x193 PUSH1 0x4 DUP1 CALLDATASIZE SUB DUP2 ADD SWAP1 PUSH2 0x18E SWAP2 SWAP1 PUSH2 0x3019 JUMP JUMPDEST PUSH2 0x4B5 JUMP JUMPDEST PUSH1 0x40 MLOAD PUSH2 0x1A0 SWAP2 SWAP1 PUSH2 0x3B30 JUMP JUMPDEST PUSH1 0x40 MLOAD DUP1 SWAP2 SUB SWAP1 RETURN JUMPDEST PUSH2 0x1C3 PUSH1 0x4 DUP1 CALLDATASIZE SUB DUP2 ADD SWAP1 PUSH2 0x1BE SWAP2 SWAP1 PUSH2 0x3200 JUMP JUMPDEST PUSH2 0x57E JUMP JUMPDEST PUSH1 0x40 MLOAD PUSH2 0x1D0 SWAP2 SWAP1 PUSH2 0x38B8 JUMP JUMPDEST PUSH1 0x40 MLOAD DUP1 SWAP2 SUB SWAP1 RETURN JUMPDEST PUSH2 0x1F3 PUSH1 0x4 DUP1 CALLDATASIZE SUB DUP2 ADD SWAP1 PUSH2 0x1EE SWAP2 SWAP1 PUSH2 0x325A JUMP JUMPDEST PUSH2 0x5F8 JUMP JUMPDEST STOP JUMPDEST PUSH2 0x1FD PUSH2 0x637 JUMP JUMPDEST PUSH1 0x40 MLOAD PUSH2 0x20A SWAP2 SWAP1 PUSH2 0x38EE JUMP JUMPDEST PUSH1 0x40 MLOAD DUP1 SWAP2 SUB SWAP1 RETURN JUMPDEST PUSH2 0x22D PUSH1 0x4 DUP1 CALLDATASIZE SUB DUP2 ADD SWAP1 PUSH2 0x228 SWAP2 SWAP1 PUSH2 0x32A3 JUMP JUMPDEST PUSH2 0x6C5 JUMP JUMPDEST PUSH1 0x40 MLOAD PUSH2 0x23A SWAP2 SWAP1 PUSH2 0x38EE JUMP JUMPDEST PUSH1 0x40 MLOAD DUP1 SWAP2 SUB SWAP1 RETURN JUMPDEST PUSH2 0x25D PUSH1 0x4 DUP1 CALLDATASIZE SUB DUP2 ADD SWAP1 PUSH2 0x258 SWAP2 SWAP1 PUSH2 0x2F1E JUMP JUMPDEST PUSH2 0x759 JUMP JUMPDEST STOP JUMPDEST PUSH2 0x279 PUSH1 0x4 DUP1 CALLDATASIZE SUB DUP2 ADD SWAP1 PUSH2 0x274 SWAP2 SWAP1 PUSH2 0x3193 JUMP JUMPDEST PUSH2 0x79E JUMP JUMPDEST PUSH1 0x40 MLOAD PUSH2 0x286 SWAP2 SWAP1 PUSH2 0x38D3 JUMP JUMPDEST PUSH1 0x40 MLOAD DUP1 SWAP2 SUB SWAP1 RETURN JUMPDEST PUSH2 0x2A9 PUSH1 0x4 DUP1 CALLDATASIZE SUB DUP2 ADD SWAP1 PUSH2 0x2A4 SWAP2 SWAP1 PUSH2 0x32FD JUMP JUMPDEST PUSH2 0x7BE JUMP JUMPDEST PUSH1 0x40 MLOAD PUSH2 0x2B7 SWAP3 SWAP2 SWAP1 PUSH2 0x3836 JUMP JUMPDEST PUSH1 0x40 MLOAD DUP1 SWAP2 SUB SWAP1 RETURN JUMPDEST PUSH2 0x2DA PUSH1 0x4 DUP1 CALLDATASIZE SUB DUP2 ADD SWAP1 PUSH2 0x2D5 SWAP2 SWAP1 PUSH2 0x2CC0 JUMP JUMPDEST PUSH2 0x826 JUMP JUMPDEST STOP JUMPDEST PUSH2 0x2F6 PUSH1 0x4 DUP1 CALLDATASIZE SUB DUP2 ADD SWAP1 PUSH2 0x2F1 SWAP2 SWAP1 PUSH2 0x2D2D JUMP JUMPDEST PUSH2 0x848 JUMP JUMPDEST STOP JUMPDEST PUSH2 0x312 PUSH1 0x4 DUP1 CALLDATASIZE SUB DUP2 ADD SWAP1 PUSH2 0x30D SWAP2 SWAP1 PUSH2 0x31C0 JUMP JUMPDEST PUSH2 0x8E9 JUMP JUMPDEST STOP JUMPDEST PUSH2 0x32E PUSH1 0x4 DUP1 CALLDATASIZE SUB DUP2 ADD SWAP1 PUSH2 0x329 SWAP2 SWAP1 PUSH2 0x31C0 JUMP JUMPDEST PUSH2 0x912 JUMP JUMPDEST STOP JUMPDEST PUSH2 0x34A PUSH1 0x4 DUP1 CALLDATASIZE SUB DUP2 ADD SWAP1 PUSH2 0x345 SWAP2 SWAP1 PUSH2 0x311B JUMP JUMPDEST PUSH2 0x995 JUMP JUMPDEST PUSH1 0x40 MLOAD PUSH2 0x357 SWAP2 SWAP1 PUSH2 0x385F JUMP JUMPDEST PUSH1 0x40 MLOAD DUP1 SWAP2 SUB SWAP1 RETURN JUMPDEST PUSH2 0x37A PUSH1 0x4 DUP1 CALLDATASIZE SUB DUP2 ADD SWAP1 PUSH2 0x375 SWAP2 SWAP1 PUSH2 0x2E93 JUMP JUMPDEST PUSH2 0xAAE JUMP JUMPDEST STOP JUMPDEST PUSH2 0x396 PUSH1 0x4 DUP1 CALLDATASIZE SUB DUP2 ADD SWAP1 PUSH2 0x391 SWAP2 SWAP1 PUSH2 0x31C0 JUMP JUMPDEST PUSH2 0xAD4 JUMP JUMPDEST PUSH1 0x40 MLOAD PUSH2 0x3A3 SWAP2 SWAP1 PUSH2 0x38B8 JUMP JUMPDEST PUSH1 0x40 MLOAD DUP1 SWAP2 SUB SWAP1 RETURN JUMPDEST PUSH2 0x3C6 PUSH1 0x4 DUP1 CALLDATASIZE SUB DUP2 ADD SWAP1 PUSH2 0x3C1 SWAP2 SWAP1 PUSH2 0x3059 JUMP JUMPDEST PUSH2 0xB3F JUMP JUMPDEST STOP JUMPDEST PUSH2 0x3D0 PUSH2 0xB9C JUMP JUMPDEST PUSH1 0x40 MLOAD PUSH2 0x3DD SWAP2 SWAP1 PUSH2 0x38D3 JUMP JUMPDEST PUSH1 0x40 MLOAD DUP1 SWAP2 SUB SWAP1 RETURN JUMPDEST PUSH2 0x3EE PUSH2 0xBC0 JUMP JUMPDEST PUSH1 0x40 MLOAD PUSH2 0x3FB SWAP2 SWAP1 PUSH2 0x38D3 JUMP JUMPDEST PUSH1 0x40 MLOAD DUP1 SWAP2 SUB SWAP1 RETURN JUMPDEST PUSH2 0x41E PUSH1 0x4 DUP1 CALLDATASIZE SUB DUP2 ADD SWAP1 PUSH2 0x419 SWAP2 SWAP1 PUSH2 0x2FD9 JUMP JUMPDEST PUSH2 0xBC7 JUMP JUMPDEST STOP JUMPDEST PUSH2 0x43A PUSH1 0x4 DUP1 CALLDATASIZE SUB DUP2 ADD SWAP1 PUSH2 0x435 SWAP2 SWAP1 PUSH2 0x31C0 JUMP JUMPDEST PUSH2 0xBDD JUMP JUMPDEST STOP JUMPDEST PUSH2 0x456 PUSH1 0x4 DUP1 CALLDATASIZE SUB DUP2 ADD SWAP1 PUSH2 0x451 SWAP2 SWAP1 PUSH2 0x2CED JUMP JUMPDEST PUSH2 0xC06 JUMP JUMPDEST PUSH1 0x40 MLOAD PUSH2 0x463 SWAP2 SWAP1 PUSH2 0x38B8 JUMP JUMPDEST PUSH1 0x40 MLOAD DUP1 SWAP2 SUB SWAP1 RETURN JUMPDEST PUSH2 0x486 PUSH1 0x4 DUP1 CALLDATASIZE SUB DUP2 ADD SWAP1 PUSH2 0x481 SWAP2 SWAP1 PUSH2 0x2DFC JUMP JUMPDEST PUSH2 0xC9A JUMP JUMPDEST STOP JUMPDEST PUSH2 0x4A2 PUSH1 0x4 DUP1 CALLDATASIZE SUB DUP2 ADD SWAP1 PUSH2 0x49D SWAP2 SWAP1 PUSH2 0x30C8 JUMP JUMPDEST PUSH2 0xD3B JUMP JUMPDEST STOP JUMPDEST PUSH1 0x0 PUSH2 0x4B0 PUSH1 0x4 PUSH2 0xE1A JUMP JUMPDEST SWAP1 POP SWAP1 JUMP JUMPDEST PUSH1 0x0 DUP1 PUSH20 0xFFFFFFFFFFFFFFFFFFFFFFFFFFFFFFFFFFFFFFFF AND DUP4 PUSH20 0xFFFFFFFFFFFFFFFFFFFFFFFFFFFFFFFFFFFFFFFF AND EQ ISZERO PUSH2 0x526 JUMPI PUSH1 0x40 MLOAD PUSH32 0x8C379A000000000000000000000000000000000000000000000000000000000 DUP2 MSTORE PUSH1 0x4 ADD PUSH2 0x51D SWAP1 PUSH2 0x3970 JUMP JUMPDEST PUSH1 0x40 MLOAD DUP1 SWAP2 SUB SWAP1 REVERT JUMPDEST PUSH1 0x0 DUP1 DUP4 DUP2 MSTORE PUSH1 0x20 ADD SWAP1 DUP2 MSTORE PUSH1 0x20 ADD PUSH1 0x0 KECCAK256 PUSH1 0x0 DUP5 PUSH20 0xFFFFFFFFFFFFFFFFFFFFFFFFFFFFFFFFFFFFFFFF AND PUSH20 0xFFFFFFFFFFFFFFFFFFFFFFFFFFFFFFFFFFFFFFFF AND DUP2 MSTORE PUSH1 0x20 ADD SWAP1 DUP2 MSTORE PUSH1 0x20 ADD PUSH1 0x0 KECCAK256 SLOAD SWAP1 POP SWAP3 SWAP2 POP POP JUMP JUMPDEST PUSH1 0x0 PUSH32 0x2A55205A00000000000000000000000000000000000000000000000000000000 PUSH28 0xFFFFFFFFFFFFFFFFFFFFFFFFFFFFFFFFFFFFFFFFFFFFFFFFFFFFFFFF NOT AND DUP3 PUSH28 0xFFFFFFFFFFFFFFFFFFFFFFFFFFFFFFFFFFFFFFFFFFFFFFFFFFFFFFFF NOT AND EQ DUP1 PUSH2 0x5F1 JUMPI POP PUSH2 0x5F0 DUP3 PUSH2 0xE28 JUMP JUMPDEST JUMPDEST SWAP1 POP SWAP2 SWAP1 POP JUMP JUMPDEST PUSH32 0x523A704056DCD17BCF83BED8B68C59416DAC1119BE77755EFE3BDE0A64E46E0C PUSH2 0x62A DUP2 PUSH2 0x625 PUSH2 0xEA2 JUMP JUMPDEST PUSH2 0xEAA JUMP JUMPDEST PUSH2 0x633 DUP3 PUSH2 0xF47 JUMP JUMPDEST POP POP JUMP JUMPDEST PUSH1 0x5 DUP1 SLOAD PUSH2 0x644 SWAP1 PUSH2 0x3E9A JUMP JUMPDEST DUP1 PUSH1 0x1F ADD PUSH1 0x20 DUP1 SWAP2 DIV MUL PUSH1 0x20 ADD PUSH1 0x40 MLOAD SWAP1 DUP2 ADD PUSH1 0x40 MSTORE DUP1 SWAP3 SWAP2 SWAP1 DUP2 DUP2 MSTORE PUSH1 0x20 ADD DUP3 DUP1 SLOAD PUSH2 0x670 SWAP1 PUSH2 0x3E9A JUMP JUMPDEST DUP1 ISZERO PUSH2 0x6BD JUMPI DUP1 PUSH1 0x1F LT PUSH2 0x692 JUMPI PUSH2 0x100 DUP1 DUP4 SLOAD DIV MUL DUP4 MSTORE SWAP2 PUSH1 0x20 ADD SWAP2 PUSH2 0x6BD JUMP JUMPDEST DUP3 ADD SWAP2 SWAP1 PUSH1 0x0 MSTORE PUSH1 0x20 PUSH1 0x0 KECCAK256 SWAP1 JUMPDEST DUP2 SLOAD DUP2 MSTORE SWAP1 PUSH1 0x1 ADD SWAP1 PUSH1 0x20 ADD DUP1 DUP4 GT PUSH2 0x6A0 JUMPI DUP3 SWAP1 SUB PUSH1 0x1F AND DUP3 ADD SWAP2 JUMPDEST POP POP POP POP POP DUP2 JUMP JUMPDEST PUSH1 0x60 PUSH1 0x2 DUP1 SLOAD PUSH2 0x6D4 SWAP1 PUSH2 0x3E9A JUMP JUMPDEST DUP1 PUSH1 0x1F ADD PUSH1 0x20 DUP1 SWAP2 DIV MUL PUSH1 0x20 ADD PUSH1 0x40 MLOAD SWAP1 DUP2 ADD PUSH1 0x40 MSTORE DUP1 SWAP3 SWAP2 SWAP1 DUP2 DUP2 MSTORE PUSH1 0x20 ADD DUP3 DUP1 SLOAD PUSH2 0x700 SWAP1 PUSH2 0x3E9A JUMP JUMPDEST DUP1 ISZERO PUSH2 0x74D JUMPI DUP1 PUSH1 0x1F LT PUSH2 0x722 JUMPI PUSH2 0x100 DUP1 DUP4 SLOAD DIV MUL DUP4 MSTORE SWAP2 PUSH1 0x20 ADD SWAP2 PUSH2 0x74D JUMP JUMPDEST DUP3 ADD SWAP2 SWAP1 PUSH1 0x0 MSTORE PUSH1 0x20 PUSH1 0x0 KECCAK256 SWAP1 JUMPDEST DUP2 SLOAD DUP2 MSTORE SWAP1 PUSH1 0x1 ADD SWAP1 PUSH1 0x20 ADD DUP1 DUP4 GT PUSH2 0x730 JUMPI DUP3 SWAP1 SUB PUSH1 0x1F AND DUP3 ADD SWAP2 JUMPDEST POP POP POP POP POP SWAP1 POP SWAP2 SWAP1 POP JUMP JUMPDEST PUSH32 0x523A704056DCD17BCF83BED8B68C59416DAC1119BE77755EFE3BDE0A64E46E0C PUSH2 0x78B DUP2 PUSH2 0x786 PUSH2 0xEA2 JUMP JUMPDEST PUSH2 0xEAA JUMP JUMPDEST PUSH2 0x797 DUP6 DUP6 DUP6 DUP6 PUSH2 0xF61 JUMP JUMPDEST POP POP POP POP POP JUMP JUMPDEST PUSH1 0x0 PUSH1 0x3 PUSH1 0x0 DUP4 DUP2 MSTORE PUSH1 0x20 ADD SWAP1 DUP2 MSTORE PUSH1 0x20 ADD PUSH1 0x0 KECCAK256 PUSH1 0x1 ADD SLOAD SWAP1 POP SWAP2 SWAP1 POP JUMP JUMPDEST PUSH1 0x0 DUP1 PUSH1 0x6 PUSH1 0x0 SWAP1 SLOAD SWAP1 PUSH2 0x100 EXP SWAP1 DIV PUSH20 0xFFFFFFFFFFFFFFFFFFFFFFFFFFFFFFFFFFFFFFFF AND PUSH2 0x2710 PUSH1 0x64 PUSH1 0x6 PUSH1 0x14 SWAP1 SLOAD SWAP1 PUSH2 0x100 EXP SWAP1 DIV PUSH1 0xFF AND PUSH1 0xFF AND DUP7 PUSH2 0x807 SWAP2 SWAP1 PUSH2 0x3D56 JUMP JUMPDEST PUSH2 0x811 SWAP2 SWAP1 PUSH2 0x3D56 JUMP JUMPDEST PUSH2 0x81B SWAP2 SWAP1 PUSH2 0x3D25 JUMP JUMPDEST SWAP2 POP SWAP2 POP SWAP3 POP SWAP3 SWAP1 POP JUMP JUMPDEST PUSH1 0x0 DUP1 SHL PUSH2 0x83B DUP2 PUSH2 0x836 PUSH2 0xEA2 JUMP JUMPDEST PUSH2 0xEAA JUMP JUMPDEST PUSH2 0x844 DUP3 PUSH2 0x117F JUMP JUMPDEST POP POP JUMP JUMPDEST PUSH2 0x850 PUSH2 0xEA2 JUMP JUMPDEST PUSH20 0xFFFFFFFFFFFFFFFFFFFFFFFFFFFFFFFFFFFFFFFF AND DUP6 PUSH20 0xFFFFFFFFFFFFFFFFFFFFFFFFFFFFFFFFFFFFFFFF AND EQ DUP1 PUSH2 0x896 JUMPI POP PUSH2 0x895 DUP6 PUSH2 0x890 PUSH2 0xEA2 JUMP JUMPDEST PUSH2 0xC06 JUMP JUMPDEST JUMPDEST PUSH2 0x8D5 JUMPI PUSH1 0x40 MLOAD PUSH32 0x8C379A000000000000000000000000000000000000000000000000000000000 DUP2 MSTORE PUSH1 0x4 ADD PUSH2 0x8CC SWAP1 PUSH2 0x39F0 JUMP JUMPDEST PUSH1 0x40 MLOAD DUP1 SWAP2 SUB SWAP1 REVERT JUMPDEST PUSH2 0x8E2 DUP6 DUP6 DUP6 DUP6 DUP6 PUSH2 0x1233 JUMP JUMPDEST POP POP POP POP POP JUMP JUMPDEST PUSH2 0x8F2 DUP3 PUSH2 0x79E JUMP JUMPDEST PUSH2 0x903 DUP2 PUSH2 0x8FE PUSH2 0xEA2 JUMP JUMPDEST PUSH2 0xEAA JUMP JUMPDEST PUSH2 0x90D DUP4 DUP4 PUSH2 0x1547 JUMP JUMPDEST POP POP POP JUMP JUMPDEST PUSH2 0x91A PUSH2 0xEA2 JUMP JUMPDEST PUSH20 0xFFFFFFFFFFFFFFFFFFFFFFFFFFFFFFFFFFFFFFFF AND DUP2 PUSH20 0xFFFFFFFFFFFFFFFFFFFFFFFFFFFFFFFFFFFFFFFF AND EQ PUSH2 0x987 JUMPI PUSH1 0x40 MLOAD PUSH32 0x8C379A000000000000000000000000000000000000000000000000000000000 DUP2 MSTORE PUSH1 0x4 ADD PUSH2 0x97E SWAP1 PUSH2 0x3B10 JUMP JUMPDEST PUSH1 0x40 MLOAD DUP1 SWAP2 SUB SWAP1 REVERT JUMPDEST PUSH2 0x991 DUP3 DUP3 PUSH2 0x1628 JUMP JUMPDEST POP POP JUMP JUMPDEST PUSH1 0x60 DUP2 MLOAD DUP4 MLOAD EQ PUSH2 0x9DB JUMPI PUSH1 0x40 MLOAD PUSH32 0x8C379A000000000000000000000000000000000000000000000000000000000 DUP2 MSTORE PUSH1 0x4 ADD PUSH2 0x9D2 SWAP1 PUSH2 0x3AB0 JUMP JUMPDEST PUSH1 0x40 MLOAD DUP1 SWAP2 SUB SWAP1 REVERT JUMPDEST PUSH1 0x0 DUP4 MLOAD PUSH8 0xFFFFFFFFFFFFFFFF DUP2 GT ISZERO PUSH2 0x9F8 JUMPI PUSH2 0x9F7 PUSH2 0x4002 JUMP JUMPDEST JUMPDEST PUSH1 0x40 MLOAD SWAP1 DUP1 DUP3 MSTORE DUP1 PUSH1 0x20 MUL PUSH1 0x20 ADD DUP3 ADD PUSH1 0x40 MSTORE DUP1 ISZERO PUSH2 0xA26 JUMPI DUP2 PUSH1 0x20 ADD PUSH1 0x20 DUP3 MUL DUP1 CALLDATASIZE DUP4 CALLDATACOPY DUP1 DUP3 ADD SWAP2 POP POP SWAP1 POP JUMPDEST POP SWAP1 POP PUSH1 0x0 JUMPDEST DUP5 MLOAD DUP2 LT ISZERO PUSH2 0xAA3 JUMPI PUSH2 0xA73 DUP6 DUP3 DUP2 MLOAD DUP2 LT PUSH2 0xA4B JUMPI PUSH2 0xA4A PUSH2 0x3FD3 JUMP JUMPDEST JUMPDEST PUSH1 0x20 MUL PUSH1 0x20 ADD ADD MLOAD DUP6 DUP4 DUP2 MLOAD DUP2 LT PUSH2 0xA66 JUMPI PUSH2 0xA65 PUSH2 0x3FD3 JUMP JUMPDEST JUMPDEST PUSH1 0x20 MUL PUSH1 0x20 ADD ADD MLOAD PUSH2 0x4B5 JUMP JUMPDEST DUP3 DUP3 DUP2 MLOAD DUP2 LT PUSH2 0xA86 JUMPI PUSH2 0xA85 PUSH2 0x3FD3 JUMP JUMPDEST JUMPDEST PUSH1 0x20 MUL PUSH1 0x20 ADD ADD DUP2 DUP2 MSTORE POP POP DUP1 PUSH2 0xA9C SWAP1 PUSH2 0x3EFD JUMP JUMPDEST SWAP1 POP PUSH2 0xA2C JUMP JUMPDEST POP DUP1 SWAP2 POP POP SWAP3 SWAP2 POP POP JUMP JUMPDEST PUSH1 0x0 DUP1 SHL PUSH2 0xAC3 DUP2 PUSH2 0xABE PUSH2 0xEA2 JUMP JUMPDEST PUSH2 0xEAA JUMP JUMPDEST PUSH2 0xACE DUP5 DUP5 DUP5 PUSH2 0x170A JUMP JUMPDEST POP POP POP POP JUMP JUMPDEST PUSH1 0x0 PUSH1 0x3 PUSH1 0x0 DUP5 DUP2 MSTORE PUSH1 0x20 ADD SWAP1 DUP2 MSTORE PUSH1 0x20 ADD PUSH1 0x0 KECCAK256 PUSH1 0x0 ADD PUSH1 0x0 DUP4 PUSH20 0xFFFFFFFFFFFFFFFFFFFFFFFFFFFFFFFFFFFFFFFF AND PUSH20 0xFFFFFFFFFFFFFFFFFFFFFFFFFFFFFFFFFFFFFFFF AND DUP2 MSTORE PUSH1 0x20 ADD SWAP1 DUP2 MSTORE PUSH1 0x20 ADD PUSH1 0x0 KECCAK256 PUSH1 0x0 SWAP1 SLOAD SWAP1 PUSH2 0x100 EXP SWAP1 DIV PUSH1 0xFF AND SWAP1 POP SWAP3 SWAP2 POP POP JUMP JUMPDEST PUSH32 0x523A704056DCD17BCF83BED8B68C59416DAC1119BE77755EFE3BDE0A64E46E0C PUSH2 0xB71 DUP2 PUSH2 0xB6C PUSH2 0xEA2 JUMP JUMPDEST PUSH2 0xEAA JUMP JUMPDEST PUSH1 0x0 PUSH2 0xB7D PUSH1 0x4 PUSH2 0xE1A JUMP JUMPDEST SWAP1 POP PUSH2 0xB89 PUSH1 0x4 PUSH2 0x19BB JUMP JUMPDEST PUSH2 0xB95 DUP6 DUP3 DUP7 DUP7 PUSH2 0x19D1 JUMP JUMPDEST POP POP POP POP POP JUMP JUMPDEST PUSH32 0x523A704056DCD17BCF83BED8B68C59416DAC1119BE77755EFE3BDE0A64E46E0C DUP2 JUMP JUMPDEST PUSH1 0x0 DUP1 SHL DUP2 JUMP JUMPDEST PUSH2 0xBD9 PUSH2 0xBD2 PUSH2 0xEA2 JUMP JUMPDEST DUP4 DUP4 PUSH2 0x1B67 JUMP JUMPDEST POP POP JUMP JUMPDEST PUSH2 0xBE6 DUP3 PUSH2 0x79E JUMP JUMPDEST PUSH2 0xBF7 DUP2 PUSH2 0xBF2 PUSH2 0xEA2 JUMP JUMPDEST PUSH2 0xEAA JUMP JUMPDEST PUSH2 0xC01 DUP4 DUP4 PUSH2 0x1628 JUMP JUMPDEST POP POP POP JUMP JUMPDEST PUSH1 0x0 PUSH1 0x1 PUSH1 0x0 DUP5 PUSH20 0xFFFFFFFFFFFFFFFFFFFFFFFFFFFFFFFFFFFFFFFF AND PUSH20 0xFFFFFFFFFFFFFFFFFFFFFFFFFFFFFFFFFFFFFFFF AND DUP2 MSTORE PUSH1 0x20 ADD SWAP1 DUP2 MSTORE PUSH1 0x20 ADD PUSH1 0x0 KECCAK256 PUSH1 0x0 DUP4 PUSH20 0xFFFFFFFFFFFFFFFFFFFFFFFFFFFFFFFFFFFFFFFF AND PUSH20 0xFFFFFFFFFFFFFFFFFFFFFFFFFFFFFFFFFFFFFFFF AND DUP2 MSTORE PUSH1 0x20 ADD SWAP1 DUP2 MSTORE PUSH1 0x20 ADD PUSH1 0x0 KECCAK256 PUSH1 0x0 SWAP1 SLOAD SWAP1 PUSH2 0x100 EXP SWAP1 DIV PUSH1 0xFF AND SWAP1 POP SWAP3 SWAP2 POP POP JUMP JUMPDEST PUSH2 0xCA2 PUSH2 0xEA2 JUMP JUMPDEST PUSH20 0xFFFFFFFFFFFFFFFFFFFFFFFFFFFFFFFFFFFFFFFF AND DUP6 PUSH20 0xFFFFFFFFFFFFFFFFFFFFFFFFFFFFFFFFFFFFFFFF AND EQ DUP1 PUSH2 0xCE8 JUMPI POP PUSH2 0xCE7 DUP6 PUSH2 0xCE2 PUSH2 0xEA2 JUMP JUMPDEST PUSH2 0xC06 JUMP JUMPDEST JUMPDEST PUSH2 0xD27 JUMPI PUSH1 0x40 MLOAD PUSH32 0x8C379A000000000000000000000000000000000000000000000000000000000 DUP2 MSTORE PUSH1 0x4 ADD PUSH2 0xD1E SWAP1 PUSH2 0x39B0 JUMP JUMPDEST PUSH1 0x40 MLOAD DUP1 SWAP2 SUB SWAP1 REVERT JUMPDEST PUSH2 0xD34 DUP6 DUP6 DUP6 DUP6 DUP6 PUSH2 0x1CD4 JUMP JUMPDEST POP POP POP POP POP JUMP JUMPDEST DUP2 PUSH1 0x0 ADDRESS PUSH20 0xFFFFFFFFFFFFFFFFFFFFFFFFFFFFFFFFFFFFFFFF AND PUSH3 0xFDD58E CALLER DUP5 PUSH1 0x40 MLOAD DUP4 PUSH4 0xFFFFFFFF AND PUSH1 0xE0 SHL DUP2 MSTORE PUSH1 0x4 ADD PUSH2 0xD78 SWAP3 SWAP2 SWAP1 PUSH2 0x3836 JUMP JUMPDEST PUSH1 0x20 PUSH1 0x40 MLOAD DUP1 DUP4 SUB DUP2 DUP7 DUP1 EXTCODESIZE ISZERO DUP1 ISZERO PUSH2 0xD90 JUMPI PUSH1 0x0 DUP1 REVERT JUMPDEST POP GAS STATICCALL ISZERO DUP1 ISZERO PUSH2 0xDA4 JUMPI RETURNDATASIZE PUSH1 0x0 DUP1 RETURNDATACOPY RETURNDATASIZE PUSH1 0x0 REVERT JUMPDEST POP POP POP POP PUSH1 0x40 MLOAD RETURNDATASIZE PUSH1 0x1F NOT PUSH1 0x1F DUP3 ADD AND DUP3 ADD DUP1 PUSH1 0x40 MSTORE POP DUP2 ADD SWAP1 PUSH2 0xDC8 SWAP2 SWAP1 PUSH2 0x32D0 JUMP JUMPDEST EQ ISZERO PUSH2 0xE09 JUMPI PUSH1 0x40 MLOAD PUSH32 0x8C379A000000000000000000000000000000000000000000000000000000000 DUP2 MSTORE PUSH1 0x4 ADD PUSH2 0xE00 SWAP1 PUSH2 0x3A70 JUMP JUMPDEST PUSH1 0x40 MLOAD DUP1 SWAP2 SUB SWAP1 REVERT JUMPDEST PUSH2 0xE14 DUP5 DUP5 DUP5 PUSH2 0x1F56 JUMP JUMPDEST POP POP POP POP JUMP JUMPDEST PUSH1 0x0 DUP2 PUSH1 0x0 ADD SLOAD SWAP1 POP SWAP2 SWAP1 POP JUMP JUMPDEST PUSH1 0x0 PUSH32 0x7965DB0B00000000000000000000000000000000000000000000000000000000 PUSH28 0xFFFFFFFFFFFFFFFFFFFFFFFFFFFFFFFFFFFFFFFFFFFFFFFFFFFFFFFF NOT AND DUP3 PUSH28 0xFFFFFFFFFFFFFFFFFFFFFFFFFFFFFFFFFFFFFFFFFFFFFFFFFFFFFFFF NOT AND EQ DUP1 PUSH2 0xE9B JUMPI POP PUSH2 0xE9A DUP3 PUSH2 0x2173 JUMP JUMPDEST JUMPDEST SWAP1 POP SWAP2 SWAP1 POP JUMP JUMPDEST PUSH1 0x0 CALLER SWAP1 POP SWAP1 JUMP JUMPDEST PUSH2 0xEB4 DUP3 DUP3 PUSH2 0xAD4 JUMP JUMPDEST PUSH2 0xF43 JUMPI PUSH2 0xED9 DUP2 PUSH20 0xFFFFFFFFFFFFFFFFFFFFFFFFFFFFFFFFFFFFFFFF AND PUSH1 0x14 PUSH2 0x2255 JUMP JUMPDEST PUSH2 0xEE7 DUP4 PUSH1 0x0 SHR PUSH1 0x20 PUSH2 0x2255 JUMP JUMPDEST PUSH1 0x40 MLOAD PUSH1 0x20 ADD PUSH2 0xEF8 SWAP3 SWAP2 SWAP1 PUSH2 0x373A JUMP JUMPDEST PUSH1 0x40 MLOAD PUSH1 0x20 DUP2 DUP4 SUB SUB DUP2 MSTORE SWAP1 PUSH1 0x40 MSTORE PUSH1 0x40 MLOAD PUSH32 0x8C379A000000000000000000000000000000000000000000000000000000000 DUP2 MSTORE PUSH1 0x4 ADD PUSH2 0xF3A SWAP2 SWAP1 PUSH2 0x38EE JUMP JUMPDEST PUSH1 0x40 MLOAD DUP1 SWAP2 SUB SWAP1 REVERT JUMPDEST POP POP JUMP JUMPDEST DUP1 PUSH1 0x2 SWAP1 DUP1 MLOAD SWAP1 PUSH1 0x20 ADD SWAP1 PUSH2 0xF5D SWAP3 SWAP2 SWAP1 PUSH2 0x296E JUMP JUMPDEST POP POP JUMP JUMPDEST PUSH1 0x0 PUSH20 0xFFFFFFFFFFFFFFFFFFFFFFFFFFFFFFFFFFFFFFFF AND DUP5 PUSH20 0xFFFFFFFFFFFFFFFFFFFFFFFFFFFFFFFFFFFFFFFF AND EQ ISZERO PUSH2 0xFD1 JUMPI PUSH1 0x40 MLOAD PUSH32 0x8C379A000000000000000000000000000000000000000000000000000000000 DUP2 MSTORE PUSH1 0x4 ADD PUSH2 0xFC8 SWAP1 PUSH2 0x3AF0 JUMP JUMPDEST PUSH1 0x40 MLOAD DUP1 SWAP2 SUB SWAP1 REVERT JUMPDEST DUP2 MLOAD DUP4 MLOAD EQ PUSH2 0x1015 JUMPI PUSH1 0x40 MLOAD PUSH32 0x8C379A000000000000000000000000000000000000000000000000000000000 DUP2 MSTORE PUSH1 0x4 ADD PUSH2 0x100C SWAP1 PUSH2 0x3AD0 JUMP JUMPDEST PUSH1 0x40 MLOAD DUP1 SWAP2 SUB SWAP1 REVERT JUMPDEST PUSH1 0x0 PUSH2 0x101F PUSH2 0xEA2 JUMP JUMPDEST SWAP1 POP PUSH2 0x1030 DUP2 PUSH1 0x0 DUP8 DUP8 DUP8 DUP8 PUSH2 0x2491 JUMP JUMPDEST PUSH1 0x0 JUMPDEST DUP5 MLOAD DUP2 LT ISZERO PUSH2 0x10E9 JUMPI DUP4 DUP2 DUP2 MLOAD DUP2 LT PUSH2 0x104F JUMPI PUSH2 0x104E PUSH2 0x3FD3 JUMP JUMPDEST JUMPDEST PUSH1 0x20 MUL PUSH1 0x20 ADD ADD MLOAD PUSH1 0x0 DUP1 DUP8 DUP5 DUP2 MLOAD DUP2 LT PUSH2 0x106D JUMPI PUSH2 0x106C PUSH2 0x3FD3 JUMP JUMPDEST JUMPDEST PUSH1 0x20 MUL PUSH1 0x20 ADD ADD MLOAD DUP2 MSTORE PUSH1 0x20 ADD SWAP1 DUP2 MSTORE PUSH1 0x20 ADD PUSH1 0x0 KECCAK256 PUSH1 0x0 DUP9 PUSH20 0xFFFFFFFFFFFFFFFFFFFFFFFFFFFFFFFFFFFFFFFF AND PUSH20 0xFFFFFFFFFFFFFFFFFFFFFFFFFFFFFFFFFFFFFFFF AND DUP2 MSTORE PUSH1 0x20 ADD SWAP1 DUP2 MSTORE PUSH1 0x20 ADD PUSH1 0x0 KECCAK256 PUSH1 0x0 DUP3 DUP3 SLOAD PUSH2 0x10CF SWAP2 SWAP1 PUSH2 0x3CCF JUMP JUMPDEST SWAP3 POP POP DUP2 SWAP1 SSTORE POP DUP1 DUP1 PUSH2 0x10E1 SWAP1 PUSH2 0x3EFD JUMP JUMPDEST SWAP2 POP POP PUSH2 0x1033 JUMP JUMPDEST POP DUP5 PUSH20 0xFFFFFFFFFFFFFFFFFFFFFFFFFFFFFFFFFFFFFFFF AND PUSH1 0x0 PUSH20 0xFFFFFFFFFFFFFFFFFFFFFFFFFFFFFFFFFFFFFFFF AND DUP3 PUSH20 0xFFFFFFFFFFFFFFFFFFFFFFFFFFFFFFFFFFFFFFFF AND PUSH32 0x4A39DC06D4C0DBC64B70AF90FD698A233A518AA5D07E595D983B8C0526C8F7FB DUP8 DUP8 PUSH1 0x40 MLOAD PUSH2 0x1161 SWAP3 SWAP2 SWAP1 PUSH2 0x3881 JUMP JUMPDEST PUSH1 0x40 MLOAD DUP1 SWAP2 SUB SWAP1 LOG4 PUSH2 0x1178 DUP2 PUSH1 0x0 DUP8 DUP8 DUP8 DUP8 PUSH2 0x2499 JUMP JUMPDEST POP POP POP POP POP JUMP JUMPDEST PUSH1 0x0 PUSH20 0xFFFFFFFFFFFFFFFFFFFFFFFFFFFFFFFFFFFFFFFF AND DUP2 PUSH20 0xFFFFFFFFFFFFFFFFFFFFFFFFFFFFFFFFFFFFFFFF AND EQ ISZERO PUSH2 0x11EF JUMPI PUSH1 0x40 MLOAD PUSH32 0x8C379A000000000000000000000000000000000000000000000000000000000 DUP2 MSTORE PUSH1 0x4 ADD PUSH2 0x11E6 SWAP1 PUSH2 0x3A50 JUMP JUMPDEST PUSH1 0x40 MLOAD DUP1 SWAP2 SUB SWAP1 REVERT JUMPDEST DUP1 PUSH1 0x6 PUSH1 0x0 PUSH2 0x100 EXP DUP2 SLOAD DUP2 PUSH20 0xFFFFFFFFFFFFFFFFFFFFFFFFFFFFFFFFFFFFFFFF MUL NOT AND SWAP1 DUP4 PUSH20 0xFFFFFFFFFFFFFFFFFFFFFFFFFFFFFFFFFFFFFFFF AND MUL OR SWAP1 SSTORE POP POP JUMP JUMPDEST DUP2 MLOAD DUP4 MLOAD EQ PUSH2 0x1277 JUMPI PUSH1 0x40 MLOAD PUSH32 0x8C379A000000000000000000000000000000000000000000000000000000000 DUP2 MSTORE PUSH1 0x4 ADD PUSH2 0x126E SWAP1 PUSH2 0x3AD0 JUMP JUMPDEST PUSH1 0x40 MLOAD DUP1 SWAP2 SUB SWAP1 REVERT JUMPDEST PUSH1 0x0 PUSH20 0xFFFFFFFFFFFFFFFFFFFFFFFFFFFFFFFFFFFFFFFF AND DUP5 PUSH20 0xFFFFFFFFFFFFFFFFFFFFFFFFFFFFFFFFFFFFFFFF AND EQ ISZERO PUSH2 0x12E7 JUMPI PUSH1 0x40 MLOAD PUSH32 0x8C379A000000000000000000000000000000000000000000000000000000000 DUP2 MSTORE PUSH1 0x4 ADD PUSH2 0x12DE SWAP1 PUSH2 0x39D0 JUMP JUMPDEST PUSH1 0x40 MLOAD DUP1 SWAP2 SUB SWAP1 REVERT JUMPDEST PUSH1 0x0 PUSH2 0x12F1 PUSH2 0xEA2 JUMP JUMPDEST SWAP1 POP PUSH2 0x1301 DUP2 DUP8 DUP8 DUP8 DUP8 DUP8 PUSH2 0x2491 JUMP JUMPDEST PUSH1 0x0 JUMPDEST DUP5 MLOAD DUP2 LT ISZERO PUSH2 0x14B2 JUMPI PUSH1 0x0 DUP6 DUP3 DUP2 MLOAD DUP2 LT PUSH2 0x1322 JUMPI PUSH2 0x1321 PUSH2 0x3FD3 JUMP JUMPDEST JUMPDEST PUSH1 0x20 MUL PUSH1 0x20 ADD ADD MLOAD SWAP1 POP PUSH1 0x0 DUP6 DUP4 DUP2 MLOAD DUP2 LT PUSH2 0x1341 JUMPI PUSH2 0x1340 PUSH2 0x3FD3 JUMP JUMPDEST JUMPDEST PUSH1 0x20 MUL PUSH1 0x20 ADD ADD MLOAD SWAP1 POP PUSH1 0x0 DUP1 PUSH1 0x0 DUP5 DUP2 MSTORE PUSH1 0x20 ADD SWAP1 DUP2 MSTORE PUSH1 0x20 ADD PUSH1 0x0 KECCAK256 PUSH1 0x0 DUP12 PUSH20 0xFFFFFFFFFFFFFFFFFFFFFFFFFFFFFFFFFFFFFFFF AND PUSH20 0xFFFFFFFFFFFFFFFFFFFFFFFFFFFFFFFFFFFFFFFF AND DUP2 MSTORE PUSH1 0x20 ADD SWAP1 DUP2 MSTORE PUSH1 0x20 ADD PUSH1 0x0 KECCAK256 SLOAD SWAP1 POP DUP2 DUP2 LT ISZERO PUSH2 0x13E2 JUMPI PUSH1 0x40 MLOAD PUSH32 0x8C379A000000000000000000000000000000000000000000000000000000000 DUP2 MSTORE PUSH1 0x4 ADD PUSH2 0x13D9 SWAP1 PUSH2 0x3A30 JUMP JUMPDEST PUSH1 0x40 MLOAD DUP1 SWAP2 SUB SWAP1 REVERT JUMPDEST DUP2 DUP2 SUB PUSH1 0x0 DUP1 DUP6 DUP2 MSTORE PUSH1 0x20 ADD SWAP1 DUP2 MSTORE PUSH1 0x20 ADD PUSH1 0x0 KECCAK256 PUSH1 0x0 DUP13 PUSH20 0xFFFFFFFFFFFFFFFFFFFFFFFFFFFFFFFFFFFFFFFF AND PUSH20 0xFFFFFFFFFFFFFFFFFFFFFFFFFFFFFFFFFFFFFFFF AND DUP2 MSTORE PUSH1 0x20 ADD SWAP1 DUP2 MSTORE PUSH1 0x20 ADD PUSH1 0x0 KECCAK256 DUP2 SWAP1 SSTORE POP DUP2 PUSH1 0x0 DUP1 DUP6 DUP2 MSTORE PUSH1 0x20 ADD SWAP1 DUP2 MSTORE PUSH1 0x20 ADD PUSH1 0x0 KECCAK256 PUSH1 0x0 DUP12 PUSH20 0xFFFFFFFFFFFFFFFFFFFFFFFFFFFFFFFFFFFFFFFF AND PUSH20 0xFFFFFFFFFFFFFFFFFFFFFFFFFFFFFFFFFFFFFFFF AND DUP2 MSTORE PUSH1 0x20 ADD SWAP1 DUP2 MSTORE PUSH1 0x20 ADD PUSH1 0x0 KECCAK256 PUSH1 0x0 DUP3 DUP3 SLOAD PUSH2 0x1497 SWAP2 SWAP1 PUSH2 0x3CCF JUMP JUMPDEST SWAP3 POP POP DUP2 SWAP1 SSTORE POP POP POP POP DUP1 PUSH2 0x14AB SWAP1 PUSH2 0x3EFD JUMP JUMPDEST SWAP1 POP PUSH2 0x1304 JUMP JUMPDEST POP DUP5 PUSH20 0xFFFFFFFFFFFFFFFFFFFFFFFFFFFFFFFFFFFFFFFF AND DUP7 PUSH20 0xFFFFFFFFFFFFFFFFFFFFFFFFFFFFFFFFFFFFFFFF AND DUP3 PUSH20 0xFFFFFFFFFFFFFFFFFFFFFFFFFFFFFFFFFFFFFFFF AND PUSH32 0x4A39DC06D4C0DBC64B70AF90FD698A233A518AA5D07E595D983B8C0526C8F7FB DUP8 DUP8 PUSH1 0x40 MLOAD PUSH2 0x1529 SWAP3 SWAP2 SWAP1 PUSH2 0x3881 JUMP JUMPDEST PUSH1 0x40 MLOAD DUP1 SWAP2 SUB SWAP1 LOG4 PUSH2 0x153F DUP2 DUP8 DUP8 DUP8 DUP8 DUP8 PUSH2 0x2499 JUMP JUMPDEST POP POP POP POP POP POP JUMP JUMPDEST PUSH2 0x1551 DUP3 DUP3 PUSH2 0xAD4 JUMP JUMPDEST PUSH2 0x1624 JUMPI PUSH1 0x1 PUSH1 0x3 PUSH1 0x0 DUP5 DUP2 MSTORE PUSH1 0x20 ADD SWAP1 DUP2 MSTORE PUSH1 0x20 ADD PUSH1 0x0 KECCAK256 PUSH1 0x0 ADD PUSH1 0x0 DUP4 PUSH20 0xFFFFFFFFFFFFFFFFFFFFFFFFFFFFFFFFFFFFFFFF AND PUSH20 0xFFFFFFFFFFFFFFFFFFFFFFFFFFFFFFFFFFFFFFFF AND DUP2 MSTORE PUSH1 0x20 ADD SWAP1 DUP2 MSTORE PUSH1 0x20 ADD PUSH1 0x0 KECCAK256 PUSH1 0x0 PUSH2 0x100 EXP DUP2 SLOAD DUP2 PUSH1 0xFF MUL NOT AND SWAP1 DUP4 ISZERO ISZERO MUL OR SWAP1 SSTORE POP PUSH2 0x15C9 PUSH2 0xEA2 JUMP JUMPDEST PUSH20 0xFFFFFFFFFFFFFFFFFFFFFFFFFFFFFFFFFFFFFFFF AND DUP2 PUSH20 0xFFFFFFFFFFFFFFFFFFFFFFFFFFFFFFFFFFFFFFFF AND DUP4 PUSH32 0x2F8788117E7EFF1D82E926EC794901D17C78024A50270940304540A733656F0D PUSH1 0x40 MLOAD PUSH1 0x40 MLOAD DUP1 SWAP2 SUB SWAP1 LOG4 JUMPDEST POP POP JUMP JUMPDEST PUSH2 0x1632 DUP3 DUP3 PUSH2 0xAD4 JUMP JUMPDEST ISZERO PUSH2 0x1706 JUMPI PUSH1 0x0 PUSH1 0x3 PUSH1 0x0 DUP5 DUP2 MSTORE PUSH1 0x20 ADD SWAP1 DUP2 MSTORE PUSH1 0x20 ADD PUSH1 0x0 KECCAK256 PUSH1 0x0 ADD PUSH1 0x0 DUP4 PUSH20 0xFFFFFFFFFFFFFFFFFFFFFFFFFFFFFFFFFFFFFFFF AND PUSH20 0xFFFFFFFFFFFFFFFFFFFFFFFFFFFFFFFFFFFFFFFF AND DUP2 MSTORE PUSH1 0x20 ADD SWAP1 DUP2 MSTORE PUSH1 0x20 ADD PUSH1 0x0 KECCAK256 PUSH1 0x0 PUSH2 0x100 EXP DUP2 SLOAD DUP2 PUSH1 0xFF MUL NOT AND SWAP1 DUP4 ISZERO ISZERO MUL OR SWAP1 SSTORE POP PUSH2 0x16AB PUSH2 0xEA2 JUMP JUMPDEST PUSH20 0xFFFFFFFFFFFFFFFFFFFFFFFFFFFFFFFFFFFFFFFF AND DUP2 PUSH20 0xFFFFFFFFFFFFFFFFFFFFFFFFFFFFFFFFFFFFFFFF AND DUP4 PUSH32 0xF6391F5C32D9C69D2A47EA670B442974B53935D1EDC7FD64EB21E047A839171B PUSH1 0x40 MLOAD PUSH1 0x40 MLOAD DUP1 SWAP2 SUB SWAP1 LOG4 JUMPDEST POP POP JUMP JUMPDEST PUSH1 0x0 PUSH20 0xFFFFFFFFFFFFFFFFFFFFFFFFFFFFFFFFFFFFFFFF AND DUP4 PUSH20 0xFFFFFFFFFFFFFFFFFFFFFFFFFFFFFFFFFFFFFFFF AND EQ ISZERO PUSH2 0x177A JUMPI PUSH1 0x40 MLOAD PUSH32 0x8C379A000000000000000000000000000000000000000000000000000000000 DUP2 MSTORE PUSH1 0x4 ADD PUSH2 0x1771 SWAP1 PUSH2 0x3A10 JUMP JUMPDEST PUSH1 0x40 MLOAD DUP1 SWAP2 SUB SWAP1 REVERT JUMPDEST DUP1 MLOAD DUP3 MLOAD EQ PUSH2 0x17BE JUMPI PUSH1 0x40 MLOAD PUSH32 0x8C379A000000000000000000000000000000000000000000000000000000000 DUP2 MSTORE PUSH1 0x4 ADD PUSH2 0x17B5 SWAP1 PUSH2 0x3AD0 JUMP JUMPDEST PUSH1 0x40 MLOAD DUP1 SWAP2 SUB SWAP1 REVERT JUMPDEST PUSH1 0x0 PUSH2 0x17C8 PUSH2 0xEA2 JUMP JUMPDEST SWAP1 POP PUSH2 0x17E8 DUP2 DUP6 PUSH1 0x0 DUP7 DUP7 PUSH1 0x40 MLOAD DUP1 PUSH1 0x20 ADD PUSH1 0x40 MSTORE DUP1 PUSH1 0x0 DUP2 MSTORE POP PUSH2 0x2491 JUMP JUMPDEST PUSH1 0x0 JUMPDEST DUP4 MLOAD DUP2 LT ISZERO PUSH2 0x1935 JUMPI PUSH1 0x0 DUP5 DUP3 DUP2 MLOAD DUP2 LT PUSH2 0x1809 JUMPI PUSH2 0x1808 PUSH2 0x3FD3 JUMP JUMPDEST JUMPDEST PUSH1 0x20 MUL PUSH1 0x20 ADD ADD MLOAD SWAP1 POP PUSH1 0x0 DUP5 DUP4 DUP2 MLOAD DUP2 LT PUSH2 0x1828 JUMPI PUSH2 0x1827 PUSH2 0x3FD3 JUMP JUMPDEST JUMPDEST PUSH1 0x20 MUL PUSH1 0x20 ADD ADD MLOAD SWAP1 POP PUSH1 0x0 DUP1 PUSH1 0x0 DUP5 DUP2 MSTORE PUSH1 0x20 ADD SWAP1 DUP2 MSTORE PUSH1 0x20 ADD PUSH1 0x0 KECCAK256 PUSH1 0x0 DUP10 PUSH20 0xFFFFFFFFFFFFFFFFFFFFFFFFFFFFFFFFFFFFFFFF AND PUSH20 0xFFFFFFFFFFFFFFFFFFFFFFFFFFFFFFFFFFFFFFFF AND DUP2 MSTORE PUSH1 0x20 ADD SWAP1 DUP2 MSTORE PUSH1 0x20 ADD PUSH1 0x0 KECCAK256 SLOAD SWAP1 POP DUP2 DUP2 LT ISZERO PUSH2 0x18C9 JUMPI PUSH1 0x40 MLOAD PUSH32 0x8C379A000000000000000000000000000000000000000000000000000000000 DUP2 MSTORE PUSH1 0x4 ADD PUSH2 0x18C0 SWAP1 PUSH2 0x3990 JUMP JUMPDEST PUSH1 0x40 MLOAD DUP1 SWAP2 SUB SWAP1 REVERT JUMPDEST DUP2 DUP2 SUB PUSH1 0x0 DUP1 DUP6 DUP2 MSTORE PUSH1 0x20 ADD SWAP1 DUP2 MSTORE PUSH1 0x20 ADD PUSH1 0x0 KECCAK256 PUSH1 0x0 DUP11 PUSH20 0xFFFFFFFFFFFFFFFFFFFFFFFFFFFFFFFFFFFFFFFF AND PUSH20 0xFFFFFFFFFFFFFFFFFFFFFFFFFFFFFFFFFFFFFFFF AND DUP2 MSTORE PUSH1 0x20 ADD SWAP1 DUP2 MSTORE PUSH1 0x20 ADD PUSH1 0x0 KECCAK256 DUP2 SWAP1 SSTORE POP POP POP POP DUP1 DUP1 PUSH2 0x192D SWAP1 PUSH2 0x3EFD JUMP JUMPDEST SWAP2 POP POP PUSH2 0x17EB JUMP JUMPDEST POP PUSH1 0x0 PUSH20 0xFFFFFFFFFFFFFFFFFFFFFFFFFFFFFFFFFFFFFFFF AND DUP5 PUSH20 0xFFFFFFFFFFFFFFFFFFFFFFFFFFFFFFFFFFFFFFFF AND DUP3 PUSH20 0xFFFFFFFFFFFFFFFFFFFFFFFFFFFFFFFFFFFFFFFF AND PUSH32 0x4A39DC06D4C0DBC64B70AF90FD698A233A518AA5D07E595D983B8C0526C8F7FB DUP7 DUP7 PUSH1 0x40 MLOAD PUSH2 0x19AD SWAP3 SWAP2 SWAP1 PUSH2 0x3881 JUMP JUMPDEST PUSH1 0x40 MLOAD DUP1 SWAP2 SUB SWAP1 LOG4 POP POP POP POP JUMP JUMPDEST PUSH1 0x1 DUP2 PUSH1 0x0 ADD PUSH1 0x0 DUP3 DUP3 SLOAD ADD SWAP3 POP POP DUP2 SWAP1 SSTORE POP POP JUMP JUMPDEST PUSH1 0x0 PUSH20 0xFFFFFFFFFFFFFFFFFFFFFFFFFFFFFFFFFFFFFFFF AND DUP5 PUSH20 0xFFFFFFFFFFFFFFFFFFFFFFFFFFFFFFFFFFFFFFFF AND EQ ISZERO PUSH2 0x1A41 JUMPI PUSH1 0x40 MLOAD PUSH32 0x8C379A000000000000000000000000000000000000000000000000000000000 DUP2 MSTORE PUSH1 0x4 ADD PUSH2 0x1A38 SWAP1 PUSH2 0x3AF0 JUMP JUMPDEST PUSH1 0x40 MLOAD DUP1 SWAP2 SUB SWAP1 REVERT JUMPDEST PUSH1 0x0 PUSH2 0x1A4B PUSH2 0xEA2 JUMP JUMPDEST SWAP1 POP PUSH2 0x1A6C DUP2 PUSH1 0x0 DUP8 PUSH2 0x1A5D DUP9 PUSH2 0x2680 JUMP JUMPDEST PUSH2 0x1A66 DUP9 PUSH2 0x2680 JUMP JUMPDEST DUP8 PUSH2 0x2491 JUMP JUMPDEST DUP3 PUSH1 0x0 DUP1 DUP7 DUP2 MSTORE PUSH1 0x20 ADD SWAP1 DUP2 MSTORE PUSH1 0x20 ADD PUSH1 0x0 KECCAK256 PUSH1 0x0 DUP8 PUSH20 0xFFFFFFFFFFFFFFFFFFFFFFFFFFFFFFFFFFFFFFFF AND PUSH20 0xFFFFFFFFFFFFFFFFFFFFFFFFFFFFFFFFFFFFFFFF AND DUP2 MSTORE PUSH1 0x20 ADD SWAP1 DUP2 MSTORE PUSH1 0x20 ADD PUSH1 0x0 KECCAK256 PUSH1 0x0 DUP3 DUP3 SLOAD PUSH2 0x1ACB SWAP2 SWAP1 PUSH2 0x3CCF JUMP JUMPDEST SWAP3 POP POP DUP2 SWAP1 SSTORE POP DUP5 PUSH20 0xFFFFFFFFFFFFFFFFFFFFFFFFFFFFFFFFFFFFFFFF AND PUSH1 0x0 PUSH20 0xFFFFFFFFFFFFFFFFFFFFFFFFFFFFFFFFFFFFFFFF AND DUP3 PUSH20 0xFFFFFFFFFFFFFFFFFFFFFFFFFFFFFFFFFFFFFFFF AND PUSH32 0xC3D58168C5AE7397731D063D5BBF3D657854427343F4C083240F7AACAA2D0F62 DUP8 DUP8 PUSH1 0x40 MLOAD PUSH2 0x1B49 SWAP3 SWAP2 SWAP1 PUSH2 0x3B4B JUMP JUMPDEST PUSH1 0x40 MLOAD DUP1 SWAP2 SUB SWAP1 LOG4 PUSH2 0x1B60 DUP2 PUSH1 0x0 DUP8 DUP8 DUP8 DUP8 PUSH2 0x26FA JUMP JUMPDEST POP POP POP POP POP JUMP JUMPDEST DUP2 PUSH20 0xFFFFFFFFFFFFFFFFFFFFFFFFFFFFFFFFFFFFFFFF AND DUP4 PUSH20 0xFFFFFFFFFFFFFFFFFFFFFFFFFFFFFFFFFFFFFFFF AND EQ ISZERO PUSH2 0x1BD6 JUMPI PUSH1 0x40 MLOAD PUSH32 0x8C379A000000000000000000000000000000000000000000000000000000000 DUP2 MSTORE PUSH1 0x4 ADD PUSH2 0x1BCD SWAP1 PUSH2 0x3A90 JUMP JUMPDEST PUSH1 0x40 MLOAD DUP1 SWAP2 SUB SWAP1 REVERT JUMPDEST DUP1 PUSH1 0x1 PUSH1 0x0 DUP6 PUSH20 0xFFFFFFFFFFFFFFFFFFFFFFFFFFFFFFFFFFFFFFFF AND PUSH20 0xFFFFFFFFFFFFFFFFFFFFFFFFFFFFFFFFFFFFFFFF AND DUP2 MSTORE PUSH1 0x20 ADD SWAP1 DUP2 MSTORE PUSH1 0x20 ADD PUSH1 0x0 KECCAK256 PUSH1 0x0 DUP5 PUSH20 0xFFFFFFFFFFFFFFFFFFFFFFFFFFFFFFFFFFFFFFFF AND PUSH20 0xFFFFFFFFFFFFFFFFFFFFFFFFFFFFFFFFFFFFFFFF AND DUP2 MSTORE PUSH1 0x20 ADD SWAP1 DUP2 MSTORE PUSH1 0x20 ADD PUSH1 0x0 KECCAK256 PUSH1 0x0 PUSH2 0x100 EXP DUP2 SLOAD DUP2 PUSH1 0xFF MUL NOT AND SWAP1 DUP4 ISZERO ISZERO MUL OR SWAP1 SSTORE POP DUP2 PUSH20 0xFFFFFFFFFFFFFFFFFFFFFFFFFFFFFFFFFFFFFFFF AND DUP4 PUSH20 0xFFFFFFFFFFFFFFFFFFFFFFFFFFFFFFFFFFFFFFFF AND PUSH32 0x17307EAB39AB6107E8899845AD3D59BD9653F200F220920489CA2B5937696C31 DUP4 PUSH1 0x40 MLOAD PUSH2 0x1CC7 SWAP2 SWAP1 PUSH2 0x38B8 JUMP JUMPDEST PUSH1 0x40 MLOAD DUP1 SWAP2 SUB SWAP1 LOG3 POP POP POP JUMP JUMPDEST PUSH1 0x0 PUSH20 0xFFFFFFFFFFFFFFFFFFFFFFFFFFFFFFFFFFFFFFFF AND DUP5 PUSH20 0xFFFFFFFFFFFFFFFFFFFFFFFFFFFFFFFFFFFFFFFF AND EQ ISZERO PUSH2 0x1D44 JUMPI PUSH1 0x40 MLOAD PUSH32 0x8C379A000000000000000000000000000000000000000000000000000000000 DUP2 MSTORE PUSH1 0x4 ADD PUSH2 0x1D3B SWAP1 PUSH2 0x39D0 JUMP JUMPDEST PUSH1 0x40 MLOAD DUP1 SWAP2 SUB SWAP1 REVERT JUMPDEST PUSH1 0x0 PUSH2 0x1D4E PUSH2 0xEA2 JUMP JUMPDEST SWAP1 POP PUSH2 0x1D6E DUP2 DUP8 DUP8 PUSH2 0x1D5F DUP9 PUSH2 0x2680 JUMP JUMPDEST PUSH2 0x1D68 DUP9 PUSH2 0x2680 JUMP JUMPDEST DUP8 PUSH2 0x2491 JUMP JUMPDEST PUSH1 0x0 DUP1 PUSH1 0x0 DUP7 DUP2 MSTORE PUSH1 0x20 ADD SWAP1 DUP2 MSTORE PUSH1 0x20 ADD PUSH1 0x0 KECCAK256 PUSH1 0x0 DUP9 PUSH20 0xFFFFFFFFFFFFFFFFFFFFFFFFFFFFFFFFFFFFFFFF AND PUSH20 0xFFFFFFFFFFFFFFFFFFFFFFFFFFFFFFFFFFFFFFFF AND DUP2 MSTORE PUSH1 0x20 ADD SWAP1 DUP2 MSTORE PUSH1 0x20 ADD PUSH1 0x0 KECCAK256 SLOAD SWAP1 POP DUP4 DUP2 LT ISZERO PUSH2 0x1E05 JUMPI PUSH1 0x40 MLOAD PUSH32 0x8C379A000000000000000000000000000000000000000000000000000000000 DUP2 MSTORE PUSH1 0x4 ADD PUSH2 0x1DFC SWAP1 PUSH2 0x3A30 JUMP JUMPDEST PUSH1 0x40 MLOAD DUP1 SWAP2 SUB SWAP1 REVERT JUMPDEST DUP4 DUP2 SUB PUSH1 0x0 DUP1 DUP8 DUP2 MSTORE PUSH1 0x20 ADD SWAP1 DUP2 MSTORE PUSH1 0x20 ADD PUSH1 0x0 KECCAK256 PUSH1 0x0 DUP10 PUSH20 0xFFFFFFFFFFFFFFFFFFFFFFFFFFFFFFFFFFFFFFFF AND PUSH20 0xFFFFFFFFFFFFFFFFFFFFFFFFFFFFFFFFFFFFFFFF AND DUP2 MSTORE PUSH1 0x20 ADD SWAP1 DUP2 MSTORE PUSH1 0x20 ADD PUSH1 0x0 KECCAK256 DUP2 SWAP1 SSTORE POP DUP4 PUSH1 0x0 DUP1 DUP8 DUP2 MSTORE PUSH1 0x20 ADD SWAP1 DUP2 MSTORE PUSH1 0x20 ADD PUSH1 0x0 KECCAK256 PUSH1 0x0 DUP9 PUSH20 0xFFFFFFFFFFFFFFFFFFFFFFFFFFFFFFFFFFFFFFFF AND PUSH20 0xFFFFFFFFFFFFFFFFFFFFFFFFFFFFFFFFFFFFFFFF AND DUP2 MSTORE PUSH1 0x20 ADD SWAP1 DUP2 MSTORE PUSH1 0x20 ADD PUSH1 0x0 KECCAK256 PUSH1 0x0 DUP3 DUP3 SLOAD PUSH2 0x1EBA SWAP2 SWAP1 PUSH2 0x3CCF JUMP JUMPDEST SWAP3 POP POP DUP2 SWAP1 SSTORE POP DUP6 PUSH20 0xFFFFFFFFFFFFFFFFFFFFFFFFFFFFFFFFFFFFFFFF AND DUP8 PUSH20 0xFFFFFFFFFFFFFFFFFFFFFFFFFFFFFFFFFFFFFFFF AND DUP4 PUSH20 0xFFFFFFFFFFFFFFFFFFFFFFFFFFFFFFFFFFFFFFFF AND PUSH32 0xC3D58168C5AE7397731D063D5BBF3D657854427343F4C083240F7AACAA2D0F62 DUP9 DUP9 PUSH1 0x40 MLOAD PUSH2 0x1F37 SWAP3 SWAP2 SWAP1 PUSH2 0x3B4B JUMP JUMPDEST PUSH1 0x40 MLOAD DUP1 SWAP2 SUB SWAP1 LOG4 PUSH2 0x1F4D DUP3 DUP9 DUP9 DUP9 DUP9 DUP9 PUSH2 0x26FA JUMP JUMPDEST POP POP POP POP POP POP POP JUMP JUMPDEST PUSH1 0x0 PUSH20 0xFFFFFFFFFFFFFFFFFFFFFFFFFFFFFFFFFFFFFFFF AND DUP4 PUSH20 0xFFFFFFFFFFFFFFFFFFFFFFFFFFFFFFFFFFFFFFFF AND EQ ISZERO PUSH2 0x1FC6 JUMPI PUSH1 0x40 MLOAD PUSH32 0x8C379A000000000000000000000000000000000000000000000000000000000 DUP2 MSTORE PUSH1 0x4 ADD PUSH2 0x1FBD SWAP1 PUSH2 0x3A10 JUMP JUMPDEST PUSH1 0x40 MLOAD DUP1 SWAP2 SUB SWAP1 REVERT JUMPDEST PUSH1 0x0 PUSH2 0x1FD0 PUSH2 0xEA2 JUMP JUMPDEST SWAP1 POP PUSH2 0x2000 DUP2 DUP6 PUSH1 0x0 PUSH2 0x1FE2 DUP8 PUSH2 0x2680 JUMP JUMPDEST PUSH2 0x1FEB DUP8 PUSH2 0x2680 JUMP JUMPDEST PUSH1 0x40 MLOAD DUP1 PUSH1 0x20 ADD PUSH1 0x40 MSTORE DUP1 PUSH1 0x0 DUP2 MSTORE POP PUSH2 0x2491 JUMP JUMPDEST PUSH1 0x0 DUP1 PUSH1 0x0 DUP6 DUP2 MSTORE PUSH1 0x20 ADD SWAP1 DUP2 MSTORE PUSH1 0x20 ADD PUSH1 0x0 KECCAK256 PUSH1 0x0 DUP7 PUSH20 0xFFFFFFFFFFFFFFFFFFFFFFFFFFFFFFFFFFFFFFFF AND PUSH20 0xFFFFFFFFFFFFFFFFFFFFFFFFFFFFFFFFFFFFFFFF AND DUP2 MSTORE PUSH1 0x20 ADD SWAP1 DUP2 MSTORE PUSH1 0x20 ADD PUSH1 0x0 KECCAK256 SLOAD SWAP1 POP DUP3 DUP2 LT ISZERO PUSH2 0x2097 JUMPI PUSH1 0x40 MLOAD PUSH32 0x8C379A000000000000000000000000000000000000000000000000000000000 DUP2 MSTORE PUSH1 0x4 ADD PUSH2 0x208E SWAP1 PUSH2 0x3990 JUMP JUMPDEST PUSH1 0x40 MLOAD DUP1 SWAP2 SUB SWAP1 REVERT JUMPDEST DUP3 DUP2 SUB PUSH1 0x0 DUP1 DUP7 DUP2 MSTORE PUSH1 0x20 ADD SWAP1 DUP2 MSTORE PUSH1 0x20 ADD PUSH1 0x0 KECCAK256 PUSH1 0x0 DUP8 PUSH20 0xFFFFFFFFFFFFFFFFFFFFFFFFFFFFFFFFFFFFFFFF AND PUSH20 0xFFFFFFFFFFFFFFFFFFFFFFFFFFFFFFFFFFFFFFFF AND DUP2 MSTORE PUSH1 0x20 ADD SWAP1 DUP2 MSTORE PUSH1 0x20 ADD PUSH1 0x0 KECCAK256 DUP2 SWAP1 SSTORE POP PUSH1 0x0 PUSH20 0xFFFFFFFFFFFFFFFFFFFFFFFFFFFFFFFFFFFFFFFF AND DUP6 PUSH20 0xFFFFFFFFFFFFFFFFFFFFFFFFFFFFFFFFFFFFFFFF AND DUP4 PUSH20 0xFFFFFFFFFFFFFFFFFFFFFFFFFFFFFFFFFFFFFFFF AND PUSH32 0xC3D58168C5AE7397731D063D5BBF3D657854427343F4C083240F7AACAA2D0F62 DUP8 DUP8 PUSH1 0x40 MLOAD PUSH2 0x2164 SWAP3 SWAP2 SWAP1 PUSH2 0x3B4B JUMP JUMPDEST PUSH1 0x40 MLOAD DUP1 SWAP2 SUB SWAP1 LOG4 POP POP POP POP POP JUMP JUMPDEST PUSH1 0x0 PUSH32 0xD9B67A2600000000000000000000000000000000000000000000000000000000 PUSH28 0xFFFFFFFFFFFFFFFFFFFFFFFFFFFFFFFFFFFFFFFFFFFFFFFFFFFFFFFF NOT AND DUP3 PUSH28 0xFFFFFFFFFFFFFFFFFFFFFFFFFFFFFFFFFFFFFFFFFFFFFFFFFFFFFFFF NOT AND EQ DUP1 PUSH2 0x223E JUMPI POP PUSH32 0xE89341C00000000000000000000000000000000000000000000000000000000 PUSH28 0xFFFFFFFFFFFFFFFFFFFFFFFFFFFFFFFFFFFFFFFFFFFFFFFFFFFFFFFF NOT AND DUP3 PUSH28 0xFFFFFFFFFFFFFFFFFFFFFFFFFFFFFFFFFFFFFFFFFFFFFFFFFFFFFFFF NOT AND EQ JUMPDEST DUP1 PUSH2 0x224E JUMPI POP PUSH2 0x224D DUP3 PUSH2 0x28E1 JUMP JUMPDEST JUMPDEST SWAP1 POP SWAP2 SWAP1 POP JUMP JUMPDEST PUSH1 0x60 PUSH1 0x0 PUSH1 0x2 DUP4 PUSH1 0x2 PUSH2 0x2268 SWAP2 SWAP1 PUSH2 0x3D56 JUMP JUMPDEST PUSH2 0x2272 SWAP2 SWAP1 PUSH2 0x3CCF JUMP JUMPDEST PUSH8 0xFFFFFFFFFFFFFFFF DUP2 GT ISZERO PUSH2 0x228B JUMPI PUSH2 0x228A PUSH2 0x4002 JUMP JUMPDEST JUMPDEST PUSH1 0x40 MLOAD SWAP1 DUP1 DUP3 MSTORE DUP1 PUSH1 0x1F ADD PUSH1 0x1F NOT AND PUSH1 0x20 ADD DUP3 ADD PUSH1 0x40 MSTORE DUP1 ISZERO PUSH2 0x22BD JUMPI DUP2 PUSH1 0x20 ADD PUSH1 0x1 DUP3 MUL DUP1 CALLDATASIZE DUP4 CALLDATACOPY DUP1 DUP3 ADD SWAP2 POP POP SWAP1 POP JUMPDEST POP SWAP1 POP PUSH32 0x3000000000000000000000000000000000000000000000000000000000000000 DUP2 PUSH1 0x0 DUP2 MLOAD DUP2 LT PUSH2 0x22F5 JUMPI PUSH2 0x22F4 PUSH2 0x3FD3 JUMP JUMPDEST JUMPDEST PUSH1 0x20 ADD ADD SWAP1 PUSH31 0xFFFFFFFFFFFFFFFFFFFFFFFFFFFFFFFFFFFFFFFFFFFFFFFFFFFFFFFFFFFFFF NOT AND SWAP1 DUP2 PUSH1 0x0 BYTE SWAP1 MSTORE8 POP PUSH32 0x7800000000000000000000000000000000000000000000000000000000000000 DUP2 PUSH1 0x1 DUP2 MLOAD DUP2 LT PUSH2 0x2359 JUMPI PUSH2 0x2358 PUSH2 0x3FD3 JUMP JUMPDEST JUMPDEST PUSH1 0x20 ADD ADD SWAP1 PUSH31 0xFFFFFFFFFFFFFFFFFFFFFFFFFFFFFFFFFFFFFFFFFFFFFFFFFFFFFFFFFFFFFF NOT AND SWAP1 DUP2 PUSH1 0x0 BYTE SWAP1 MSTORE8 POP PUSH1 0x0 PUSH1 0x1 DUP5 PUSH1 0x2 PUSH2 0x2399 SWAP2 SWAP1 PUSH2 0x3D56 JUMP JUMPDEST PUSH2 0x23A3 SWAP2 SWAP1 PUSH2 0x3CCF JUMP JUMPDEST SWAP1 POP JUMPDEST PUSH1 0x1 DUP2 GT ISZERO PUSH2 0x2443 JUMPI PUSH32 0x3031323334353637383961626364656600000000000000000000000000000000 PUSH1 0xF DUP7 AND PUSH1 0x10 DUP2 LT PUSH2 0x23E5 JUMPI PUSH2 0x23E4 PUSH2 0x3FD3 JUMP JUMPDEST JUMPDEST BYTE PUSH1 0xF8 SHL DUP3 DUP3 DUP2 MLOAD DUP2 LT PUSH2 0x23FC JUMPI PUSH2 0x23FB PUSH2 0x3FD3 JUMP JUMPDEST JUMPDEST PUSH1 0x20 ADD ADD SWAP1 PUSH31 0xFFFFFFFFFFFFFFFFFFFFFFFFFFFFFFFFFFFFFFFFFFFFFFFFFFFFFFFFFFFFFF NOT AND SWAP1 DUP2 PUSH1 0x0 BYTE SWAP1 MSTORE8 POP PUSH1 0x4 DUP6 SWAP1 SHR SWAP5 POP DUP1 PUSH2 0x243C SWAP1 PUSH2 0x3E70 JUMP JUMPDEST SWAP1 POP PUSH2 0x23A6 JUMP JUMPDEST POP PUSH1 0x0 DUP5 EQ PUSH2 0x2487 JUMPI PUSH1 0x40 MLOAD PUSH32 0x8C379A000000000000000000000000000000000000000000000000000000000 DUP2 MSTORE PUSH1 0x4 ADD PUSH2 0x247E SWAP1 PUSH2 0x3930 JUMP JUMPDEST PUSH1 0x40 MLOAD DUP1 SWAP2 SUB SWAP1 REVERT JUMPDEST DUP1 SWAP2 POP POP SWAP3 SWAP2 POP POP JUMP JUMPDEST POP POP POP POP POP POP JUMP JUMPDEST PUSH2 0x24B8 DUP5 PUSH20 0xFFFFFFFFFFFFFFFFFFFFFFFFFFFFFFFFFFFFFFFF AND PUSH2 0x294B JUMP JUMPDEST ISZERO PUSH2 0x2678 JUMPI DUP4 PUSH20 0xFFFFFFFFFFFFFFFFFFFFFFFFFFFFFFFFFFFFFFFF AND PUSH4 0xBC197C81 DUP8 DUP8 DUP7 DUP7 DUP7 PUSH1 0x40 MLOAD DUP7 PUSH4 0xFFFFFFFF AND PUSH1 0xE0 SHL DUP2 MSTORE PUSH1 0x4 ADD PUSH2 0x24FE SWAP6 SWAP5 SWAP4 SWAP3 SWAP2 SWAP1 PUSH2 0x3774 JUMP JUMPDEST PUSH1 0x20 PUSH1 0x40 MLOAD DUP1 DUP4 SUB DUP2 PUSH1 0x0 DUP8 DUP1 EXTCODESIZE ISZERO DUP1 ISZERO PUSH2 0x2518 JUMPI PUSH1 0x0 DUP1 REVERT JUMPDEST POP GAS CALL SWAP3 POP POP POP DUP1 ISZERO PUSH2 0x2549 JUMPI POP PUSH1 0x40 MLOAD RETURNDATASIZE PUSH1 0x1F NOT PUSH1 0x1F DUP3 ADD AND DUP3 ADD DUP1 PUSH1 0x40 MSTORE POP DUP2 ADD SWAP1 PUSH2 0x2546 SWAP2 SWAP1 PUSH2 0x322D JUMP JUMPDEST PUSH1 0x1 JUMPDEST PUSH2 0x25EF JUMPI PUSH2 0x2555 PUSH2 0x4031 JUMP JUMPDEST DUP1 PUSH4 0x8C379A0 EQ ISZERO PUSH2 0x25B2 JUMPI POP PUSH2 0x256A PUSH2 0x45CF JUMP JUMPDEST DUP1 PUSH2 0x2575 JUMPI POP PUSH2 0x25B4 JUMP JUMPDEST DUP1 PUSH1 0x40 MLOAD PUSH32 0x8C379A000000000000000000000000000000000000000000000000000000000 DUP2 MSTORE PUSH1 0x4 ADD PUSH2 0x25A9 SWAP2 SWAP1 PUSH2 0x38EE JUMP JUMPDEST PUSH1 0x40 MLOAD DUP1 SWAP2 SUB SWAP1 REVERT JUMPDEST POP JUMPDEST PUSH1 0x40 MLOAD PUSH32 0x8C379A000000000000000000000000000000000000000000000000000000000 DUP2 MSTORE PUSH1 0x4 ADD PUSH2 0x25E6 SWAP1 PUSH2 0x3910 JUMP JUMPDEST PUSH1 0x40 MLOAD DUP1 SWAP2 SUB SWAP1 REVERT JUMPDEST PUSH4 0xBC197C81 PUSH1 0xE0 SHL PUSH28 0xFFFFFFFFFFFFFFFFFFFFFFFFFFFFFFFFFFFFFFFFFFFFFFFFFFFFFFFF NOT AND DUP2 PUSH28 0xFFFFFFFFFFFFFFFFFFFFFFFFFFFFFFFFFFFFFFFFFFFFFFFFFFFFFFFF NOT AND EQ PUSH2 0x2676 JUMPI PUSH1 0x40 MLOAD PUSH32 0x8C379A000000000000000000000000000000000000000000000000000000000 DUP2 MSTORE PUSH1 0x4 ADD PUSH2 0x266D SWAP1 PUSH2 0x3950 JUMP JUMPDEST PUSH1 0x40 MLOAD DUP1 SWAP2 SUB SWAP1 REVERT JUMPDEST POP JUMPDEST POP POP POP POP POP POP JUMP JUMPDEST PUSH1 0x60 PUSH1 0x0 PUSH1 0x1 PUSH8 0xFFFFFFFFFFFFFFFF DUP2 GT ISZERO PUSH2 0x269F JUMPI PUSH2 0x269E PUSH2 0x4002 JUMP JUMPDEST JUMPDEST PUSH1 0x40 MLOAD SWAP1 DUP1 DUP3 MSTORE DUP1 PUSH1 0x20 MUL PUSH1 0x20 ADD DUP3 ADD PUSH1 0x40 MSTORE DUP1 ISZERO PUSH2 0x26CD JUMPI DUP2 PUSH1 0x20 ADD PUSH1 0x20 DUP3 MUL DUP1 CALLDATASIZE DUP4 CALLDATACOPY DUP1 DUP3 ADD SWAP2 POP POP SWAP1 POP JUMPDEST POP SWAP1 POP DUP3 DUP2 PUSH1 0x0 DUP2 MLOAD DUP2 LT PUSH2 0x26E5 JUMPI PUSH2 0x26E4 PUSH2 0x3FD3 JUMP JUMPDEST JUMPDEST PUSH1 0x20 MUL PUSH1 0x20 ADD ADD DUP2 DUP2 MSTORE POP POP DUP1 SWAP2 POP POP SWAP2 SWAP1 POP JUMP JUMPDEST PUSH2 0x2719 DUP5 PUSH20 0xFFFFFFFFFFFFFFFFFFFFFFFFFFFFFFFFFFFFFFFF AND PUSH2 0x294B JUMP JUMPDEST ISZERO PUSH2 0x28D9 JUMPI DUP4 PUSH20 0xFFFFFFFFFFFFFFFFFFFFFFFFFFFFFFFFFFFFFFFF AND PUSH4 0xF23A6E61 DUP8 DUP8 DUP7 DUP7 DUP7 PUSH1 0x40 MLOAD DUP7 PUSH4 0xFFFFFFFF AND PUSH1 0xE0 SHL DUP2 MSTORE PUSH1 0x4 ADD PUSH2 0x275F SWAP6 SWAP5 SWAP4 SWAP3 SWAP2 SWAP1 PUSH2 0x37DC JUMP JUMPDEST PUSH1 0x20 PUSH1 0x40 MLOAD DUP1 DUP4 SUB DUP2 PUSH1 0x0 DUP8 DUP1 EXTCODESIZE ISZERO DUP1 ISZERO PUSH2 0x2779 JUMPI PUSH1 0x0 DUP1 REVERT JUMPDEST POP GAS CALL SWAP3 POP POP POP DUP1 ISZERO PUSH2 0x27AA JUMPI POP PUSH1 0x40 MLOAD RETURNDATASIZE PUSH1 0x1F NOT PUSH1 0x1F DUP3 ADD AND DUP3 ADD DUP1 PUSH1 0x40 MSTORE POP DUP2 ADD SWAP1 PUSH2 0x27A7 SWAP2 SWAP1 PUSH2 0x322D JUMP JUMPDEST PUSH1 0x1 JUMPDEST PUSH2 0x2850 JUMPI PUSH2 0x27B6 PUSH2 0x4031 JUMP JUMPDEST DUP1 PUSH4 0x8C379A0 EQ ISZERO PUSH2 0x2813 JUMPI POP PUSH2 0x27CB PUSH2 0x45CF JUMP JUMPDEST DUP1 PUSH2 0x27D6 JUMPI POP PUSH2 0x2815 JUMP JUMPDEST DUP1 PUSH1 0x40 MLOAD PUSH32 0x8C379A000000000000000000000000000000000000000000000000000000000 DUP2 MSTORE PUSH1 0x4 ADD PUSH2 0x280A SWAP2 SWAP1 PUSH2 0x38EE JUMP JUMPDEST PUSH1 0x40 MLOAD DUP1 SWAP2 SUB SWAP1 REVERT JUMPDEST POP JUMPDEST PUSH1 0x40 MLOAD PUSH32 0x8C379A000000000000000000000000000000000000000000000000000000000 DUP2 MSTORE PUSH1 0x4 ADD PUSH2 0x2847 SWAP1 PUSH2 0x3910 JUMP JUMPDEST PUSH1 0x40 MLOAD DUP1 SWAP2 SUB SWAP1 REVERT JUMPDEST PUSH4 0xF23A6E61 PUSH1 0xE0 SHL PUSH28 0xFFFFFFFFFFFFFFFFFFFFFFFFFFFFFFFFFFFFFFFFFFFFFFFFFFFFFFFF NOT AND DUP2 PUSH28 0xFFFFFFFFFFFFFFFFFFFFFFFFFFFFFFFFFFFFFFFFFFFFFFFFFFFFFFFF NOT AND EQ PUSH2 0x28D7 JUMPI PUSH1 0x40 MLOAD PUSH32 0x8C379A000000000000000000000000000000000000000000000000000000000 DUP2 MSTORE PUSH1 0x4 ADD PUSH2 0x28CE SWAP1 PUSH2 0x3950 JUMP JUMPDEST PUSH1 0x40 MLOAD DUP1 SWAP2 SUB SWAP1 REVERT JUMPDEST POP JUMPDEST POP POP POP POP POP POP JUMP JUMPDEST PUSH1 0x0 PUSH32 0x1FFC9A700000000000000000000000000000000000000000000000000000000 PUSH28 0xFFFFFFFFFFFFFFFFFFFFFFFFFFFFFFFFFFFFFFFFFFFFFFFFFFFFFFFF NOT AND DUP3 PUSH28 0xFFFFFFFFFFFFFFFFFFFFFFFFFFFFFFFFFFFFFFFFFFFFFFFFFFFFFFFF NOT AND EQ SWAP1 POP SWAP2 SWAP1 POP JUMP JUMPDEST PUSH1 0x0 DUP1 DUP3 PUSH20 0xFFFFFFFFFFFFFFFFFFFFFFFFFFFFFFFFFFFFFFFF AND EXTCODESIZE GT SWAP1 POP SWAP2 SWAP1 POP JUMP JUMPDEST DUP3 DUP1 SLOAD PUSH2 0x297A SWAP1 PUSH2 0x3E9A JUMP JUMPDEST SWAP1 PUSH1 0x0 MSTORE PUSH1 0x20 PUSH1 0x0 KECCAK256 SWAP1 PUSH1 0x1F ADD PUSH1 0x20 SWAP1 DIV DUP2 ADD SWAP3 DUP3 PUSH2 0x299C JUMPI PUSH1 0x0 DUP6 SSTORE PUSH2 0x29E3 JUMP JUMPDEST DUP3 PUSH1 0x1F LT PUSH2 0x29B5 JUMPI DUP1 MLOAD PUSH1 0xFF NOT AND DUP4 DUP1 ADD OR DUP6 SSTORE PUSH2 0x29E3 JUMP JUMPDEST DUP3 DUP1 ADD PUSH1 0x1 ADD DUP6 SSTORE DUP3 ISZERO PUSH2 0x29E3 JUMPI SWAP2 DUP3 ADD JUMPDEST DUP3 DUP2 GT ISZERO PUSH2 0x29E2 JUMPI DUP3 MLOAD DUP3 SSTORE SWAP2 PUSH1 0x20 ADD SWAP2 SWAP1 PUSH1 0x1 ADD SWAP1 PUSH2 0x29C7 JUMP JUMPDEST JUMPDEST POP SWAP1 POP PUSH2 0x29F0 SWAP2 SWAP1 PUSH2 0x29F4 JUMP JUMPDEST POP SWAP1 JUMP JUMPDEST JUMPDEST DUP1 DUP3 GT ISZERO PUSH2 0x2A0D JUMPI PUSH1 0x0 DUP2 PUSH1 0x0 SWAP1 SSTORE POP PUSH1 0x1 ADD PUSH2 0x29F5 JUMP JUMPDEST POP SWAP1 JUMP JUMPDEST PUSH1 0x0 PUSH2 0x2A24 PUSH2 0x2A1F DUP5 PUSH2 0x3B99 JUMP JUMPDEST PUSH2 0x3B74 JUMP JUMPDEST SWAP1 POP DUP1 DUP4 DUP3 MSTORE PUSH1 0x20 DUP3 ADD SWAP1 POP DUP3 DUP6 PUSH1 0x20 DUP7 MUL DUP3 ADD GT ISZERO PUSH2 0x2A47 JUMPI PUSH2 0x2A46 PUSH2 0x4058 JUMP JUMPDEST JUMPDEST PUSH1 0x0 JUMPDEST DUP6 DUP2 LT ISZERO PUSH2 0x2A77 JUMPI DUP2 PUSH2 0x2A5D DUP9 DUP3 PUSH2 0x2B75 JUMP JUMPDEST DUP5 MSTORE PUSH1 0x20 DUP5 ADD SWAP4 POP PUSH1 0x20 DUP4 ADD SWAP3 POP POP PUSH1 0x1 DUP2 ADD SWAP1 POP PUSH2 0x2A4A JUMP JUMPDEST POP POP POP SWAP4 SWAP3 POP POP POP JUMP JUMPDEST PUSH1 0x0 PUSH2 0x2A94 PUSH2 0x2A8F DUP5 PUSH2 0x3BC5 JUMP JUMPDEST PUSH2 0x3B74 JUMP JUMPDEST SWAP1 POP DUP1 DUP4 DUP3 MSTORE PUSH1 0x20 DUP3 ADD SWAP1 POP DUP3 DUP6 PUSH1 0x20 DUP7 MUL DUP3 ADD GT ISZERO PUSH2 0x2AB7 JUMPI PUSH2 0x2AB6 PUSH2 0x4058 JUMP JUMPDEST JUMPDEST PUSH1 0x0 JUMPDEST DUP6 DUP2 LT ISZERO PUSH2 0x2AE7 JUMPI DUP2 PUSH2 0x2ACD DUP9 DUP3 PUSH2 0x2C96 JUMP JUMPDEST DUP5 MSTORE PUSH1 0x20 DUP5 ADD SWAP4 POP PUSH1 0x20 DUP4 ADD SWAP3 POP POP PUSH1 0x1 DUP2 ADD SWAP1 POP PUSH2 0x2ABA JUMP JUMPDEST POP POP POP SWAP4 SWAP3 POP POP POP JUMP JUMPDEST PUSH1 0x0 PUSH2 0x2B04 PUSH2 0x2AFF DUP5 PUSH2 0x3BF1 JUMP JUMPDEST PUSH2 0x3B74 JUMP JUMPDEST SWAP1 POP DUP3 DUP2 MSTORE PUSH1 0x20 DUP2 ADD DUP5 DUP5 DUP5 ADD GT ISZERO PUSH2 0x2B20 JUMPI PUSH2 0x2B1F PUSH2 0x405D JUMP JUMPDEST JUMPDEST PUSH2 0x2B2B DUP5 DUP3 DUP6 PUSH2 0x3E2E JUMP JUMPDEST POP SWAP4 SWAP3 POP POP POP JUMP JUMPDEST PUSH1 0x0 PUSH2 0x2B46 PUSH2 0x2B41 DUP5 PUSH2 0x3C22 JUMP JUMPDEST PUSH2 0x3B74 JUMP JUMPDEST SWAP1 POP DUP3 DUP2 MSTORE PUSH1 0x20 DUP2 ADD DUP5 DUP5 DUP5 ADD GT ISZERO PUSH2 0x2B62 JUMPI PUSH2 0x2B61 PUSH2 0x405D JUMP JUMPDEST JUMPDEST PUSH2 0x2B6D DUP5 DUP3 DUP6 PUSH2 0x3E2E JUMP JUMPDEST POP SWAP4 SWAP3 POP POP POP JUMP JUMPDEST PUSH1 0x0 DUP2 CALLDATALOAD SWAP1 POP PUSH2 0x2B84 DUP2 PUSH2 0x4665 JUMP JUMPDEST SWAP3 SWAP2 POP POP JUMP JUMPDEST PUSH1 0x0 DUP3 PUSH1 0x1F DUP4 ADD SLT PUSH2 0x2B9F JUMPI PUSH2 0x2B9E PUSH2 0x4053 JUMP JUMPDEST JUMPDEST DUP2 CALLDATALOAD PUSH2 0x2BAF DUP5 DUP3 PUSH1 0x20 DUP7 ADD PUSH2 0x2A11 JUMP JUMPDEST SWAP2 POP POP SWAP3 SWAP2 POP POP JUMP JUMPDEST PUSH1 0x0 DUP3 PUSH1 0x1F DUP4 ADD SLT PUSH2 0x2BCD JUMPI PUSH2 0x2BCC PUSH2 0x4053 JUMP JUMPDEST JUMPDEST DUP2 CALLDATALOAD PUSH2 0x2BDD DUP5 DUP3 PUSH1 0x20 DUP7 ADD PUSH2 0x2A81 JUMP JUMPDEST SWAP2 POP POP SWAP3 SWAP2 POP POP JUMP JUMPDEST PUSH1 0x0 DUP2 CALLDATALOAD SWAP1 POP PUSH2 0x2BF5 DUP2 PUSH2 0x467C JUMP JUMPDEST SWAP3 SWAP2 POP POP JUMP JUMPDEST PUSH1 0x0 DUP2 CALLDATALOAD SWAP1 POP PUSH2 0x2C0A DUP2 PUSH2 0x4693 JUMP JUMPDEST SWAP3 SWAP2 POP POP JUMP JUMPDEST PUSH1 0x0 DUP2 CALLDATALOAD SWAP1 POP PUSH2 0x2C1F DUP2 PUSH2 0x46AA JUMP JUMPDEST SWAP3 SWAP2 POP POP JUMP JUMPDEST PUSH1 0x0 DUP2 MLOAD SWAP1 POP PUSH2 0x2C34 DUP2 PUSH2 0x46AA JUMP JUMPDEST SWAP3 SWAP2 POP POP JUMP JUMPDEST PUSH1 0x0 DUP3 PUSH1 0x1F DUP4 ADD SLT PUSH2 0x2C4F JUMPI PUSH2 0x2C4E PUSH2 0x4053 JUMP JUMPDEST JUMPDEST DUP2 CALLDATALOAD PUSH2 0x2C5F DUP5 DUP3 PUSH1 0x20 DUP7 ADD PUSH2 0x2AF1 JUMP JUMPDEST SWAP2 POP POP SWAP3 SWAP2 POP POP JUMP JUMPDEST PUSH1 0x0 DUP3 PUSH1 0x1F DUP4 ADD SLT PUSH2 0x2C7D JUMPI PUSH2 0x2C7C PUSH2 0x4053 JUMP JUMPDEST JUMPDEST DUP2 CALLDATALOAD PUSH2 0x2C8D DUP5 DUP3 PUSH1 0x20 DUP7 ADD PUSH2 0x2B33 JUMP JUMPDEST SWAP2 POP POP SWAP3 SWAP2 POP POP JUMP JUMPDEST PUSH1 0x0 DUP2 CALLDATALOAD SWAP1 POP PUSH2 0x2CA5 DUP2 PUSH2 0x46C1 JUMP JUMPDEST SWAP3 SWAP2 POP POP JUMP JUMPDEST PUSH1 0x0 DUP2 MLOAD SWAP1 POP PUSH2 0x2CBA DUP2 PUSH2 0x46C1 JUMP JUMPDEST SWAP3 SWAP2 POP POP JUMP JUMPDEST PUSH1 0x0 PUSH1 0x20 DUP3 DUP5 SUB SLT ISZERO PUSH2 0x2CD6 JUMPI PUSH2 0x2CD5 PUSH2 0x4067 JUMP JUMPDEST JUMPDEST PUSH1 0x0 PUSH2 0x2CE4 DUP5 DUP3 DUP6 ADD PUSH2 0x2B75 JUMP JUMPDEST SWAP2 POP POP SWAP3 SWAP2 POP POP JUMP JUMPDEST PUSH1 0x0 DUP1 PUSH1 0x40 DUP4 DUP6 SUB SLT ISZERO PUSH2 0x2D04 JUMPI PUSH2 0x2D03 PUSH2 0x4067 JUMP JUMPDEST JUMPDEST PUSH1 0x0 PUSH2 0x2D12 DUP6 DUP3 DUP7 ADD PUSH2 0x2B75 JUMP JUMPDEST SWAP3 POP POP PUSH1 0x20 PUSH2 0x2D23 DUP6 DUP3 DUP7 ADD PUSH2 0x2B75 JUMP JUMPDEST SWAP2 POP POP SWAP3 POP SWAP3 SWAP1 POP JUMP JUMPDEST PUSH1 0x0 DUP1 PUSH1 0x0 DUP1 PUSH1 0x0 PUSH1 0xA0 DUP7 DUP9 SUB SLT ISZERO PUSH2 0x2D49 JUMPI PUSH2 0x2D48 PUSH2 0x4067 JUMP JUMPDEST JUMPDEST PUSH1 0x0 PUSH2 0x2D57 DUP9 DUP3 DUP10 ADD PUSH2 0x2B75 JUMP JUMPDEST SWAP6 POP POP PUSH1 0x20 PUSH2 0x2D68 DUP9 DUP3 DUP10 ADD PUSH2 0x2B75 JUMP JUMPDEST SWAP5 POP POP PUSH1 0x40 DUP7 ADD CALLDATALOAD PUSH8 0xFFFFFFFFFFFFFFFF DUP2 GT ISZERO PUSH2 0x2D89 JUMPI PUSH2 0x2D88 PUSH2 0x4062 JUMP JUMPDEST JUMPDEST PUSH2 0x2D95 DUP9 DUP3 DUP10 ADD PUSH2 0x2BB8 JUMP JUMPDEST SWAP4 POP POP PUSH1 0x60 DUP7 ADD CALLDATALOAD PUSH8 0xFFFFFFFFFFFFFFFF DUP2 GT ISZERO PUSH2 0x2DB6 JUMPI PUSH2 0x2DB5 PUSH2 0x4062 JUMP JUMPDEST JUMPDEST PUSH2 0x2DC2 DUP9 DUP3 DUP10 ADD PUSH2 0x2BB8 JUMP JUMPDEST SWAP3 POP POP PUSH1 0x80 DUP7 ADD CALLDATALOAD PUSH8 0xFFFFFFFFFFFFFFFF DUP2 GT ISZERO PUSH2 0x2DE3 JUMPI PUSH2 0x2DE2 PUSH2 0x4062 JUMP JUMPDEST JUMPDEST PUSH2 0x2DEF DUP9 DUP3 DUP10 ADD PUSH2 0x2C3A JUMP JUMPDEST SWAP2 POP POP SWAP3 SWAP6 POP SWAP3 SWAP6 SWAP1 SWAP4 POP JUMP JUMPDEST PUSH1 0x0 DUP1 PUSH1 0x0 DUP1 PUSH1 0x0 PUSH1 0xA0 DUP7 DUP9 SUB SLT ISZERO PUSH2 0x2E18 JUMPI PUSH2 0x2E17 PUSH2 0x4067 JUMP JUMPDEST JUMPDEST PUSH1 0x0 PUSH2 0x2E26 DUP9 DUP3 DUP10 ADD PUSH2 0x2B75 JUMP JUMPDEST SWAP6 POP POP PUSH1 0x20 PUSH2 0x2E37 DUP9 DUP3 DUP10 ADD PUSH2 0x2B75 JUMP JUMPDEST SWAP5 POP POP PUSH1 0x40 PUSH2 0x2E48 DUP9 DUP3 DUP10 ADD PUSH2 0x2C96 JUMP JUMPDEST SWAP4 POP POP PUSH1 0x60 PUSH2 0x2E59 DUP9 DUP3 DUP10 ADD PUSH2 0x2C96 JUMP JUMPDEST SWAP3 POP POP PUSH1 0x80 DUP7 ADD CALLDATALOAD PUSH8 0xFFFFFFFFFFFFFFFF DUP2 GT ISZERO PUSH2 0x2E7A JUMPI PUSH2 0x2E79 PUSH2 0x4062 JUMP JUMPDEST JUMPDEST PUSH2 0x2E86 DUP9 DUP3 DUP10 ADD PUSH2 0x2C3A JUMP JUMPDEST SWAP2 POP POP SWAP3 SWAP6 POP SWAP3 SWAP6 SWAP1 SWAP4 POP JUMP JUMPDEST PUSH1 0x0 DUP1 PUSH1 0x0 PUSH1 0x60 DUP5 DUP7 SUB SLT ISZERO PUSH2 0x2EAC JUMPI PUSH2 0x2EAB PUSH2 0x4067 JUMP JUMPDEST JUMPDEST PUSH1 0x0 PUSH2 0x2EBA DUP7 DUP3 DUP8 ADD PUSH2 0x2B75 JUMP JUMPDEST SWAP4 POP POP PUSH1 0x20 DUP5 ADD CALLDATALOAD PUSH8 0xFFFFFFFFFFFFFFFF DUP2 GT ISZERO PUSH2 0x2EDB JUMPI PUSH2 0x2EDA PUSH2 0x4062 JUMP JUMPDEST JUMPDEST PUSH2 0x2EE7 DUP7 DUP3 DUP8 ADD PUSH2 0x2BB8 JUMP JUMPDEST SWAP3 POP POP PUSH1 0x40 DUP5 ADD CALLDATALOAD PUSH8 0xFFFFFFFFFFFFFFFF DUP2 GT ISZERO PUSH2 0x2F08 JUMPI PUSH2 0x2F07 PUSH2 0x4062 JUMP JUMPDEST JUMPDEST PUSH2 0x2F14 DUP7 DUP3 DUP8 ADD PUSH2 0x2BB8 JUMP JUMPDEST SWAP2 POP POP SWAP3 POP SWAP3 POP SWAP3 JUMP JUMPDEST PUSH1 0x0 DUP1 PUSH1 0x0 DUP1 PUSH1 0x80 DUP6 DUP8 SUB SLT ISZERO PUSH2 0x2F38 JUMPI PUSH2 0x2F37 PUSH2 0x4067 JUMP JUMPDEST JUMPDEST PUSH1 0x0 PUSH2 0x2F46 DUP8 DUP3 DUP9 ADD PUSH2 0x2B75 JUMP JUMPDEST SWAP5 POP POP PUSH1 0x20 DUP6 ADD CALLDATALOAD PUSH8 0xFFFFFFFFFFFFFFFF DUP2 GT ISZERO PUSH2 0x2F67 JUMPI PUSH2 0x2F66 PUSH2 0x4062 JUMP JUMPDEST JUMPDEST PUSH2 0x2F73 DUP8 DUP3 DUP9 ADD PUSH2 0x2BB8 JUMP JUMPDEST SWAP4 POP POP PUSH1 0x40 DUP6 ADD CALLDATALOAD PUSH8 0xFFFFFFFFFFFFFFFF DUP2 GT ISZERO PUSH2 0x2F94 JUMPI PUSH2 0x2F93 PUSH2 0x4062 JUMP JUMPDEST JUMPDEST PUSH2 0x2FA0 DUP8 DUP3 DUP9 ADD PUSH2 0x2BB8 JUMP JUMPDEST SWAP3 POP POP PUSH1 0x60 DUP6 ADD CALLDATALOAD PUSH8 0xFFFFFFFFFFFFFFFF DUP2 GT ISZERO PUSH2 0x2FC1 JUMPI PUSH2 0x2FC0 PUSH2 0x4062 JUMP JUMPDEST JUMPDEST PUSH2 0x2FCD DUP8 DUP3 DUP9 ADD PUSH2 0x2C3A JUMP JUMPDEST SWAP2 POP POP SWAP3 SWAP6 SWAP2 SWAP5 POP SWAP3 POP JUMP JUMPDEST PUSH1 0x0 DUP1 PUSH1 0x40 DUP4 DUP6 SUB SLT ISZERO PUSH2 0x2FF0 JUMPI PUSH2 0x2FEF PUSH2 0x4067 JUMP JUMPDEST JUMPDEST PUSH1 0x0 PUSH2 0x2FFE DUP6 DUP3 DUP7 ADD PUSH2 0x2B75 JUMP JUMPDEST SWAP3 POP POP PUSH1 0x20 PUSH2 0x300F DUP6 DUP3 DUP7 ADD PUSH2 0x2BE6 JUMP JUMPDEST SWAP2 POP POP SWAP3 POP SWAP3 SWAP1 POP JUMP JUMPDEST PUSH1 0x0 DUP1 PUSH1 0x40 DUP4 DUP6 SUB SLT ISZERO PUSH2 0x3030 JUMPI PUSH2 0x302F PUSH2 0x4067 JUMP JUMPDEST JUMPDEST PUSH1 0x0 PUSH2 0x303E DUP6 DUP3 DUP7 ADD PUSH2 0x2B75 JUMP JUMPDEST SWAP3 POP POP PUSH1 0x20 PUSH2 0x304F DUP6 DUP3 DUP7 ADD PUSH2 0x2C96 JUMP JUMPDEST SWAP2 POP POP SWAP3 POP SWAP3 SWAP1 POP JUMP JUMPDEST PUSH1 0x0 DUP1 PUSH1 0x0 PUSH1 0x60 DUP5 DUP7 SUB SLT ISZERO PUSH2 0x3072 JUMPI PUSH2 0x3071 PUSH2 0x4067 JUMP JUMPDEST JUMPDEST PUSH1 0x0 PUSH2 0x3080 DUP7 DUP3 DUP8 ADD PUSH2 0x2B75 JUMP JUMPDEST SWAP4 POP POP PUSH1 0x20 PUSH2 0x3091 DUP7 DUP3 DUP8 ADD PUSH2 0x2C96 JUMP JUMPDEST SWAP3 POP POP PUSH1 0x40 DUP5 ADD CALLDATALOAD PUSH8 0xFFFFFFFFFFFFFFFF DUP2 GT ISZERO PUSH2 0x30B2 JUMPI PUSH2 0x30B1 PUSH2 0x4062 JUMP JUMPDEST JUMPDEST PUSH2 0x30BE DUP7 DUP3 DUP8 ADD PUSH2 0x2C3A JUMP JUMPDEST SWAP2 POP POP SWAP3 POP SWAP3 POP SWAP3 JUMP JUMPDEST PUSH1 0x0 DUP1 PUSH1 0x0 PUSH1 0x60 DUP5 DUP7 SUB SLT ISZERO PUSH2 0x30E1 JUMPI PUSH2 0x30E0 PUSH2 0x4067 JUMP JUMPDEST JUMPDEST PUSH1 0x0 PUSH2 0x30EF DUP7 DUP3 DUP8 ADD PUSH2 0x2B75 JUMP JUMPDEST SWAP4 POP POP PUSH1 0x20 PUSH2 0x3100 DUP7 DUP3 DUP8 ADD PUSH2 0x2C96 JUMP JUMPDEST SWAP3 POP POP PUSH1 0x40 PUSH2 0x3111 DUP7 DUP3 DUP8 ADD PUSH2 0x2C96 JUMP JUMPDEST SWAP2 POP POP SWAP3 POP SWAP3 POP SWAP3 JUMP JUMPDEST PUSH1 0x0 DUP1 PUSH1 0x40 DUP4 DUP6 SUB SLT ISZERO PUSH2 0x3132 JUMPI PUSH2 0x3131 PUSH2 0x4067 JUMP JUMPDEST JUMPDEST PUSH1 0x0 DUP4 ADD CALLDATALOAD PUSH8 0xFFFFFFFFFFFFFFFF DUP2 GT ISZERO PUSH2 0x3150 JUMPI PUSH2 0x314F PUSH2 0x4062 JUMP JUMPDEST JUMPDEST PUSH2 0x315C DUP6 DUP3 DUP7 ADD PUSH2 0x2B8A JUMP JUMPDEST SWAP3 POP POP PUSH1 0x20 DUP4 ADD CALLDATALOAD PUSH8 0xFFFFFFFFFFFFFFFF DUP2 GT ISZERO PUSH2 0x317D JUMPI PUSH2 0x317C PUSH2 0x4062 JUMP JUMPDEST JUMPDEST PUSH2 0x3189 DUP6 DUP3 DUP7 ADD PUSH2 0x2BB8 JUMP JUMPDEST SWAP2 POP POP SWAP3 POP SWAP3 SWAP1 POP JUMP JUMPDEST PUSH1 0x0 PUSH1 0x20 DUP3 DUP5 SUB SLT ISZERO PUSH2 0x31A9 JUMPI PUSH2 0x31A8 PUSH2 0x4067 JUMP JUMPDEST JUMPDEST PUSH1 0x0 PUSH2 0x31B7 DUP5 DUP3 DUP6 ADD PUSH2 0x2BFB JUMP JUMPDEST SWAP2 POP POP SWAP3 SWAP2 POP POP JUMP JUMPDEST PUSH1 0x0 DUP1 PUSH1 0x40 DUP4 DUP6 SUB SLT ISZERO PUSH2 0x31D7 JUMPI PUSH2 0x31D6 PUSH2 0x4067 JUMP JUMPDEST JUMPDEST PUSH1 0x0 PUSH2 0x31E5 DUP6 DUP3 DUP7 ADD PUSH2 0x2BFB JUMP JUMPDEST SWAP3 POP POP PUSH1 0x20 PUSH2 0x31F6 DUP6 DUP3 DUP7 ADD PUSH2 0x2B75 JUMP JUMPDEST SWAP2 POP POP SWAP3 POP SWAP3 SWAP1 POP JUMP JUMPDEST PUSH1 0x0 PUSH1 0x20 DUP3 DUP5 SUB SLT ISZERO PUSH2 0x3216 JUMPI PUSH2 0x3215 PUSH2 0x4067 JUMP JUMPDEST JUMPDEST PUSH1 0x0 PUSH2 0x3224 DUP5 DUP3 DUP6 ADD PUSH2 0x2C10 JUMP JUMPDEST SWAP2 POP POP SWAP3 SWAP2 POP POP JUMP JUMPDEST PUSH1 0x0 PUSH1 0x20 DUP3 DUP5 SUB SLT ISZERO PUSH2 0x3243 JUMPI PUSH2 0x3242 PUSH2 0x4067 JUMP JUMPDEST JUMPDEST PUSH1 0x0 PUSH2 0x3251 DUP5 DUP3 DUP6 ADD PUSH2 0x2C25 JUMP JUMPDEST SWAP2 POP POP SWAP3 SWAP2 POP POP JUMP JUMPDEST PUSH1 0x0 PUSH1 0x20 DUP3 DUP5 SUB SLT ISZERO PUSH2 0x3270 JUMPI PUSH2 0x326F PUSH2 0x4067 JUMP JUMPDEST JUMPDEST PUSH1 0x0 DUP3 ADD CALLDATALOAD PUSH8 0xFFFFFFFFFFFFFFFF DUP2 GT ISZERO PUSH2 0x328E JUMPI PUSH2 0x328D PUSH2 0x4062 JUMP JUMPDEST JUMPDEST PUSH2 0x329A DUP5 DUP3 DUP6 ADD PUSH2 0x2C68 JUMP JUMPDEST SWAP2 POP POP SWAP3 SWAP2 POP POP JUMP JUMPDEST PUSH1 0x0 PUSH1 0x20 DUP3 DUP5 SUB SLT ISZERO PUSH2 0x32B9 JUMPI PUSH2 0x32B8 PUSH2 0x4067 JUMP JUMPDEST JUMPDEST PUSH1 0x0 PUSH2 0x32C7 DUP5 DUP3 DUP6 ADD PUSH2 0x2C96 JUMP JUMPDEST SWAP2 POP POP SWAP3 SWAP2 POP POP JUMP JUMPDEST PUSH1 0x0 PUSH1 0x20 DUP3 DUP5 SUB SLT ISZERO PUSH2 0x32E6 JUMPI PUSH2 0x32E5 PUSH2 0x4067 JUMP JUMPDEST JUMPDEST PUSH1 0x0 PUSH2 0x32F4 DUP5 DUP3 DUP6 ADD PUSH2 0x2CAB JUMP JUMPDEST SWAP2 POP POP SWAP3 SWAP2 POP POP JUMP JUMPDEST PUSH1 0x0 DUP1 PUSH1 0x40 DUP4 DUP6 SUB SLT ISZERO PUSH2 0x3314 JUMPI PUSH2 0x3313 PUSH2 0x4067 JUMP JUMPDEST JUMPDEST PUSH1 0x0 PUSH2 0x3322 DUP6 DUP3 DUP7 ADD PUSH2 0x2C96 JUMP JUMPDEST SWAP3 POP POP PUSH1 0x20 PUSH2 0x3333 DUP6 DUP3 DUP7 ADD PUSH2 0x2C96 JUMP JUMPDEST SWAP2 POP POP SWAP3 POP SWAP3 SWAP1 POP JUMP JUMPDEST PUSH1 0x0 PUSH2 0x3349 DUP4 DUP4 PUSH2 0x371C JUMP JUMPDEST PUSH1 0x20 DUP4 ADD SWAP1 POP SWAP3 SWAP2 POP POP JUMP JUMPDEST PUSH2 0x335E DUP2 PUSH2 0x3DB0 JUMP JUMPDEST DUP3 MSTORE POP POP JUMP JUMPDEST PUSH1 0x0 PUSH2 0x336F DUP3 PUSH2 0x3C63 JUMP JUMPDEST PUSH2 0x3379 DUP2 DUP6 PUSH2 0x3C91 JUMP JUMPDEST SWAP4 POP PUSH2 0x3384 DUP4 PUSH2 0x3C53 JUMP JUMPDEST DUP1 PUSH1 0x0 JUMPDEST DUP4 DUP2 LT ISZERO PUSH2 0x33B5 JUMPI DUP2 MLOAD PUSH2 0x339C DUP9 DUP3 PUSH2 0x333D JUMP JUMPDEST SWAP8 POP PUSH2 0x33A7 DUP4 PUSH2 0x3C84 JUMP JUMPDEST SWAP3 POP POP PUSH1 0x1 DUP2 ADD SWAP1 POP PUSH2 0x3388 JUMP JUMPDEST POP DUP6 SWAP4 POP POP POP POP SWAP3 SWAP2 POP POP JUMP JUMPDEST PUSH2 0x33CB DUP2 PUSH2 0x3DC2 JUMP JUMPDEST DUP3 MSTORE POP POP JUMP JUMPDEST PUSH2 0x33DA DUP2 PUSH2 0x3DCE JUMP JUMPDEST DUP3 MSTORE POP POP JUMP JUMPDEST PUSH1 0x0 PUSH2 0x33EB DUP3 PUSH2 0x3C6E JUMP JUMPDEST PUSH2 0x33F5 DUP2 DUP6 PUSH2 0x3CA2 JUMP JUMPDEST SWAP4 POP PUSH2 0x3405 DUP2 DUP6 PUSH1 0x20 DUP7 ADD PUSH2 0x3E3D JUMP JUMPDEST PUSH2 0x340E DUP2 PUSH2 0x406C JUMP JUMPDEST DUP5 ADD SWAP2 POP POP SWAP3 SWAP2 POP POP JUMP JUMPDEST PUSH1 0x0 PUSH2 0x3424 DUP3 PUSH2 0x3C79 JUMP JUMPDEST PUSH2 0x342E DUP2 DUP6 PUSH2 0x3CB3 JUMP JUMPDEST SWAP4 POP PUSH2 0x343E DUP2 DUP6 PUSH1 0x20 DUP7 ADD PUSH2 0x3E3D JUMP JUMPDEST PUSH2 0x3447 DUP2 PUSH2 0x406C JUMP JUMPDEST DUP5 ADD SWAP2 POP POP SWAP3 SWAP2 POP POP JUMP JUMPDEST PUSH1 0x0 PUSH2 0x345D DUP3 PUSH2 0x3C79 JUMP JUMPDEST PUSH2 0x3467 DUP2 DUP6 PUSH2 0x3CC4 JUMP JUMPDEST SWAP4 POP PUSH2 0x3477 DUP2 DUP6 PUSH1 0x20 DUP7 ADD PUSH2 0x3E3D JUMP JUMPDEST DUP1 DUP5 ADD SWAP2 POP POP SWAP3 SWAP2 POP POP JUMP JUMPDEST PUSH1 0x0 PUSH2 0x3490 PUSH1 0x34 DUP4 PUSH2 0x3CB3 JUMP JUMPDEST SWAP2 POP PUSH2 0x349B DUP3 PUSH2 0x408A JUMP JUMPDEST PUSH1 0x40 DUP3 ADD SWAP1 POP SWAP2 SWAP1 POP JUMP JUMPDEST PUSH1 0x0 PUSH2 0x34B3 PUSH1 0x20 DUP4 PUSH2 0x3CB3 JUMP JUMPDEST SWAP2 POP PUSH2 0x34BE DUP3 PUSH2 0x40D9 JUMP JUMPDEST PUSH1 0x20 DUP3 ADD SWAP1 POP SWAP2 SWAP1 POP JUMP JUMPDEST PUSH1 0x0 PUSH2 0x34D6 PUSH1 0x28 DUP4 PUSH2 0x3CB3 JUMP JUMPDEST SWAP2 POP PUSH2 0x34E1 DUP3 PUSH2 0x4102 JUMP JUMPDEST PUSH1 0x40 DUP3 ADD SWAP1 POP SWAP2 SWAP1 POP JUMP JUMPDEST PUSH1 0x0 PUSH2 0x34F9 PUSH1 0x2B DUP4 PUSH2 0x3CB3 JUMP JUMPDEST SWAP2 POP PUSH2 0x3504 DUP3 PUSH2 0x4151 JUMP JUMPDEST PUSH1 0x40 DUP3 ADD SWAP1 POP SWAP2 SWAP1 POP JUMP JUMPDEST PUSH1 0x0 PUSH2 0x351C PUSH1 0x24 DUP4 PUSH2 0x3CB3 JUMP JUMPDEST SWAP2 POP PUSH2 0x3527 DUP3 PUSH2 0x41A0 JUMP JUMPDEST PUSH1 0x40 DUP3 ADD SWAP1 POP SWAP2 SWAP1 POP JUMP JUMPDEST PUSH1 0x0 PUSH2 0x353F PUSH1 0x29 DUP4 PUSH2 0x3CB3 JUMP JUMPDEST SWAP2 POP PUSH2 0x354A DUP3 PUSH2 0x41EF JUMP JUMPDEST PUSH1 0x40 DUP3 ADD SWAP1 POP SWAP2 SWAP1 POP JUMP JUMPDEST PUSH1 0x0 PUSH2 0x3562 PUSH1 0x25 DUP4 PUSH2 0x3CB3 JUMP JUMPDEST SWAP2 POP PUSH2 0x356D DUP3 PUSH2 0x423E JUMP JUMPDEST PUSH1 0x40 DUP3 ADD SWAP1 POP SWAP2 SWAP1 POP JUMP JUMPDEST PUSH1 0x0 PUSH2 0x3585 PUSH1 0x32 DUP4 PUSH2 0x3CB3 JUMP JUMPDEST SWAP2 POP PUSH2 0x3590 DUP3 PUSH2 0x428D JUMP JUMPDEST PUSH1 0x40 DUP3 ADD SWAP1 POP SWAP2 SWAP1 POP JUMP JUMPDEST PUSH1 0x0 PUSH2 0x35A8 PUSH1 0x23 DUP4 PUSH2 0x3CB3 JUMP JUMPDEST SWAP2 POP PUSH2 0x35B3 DUP3 PUSH2 0x42DC JUMP JUMPDEST PUSH1 0x40 DUP3 ADD SWAP1 POP SWAP2 SWAP1 POP JUMP JUMPDEST PUSH1 0x0 PUSH2 0x35CB PUSH1 0x2A DUP4 PUSH2 0x3CB3 JUMP JUMPDEST SWAP2 POP PUSH2 0x35D6 DUP3 PUSH2 0x432B JUMP JUMPDEST PUSH1 0x40 DUP3 ADD SWAP1 POP SWAP2 SWAP1 POP JUMP JUMPDEST PUSH1 0x0 PUSH2 0x35EE PUSH1 0x2C DUP4 PUSH2 0x3CB3 JUMP JUMPDEST SWAP2 POP PUSH2 0x35F9 DUP3 PUSH2 0x437A JUMP JUMPDEST PUSH1 0x40 DUP3 ADD SWAP1 POP SWAP2 SWAP1 POP JUMP JUMPDEST PUSH1 0x0 PUSH2 0x3611 PUSH1 0x18 DUP4 PUSH2 0x3CB3 JUMP JUMPDEST SWAP2 POP PUSH2 0x361C DUP3 PUSH2 0x43C9 JUMP JUMPDEST PUSH1 0x20 DUP3 ADD SWAP1 POP SWAP2 SWAP1 POP JUMP JUMPDEST PUSH1 0x0 PUSH2 0x3634 PUSH1 0x17 DUP4 PUSH2 0x3CC4 JUMP JUMPDEST SWAP2 POP PUSH2 0x363F DUP3 PUSH2 0x43F2 JUMP JUMPDEST PUSH1 0x17 DUP3 ADD SWAP1 POP SWAP2 SWAP1 POP JUMP JUMPDEST PUSH1 0x0 PUSH2 0x3657 PUSH1 0x29 DUP4 PUSH2 0x3CB3 JUMP JUMPDEST SWAP2 POP PUSH2 0x3662 DUP3 PUSH2 0x441B JUMP JUMPDEST PUSH1 0x40 DUP3 ADD SWAP1 POP SWAP2 SWAP1 POP JUMP JUMPDEST PUSH1 0x0 PUSH2 0x367A PUSH1 0x29 DUP4 PUSH2 0x3CB3 JUMP JUMPDEST SWAP2 POP PUSH2 0x3685 DUP3 PUSH2 0x446A JUMP JUMPDEST PUSH1 0x40 DUP3 ADD SWAP1 POP SWAP2 SWAP1 POP JUMP JUMPDEST PUSH1 0x0 PUSH2 0x369D PUSH1 0x28 DUP4 PUSH2 0x3CB3 JUMP JUMPDEST SWAP2 POP PUSH2 0x36A8 DUP3 PUSH2 0x44B9 JUMP JUMPDEST PUSH1 0x40 DUP3 ADD SWAP1 POP SWAP2 SWAP1 POP JUMP JUMPDEST PUSH1 0x0 PUSH2 0x36C0 PUSH1 0x21 DUP4 PUSH2 0x3CB3 JUMP JUMPDEST SWAP2 POP PUSH2 0x36CB DUP3 PUSH2 0x4508 JUMP JUMPDEST PUSH1 0x40 DUP3 ADD SWAP1 POP SWAP2 SWAP1 POP JUMP JUMPDEST PUSH1 0x0 PUSH2 0x36E3 PUSH1 0x11 DUP4 PUSH2 0x3CC4 JUMP JUMPDEST SWAP2 POP PUSH2 0x36EE DUP3 PUSH2 0x4557 JUMP JUMPDEST PUSH1 0x11 DUP3 ADD SWAP1 POP SWAP2 SWAP1 POP JUMP JUMPDEST PUSH1 0x0 PUSH2 0x3706 PUSH1 0x2F DUP4 PUSH2 0x3CB3 JUMP JUMPDEST SWAP2 POP PUSH2 0x3711 DUP3 PUSH2 0x4580 JUMP JUMPDEST PUSH1 0x40 DUP3 ADD SWAP1 POP SWAP2 SWAP1 POP JUMP JUMPDEST PUSH2 0x3725 DUP2 PUSH2 0x3E24 JUMP JUMPDEST DUP3 MSTORE POP POP JUMP JUMPDEST PUSH2 0x3734 DUP2 PUSH2 0x3E24 JUMP JUMPDEST DUP3 MSTORE POP POP JUMP JUMPDEST PUSH1 0x0 PUSH2 0x3745 DUP3 PUSH2 0x3627 JUMP JUMPDEST SWAP2 POP PUSH2 0x3751 DUP3 DUP6 PUSH2 0x3452 JUMP JUMPDEST SWAP2 POP PUSH2 0x375C DUP3 PUSH2 0x36D6 JUMP JUMPDEST SWAP2 POP PUSH2 0x3768 DUP3 DUP5 PUSH2 0x3452 JUMP JUMPDEST SWAP2 POP DUP2 SWAP1 POP SWAP4 SWAP3 POP POP POP JUMP JUMPDEST PUSH1 0x0 PUSH1 0xA0 DUP3 ADD SWAP1 POP PUSH2 0x3789 PUSH1 0x0 DUP4 ADD DUP9 PUSH2 0x3355 JUMP JUMPDEST PUSH2 0x3796 PUSH1 0x20 DUP4 ADD DUP8 PUSH2 0x3355 JUMP JUMPDEST DUP2 DUP2 SUB PUSH1 0x40 DUP4 ADD MSTORE PUSH2 0x37A8 DUP2 DUP7 PUSH2 0x3364 JUMP JUMPDEST SWAP1 POP DUP2 DUP2 SUB PUSH1 0x60 DUP4 ADD MSTORE PUSH2 0x37BC DUP2 DUP6 PUSH2 0x3364 JUMP JUMPDEST SWAP1 POP DUP2 DUP2 SUB PUSH1 0x80 DUP4 ADD MSTORE PUSH2 0x37D0 DUP2 DUP5 PUSH2 0x33E0 JUMP JUMPDEST SWAP1 POP SWAP7 SWAP6 POP POP POP POP POP POP JUMP JUMPDEST PUSH1 0x0 PUSH1 0xA0 DUP3 ADD SWAP1 POP PUSH2 0x37F1 PUSH1 0x0 DUP4 ADD DUP9 PUSH2 0x3355 JUMP JUMPDEST PUSH2 0x37FE PUSH1 0x20 DUP4 ADD DUP8 PUSH2 0x3355 JUMP JUMPDEST PUSH2 0x380B PUSH1 0x40 DUP4 ADD DUP7 PUSH2 0x372B JUMP JUMPDEST PUSH2 0x3818 PUSH1 0x60 DUP4 ADD DUP6 PUSH2 0x372B JUMP JUMPDEST DUP2 DUP2 SUB PUSH1 0x80 DUP4 ADD MSTORE PUSH2 0x382A DUP2 DUP5 PUSH2 0x33E0 JUMP JUMPDEST SWAP1 POP SWAP7 SWAP6 POP POP POP POP POP POP JUMP JUMPDEST PUSH1 0x0 PUSH1 0x40 DUP3 ADD SWAP1 POP PUSH2 0x384B PUSH1 0x0 DUP4 ADD DUP6 PUSH2 0x3355 JUMP JUMPDEST PUSH2 0x3858 PUSH1 0x20 DUP4 ADD DUP5 PUSH2 0x372B JUMP JUMPDEST SWAP4 SWAP3 POP POP POP JUMP JUMPDEST PUSH1 0x0 PUSH1 0x20 DUP3 ADD SWAP1 POP DUP2 DUP2 SUB PUSH1 0x0 DUP4 ADD MSTORE PUSH2 0x3879 DUP2 DUP5 PUSH2 0x3364 JUMP JUMPDEST SWAP1 POP SWAP3 SWAP2 POP POP JUMP JUMPDEST PUSH1 0x0 PUSH1 0x40 DUP3 ADD SWAP1 POP DUP2 DUP2 SUB PUSH1 0x0 DUP4 ADD MSTORE PUSH2 0x389B DUP2 DUP6 PUSH2 0x3364 JUMP JUMPDEST SWAP1 POP DUP2 DUP2 SUB PUSH1 0x20 DUP4 ADD MSTORE PUSH2 0x38AF DUP2 DUP5 PUSH2 0x3364 JUMP JUMPDEST SWAP1 POP SWAP4 SWAP3 POP POP POP JUMP JUMPDEST PUSH1 0x0 PUSH1 0x20 DUP3 ADD SWAP1 POP PUSH2 0x38CD PUSH1 0x0 DUP4 ADD DUP5 PUSH2 0x33C2 JUMP JUMPDEST SWAP3 SWAP2 POP POP JUMP JUMPDEST PUSH1 0x0 PUSH1 0x20 DUP3 ADD SWAP1 POP PUSH2 0x38E8 PUSH1 0x0 DUP4 ADD DUP5 PUSH2 0x33D1 JUMP JUMPDEST SWAP3 SWAP2 POP POP JUMP JUMPDEST PUSH1 0x0 PUSH1 0x20 DUP3 ADD SWAP1 POP DUP2 DUP2 SUB PUSH1 0x0 DUP4 ADD MSTORE PUSH2 0x3908 DUP2 DUP5 PUSH2 0x3419 JUMP JUMPDEST SWAP1 POP SWAP3 SWAP2 POP POP JUMP JUMPDEST PUSH1 0x0 PUSH1 0x20 DUP3 ADD SWAP1 POP DUP2 DUP2 SUB PUSH1 0x0 DUP4 ADD MSTORE PUSH2 0x3929 DUP2 PUSH2 0x3483 JUMP JUMPDEST SWAP1 POP SWAP2 SWAP1 POP JUMP JUMPDEST PUSH1 0x0 PUSH1 0x20 DUP3 ADD SWAP1 POP DUP2 DUP2 SUB PUSH1 0x0 DUP4 ADD MSTORE PUSH2 0x3949 DUP2 PUSH2 0x34A6 JUMP JUMPDEST SWAP1 POP SWAP2 SWAP1 POP JUMP JUMPDEST PUSH1 0x0 PUSH1 0x20 DUP3 ADD SWAP1 POP DUP2 DUP2 SUB PUSH1 0x0 DUP4 ADD MSTORE PUSH2 0x3969 DUP2 PUSH2 0x34C9 JUMP JUMPDEST SWAP1 POP SWAP2 SWAP1 POP JUMP JUMPDEST PUSH1 0x0 PUSH1 0x20 DUP3 ADD SWAP1 POP DUP2 DUP2 SUB PUSH1 0x0 DUP4 ADD MSTORE PUSH2 0x3989 DUP2 PUSH2 0x34EC JUMP JUMPDEST SWAP1 POP SWAP2 SWAP1 POP JUMP JUMPDEST PUSH1 0x0 PUSH1 0x20 DUP3 ADD SWAP1 POP DUP2 DUP2 SUB PUSH1 0x0 DUP4 ADD MSTORE PUSH2 0x39A9 DUP2 PUSH2 0x350F JUMP JUMPDEST SWAP1 POP SWAP2 SWAP1 POP JUMP JUMPDEST PUSH1 0x0 PUSH1 0x20 DUP3 ADD SWAP1 POP DUP2 DUP2 SUB PUSH1 0x0 DUP4 ADD MSTORE PUSH2 0x39C9 DUP2 PUSH2 0x3532 JUMP JUMPDEST SWAP1 POP SWAP2 SWAP1 POP JUMP JUMPDEST PUSH1 0x0 PUSH1 0x20 DUP3 ADD SWAP1 POP DUP2 DUP2 SUB PUSH1 0x0 DUP4 ADD MSTORE PUSH2 0x39E9 DUP2 PUSH2 0x3555 JUMP JUMPDEST SWAP1 POP SWAP2 SWAP1 POP JUMP JUMPDEST PUSH1 0x0 PUSH1 0x20 DUP3 ADD SWAP1 POP DUP2 DUP2 SUB PUSH1 0x0 DUP4 ADD MSTORE PUSH2 0x3A09 DUP2 PUSH2 0x3578 JUMP JUMPDEST SWAP1 POP SWAP2 SWAP1 POP JUMP JUMPDEST PUSH1 0x0 PUSH1 0x20 DUP3 ADD SWAP1 POP DUP2 DUP2 SUB PUSH1 0x0 DUP4 ADD MSTORE PUSH2 0x3A29 DUP2 PUSH2 0x359B JUMP JUMPDEST SWAP1 POP SWAP2 SWAP1 POP JUMP JUMPDEST PUSH1 0x0 PUSH1 0x20 DUP3 ADD SWAP1 POP DUP2 DUP2 SUB PUSH1 0x0 DUP4 ADD MSTORE PUSH2 0x3A49 DUP2 PUSH2 0x35BE JUMP JUMPDEST SWAP1 POP SWAP2 SWAP1 POP JUMP JUMPDEST PUSH1 0x0 PUSH1 0x20 DUP3 ADD SWAP1 POP DUP2 DUP2 SUB PUSH1 0x0 DUP4 ADD MSTORE PUSH2 0x3A69 DUP2 PUSH2 0x35E1 JUMP JUMPDEST SWAP1 POP SWAP2 SWAP1 POP JUMP JUMPDEST PUSH1 0x0 PUSH1 0x20 DUP3 ADD SWAP1 POP DUP2 DUP2 SUB PUSH1 0x0 DUP4 ADD MSTORE PUSH2 0x3A89 DUP2 PUSH2 0x3604 JUMP JUMPDEST SWAP1 POP SWAP2 SWAP1 POP JUMP JUMPDEST PUSH1 0x0 PUSH1 0x20 DUP3 ADD SWAP1 POP DUP2 DUP2 SUB PUSH1 0x0 DUP4 ADD MSTORE PUSH2 0x3AA9 DUP2 PUSH2 0x364A JUMP JUMPDEST SWAP1 POP SWAP2 SWAP1 POP JUMP JUMPDEST PUSH1 0x0 PUSH1 0x20 DUP3 ADD SWAP1 POP DUP2 DUP2 SUB PUSH1 0x0 DUP4 ADD MSTORE PUSH2 0x3AC9 DUP2 PUSH2 0x366D JUMP JUMPDEST SWAP1 POP SWAP2 SWAP1 POP JUMP JUMPDEST PUSH1 0x0 PUSH1 0x20 DUP3 ADD SWAP1 POP DUP2 DUP2 SUB PUSH1 0x0 DUP4 ADD MSTORE PUSH2 0x3AE9 DUP2 PUSH2 0x3690 JUMP JUMPDEST SWAP1 POP SWAP2 SWAP1 POP JUMP JUMPDEST PUSH1 0x0 PUSH1 0x20 DUP3 ADD SWAP1 POP DUP2 DUP2 SUB PUSH1 0x0 DUP4 ADD MSTORE PUSH2 0x3B09 DUP2 PUSH2 0x36B3 JUMP JUMPDEST SWAP1 POP SWAP2 SWAP1 POP JUMP JUMPDEST PUSH1 0x0 PUSH1 0x20 DUP3 ADD SWAP1 POP DUP2 DUP2 SUB PUSH1 0x0 DUP4 ADD MSTORE PUSH2 0x3B29 DUP2 PUSH2 0x36F9 JUMP JUMPDEST SWAP1 POP SWAP2 SWAP1 POP JUMP JUMPDEST PUSH1 0x0 PUSH1 0x20 DUP3 ADD SWAP1 POP PUSH2 0x3B45 PUSH1 0x0 DUP4 ADD DUP5 PUSH2 0x372B JUMP JUMPDEST SWAP3 SWAP2 POP POP JUMP JUMPDEST PUSH1 0x0 PUSH1 0x40 DUP3 ADD SWAP1 POP PUSH2 0x3B60 PUSH1 0x0 DUP4 ADD DUP6 PUSH2 0x372B JUMP JUMPDEST PUSH2 0x3B6D PUSH1 0x20 DUP4 ADD DUP5 PUSH2 0x372B JUMP JUMPDEST SWAP4 SWAP3 POP POP POP JUMP JUMPDEST PUSH1 0x0 PUSH2 0x3B7E PUSH2 0x3B8F JUMP JUMPDEST SWAP1 POP PUSH2 0x3B8A DUP3 DUP3 PUSH2 0x3ECC JUMP JUMPDEST SWAP2 SWAP1 POP JUMP JUMPDEST PUSH1 0x0 PUSH1 0x40 MLOAD SWAP1 POP SWAP1 JUMP JUMPDEST PUSH1 0x0 PUSH8 0xFFFFFFFFFFFFFFFF DUP3 GT ISZERO PUSH2 0x3BB4 JUMPI PUSH2 0x3BB3 PUSH2 0x4002 JUMP JUMPDEST JUMPDEST PUSH1 0x20 DUP3 MUL SWAP1 POP PUSH1 0x20 DUP2 ADD SWAP1 POP SWAP2 SWAP1 POP JUMP JUMPDEST PUSH1 0x0 PUSH8 0xFFFFFFFFFFFFFFFF DUP3 GT ISZERO PUSH2 0x3BE0 JUMPI PUSH2 0x3BDF PUSH2 0x4002 JUMP JUMPDEST JUMPDEST PUSH1 0x20 DUP3 MUL SWAP1 POP PUSH1 0x20 DUP2 ADD SWAP1 POP SWAP2 SWAP1 POP JUMP JUMPDEST PUSH1 0x0 PUSH8 0xFFFFFFFFFFFFFFFF DUP3 GT ISZERO PUSH2 0x3C0C JUMPI PUSH2 0x3C0B PUSH2 0x4002 JUMP JUMPDEST JUMPDEST PUSH2 0x3C15 DUP3 PUSH2 0x406C JUMP JUMPDEST SWAP1 POP PUSH1 0x20 DUP2 ADD SWAP1 POP SWAP2 SWAP1 POP JUMP JUMPDEST PUSH1 0x0 PUSH8 0xFFFFFFFFFFFFFFFF DUP3 GT ISZERO PUSH2 0x3C3D JUMPI PUSH2 0x3C3C PUSH2 0x4002 JUMP JUMPDEST JUMPDEST PUSH2 0x3C46 DUP3 PUSH2 0x406C JUMP JUMPDEST SWAP1 POP PUSH1 0x20 DUP2 ADD SWAP1 POP SWAP2 SWAP1 POP JUMP JUMPDEST PUSH1 0x0 DUP2 SWAP1 POP PUSH1 0x20 DUP3 ADD SWAP1 POP SWAP2 SWAP1 POP JUMP JUMPDEST PUSH1 0x0 DUP2 MLOAD SWAP1 POP SWAP2 SWAP1 POP JUMP JUMPDEST PUSH1 0x0 DUP2 MLOAD SWAP1 POP SWAP2 SWAP1 POP JUMP JUMPDEST PUSH1 0x0 DUP2 MLOAD SWAP1 POP SWAP2 SWAP1 POP JUMP JUMPDEST PUSH1 0x0 PUSH1 0x20 DUP3 ADD SWAP1 POP SWAP2 SWAP1 POP JUMP JUMPDEST PUSH1 0x0 DUP3 DUP3 MSTORE PUSH1 0x20 DUP3 ADD SWAP1 POP SWAP3 SWAP2 POP POP JUMP JUMPDEST PUSH1 0x0 DUP3 DUP3 MSTORE PUSH1 0x20 DUP3 ADD SWAP1 POP SWAP3 SWAP2 POP POP JUMP JUMPDEST PUSH1 0x0 DUP3 DUP3 MSTORE PUSH1 0x20 DUP3 ADD SWAP1 POP SWAP3 SWAP2 POP POP JUMP JUMPDEST PUSH1 0x0 DUP2 SWAP1 POP SWAP3 SWAP2 POP POP JUMP JUMPDEST PUSH1 0x0 PUSH2 0x3CDA DUP3 PUSH2 0x3E24 JUMP JUMPDEST SWAP2 POP PUSH2 0x3CE5 DUP4 PUSH2 0x3E24 JUMP JUMPDEST SWAP3 POP DUP3 PUSH32 0xFFFFFFFFFFFFFFFFFFFFFFFFFFFFFFFFFFFFFFFFFFFFFFFFFFFFFFFFFFFFFFFF SUB DUP3 GT ISZERO PUSH2 0x3D1A JUMPI PUSH2 0x3D19 PUSH2 0x3F46 JUMP JUMPDEST JUMPDEST DUP3 DUP3 ADD SWAP1 POP SWAP3 SWAP2 POP POP JUMP JUMPDEST PUSH1 0x0 PUSH2 0x3D30 DUP3 PUSH2 0x3E24 JUMP JUMPDEST SWAP2 POP PUSH2 0x3D3B DUP4 PUSH2 0x3E24 JUMP JUMPDEST SWAP3 POP DUP3 PUSH2 0x3D4B JUMPI PUSH2 0x3D4A PUSH2 0x3F75 JUMP JUMPDEST JUMPDEST DUP3 DUP3 DIV SWAP1 POP SWAP3 SWAP2 POP POP JUMP JUMPDEST PUSH1 0x0 PUSH2 0x3D61 DUP3 PUSH2 0x3E24 JUMP JUMPDEST SWAP2 POP PUSH2 0x3D6C DUP4 PUSH2 0x3E24 JUMP JUMPDEST SWAP3 POP DUP2 PUSH32 0xFFFFFFFFFFFFFFFFFFFFFFFFFFFFFFFFFFFFFFFFFFFFFFFFFFFFFFFFFFFFFFFF DIV DUP4 GT DUP3 ISZERO ISZERO AND ISZERO PUSH2 0x3DA5 JUMPI PUSH2 0x3DA4 PUSH2 0x3F46 JUMP JUMPDEST JUMPDEST DUP3 DUP3 MUL SWAP1 POP SWAP3 SWAP2 POP POP JUMP JUMPDEST PUSH1 0x0 PUSH2 0x3DBB DUP3 PUSH2 0x3E04 JUMP JUMPDEST SWAP1 POP SWAP2 SWAP1 POP JUMP JUMPDEST PUSH1 0x0 DUP2 ISZERO ISZERO SWAP1 POP SWAP2 SWAP1 POP JUMP JUMPDEST PUSH1 0x0 DUP2 SWAP1 POP SWAP2 SWAP1 POP JUMP JUMPDEST PUSH1 0x0 PUSH32 0xFFFFFFFF00000000000000000000000000000000000000000000000000000000 DUP3 AND SWAP1 POP SWAP2 SWAP1 POP JUMP JUMPDEST PUSH1 0x0 PUSH20 0xFFFFFFFFFFFFFFFFFFFFFFFFFFFFFFFFFFFFFFFF DUP3 AND SWAP1 POP SWAP2 SWAP1 POP JUMP JUMPDEST PUSH1 0x0 DUP2 SWAP1 POP SWAP2 SWAP1 POP JUMP JUMPDEST DUP3 DUP2 DUP4 CALLDATACOPY PUSH1 0x0 DUP4 DUP4 ADD MSTORE POP POP POP JUMP JUMPDEST PUSH1 0x0 JUMPDEST DUP4 DUP2 LT ISZERO PUSH2 0x3E5B JUMPI DUP1 DUP3 ADD MLOAD DUP2 DUP5 ADD MSTORE PUSH1 0x20 DUP2 ADD SWAP1 POP PUSH2 0x3E40 JUMP JUMPDEST DUP4 DUP2 GT ISZERO PUSH2 0x3E6A JUMPI PUSH1 0x0 DUP5 DUP5 ADD MSTORE JUMPDEST POP POP POP POP JUMP JUMPDEST PUSH1 0x0 PUSH2 0x3E7B DUP3 PUSH2 0x3E24 JUMP JUMPDEST SWAP2 POP PUSH1 0x0 DUP3 EQ ISZERO PUSH2 0x3E8F JUMPI PUSH2 0x3E8E PUSH2 0x3F46 JUMP JUMPDEST JUMPDEST PUSH1 0x1 DUP3 SUB SWAP1 POP SWAP2 SWAP1 POP JUMP JUMPDEST PUSH1 0x0 PUSH1 0x2 DUP3 DIV SWAP1 POP PUSH1 0x1 DUP3 AND DUP1 PUSH2 0x3EB2 JUMPI PUSH1 0x7F DUP3 AND SWAP2 POP JUMPDEST PUSH1 0x20 DUP3 LT DUP2 EQ ISZERO PUSH2 0x3EC6 JUMPI PUSH2 0x3EC5 PUSH2 0x3FA4 JUMP JUMPDEST JUMPDEST POP SWAP2 SWAP1 POP JUMP JUMPDEST PUSH2 0x3ED5 DUP3 PUSH2 0x406C JUMP JUMPDEST DUP2 ADD DUP2 DUP2 LT PUSH8 0xFFFFFFFFFFFFFFFF DUP3 GT OR ISZERO PUSH2 0x3EF4 JUMPI PUSH2 0x3EF3 PUSH2 0x4002 JUMP JUMPDEST JUMPDEST DUP1 PUSH1 0x40 MSTORE POP POP POP JUMP JUMPDEST PUSH1 0x0 PUSH2 0x3F08 DUP3 PUSH2 0x3E24 JUMP JUMPDEST SWAP2 POP PUSH32 0xFFFFFFFFFFFFFFFFFFFFFFFFFFFFFFFFFFFFFFFFFFFFFFFFFFFFFFFFFFFFFFFF DUP3 EQ ISZERO PUSH2 0x3F3B JUMPI PUSH2 0x3F3A PUSH2 0x3F46 JUMP JUMPDEST JUMPDEST PUSH1 0x1 DUP3 ADD SWAP1 POP SWAP2 SWAP1 POP JUMP JUMPDEST PUSH32 0x4E487B7100000000000000000000000000000000000000000000000000000000 PUSH1 0x0 MSTORE PUSH1 0x11 PUSH1 0x4 MSTORE PUSH1 0x24 PUSH1 0x0 REVERT JUMPDEST PUSH32 0x4E487B7100000000000000000000000000000000000000000000000000000000 PUSH1 0x0 MSTORE PUSH1 0x12 PUSH1 0x4 MSTORE PUSH1 0x24 PUSH1 0x0 REVERT JUMPDEST PUSH32 0x4E487B7100000000000000000000000000000000000000000000000000000000 PUSH1 0x0 MSTORE PUSH1 0x22 PUSH1 0x4 MSTORE PUSH1 0x24 PUSH1 0x0 REVERT JUMPDEST PUSH32 0x4E487B7100000000000000000000000000000000000000000000000000000000 PUSH1 0x0 MSTORE PUSH1 0x32 PUSH1 0x4 MSTORE PUSH1 0x24 PUSH1 0x0 REVERT JUMPDEST PUSH32 0x4E487B7100000000000000000000000000000000000000000000000000000000 PUSH1 0x0 MSTORE PUSH1 0x41 PUSH1 0x4 MSTORE PUSH1 0x24 PUSH1 0x0 REVERT JUMPDEST PUSH1 0x0 PUSH1 0x3 RETURNDATASIZE GT ISZERO PUSH2 0x4050 JUMPI PUSH1 0x4 PUSH1 0x0 DUP1 RETURNDATACOPY PUSH2 0x404D PUSH1 0x0 MLOAD PUSH2 0x407D JUMP JUMPDEST SWAP1 POP JUMPDEST SWAP1 JUMP JUMPDEST PUSH1 0x0 DUP1 REVERT JUMPDEST PUSH1 0x0 DUP1 REVERT JUMPDEST PUSH1 0x0 DUP1 REVERT JUMPDEST PUSH1 0x0 DUP1 REVERT JUMPDEST PUSH1 0x0 DUP1 REVERT JUMPDEST PUSH1 0x0 PUSH1 0x1F NOT PUSH1 0x1F DUP4 ADD AND SWAP1 POP SWAP2 SWAP1 POP JUMP JUMPDEST PUSH1 0x0 DUP2 PUSH1 0xE0 SHR SWAP1 POP SWAP2 SWAP1 POP JUMP JUMPDEST PUSH32 0x455243313135353A207472616E7366657220746F206E6F6E2045524331313535 PUSH1 0x0 DUP3 ADD MSTORE PUSH32 0x526563656976657220696D706C656D656E746572000000000000000000000000 PUSH1 0x20 DUP3 ADD MSTORE POP JUMP JUMPDEST PUSH32 0x537472696E67733A20686578206C656E67746820696E73756666696369656E74 PUSH1 0x0 DUP3 ADD MSTORE POP JUMP JUMPDEST PUSH32 0x455243313135353A204552433131353552656365697665722072656A65637465 PUSH1 0x0 DUP3 ADD MSTORE PUSH32 0x6420746F6B656E73000000000000000000000000000000000000000000000000 PUSH1 0x20 DUP3 ADD MSTORE POP JUMP JUMPDEST PUSH32 0x455243313135353A2062616C616E636520717565727920666F7220746865207A PUSH1 0x0 DUP3 ADD MSTORE PUSH32 0x65726F2061646472657373000000000000000000000000000000000000000000 PUSH1 0x20 DUP3 ADD MSTORE POP JUMP JUMPDEST PUSH32 0x455243313135353A206275726E20616D6F756E7420657863656564732062616C PUSH1 0x0 DUP3 ADD MSTORE PUSH32 0x616E636500000000000000000000000000000000000000000000000000000000 PUSH1 0x20 DUP3 ADD MSTORE POP JUMP JUMPDEST PUSH32 0x455243313135353A2063616C6C6572206973206E6F74206F776E6572206E6F72 PUSH1 0x0 DUP3 ADD MSTORE PUSH32 0x20617070726F7665640000000000000000000000000000000000000000000000 PUSH1 0x20 DUP3 ADD MSTORE POP JUMP JUMPDEST PUSH32 0x455243313135353A207472616E7366657220746F20746865207A65726F206164 PUSH1 0x0 DUP3 ADD MSTORE PUSH32 0x6472657373000000000000000000000000000000000000000000000000000000 PUSH1 0x20 DUP3 ADD MSTORE POP JUMP JUMPDEST PUSH32 0x455243313135353A207472616E736665722063616C6C6572206973206E6F7420 PUSH1 0x0 DUP3 ADD MSTORE PUSH32 0x6F776E6572206E6F7220617070726F7665640000000000000000000000000000 PUSH1 0x20 DUP3 ADD MSTORE POP JUMP JUMPDEST PUSH32 0x455243313135353A206275726E2066726F6D20746865207A65726F2061646472 PUSH1 0x0 DUP3 ADD MSTORE PUSH32 0x6573730000000000000000000000000000000000000000000000000000000000 PUSH1 0x20 DUP3 ADD MSTORE POP JUMP JUMPDEST PUSH32 0x455243313135353A20696E73756666696369656E742062616C616E636520666F PUSH1 0x0 DUP3 ADD MSTORE PUSH32 0x72207472616E7366657200000000000000000000000000000000000000000000 PUSH1 0x20 DUP3 ADD MSTORE POP JUMP JUMPDEST PUSH32 0x526F79616C746965733A206E657720726563697069656E742069732074686520 PUSH1 0x0 DUP3 ADD MSTORE PUSH32 0x7A65726F20616464726573730000000000000000000000000000000000000000 PUSH1 0x20 DUP3 ADD MSTORE POP JUMP JUMPDEST PUSH32 0x596F7520646F6E2774206861766520616E7920746F6B656E0000000000000000 PUSH1 0x0 DUP3 ADD MSTORE POP JUMP JUMPDEST PUSH32 0x416363657373436F6E74726F6C3A206163636F756E7420000000000000000000 PUSH1 0x0 DUP3 ADD MSTORE POP JUMP JUMPDEST PUSH32 0x455243313135353A2073657474696E6720617070726F76616C20737461747573 PUSH1 0x0 DUP3 ADD MSTORE PUSH32 0x20666F722073656C660000000000000000000000000000000000000000000000 PUSH1 0x20 DUP3 ADD MSTORE POP JUMP JUMPDEST PUSH32 0x455243313135353A206163636F756E747320616E6420696473206C656E677468 PUSH1 0x0 DUP3 ADD MSTORE PUSH32 0x206D69736D617463680000000000000000000000000000000000000000000000 PUSH1 0x20 DUP3 ADD MSTORE POP JUMP JUMPDEST PUSH32 0x455243313135353A2069647320616E6420616D6F756E7473206C656E67746820 PUSH1 0x0 DUP3 ADD MSTORE PUSH32 0x6D69736D61746368000000000000000000000000000000000000000000000000 PUSH1 0x20 DUP3 ADD MSTORE POP JUMP JUMPDEST PUSH32 0x455243313135353A206D696E7420746F20746865207A65726F20616464726573 PUSH1 0x0 DUP3 ADD MSTORE PUSH32 0x7300000000000000000000000000000000000000000000000000000000000000 PUSH1 0x20 DUP3 ADD MSTORE POP JUMP JUMPDEST PUSH32 0x206973206D697373696E6720726F6C6520000000000000000000000000000000 PUSH1 0x0 DUP3 ADD MSTORE POP JUMP JUMPDEST PUSH32 0x416363657373436F6E74726F6C3A2063616E206F6E6C792072656E6F756E6365 PUSH1 0x0 DUP3 ADD MSTORE PUSH32 0x20726F6C657320666F722073656C660000000000000000000000000000000000 PUSH1 0x20 DUP3 ADD MSTORE POP JUMP JUMPDEST PUSH1 0x0 PUSH1 0x44 RETURNDATASIZE LT ISZERO PUSH2 0x45DF JUMPI PUSH2 0x4662 JUMP JUMPDEST PUSH2 0x45E7 PUSH2 0x3B8F JUMP JUMPDEST PUSH1 0x4 RETURNDATASIZE SUB PUSH1 0x4 DUP3 RETURNDATACOPY DUP1 MLOAD RETURNDATASIZE PUSH1 0x24 DUP3 ADD GT PUSH8 0xFFFFFFFFFFFFFFFF DUP3 GT OR ISZERO PUSH2 0x460F JUMPI POP POP PUSH2 0x4662 JUMP JUMPDEST DUP1 DUP3 ADD DUP1 MLOAD PUSH8 0xFFFFFFFFFFFFFFFF DUP2 GT ISZERO PUSH2 0x462D JUMPI POP POP POP POP PUSH2 0x4662 JUMP JUMPDEST DUP1 PUSH1 0x20 DUP4 ADD ADD PUSH1 0x4 RETURNDATASIZE SUB DUP6 ADD DUP2 GT ISZERO PUSH2 0x464A JUMPI POP POP POP POP POP PUSH2 0x4662 JUMP JUMPDEST PUSH2 0x4659 DUP3 PUSH1 0x20 ADD DUP6 ADD DUP7 PUSH2 0x3ECC JUMP JUMPDEST DUP3 SWAP6 POP POP POP POP POP POP JUMPDEST SWAP1 JUMP JUMPDEST PUSH2 0x466E DUP2 PUSH2 0x3DB0 JUMP JUMPDEST DUP2 EQ PUSH2 0x4679 JUMPI PUSH1 0x0 DUP1 REVERT JUMPDEST POP JUMP JUMPDEST PUSH2 0x4685 DUP2 PUSH2 0x3DC2 JUMP JUMPDEST DUP2 EQ PUSH2 0x4690 JUMPI PUSH1 0x0 DUP1 REVERT JUMPDEST POP JUMP JUMPDEST PUSH2 0x469C DUP2 PUSH2 0x3DCE JUMP JUMPDEST DUP2 EQ PUSH2 0x46A7 JUMPI PUSH1 0x0 DUP1 REVERT JUMPDEST POP JUMP JUMPDEST PUSH2 0x46B3 DUP2 PUSH2 0x3DD8 JUMP JUMPDEST DUP2 EQ PUSH2 0x46BE JUMPI PUSH1 0x0 DUP1 REVERT JUMPDEST POP JUMP JUMPDEST PUSH2 0x46CA DUP2 PUSH2 0x3E24 JUMP JUMPDEST DUP2 EQ PUSH2 0x46D5 JUMPI PUSH1 0x0 DUP1 REVERT JUMPDEST POP JUMP INVALID LOG2 PUSH5 0x6970667358 0x22 SLT KECCAK256 DUP14 OR SMOD DUP14 0xBA MLOAD LOG0 LOG4 0x2A 0x26 ADD PUSH11 0x6A669220AB613976989B64 0xF7 PUSH25 0x904BBA9B7E018464736F6C6343000807003300000000000000 "
		},
		"gasEstimates": {
			"creation": {
				"codeDepositCost": "3638000",
				"executionCost": "infinite",
				"totalCost": "infinite"
			},
			"external": {
				"DEFAULT_ADMIN_ROLE()": "357",
				"OPERATOR()": "462",
				"balanceOf(address,uint256)": "infinite",
				"balanceOfBatch(address[],uint256[])": "infinite",
				"burn(address,uint256,uint256)": "infinite",
				"burnBatch(address,uint256[],uint256[])": "infinite",
				"currentTokenId()": "2510",
				"getRoleAdmin(bytes32)": "infinite",
				"grantRole(bytes32,address)": "infinite",
				"hasRole(bytes32,address)": "3229",
				"isApprovedForAll(address,address)": "infinite",
				"mint(address,uint256,bytes)": "infinite",
				"mintBatch(address,uint256[],uint256[],bytes)": "infinite",
				"name()": "infinite",
				"renounceRole(bytes32,address)": "infinite",
				"revokeRole(bytes32,address)": "infinite",
				"royaltyInfo(uint256,uint256)": "infinite",
				"safeBatchTransferFrom(address,address,uint256[],uint256[],bytes)": "infinite",
				"safeTransferFrom(address,address,uint256,uint256,bytes)": "infinite",
				"setApprovalForAll(address,bool)": "infinite",
				"setRoyalties(address)": "infinite",
				"setURI(string)": "infinite",
				"supportsInterface(bytes4)": "1019",
				"uri(uint256)": "infinite"
			},
			"internal": {
				"_setRoyalties(address)": "infinite"
			}
		},
		"methodIdentifiers": {
			"DEFAULT_ADMIN_ROLE()": "a217fddf",
			"OPERATOR()": "983d2737",
			"balanceOf(address,uint256)": "00fdd58e",
			"balanceOfBatch(address[],uint256[])": "4e1273f4",
			"burn(address,uint256,uint256)": "f5298aca",
			"burnBatch(address,uint256[],uint256[])": "6b20c454",
			"currentTokenId()": "009a9b7b",
			"getRoleAdmin(bytes32)": "248a9ca3",
			"grantRole(bytes32,address)": "2f2ff15d",
			"hasRole(bytes32,address)": "91d14854",
			"isApprovedForAll(address,address)": "e985e9c5",
			"mint(address,uint256,bytes)": "94d008ef",
			"mintBatch(address,uint256[],uint256[],bytes)": "1f7fdffa",
			"name()": "06fdde03",
			"renounceRole(bytes32,address)": "36568abe",
			"revokeRole(bytes32,address)": "d547741f",
			"royaltyInfo(uint256,uint256)": "2a55205a",
			"safeBatchTransferFrom(address,address,uint256[],uint256[],bytes)": "2eb2c2d6",
			"safeTransferFrom(address,address,uint256,uint256,bytes)": "f242432a",
			"setApprovalForAll(address,bool)": "a22cb465",
			"setRoyalties(address)": "2a9e63c6",
			"setURI(string)": "02fe5305",
			"supportsInterface(bytes4)": "01ffc9a7",
			"uri(uint256)": "0e89341c"
		}
	},
	"abi": [
		{
			"inputs": [
				{
					"internalType": "string",
					"name": "_contractURI",
					"type": "string"
				},
				{
					"internalType": "string",
					"name": "_name",
					"type": "string"
				},
				{
					"internalType": "address",
					"name": "_client",
					"type": "address"
				},
				{
					"internalType": "uint8",
					"name": "_royaltiesPercentage",
					"type": "uint8"
				},
				{
					"internalType": "address",
					"name": "_royaltiesRecipient",
					"type": "address"
				}
			],
			"stateMutability": "nonpayable",
			"type": "constructor"
		},
		{
			"anonymous": false,
			"inputs": [
				{
					"indexed": true,
					"internalType": "address",
					"name": "account",
					"type": "address"
				},
				{
					"indexed": true,
					"internalType": "address",
					"name": "operator",
					"type": "address"
				},
				{
					"indexed": false,
					"internalType": "bool",
					"name": "approved",
					"type": "bool"
				}
			],
			"name": "ApprovalForAll",
			"type": "event"
		},
		{
			"anonymous": false,
			"inputs": [
				{
					"indexed": true,
					"internalType": "bytes32",
					"name": "role",
					"type": "bytes32"
				},
				{
					"indexed": true,
					"internalType": "bytes32",
					"name": "previousAdminRole",
					"type": "bytes32"
				},
				{
					"indexed": true,
					"internalType": "bytes32",
					"name": "newAdminRole",
					"type": "bytes32"
				}
			],
			"name": "RoleAdminChanged",
			"type": "event"
		},
		{
			"anonymous": false,
			"inputs": [
				{
					"indexed": true,
					"internalType": "bytes32",
					"name": "role",
					"type": "bytes32"
				},
				{
					"indexed": true,
					"internalType": "address",
					"name": "account",
					"type": "address"
				},
				{
					"indexed": true,
					"internalType": "address",
					"name": "sender",
					"type": "address"
				}
			],
			"name": "RoleGranted",
			"type": "event"
		},
		{
			"anonymous": false,
			"inputs": [
				{
					"indexed": true,
					"internalType": "bytes32",
					"name": "role",
					"type": "bytes32"
				},
				{
					"indexed": true,
					"internalType": "address",
					"name": "account",
					"type": "address"
				},
				{
					"indexed": true,
					"internalType": "address",
					"name": "sender",
					"type": "address"
				}
			],
			"name": "RoleRevoked",
			"type": "event"
		},
		{
			"anonymous": false,
			"inputs": [
				{
					"indexed": true,
					"internalType": "address",
					"name": "operator",
					"type": "address"
				},
				{
					"indexed": true,
					"internalType": "address",
					"name": "from",
					"type": "address"
				},
				{
					"indexed": true,
					"internalType": "address",
					"name": "to",
					"type": "address"
				},
				{
					"indexed": false,
					"internalType": "uint256[]",
					"name": "ids",
					"type": "uint256[]"
				},
				{
					"indexed": false,
					"internalType": "uint256[]",
					"name": "values",
					"type": "uint256[]"
				}
			],
			"name": "TransferBatch",
			"type": "event"
		},
		{
			"anonymous": false,
			"inputs": [
				{
					"indexed": true,
					"internalType": "address",
					"name": "operator",
					"type": "address"
				},
				{
					"indexed": true,
					"internalType": "address",
					"name": "from",
					"type": "address"
				},
				{
					"indexed": true,
					"internalType": "address",
					"name": "to",
					"type": "address"
				},
				{
					"indexed": false,
					"internalType": "uint256",
					"name": "id",
					"type": "uint256"
				},
				{
					"indexed": false,
					"internalType": "uint256",
					"name": "value",
					"type": "uint256"
				}
			],
			"name": "TransferSingle",
			"type": "event"
		},
		{
			"anonymous": false,
			"inputs": [
				{
					"indexed": false,
					"internalType": "string",
					"name": "value",
					"type": "string"
				},
				{
					"indexed": true,
					"internalType": "uint256",
					"name": "id",
					"type": "uint256"
				}
			],
			"name": "URI",
			"type": "event"
		},
		{
			"inputs": [],
			"name": "DEFAULT_ADMIN_ROLE",
			"outputs": [
				{
					"internalType": "bytes32",
					"name": "",
					"type": "bytes32"
				}
			],
			"stateMutability": "view",
			"type": "function"
		},
		{
			"inputs": [],
			"name": "OPERATOR",
			"outputs": [
				{
					"internalType": "bytes32",
					"name": "",
					"type": "bytes32"
				}
			],
			"stateMutability": "view",
			"type": "function"
		},
		{
			"inputs": [
				{
					"internalType": "address",
					"name": "account",
					"type": "address"
				},
				{
					"internalType": "uint256",
					"name": "id",
					"type": "uint256"
				}
			],
			"name": "balanceOf",
			"outputs": [
				{
					"internalType": "uint256",
					"name": "",
					"type": "uint256"
				}
			],
			"stateMutability": "view",
			"type": "function"
		},
		{
			"inputs": [
				{
					"internalType": "address[]",
					"name": "accounts",
					"type": "address[]"
				},
				{
					"internalType": "uint256[]",
					"name": "ids",
					"type": "uint256[]"
				}
			],
			"name": "balanceOfBatch",
			"outputs": [
				{
					"internalType": "uint256[]",
					"name": "",
					"type": "uint256[]"
				}
			],
			"stateMutability": "view",
			"type": "function"
		},
		{
			"inputs": [
				{
					"internalType": "address",
					"name": "from",
					"type": "address"
				},
				{
					"internalType": "uint256",
					"name": "id",
					"type": "uint256"
				},
				{
					"internalType": "uint256",
					"name": "amount",
					"type": "uint256"
				}
			],
			"name": "burn",
			"outputs": [],
			"stateMutability": "nonpayable",
			"type": "function"
		},
		{
			"inputs": [
				{
					"internalType": "address",
					"name": "from",
					"type": "address"
				},
				{
					"internalType": "uint256[]",
					"name": "ids",
					"type": "uint256[]"
				},
				{
					"internalType": "uint256[]",
					"name": "amounts",
					"type": "uint256[]"
				}
			],
			"name": "burnBatch",
			"outputs": [],
			"stateMutability": "nonpayable",
			"type": "function"
		},
		{
			"inputs": [],
			"name": "currentTokenId",
			"outputs": [
				{
					"internalType": "uint256",
					"name": "",
					"type": "uint256"
				}
			],
			"stateMutability": "view",
			"type": "function"
		},
		{
			"inputs": [
				{
					"internalType": "bytes32",
					"name": "role",
					"type": "bytes32"
				}
			],
			"name": "getRoleAdmin",
			"outputs": [
				{
					"internalType": "bytes32",
					"name": "",
					"type": "bytes32"
				}
			],
			"stateMutability": "view",
			"type": "function"
		},
		{
			"inputs": [
				{
					"internalType": "bytes32",
					"name": "role",
					"type": "bytes32"
				},
				{
					"internalType": "address",
					"name": "account",
					"type": "address"
				}
			],
			"name": "grantRole",
			"outputs": [],
			"stateMutability": "nonpayable",
			"type": "function"
		},
		{
			"inputs": [
				{
					"internalType": "bytes32",
					"name": "role",
					"type": "bytes32"
				},
				{
					"internalType": "address",
					"name": "account",
					"type": "address"
				}
			],
			"name": "hasRole",
			"outputs": [
				{
					"internalType": "bool",
					"name": "",
					"type": "bool"
				}
			],
			"stateMutability": "view",
			"type": "function"
		},
		{
			"inputs": [
				{
					"internalType": "address",
					"name": "account",
					"type": "address"
				},
				{
					"internalType": "address",
					"name": "operator",
					"type": "address"
				}
			],
			"name": "isApprovedForAll",
			"outputs": [
				{
					"internalType": "bool",
					"name": "",
					"type": "bool"
				}
			],
			"stateMutability": "view",
			"type": "function"
		},
		{
			"inputs": [
				{
					"internalType": "address",
					"name": "to",
					"type": "address"
				},
				{
					"internalType": "uint256",
					"name": "amount",
					"type": "uint256"
				},
				{
					"internalType": "bytes",
					"name": "data",
					"type": "bytes"
				}
			],
			"name": "mint",
			"outputs": [],
			"stateMutability": "nonpayable",
			"type": "function"
		},
		{
			"inputs": [
				{
					"internalType": "address",
					"name": "to",
					"type": "address"
				},
				{
					"internalType": "uint256[]",
					"name": "ids",
					"type": "uint256[]"
				},
				{
					"internalType": "uint256[]",
					"name": "amounts",
					"type": "uint256[]"
				},
				{
					"internalType": "bytes",
					"name": "data",
					"type": "bytes"
				}
			],
			"name": "mintBatch",
			"outputs": [],
			"stateMutability": "nonpayable",
			"type": "function"
		},
		{
			"inputs": [],
			"name": "name",
			"outputs": [
				{
					"internalType": "string",
					"name": "",
					"type": "string"
				}
			],
			"stateMutability": "view",
			"type": "function"
		},
		{
			"inputs": [
				{
					"internalType": "bytes32",
					"name": "role",
					"type": "bytes32"
				},
				{
					"internalType": "address",
					"name": "account",
					"type": "address"
				}
			],
			"name": "renounceRole",
			"outputs": [],
			"stateMutability": "nonpayable",
			"type": "function"
		},
		{
			"inputs": [
				{
					"internalType": "bytes32",
					"name": "role",
					"type": "bytes32"
				},
				{
					"internalType": "address",
					"name": "account",
					"type": "address"
				}
			],
			"name": "revokeRole",
			"outputs": [],
			"stateMutability": "nonpayable",
			"type": "function"
		},
		{
			"inputs": [
				{
					"internalType": "uint256",
					"name": "",
					"type": "uint256"
				},
				{
					"internalType": "uint256",
					"name": "_salePrice",
					"type": "uint256"
				}
			],
			"name": "royaltyInfo",
			"outputs": [
				{
					"internalType": "address",
					"name": "receiver",
					"type": "address"
				},
				{
					"internalType": "uint256",
					"name": "royaltyAmount",
					"type": "uint256"
				}
			],
			"stateMutability": "view",
			"type": "function"
		},
		{
			"inputs": [
				{
					"internalType": "address",
					"name": "from",
					"type": "address"
				},
				{
					"internalType": "address",
					"name": "to",
					"type": "address"
				},
				{
					"internalType": "uint256[]",
					"name": "ids",
					"type": "uint256[]"
				},
				{
					"internalType": "uint256[]",
					"name": "amounts",
					"type": "uint256[]"
				},
				{
					"internalType": "bytes",
					"name": "data",
					"type": "bytes"
				}
			],
			"name": "safeBatchTransferFrom",
			"outputs": [],
			"stateMutability": "nonpayable",
			"type": "function"
		},
		{
			"inputs": [
				{
					"internalType": "address",
					"name": "from",
					"type": "address"
				},
				{
					"internalType": "address",
					"name": "to",
					"type": "address"
				},
				{
					"internalType": "uint256",
					"name": "id",
					"type": "uint256"
				},
				{
					"internalType": "uint256",
					"name": "amount",
					"type": "uint256"
				},
				{
					"internalType": "bytes",
					"name": "data",
					"type": "bytes"
				}
			],
			"name": "safeTransferFrom",
			"outputs": [],
			"stateMutability": "nonpayable",
			"type": "function"
		},
		{
			"inputs": [
				{
					"internalType": "address",
					"name": "operator",
					"type": "address"
				},
				{
					"internalType": "bool",
					"name": "approved",
					"type": "bool"
				}
			],
			"name": "setApprovalForAll",
			"outputs": [],
			"stateMutability": "nonpayable",
			"type": "function"
		},
		{
			"inputs": [
				{
					"internalType": "address",
					"name": "_newRecipient",
					"type": "address"
				}
			],
			"name": "setRoyalties",
			"outputs": [],
			"stateMutability": "nonpayable",
			"type": "function"
		},
		{
			"inputs": [
				{
					"internalType": "string",
					"name": "newuri",
					"type": "string"
				}
			],
			"name": "setURI",
			"outputs": [],
			"stateMutability": "nonpayable",
			"type": "function"
		},
		{
			"inputs": [
				{
					"internalType": "bytes4",
					"name": "interfaceId",
					"type": "bytes4"
				}
			],
			"name": "supportsInterface",
			"outputs": [
				{
					"internalType": "bool",
					"name": "",
					"type": "bool"
				}
			],
			"stateMutability": "view",
			"type": "function"
		},
		{
			"inputs": [
				{
					"internalType": "uint256",
					"name": "",
					"type": "uint256"
				}
			],
			"name": "uri",
			"outputs": [
				{
					"internalType": "string",
					"name": "",
					"type": "string"
				}
			],
			"stateMutability": "view",
			"type": "function"
		}
	]
}