{
  "contractName": "BaseContract",
  "abi": [
    {
      "inputs": [
        {
          "internalType": "string",
          "name": "_contractURI",
          "type": "string"
        },
        {
          "internalType": "string",
          "name": "_name",
          "type": "string"
        },
        {
          "internalType": "address",
          "name": "_client",
          "type": "address"
        },
        {
          "internalType": "uint8",
          "name": "_royaltiesPercentage",
          "type": "uint8"
        },
        {
          "internalType": "address",
          "name": "_royaltiesRecipient",
          "type": "address"
        }
      ],
      "stateMutability": "nonpayable",
      "type": "constructor"
    },
    {
      "anonymous": false,
      "inputs": [
        {
          "indexed": true,
          "internalType": "address",
          "name": "account",
          "type": "address"
        },
        {
          "indexed": true,
          "internalType": "address",
          "name": "operator",
          "type": "address"
        },
        {
          "indexed": false,
          "internalType": "bool",
          "name": "approved",
          "type": "bool"
        }
      ],
      "name": "ApprovalForAll",
      "type": "event"
    },
    {
      "anonymous": false,
      "inputs": [
        {
          "indexed": true,
          "internalType": "bytes32",
          "name": "role",
          "type": "bytes32"
        },
        {
          "indexed": true,
          "internalType": "bytes32",
          "name": "previousAdminRole",
          "type": "bytes32"
        },
        {
          "indexed": true,
          "internalType": "bytes32",
          "name": "newAdminRole",
          "type": "bytes32"
        }
      ],
      "name": "RoleAdminChanged",
      "type": "event"
    },
    {
      "anonymous": false,
      "inputs": [
        {
          "indexed": true,
          "internalType": "bytes32",
          "name": "role",
          "type": "bytes32"
        },
        {
          "indexed": true,
          "internalType": "address",
          "name": "account",
          "type": "address"
        },
        {
          "indexed": true,
          "internalType": "address",
          "name": "sender",
          "type": "address"
        }
      ],
      "name": "RoleGranted",
      "type": "event"
    },
    {
      "anonymous": false,
      "inputs": [
        {
          "indexed": true,
          "internalType": "bytes32",
          "name": "role",
          "type": "bytes32"
        },
        {
          "indexed": true,
          "internalType": "address",
          "name": "account",
          "type": "address"
        },
        {
          "indexed": true,
          "internalType": "address",
          "name": "sender",
          "type": "address"
        }
      ],
      "name": "RoleRevoked",
      "type": "event"
    },
    {
      "anonymous": false,
      "inputs": [
        {
          "indexed": true,
          "internalType": "address",
          "name": "operator",
          "type": "address"
        },
        {
          "indexed": true,
          "internalType": "address",
          "name": "from",
          "type": "address"
        },
        {
          "indexed": true,
          "internalType": "address",
          "name": "to",
          "type": "address"
        },
        {
          "indexed": false,
          "internalType": "uint256[]",
          "name": "ids",
          "type": "uint256[]"
        },
        {
          "indexed": false,
          "internalType": "uint256[]",
          "name": "values",
          "type": "uint256[]"
        }
      ],
      "name": "TransferBatch",
      "type": "event"
    },
    {
      "anonymous": false,
      "inputs": [
        {
          "indexed": true,
          "internalType": "address",
          "name": "operator",
          "type": "address"
        },
        {
          "indexed": true,
          "internalType": "address",
          "name": "from",
          "type": "address"
        },
        {
          "indexed": true,
          "internalType": "address",
          "name": "to",
          "type": "address"
        },
        {
          "indexed": false,
          "internalType": "uint256",
          "name": "id",
          "type": "uint256"
        },
        {
          "indexed": false,
          "internalType": "uint256",
          "name": "value",
          "type": "uint256"
        }
      ],
      "name": "TransferSingle",
      "type": "event"
    },
    {
      "anonymous": false,
      "inputs": [
        {
          "indexed": false,
          "internalType": "string",
          "name": "value",
          "type": "string"
        },
        {
          "indexed": true,
          "internalType": "uint256",
          "name": "id",
          "type": "uint256"
        }
      ],
      "name": "URI",
      "type": "event"
    },
    {
      "inputs": [],
      "name": "DEFAULT_ADMIN_ROLE",
      "outputs": [
        {
          "internalType": "bytes32",
          "name": "",
          "type": "bytes32"
        }
      ],
      "stateMutability": "view",
      "type": "function"
    },
    {
      "inputs": [],
      "name": "OPERATOR",
      "outputs": [
        {
          "internalType": "bytes32",
          "name": "",
          "type": "bytes32"
        }
      ],
      "stateMutability": "view",
      "type": "function"
    },
    {
      "inputs": [
        {
          "internalType": "address",
          "name": "account",
          "type": "address"
        },
        {
          "internalType": "uint256",
          "name": "id",
          "type": "uint256"
        }
      ],
      "name": "balanceOf",
      "outputs": [
        {
          "internalType": "uint256",
          "name": "",
          "type": "uint256"
        }
      ],
      "stateMutability": "view",
      "type": "function"
    },
    {
      "inputs": [
        {
          "internalType": "address[]",
          "name": "accounts",
          "type": "address[]"
        },
        {
          "internalType": "uint256[]",
          "name": "ids",
          "type": "uint256[]"
        }
      ],
      "name": "balanceOfBatch",
      "outputs": [
        {
          "internalType": "uint256[]",
          "name": "",
          "type": "uint256[]"
        }
      ],
      "stateMutability": "view",
      "type": "function"
    },
    {
      "inputs": [
        {
          "internalType": "bytes32",
          "name": "role",
          "type": "bytes32"
        }
      ],
      "name": "getRoleAdmin",
      "outputs": [
        {
          "internalType": "bytes32",
          "name": "",
          "type": "bytes32"
        }
      ],
      "stateMutability": "view",
      "type": "function"
    },
    {
      "inputs": [
        {
          "internalType": "bytes32",
          "name": "role",
          "type": "bytes32"
        },
        {
          "internalType": "address",
          "name": "account",
          "type": "address"
        }
      ],
      "name": "grantRole",
      "outputs": [],
      "stateMutability": "nonpayable",
      "type": "function"
    },
    {
      "inputs": [
        {
          "internalType": "bytes32",
          "name": "role",
          "type": "bytes32"
        },
        {
          "internalType": "address",
          "name": "account",
          "type": "address"
        }
      ],
      "name": "hasRole",
      "outputs": [
        {
          "internalType": "bool",
          "name": "",
          "type": "bool"
        }
      ],
      "stateMutability": "view",
      "type": "function"
    },
    {
      "inputs": [
        {
          "internalType": "address",
          "name": "account",
          "type": "address"
        },
        {
          "internalType": "address",
          "name": "operator",
          "type": "address"
        }
      ],
      "name": "isApprovedForAll",
      "outputs": [
        {
          "internalType": "bool",
          "name": "",
          "type": "bool"
        }
      ],
      "stateMutability": "view",
      "type": "function"
    },
    {
      "inputs": [],
      "name": "name",
      "outputs": [
        {
          "internalType": "string",
          "name": "",
          "type": "string"
        }
      ],
      "stateMutability": "view",
      "type": "function"
    },
    {
      "inputs": [
        {
          "internalType": "bytes32",
          "name": "role",
          "type": "bytes32"
        },
        {
          "internalType": "address",
          "name": "account",
          "type": "address"
        }
      ],
      "name": "renounceRole",
      "outputs": [],
      "stateMutability": "nonpayable",
      "type": "function"
    },
    {
      "inputs": [
        {
          "internalType": "bytes32",
          "name": "role",
          "type": "bytes32"
        },
        {
          "internalType": "address",
          "name": "account",
          "type": "address"
        }
      ],
      "name": "revokeRole",
      "outputs": [],
      "stateMutability": "nonpayable",
      "type": "function"
    },
    {
      "inputs": [
        {
          "internalType": "address",
          "name": "from",
          "type": "address"
        },
        {
          "internalType": "address",
          "name": "to",
          "type": "address"
        },
        {
          "internalType": "uint256[]",
          "name": "ids",
          "type": "uint256[]"
        },
        {
          "internalType": "uint256[]",
          "name": "amounts",
          "type": "uint256[]"
        },
        {
          "internalType": "bytes",
          "name": "data",
          "type": "bytes"
        }
      ],
      "name": "safeBatchTransferFrom",
      "outputs": [],
      "stateMutability": "nonpayable",
      "type": "function"
    },
    {
      "inputs": [
        {
          "internalType": "address",
          "name": "from",
          "type": "address"
        },
        {
          "internalType": "address",
          "name": "to",
          "type": "address"
        },
        {
          "internalType": "uint256",
          "name": "id",
          "type": "uint256"
        },
        {
          "internalType": "uint256",
          "name": "amount",
          "type": "uint256"
        },
        {
          "internalType": "bytes",
          "name": "data",
          "type": "bytes"
        }
      ],
      "name": "safeTransferFrom",
      "outputs": [],
      "stateMutability": "nonpayable",
      "type": "function"
    },
    {
      "inputs": [
        {
          "internalType": "address",
          "name": "operator",
          "type": "address"
        },
        {
          "internalType": "bool",
          "name": "approved",
          "type": "bool"
        }
      ],
      "name": "setApprovalForAll",
      "outputs": [],
      "stateMutability": "nonpayable",
      "type": "function"
    },
    {
      "inputs": [
        {
          "internalType": "uint256",
          "name": "",
          "type": "uint256"
        }
      ],
      "name": "uri",
      "outputs": [
        {
          "internalType": "string",
          "name": "",
          "type": "string"
        }
      ],
      "stateMutability": "view",
      "type": "function"
    },
    {
      "inputs": [
        {
          "internalType": "string",
          "name": "newuri",
          "type": "string"
        }
      ],
      "name": "setURI",
      "outputs": [],
      "stateMutability": "nonpayable",
      "type": "function"
    },
    {
      "inputs": [
        {
          "internalType": "address",
          "name": "from",
          "type": "address"
        },
        {
          "internalType": "uint256",
          "name": "id",
          "type": "uint256"
        },
        {
          "internalType": "uint256",
          "name": "amount",
          "type": "uint256"
        }
      ],
      "name": "burn",
      "outputs": [],
      "stateMutability": "nonpayable",
      "type": "function"
    },
    {
      "inputs": [
        {
          "internalType": "address",
          "name": "from",
          "type": "address"
        },
        {
          "internalType": "uint256[]",
          "name": "ids",
          "type": "uint256[]"
        },
        {
          "internalType": "uint256[]",
          "name": "amounts",
          "type": "uint256[]"
        }
      ],
      "name": "burnBatch",
      "outputs": [],
      "stateMutability": "nonpayable",
      "type": "function"
    },
    {
      "inputs": [
        {
          "internalType": "address",
          "name": "to",
          "type": "address"
        },
        {
          "internalType": "uint256",
          "name": "amount",
          "type": "uint256"
        },
        {
          "internalType": "bytes",
          "name": "data",
          "type": "bytes"
        }
      ],
      "name": "mint",
      "outputs": [],
      "stateMutability": "nonpayable",
      "type": "function"
    },
    {
      "inputs": [
        {
          "internalType": "address",
          "name": "to",
          "type": "address"
        },
        {
          "internalType": "uint256[]",
          "name": "ids",
          "type": "uint256[]"
        },
        {
          "internalType": "uint256[]",
          "name": "amounts",
          "type": "uint256[]"
        },
        {
          "internalType": "bytes",
          "name": "data",
          "type": "bytes"
        }
      ],
      "name": "mintBatch",
      "outputs": [],
      "stateMutability": "nonpayable",
      "type": "function"
    },
    {
      "inputs": [
        {
          "internalType": "address",
          "name": "_newRecipient",
          "type": "address"
        }
      ],
      "name": "setRoyalties",
      "outputs": [],
      "stateMutability": "nonpayable",
      "type": "function"
    },
    {
      "inputs": [
        {
          "internalType": "uint256",
          "name": "",
          "type": "uint256"
        },
        {
          "internalType": "uint256",
          "name": "_salePrice",
          "type": "uint256"
        }
      ],
      "name": "royaltyInfo",
      "outputs": [
        {
          "internalType": "address",
          "name": "receiver",
          "type": "address"
        },
        {
          "internalType": "uint256",
          "name": "royaltyAmount",
          "type": "uint256"
        }
      ],
      "stateMutability": "view",
      "type": "function"
    },
    {
      "inputs": [
        {
          "internalType": "bytes4",
          "name": "interfaceId",
          "type": "bytes4"
        }
      ],
      "name": "supportsInterface",
      "outputs": [
        {
          "internalType": "bool",
          "name": "",
          "type": "bool"
        }
      ],
      "stateMutability": "view",
      "type": "function"
    }
  ],
  "bytecode": "0x60806040523480156200001157600080fd5b5060405162004d9f38038062004d9f8339818101604052810190620000379190620005ca565b8462000049816200014360201b60201c565b50836005908051906020019062000062929190620002da565b50620000957f523a704056dcd17bcf83bed8b68c59416dac1119be77755efe3bde0a64e46e0c846200015f60201b60201c565b80600660006101000a81548173ffffffffffffffffffffffffffffffffffffffff021916908373ffffffffffffffffffffffffffffffffffffffff160217905550620001087f523a704056dcd17bcf83bed8b68c59416dac1119be77755efe3bde0a64e46e0c336200015f60201b60201c565b6200011d6000801b846200015f60201b60201c565b81600660146101000a81548160ff021916908360ff1602179055505050505050620006f5565b80600290805190602001906200015b929190620002da565b5050565b6200017182826200017560201b60201c565b5050565b6200018782826200026760201b60201c565b620002635760016003600084815260200190815260200160002060000160008373ffffffffffffffffffffffffffffffffffffffff1673ffffffffffffffffffffffffffffffffffffffff16815260200190815260200160002060006101000a81548160ff02191690831515021790555062000208620002d260201b60201c565b73ffffffffffffffffffffffffffffffffffffffff168173ffffffffffffffffffffffffffffffffffffffff16837f2f8788117e7eff1d82e926ec794901d17c78024a50270940304540a733656f0d60405160405180910390a45b5050565b60006003600084815260200190815260200160002060000160008373ffffffffffffffffffffffffffffffffffffffff1673ffffffffffffffffffffffffffffffffffffffff16815260200190815260200160002060009054906101000a900460ff16905092915050565b600033905090565b828054620002e890620006bf565b90600052602060002090601f0160209004810192826200030c576000855562000358565b82601f106200032757805160ff191683800117855562000358565b8280016001018555821562000358579182015b82811115620003575782518255916020019190600101906200033a565b5b5090506200036791906200036b565b5090565b5b80821115620003865760008160009055506001016200036c565b5090565b6000604051905090565b600080fd5b600080fd5b600080fd5b600080fd5b6000601f19601f8301169050919050565b7f4e487b7100000000000000000000000000000000000000000000000000000000600052604160045260246000fd5b620003f382620003a8565b810181811067ffffffffffffffff82111715620004155762000414620003b9565b5b80604052505050565b60006200042a6200038a565b9050620004388282620003e8565b919050565b600067ffffffffffffffff8211156200045b576200045a620003b9565b5b6200046682620003a8565b9050602081019050919050565b60005b838110156200049357808201518184015260208101905062000476565b83811115620004a3576000848401525b50505050565b6000620004c0620004ba846200043d565b6200041e565b905082815260208101848484011115620004df57620004de620003a3565b5b620004ec84828562000473565b509392505050565b600082601f8301126200050c576200050b6200039e565b5b81516200051e848260208601620004a9565b91505092915050565b600073ffffffffffffffffffffffffffffffffffffffff82169050919050565b6000620005548262000527565b9050919050565b620005668162000547565b81146200057257600080fd5b50565b60008151905062000586816200055b565b92915050565b600060ff82169050919050565b620005a4816200058c565b8114620005b057600080fd5b50565b600081519050620005c48162000599565b92915050565b600080600080600060a08688031215620005e957620005e862000394565b5b600086015167ffffffffffffffff8111156200060a576200060962000399565b5b6200061888828901620004f4565b955050602086015167ffffffffffffffff8111156200063c576200063b62000399565b5b6200064a88828901620004f4565b94505060406200065d8882890162000575565b93505060606200067088828901620005b3565b9250506080620006838882890162000575565b9150509295509295909350565b7f4e487b7100000000000000000000000000000000000000000000000000000000600052602260045260246000fd5b60006002820490506001821680620006d857607f821691505b60208210811415620006ef57620006ee62000690565b5b50919050565b61469a80620007056000396000f3fe608060405234801561001057600080fd5b506004361061014c5760003560e01c806336568abe116100c3578063a217fddf1161007c578063a217fddf146103be578063a22cb465146103dc578063d547741f146103f8578063e985e9c514610414578063f242432a14610444578063f5298aca146104605761014c565b806336568abe146102ec5780634e1273f4146103085780636b20c4541461033857806391d148541461035457806394d008ef14610384578063983d2737146103a05761014c565b80631f7fdffa116101155780631f7fdffa1461021b578063248a9ca3146102375780632a55205a146102675780632a9e63c6146102985780632eb2c2d6146102b45780632f2ff15d146102d05761014c565b8062fdd58e1461015157806301ffc9a71461018157806302fe5305146101b157806306fdde03146101cd5780630e89341c146101eb575b600080fd5b61016b60048036038101906101669190612a53565b61047c565b6040516101789190612aa2565b60405180910390f35b61019b60048036038101906101969190612b15565b610545565b6040516101a89190612b5d565b60405180910390f35b6101cb60048036038101906101c69190612cbe565b6105bf565b005b6101d56105fe565b6040516101e29190612d8f565b60405180910390f35b61020560048036038101906102009190612db1565b61068c565b6040516102129190612d8f565b60405180910390f35b61023560048036038101906102309190612f47565b610720565b005b610251600480360381019061024c9190613038565b610765565b60405161025e9190613074565b60405180910390f35b610281600480360381019061027c919061308f565b610785565b60405161028f9291906130de565b60405180910390f35b6102b260048036038101906102ad9190613107565b6107ed565b005b6102ce60048036038101906102c99190613134565b61080f565b005b6102ea60048036038101906102e59190613203565b6108b0565b005b61030660048036038101906103019190613203565b6108d9565b005b610322600480360381019061031d9190613306565b61095c565b60405161032f919061343c565b60405180910390f35b610352600480360381019061034d919061345e565b610a75565b005b61036e60048036038101906103699190613203565b610a9b565b60405161037b9190612b5d565b60405180910390f35b61039e600480360381019061039991906134e9565b610b06565b005b6103a8610b63565b6040516103b59190613074565b60405180910390f35b6103c6610b87565b6040516103d39190613074565b60405180910390f35b6103f660048036038101906103f19190613584565b610b8e565b005b610412600480360381019061040d9190613203565b610ba4565b005b61042e600480360381019061042991906135c4565b610bcd565b60405161043b9190612b5d565b60405180910390f35b61045e60048036038101906104599190613604565b610c61565b005b61047a6004803603810190610475919061369b565b610d02565b005b60008073ffffffffffffffffffffffffffffffffffffffff168373ffffffffffffffffffffffffffffffffffffffff1614156104ed576040517f08c379a00000000000000000000000000000000000000000000000000000000081526004016104e490613760565b60405180910390fd5b60008083815260200190815260200160002060008473ffffffffffffffffffffffffffffffffffffffff1673ffffffffffffffffffffffffffffffffffffffff16815260200190815260200160002054905092915050565b60007f2a55205a000000000000000000000000000000000000000000000000000000007bffffffffffffffffffffffffffffffffffffffffffffffffffffffff1916827bffffffffffffffffffffffffffffffffffffffffffffffffffffffff191614806105b857506105b782610dd2565b5b9050919050565b7f523a704056dcd17bcf83bed8b68c59416dac1119be77755efe3bde0a64e46e0c6105f1816105ec610e4c565b610e54565b6105fa82610ef1565b5050565b6005805461060b906137af565b80601f0160208091040260200160405190810160405280929190818152602001828054610637906137af565b80156106845780601f1061065957610100808354040283529160200191610684565b820191906000526020600020905b81548152906001019060200180831161066757829003601f168201915b505050505081565b60606002805461069b906137af565b80601f01602080910402602001604051908101604052809291908181526020018280546106c7906137af565b80156107145780601f106106e957610100808354040283529160200191610714565b820191906000526020600020905b8154815290600101906020018083116106f757829003601f168201915b50505050509050919050565b7f523a704056dcd17bcf83bed8b68c59416dac1119be77755efe3bde0a64e46e0c6107528161074d610e4c565b610e54565b61075e85858585610f0b565b5050505050565b600060036000838152602001908152602001600020600101549050919050565b600080600660009054906101000a900473ffffffffffffffffffffffffffffffffffffffff166127106064600660149054906101000a900460ff1660ff16866107ce9190613810565b6107d89190613810565b6107e29190613899565b915091509250929050565b6000801b610802816107fd610e4c565b610e54565b61080b82611129565b5050565b610817610e4c565b73ffffffffffffffffffffffffffffffffffffffff168573ffffffffffffffffffffffffffffffffffffffff16148061085d575061085c85610857610e4c565b610bcd565b5b61089c576040517f08c379a00000000000000000000000000000000000000000000000000000000081526004016108939061393c565b60405180910390fd5b6108a985858585856111dd565b5050505050565b6108b982610765565b6108ca816108c5610e4c565b610e54565b6108d483836114f1565b505050565b6108e1610e4c565b73ffffffffffffffffffffffffffffffffffffffff168173ffffffffffffffffffffffffffffffffffffffff161461094e576040517f08c379a0000000000000000000000000000000000000000000000000000000008152600401610945906139ce565b60405180910390fd5b61095882826115d2565b5050565b606081518351146109a2576040517f08c379a000000000000000000000000000000000000000000000000000000000815260040161099990613a60565b60405180910390fd5b6000835167ffffffffffffffff8111156109bf576109be612b93565b5b6040519080825280602002602001820160405280156109ed5781602001602082028036833780820191505090505b50905060005b8451811015610a6a57610a3a858281518110610a1257610a11613a80565b5b6020026020010151858381518110610a2d57610a2c613a80565b5b602002602001015161047c565b828281518110610a4d57610a4c613a80565b5b60200260200101818152505080610a6390613aaf565b90506109f3565b508091505092915050565b6000801b610a8a81610a85610e4c565b610e54565b610a958484846116b4565b50505050565b60006003600084815260200190815260200160002060000160008373ffffffffffffffffffffffffffffffffffffffff1673ffffffffffffffffffffffffffffffffffffffff16815260200190815260200160002060009054906101000a900460ff16905092915050565b7f523a704056dcd17bcf83bed8b68c59416dac1119be77755efe3bde0a64e46e0c610b3881610b33610e4c565b610e54565b6000610b446004611965565b9050610b506004611973565b610b5c85828686611989565b5050505050565b7f523a704056dcd17bcf83bed8b68c59416dac1119be77755efe3bde0a64e46e0c81565b6000801b81565b610ba0610b99610e4c565b8383611b1f565b5050565b610bad82610765565b610bbe81610bb9610e4c565b610e54565b610bc883836115d2565b505050565b6000600160008473ffffffffffffffffffffffffffffffffffffffff1673ffffffffffffffffffffffffffffffffffffffff16815260200190815260200160002060008373ffffffffffffffffffffffffffffffffffffffff1673ffffffffffffffffffffffffffffffffffffffff16815260200190815260200160002060009054906101000a900460ff16905092915050565b610c69610e4c565b73ffffffffffffffffffffffffffffffffffffffff168573ffffffffffffffffffffffffffffffffffffffff161480610caf5750610cae85610ca9610e4c565b610bcd565b5b610cee576040517f08c379a0000000000000000000000000000000000000000000000000000000008152600401610ce590613b6a565b60405180910390fd5b610cfb8585858585611c8c565b5050505050565b8160003073ffffffffffffffffffffffffffffffffffffffff1662fdd58e33846040518363ffffffff1660e01b8152600401610d3f9291906130de565b602060405180830381865afa158015610d5c573d6000803e3d6000fd5b505050506040513d601f19601f82011682018060405250810190610d809190613b9f565b1415610dc1576040517f08c379a0000000000000000000000000000000000000000000000000000000008152600401610db890613c18565b60405180910390fd5b610dcc848484611f0e565b50505050565b60007f7965db0b000000000000000000000000000000000000000000000000000000007bffffffffffffffffffffffffffffffffffffffffffffffffffffffff1916827bffffffffffffffffffffffffffffffffffffffffffffffffffffffff19161480610e455750610e448261212b565b5b9050919050565b600033905090565b610e5e8282610a9b565b610eed57610e838173ffffffffffffffffffffffffffffffffffffffff16601461220d565b610e918360001c602061220d565b604051602001610ea2929190613d0c565b6040516020818303038152906040526040517f08c379a0000000000000000000000000000000000000000000000000000000008152600401610ee49190612d8f565b60405180910390fd5b5050565b8060029080519060200190610f07929190612908565b5050565b600073ffffffffffffffffffffffffffffffffffffffff168473ffffffffffffffffffffffffffffffffffffffff161415610f7b576040517f08c379a0000000000000000000000000000000000000000000000000000000008152600401610f7290613db8565b60405180910390fd5b8151835114610fbf576040517f08c379a0000000000000000000000000000000000000000000000000000000008152600401610fb690613e4a565b60405180910390fd5b6000610fc9610e4c565b9050610fda81600087878787612449565b60005b845181101561109357838181518110610ff957610ff8613a80565b5b602002602001015160008087848151811061101757611016613a80565b5b6020026020010151815260200190815260200160002060008873ffffffffffffffffffffffffffffffffffffffff1673ffffffffffffffffffffffffffffffffffffffff16815260200190815260200160002060008282546110799190613e6a565b92505081905550808061108b90613aaf565b915050610fdd565b508473ffffffffffffffffffffffffffffffffffffffff16600073ffffffffffffffffffffffffffffffffffffffff168273ffffffffffffffffffffffffffffffffffffffff167f4a39dc06d4c0dbc64b70af90fd698a233a518aa5d07e595d983b8c0526c8f7fb878760405161110b929190613ec0565b60405180910390a461112281600087878787612451565b5050505050565b600073ffffffffffffffffffffffffffffffffffffffff168173ffffffffffffffffffffffffffffffffffffffff161415611199576040517f08c379a000000000000000000000000000000000000000000000000000000000815260040161119090613f69565b60405180910390fd5b80600660006101000a81548173ffffffffffffffffffffffffffffffffffffffff021916908373ffffffffffffffffffffffffffffffffffffffff16021790555050565b8151835114611221576040517f08c379a000000000000000000000000000000000000000000000000000000000815260040161121890613e4a565b60405180910390fd5b600073ffffffffffffffffffffffffffffffffffffffff168473ffffffffffffffffffffffffffffffffffffffff161415611291576040517f08c379a000000000000000000000000000000000000000000000000000000000815260040161128890613ffb565b60405180910390fd5b600061129b610e4c565b90506112ab818787878787612449565b60005b845181101561145c5760008582815181106112cc576112cb613a80565b5b6020026020010151905060008583815181106112eb576112ea613a80565b5b60200260200101519050600080600084815260200190815260200160002060008b73ffffffffffffffffffffffffffffffffffffffff1673ffffffffffffffffffffffffffffffffffffffff1681526020019081526020016000205490508181101561138c576040517f08c379a00000000000000000000000000000000000000000000000000000000081526004016113839061408d565b60405180910390fd5b81810360008085815260200190815260200160002060008c73ffffffffffffffffffffffffffffffffffffffff1673ffffffffffffffffffffffffffffffffffffffff168152602001908152602001600020819055508160008085815260200190815260200160002060008b73ffffffffffffffffffffffffffffffffffffffff1673ffffffffffffffffffffffffffffffffffffffff16815260200190815260200160002060008282546114419190613e6a565b925050819055505050508061145590613aaf565b90506112ae565b508473ffffffffffffffffffffffffffffffffffffffff168673ffffffffffffffffffffffffffffffffffffffff168273ffffffffffffffffffffffffffffffffffffffff167f4a39dc06d4c0dbc64b70af90fd698a233a518aa5d07e595d983b8c0526c8f7fb87876040516114d3929190613ec0565b60405180910390a46114e9818787878787612451565b505050505050565b6114fb8282610a9b565b6115ce5760016003600084815260200190815260200160002060000160008373ffffffffffffffffffffffffffffffffffffffff1673ffffffffffffffffffffffffffffffffffffffff16815260200190815260200160002060006101000a81548160ff021916908315150217905550611573610e4c565b73ffffffffffffffffffffffffffffffffffffffff168173ffffffffffffffffffffffffffffffffffffffff16837f2f8788117e7eff1d82e926ec794901d17c78024a50270940304540a733656f0d60405160405180910390a45b5050565b6115dc8282610a9b565b156116b05760006003600084815260200190815260200160002060000160008373ffffffffffffffffffffffffffffffffffffffff1673ffffffffffffffffffffffffffffffffffffffff16815260200190815260200160002060006101000a81548160ff021916908315150217905550611655610e4c565b73ffffffffffffffffffffffffffffffffffffffff168173ffffffffffffffffffffffffffffffffffffffff16837ff6391f5c32d9c69d2a47ea670b442974b53935d1edc7fd64eb21e047a839171b60405160405180910390a45b5050565b600073ffffffffffffffffffffffffffffffffffffffff168373ffffffffffffffffffffffffffffffffffffffff161415611724576040517f08c379a000000000000000000000000000000000000000000000000000000000815260040161171b9061411f565b60405180910390fd5b8051825114611768576040517f08c379a000000000000000000000000000000000000000000000000000000000815260040161175f90613e4a565b60405180910390fd5b6000611772610e4c565b905061179281856000868660405180602001604052806000815250612449565b60005b83518110156118df5760008482815181106117b3576117b2613a80565b5b6020026020010151905060008483815181106117d2576117d1613a80565b5b60200260200101519050600080600084815260200190815260200160002060008973ffffffffffffffffffffffffffffffffffffffff1673ffffffffffffffffffffffffffffffffffffffff16815260200190815260200160002054905081811015611873576040517f08c379a000000000000000000000000000000000000000000000000000000000815260040161186a906141b1565b60405180910390fd5b81810360008085815260200190815260200160002060008a73ffffffffffffffffffffffffffffffffffffffff1673ffffffffffffffffffffffffffffffffffffffff1681526020019081526020016000208190555050505080806118d790613aaf565b915050611795565b50600073ffffffffffffffffffffffffffffffffffffffff168473ffffffffffffffffffffffffffffffffffffffff168273ffffffffffffffffffffffffffffffffffffffff167f4a39dc06d4c0dbc64b70af90fd698a233a518aa5d07e595d983b8c0526c8f7fb8686604051611957929190613ec0565b60405180910390a450505050565b600081600001549050919050565b6001816000016000828254019250508190555050565b600073ffffffffffffffffffffffffffffffffffffffff168473ffffffffffffffffffffffffffffffffffffffff1614156119f9576040517f08c379a00000000000000000000000000000000000000000000000000000000081526004016119f090613db8565b60405180910390fd5b6000611a03610e4c565b9050611a2481600087611a1588612629565b611a1e88612629565b87612449565b8260008086815260200190815260200160002060008773ffffffffffffffffffffffffffffffffffffffff1673ffffffffffffffffffffffffffffffffffffffff1681526020019081526020016000206000828254611a839190613e6a565b925050819055508473ffffffffffffffffffffffffffffffffffffffff16600073ffffffffffffffffffffffffffffffffffffffff168273ffffffffffffffffffffffffffffffffffffffff167fc3d58168c5ae7397731d063d5bbf3d657854427343f4c083240f7aacaa2d0f628787604051611b019291906141d1565b60405180910390a4611b18816000878787876126a3565b5050505050565b8173ffffffffffffffffffffffffffffffffffffffff168373ffffffffffffffffffffffffffffffffffffffff161415611b8e576040517f08c379a0000000000000000000000000000000000000000000000000000000008152600401611b859061426c565b60405180910390fd5b80600160008573ffffffffffffffffffffffffffffffffffffffff1673ffffffffffffffffffffffffffffffffffffffff16815260200190815260200160002060008473ffffffffffffffffffffffffffffffffffffffff1673ffffffffffffffffffffffffffffffffffffffff16815260200190815260200160002060006101000a81548160ff0219169083151502179055508173ffffffffffffffffffffffffffffffffffffffff168373ffffffffffffffffffffffffffffffffffffffff167f17307eab39ab6107e8899845ad3d59bd9653f200f220920489ca2b5937696c3183604051611c7f9190612b5d565b60405180910390a3505050565b600073ffffffffffffffffffffffffffffffffffffffff168473ffffffffffffffffffffffffffffffffffffffff161415611cfc576040517f08c379a0000000000000000000000000000000000000000000000000000000008152600401611cf390613ffb565b60405180910390fd5b6000611d06610e4c565b9050611d26818787611d1788612629565b611d2088612629565b87612449565b600080600086815260200190815260200160002060008873ffffffffffffffffffffffffffffffffffffffff1673ffffffffffffffffffffffffffffffffffffffff16815260200190815260200160002054905083811015611dbd576040517f08c379a0000000000000000000000000000000000000000000000000000000008152600401611db49061408d565b60405180910390fd5b83810360008087815260200190815260200160002060008973ffffffffffffffffffffffffffffffffffffffff1673ffffffffffffffffffffffffffffffffffffffff168152602001908152602001600020819055508360008087815260200190815260200160002060008873ffffffffffffffffffffffffffffffffffffffff1673ffffffffffffffffffffffffffffffffffffffff1681526020019081526020016000206000828254611e729190613e6a565b925050819055508573ffffffffffffffffffffffffffffffffffffffff168773ffffffffffffffffffffffffffffffffffffffff168373ffffffffffffffffffffffffffffffffffffffff167fc3d58168c5ae7397731d063d5bbf3d657854427343f4c083240f7aacaa2d0f628888604051611eef9291906141d1565b60405180910390a4611f058288888888886126a3565b50505050505050565b600073ffffffffffffffffffffffffffffffffffffffff168373ffffffffffffffffffffffffffffffffffffffff161415611f7e576040517f08c379a0000000000000000000000000000000000000000000000000000000008152600401611f759061411f565b60405180910390fd5b6000611f88610e4c565b9050611fb881856000611f9a87612629565b611fa387612629565b60405180602001604052806000815250612449565b600080600085815260200190815260200160002060008673ffffffffffffffffffffffffffffffffffffffff1673ffffffffffffffffffffffffffffffffffffffff1681526020019081526020016000205490508281101561204f576040517f08c379a0000000000000000000000000000000000000000000000000000000008152600401612046906141b1565b60405180910390fd5b82810360008086815260200190815260200160002060008773ffffffffffffffffffffffffffffffffffffffff1673ffffffffffffffffffffffffffffffffffffffff16815260200190815260200160002081905550600073ffffffffffffffffffffffffffffffffffffffff168573ffffffffffffffffffffffffffffffffffffffff168373ffffffffffffffffffffffffffffffffffffffff167fc3d58168c5ae7397731d063d5bbf3d657854427343f4c083240f7aacaa2d0f62878760405161211c9291906141d1565b60405180910390a45050505050565b60007fd9b67a26000000000000000000000000000000000000000000000000000000007bffffffffffffffffffffffffffffffffffffffffffffffffffffffff1916827bffffffffffffffffffffffffffffffffffffffffffffffffffffffff191614806121f657507f0e89341c000000000000000000000000000000000000000000000000000000007bffffffffffffffffffffffffffffffffffffffffffffffffffffffff1916827bffffffffffffffffffffffffffffffffffffffffffffffffffffffff1916145b8061220657506122058261287b565b5b9050919050565b6060600060028360026122209190613810565b61222a9190613e6a565b67ffffffffffffffff81111561224357612242612b93565b5b6040519080825280601f01601f1916602001820160405280156122755781602001600182028036833780820191505090505b5090507f3000000000000000000000000000000000000000000000000000000000000000816000815181106122ad576122ac613a80565b5b60200101907effffffffffffffffffffffffffffffffffffffffffffffffffffffffffffff1916908160001a9053507f78000000000000000000000000000000000000000000000000000000000000008160018151811061231157612310613a80565b5b60200101907effffffffffffffffffffffffffffffffffffffffffffffffffffffffffffff1916908160001a905350600060018460026123519190613810565b61235b9190613e6a565b90505b60018111156123fb577f3031323334353637383961626364656600000000000000000000000000000000600f86166010811061239d5761239c613a80565b5b1a60f81b8282815181106123b4576123b3613a80565b5b60200101907effffffffffffffffffffffffffffffffffffffffffffffffffffffffffffff1916908160001a905350600485901c9450806123f49061428c565b905061235e565b506000841461243f576040517f08c379a000000000000000000000000000000000000000000000000000000000815260040161243690614302565b60405180910390fd5b8091505092915050565b505050505050565b6124708473ffffffffffffffffffffffffffffffffffffffff166128e5565b15612621578373ffffffffffffffffffffffffffffffffffffffff1663bc197c8187878686866040518663ffffffff1660e01b81526004016124b6959493929190614377565b6020604051808303816000875af19250505080156124f257506040513d601f19601f820116820180604052508101906124ef91906143f4565b60015b612598576124fe61442e565b806308c379a0141561255b5750612513614450565b8061251e575061255d565b806040517f08c379a00000000000000000000000000000000000000000000000000000000081526004016125529190612d8f565b60405180910390fd5b505b6040517f08c379a000000000000000000000000000000000000000000000000000000000815260040161258f90614558565b60405180910390fd5b63bc197c8160e01b7bffffffffffffffffffffffffffffffffffffffffffffffffffffffff1916817bffffffffffffffffffffffffffffffffffffffffffffffffffffffff19161461261f576040517f08c379a0000000000000000000000000000000000000000000000000000000008152600401612616906145ea565b60405180910390fd5b505b505050505050565b60606000600167ffffffffffffffff81111561264857612647612b93565b5b6040519080825280602002602001820160405280156126765781602001602082028036833780820191505090505b509050828160008151811061268e5761268d613a80565b5b60200260200101818152505080915050919050565b6126c28473ffffffffffffffffffffffffffffffffffffffff166128e5565b15612873578373ffffffffffffffffffffffffffffffffffffffff1663f23a6e6187878686866040518663ffffffff1660e01b815260040161270895949392919061460a565b6020604051808303816000875af192505050801561274457506040513d601f19601f8201168201806040525081019061274191906143f4565b60015b6127ea5761275061442e565b806308c379a014156127ad5750612765614450565b8061277057506127af565b806040517f08c379a00000000000000000000000000000000000000000000000000000000081526004016127a49190612d8f565b60405180910390fd5b505b6040517f08c379a00000000000000000000000000000000000000000000000000000000081526004016127e190614558565b60405180910390fd5b63f23a6e6160e01b7bffffffffffffffffffffffffffffffffffffffffffffffffffffffff1916817bffffffffffffffffffffffffffffffffffffffffffffffffffffffff191614612871576040517f08c379a0000000000000000000000000000000000000000000000000000000008152600401612868906145ea565b60405180910390fd5b505b505050505050565b60007f01ffc9a7000000000000000000000000000000000000000000000000000000007bffffffffffffffffffffffffffffffffffffffffffffffffffffffff1916827bffffffffffffffffffffffffffffffffffffffffffffffffffffffff1916149050919050565b6000808273ffffffffffffffffffffffffffffffffffffffff163b119050919050565b828054612914906137af565b90600052602060002090601f016020900481019282612936576000855561297d565b82601f1061294f57805160ff191683800117855561297d565b8280016001018555821561297d579182015b8281111561297c578251825591602001919060010190612961565b5b50905061298a919061298e565b5090565b5b808211156129a757600081600090555060010161298f565b5090565b6000604051905090565b600080fd5b600080fd5b600073ffffffffffffffffffffffffffffffffffffffff82169050919050565b60006129ea826129bf565b9050919050565b6129fa816129df565b8114612a0557600080fd5b50565b600081359050612a17816129f1565b92915050565b6000819050919050565b612a3081612a1d565b8114612a3b57600080fd5b50565b600081359050612a4d81612a27565b92915050565b60008060408385031215612a6a57612a696129b5565b5b6000612a7885828601612a08565b9250506020612a8985828601612a3e565b9150509250929050565b612a9c81612a1d565b82525050565b6000602082019050612ab76000830184612a93565b92915050565b60007fffffffff0000000000000000000000000000000000000000000000000000000082169050919050565b612af281612abd565b8114612afd57600080fd5b50565b600081359050612b0f81612ae9565b92915050565b600060208284031215612b2b57612b2a6129b5565b5b6000612b3984828501612b00565b91505092915050565b60008115159050919050565b612b5781612b42565b82525050565b6000602082019050612b726000830184612b4e565b92915050565b600080fd5b600080fd5b6000601f19601f8301169050919050565b7f4e487b7100000000000000000000000000000000000000000000000000000000600052604160045260246000fd5b612bcb82612b82565b810181811067ffffffffffffffff82111715612bea57612be9612b93565b5b80604052505050565b6000612bfd6129ab565b9050612c098282612bc2565b919050565b600067ffffffffffffffff821115612c2957612c28612b93565b5b612c3282612b82565b9050602081019050919050565b82818337600083830152505050565b6000612c61612c5c84612c0e565b612bf3565b905082815260208101848484011115612c7d57612c7c612b7d565b5b612c88848285612c3f565b509392505050565b600082601f830112612ca557612ca4612b78565b5b8135612cb5848260208601612c4e565b91505092915050565b600060208284031215612cd457612cd36129b5565b5b600082013567ffffffffffffffff811115612cf257612cf16129ba565b5b612cfe84828501612c90565b91505092915050565b600081519050919050565b600082825260208201905092915050565b60005b83811015612d41578082015181840152602081019050612d26565b83811115612d50576000848401525b50505050565b6000612d6182612d07565b612d6b8185612d12565b9350612d7b818560208601612d23565b612d8481612b82565b840191505092915050565b60006020820190508181036000830152612da98184612d56565b905092915050565b600060208284031215612dc757612dc66129b5565b5b6000612dd584828501612a3e565b91505092915050565b600067ffffffffffffffff821115612df957612df8612b93565b5b602082029050602081019050919050565b600080fd5b6000612e22612e1d84612dde565b612bf3565b90508083825260208201905060208402830185811115612e4557612e44612e0a565b5b835b81811015612e6e5780612e5a8882612a3e565b845260208401935050602081019050612e47565b5050509392505050565b600082601f830112612e8d57612e8c612b78565b5b8135612e9d848260208601612e0f565b91505092915050565b600067ffffffffffffffff821115612ec157612ec0612b93565b5b612eca82612b82565b9050602081019050919050565b6000612eea612ee584612ea6565b612bf3565b905082815260208101848484011115612f0657612f05612b7d565b5b612f11848285612c3f565b509392505050565b600082601f830112612f2e57612f2d612b78565b5b8135612f3e848260208601612ed7565b91505092915050565b60008060008060808587031215612f6157612f606129b5565b5b6000612f6f87828801612a08565b945050602085013567ffffffffffffffff811115612f9057612f8f6129ba565b5b612f9c87828801612e78565b935050604085013567ffffffffffffffff811115612fbd57612fbc6129ba565b5b612fc987828801612e78565b925050606085013567ffffffffffffffff811115612fea57612fe96129ba565b5b612ff687828801612f19565b91505092959194509250565b6000819050919050565b61301581613002565b811461302057600080fd5b50565b6000813590506130328161300c565b92915050565b60006020828403121561304e5761304d6129b5565b5b600061305c84828501613023565b91505092915050565b61306e81613002565b82525050565b60006020820190506130896000830184613065565b92915050565b600080604083850312156130a6576130a56129b5565b5b60006130b485828601612a3e565b92505060206130c585828601612a3e565b9150509250929050565b6130d8816129df565b82525050565b60006040820190506130f360008301856130cf565b6131006020830184612a93565b9392505050565b60006020828403121561311d5761311c6129b5565b5b600061312b84828501612a08565b91505092915050565b600080600080600060a086880312156131505761314f6129b5565b5b600061315e88828901612a08565b955050602061316f88828901612a08565b945050604086013567ffffffffffffffff8111156131905761318f6129ba565b5b61319c88828901612e78565b935050606086013567ffffffffffffffff8111156131bd576131bc6129ba565b5b6131c988828901612e78565b925050608086013567ffffffffffffffff8111156131ea576131e96129ba565b5b6131f688828901612f19565b9150509295509295909350565b6000806040838503121561321a576132196129b5565b5b600061322885828601613023565b925050602061323985828601612a08565b9150509250929050565b600067ffffffffffffffff82111561325e5761325d612b93565b5b602082029050602081019050919050565b600061328261327d84613243565b612bf3565b905080838252602082019050602084028301858111156132a5576132a4612e0a565b5b835b818110156132ce57806132ba8882612a08565b8452602084019350506020810190506132a7565b5050509392505050565b600082601f8301126132ed576132ec612b78565b5b81356132fd84826020860161326f565b91505092915050565b6000806040838503121561331d5761331c6129b5565b5b600083013567ffffffffffffffff81111561333b5761333a6129ba565b5b613347858286016132d8565b925050602083013567ffffffffffffffff811115613368576133676129ba565b5b61337485828601612e78565b9150509250929050565b600081519050919050565b600082825260208201905092915050565b6000819050602082019050919050565b6133b381612a1d565b82525050565b60006133c583836133aa565b60208301905092915050565b6000602082019050919050565b60006133e98261337e565b6133f38185613389565b93506133fe8361339a565b8060005b8381101561342f57815161341688826133b9565b9750613421836133d1565b925050600181019050613402565b5085935050505092915050565b6000602082019050818103600083015261345681846133de565b905092915050565b600080600060608486031215613477576134766129b5565b5b600061348586828701612a08565b935050602084013567ffffffffffffffff8111156134a6576134a56129ba565b5b6134b286828701612e78565b925050604084013567ffffffffffffffff8111156134d3576134d26129ba565b5b6134df86828701612e78565b9150509250925092565b600080600060608486031215613502576135016129b5565b5b600061351086828701612a08565b935050602061352186828701612a3e565b925050604084013567ffffffffffffffff811115613542576135416129ba565b5b61354e86828701612f19565b9150509250925092565b61356181612b42565b811461356c57600080fd5b50565b60008135905061357e81613558565b92915050565b6000806040838503121561359b5761359a6129b5565b5b60006135a985828601612a08565b92505060206135ba8582860161356f565b9150509250929050565b600080604083850312156135db576135da6129b5565b5b60006135e985828601612a08565b92505060206135fa85828601612a08565b9150509250929050565b600080600080600060a086880312156136205761361f6129b5565b5b600061362e88828901612a08565b955050602061363f88828901612a08565b945050604061365088828901612a3e565b935050606061366188828901612a3e565b925050608086013567ffffffffffffffff811115613682576136816129ba565b5b61368e88828901612f19565b9150509295509295909350565b6000806000606084860312156136b4576136b36129b5565b5b60006136c286828701612a08565b93505060206136d386828701612a3e565b92505060406136e486828701612a3e565b9150509250925092565b7f455243313135353a2062616c616e636520717565727920666f7220746865207a60008201527f65726f2061646472657373000000000000000000000000000000000000000000602082015250565b600061374a602b83612d12565b9150613755826136ee565b604082019050919050565b600060208201905081810360008301526137798161373d565b9050919050565b7f4e487b7100000000000000000000000000000000000000000000000000000000600052602260045260246000fd5b600060028204905060018216806137c757607f821691505b602082108114156137db576137da613780565b5b50919050565b7f4e487b7100000000000000000000000000000000000000000000000000000000600052601160045260246000fd5b600061381b82612a1d565b915061382683612a1d565b9250817fffffffffffffffffffffffffffffffffffffffffffffffffffffffffffffffff048311821515161561385f5761385e6137e1565b5b828202905092915050565b7f4e487b7100000000000000000000000000000000000000000000000000000000600052601260045260246000fd5b60006138a482612a1d565b91506138af83612a1d565b9250826138bf576138be61386a565b5b828204905092915050565b7f455243313135353a207472616e736665722063616c6c6572206973206e6f742060008201527f6f776e6572206e6f7220617070726f7665640000000000000000000000000000602082015250565b6000613926603283612d12565b9150613931826138ca565b604082019050919050565b6000602082019050818103600083015261395581613919565b9050919050565b7f416363657373436f6e74726f6c3a2063616e206f6e6c792072656e6f756e636560008201527f20726f6c657320666f722073656c660000000000000000000000000000000000602082015250565b60006139b8602f83612d12565b91506139c38261395c565b604082019050919050565b600060208201905081810360008301526139e7816139ab565b9050919050565b7f455243313135353a206163636f756e747320616e6420696473206c656e67746860008201527f206d69736d617463680000000000000000000000000000000000000000000000602082015250565b6000613a4a602983612d12565b9150613a55826139ee565b604082019050919050565b60006020820190508181036000830152613a7981613a3d565b9050919050565b7f4e487b7100000000000000000000000000000000000000000000000000000000600052603260045260246000fd5b6000613aba82612a1d565b91507fffffffffffffffffffffffffffffffffffffffffffffffffffffffffffffffff821415613aed57613aec6137e1565b5b600182019050919050565b7f455243313135353a2063616c6c6572206973206e6f74206f776e6572206e6f7260008201527f20617070726f7665640000000000000000000000000000000000000000000000602082015250565b6000613b54602983612d12565b9150613b5f82613af8565b604082019050919050565b60006020820190508181036000830152613b8381613b47565b9050919050565b600081519050613b9981612a27565b92915050565b600060208284031215613bb557613bb46129b5565b5b6000613bc384828501613b8a565b91505092915050565b7f596f7520646f6e2774206861766520616e7920746f6b656e0000000000000000600082015250565b6000613c02601883612d12565b9150613c0d82613bcc565b602082019050919050565b60006020820190508181036000830152613c3181613bf5565b9050919050565b600081905092915050565b7f416363657373436f6e74726f6c3a206163636f756e7420000000000000000000600082015250565b6000613c79601783613c38565b9150613c8482613c43565b601782019050919050565b6000613c9a82612d07565b613ca48185613c38565b9350613cb4818560208601612d23565b80840191505092915050565b7f206973206d697373696e6720726f6c6520000000000000000000000000000000600082015250565b6000613cf6601183613c38565b9150613d0182613cc0565b601182019050919050565b6000613d1782613c6c565b9150613d238285613c8f565b9150613d2e82613ce9565b9150613d3a8284613c8f565b91508190509392505050565b7f455243313135353a206d696e7420746f20746865207a65726f2061646472657360008201527f7300000000000000000000000000000000000000000000000000000000000000602082015250565b6000613da2602183612d12565b9150613dad82613d46565b604082019050919050565b60006020820190508181036000830152613dd181613d95565b9050919050565b7f455243313135353a2069647320616e6420616d6f756e7473206c656e6774682060008201527f6d69736d61746368000000000000000000000000000000000000000000000000602082015250565b6000613e34602883612d12565b9150613e3f82613dd8565b604082019050919050565b60006020820190508181036000830152613e6381613e27565b9050919050565b6000613e7582612a1d565b9150613e8083612a1d565b9250827fffffffffffffffffffffffffffffffffffffffffffffffffffffffffffffffff03821115613eb557613eb46137e1565b5b828201905092915050565b60006040820190508181036000830152613eda81856133de565b90508181036020830152613eee81846133de565b90509392505050565b7f526f79616c746965733a206e657720726563697069656e74206973207468652060008201527f7a65726f20616464726573730000000000000000000000000000000000000000602082015250565b6000613f53602c83612d12565b9150613f5e82613ef7565b604082019050919050565b60006020820190508181036000830152613f8281613f46565b9050919050565b7f455243313135353a207472616e7366657220746f20746865207a65726f20616460008201527f6472657373000000000000000000000000000000000000000000000000000000602082015250565b6000613fe5602583612d12565b9150613ff082613f89565b604082019050919050565b6000602082019050818103600083015261401481613fd8565b9050919050565b7f455243313135353a20696e73756666696369656e742062616c616e636520666f60008201527f72207472616e7366657200000000000000000000000000000000000000000000602082015250565b6000614077602a83612d12565b91506140828261401b565b604082019050919050565b600060208201905081810360008301526140a68161406a565b9050919050565b7f455243313135353a206275726e2066726f6d20746865207a65726f206164647260008201527f6573730000000000000000000000000000000000000000000000000000000000602082015250565b6000614109602383612d12565b9150614114826140ad565b604082019050919050565b60006020820190508181036000830152614138816140fc565b9050919050565b7f455243313135353a206275726e20616d6f756e7420657863656564732062616c60008201527f616e636500000000000000000000000000000000000000000000000000000000602082015250565b600061419b602483612d12565b91506141a68261413f565b604082019050919050565b600060208201905081810360008301526141ca8161418e565b9050919050565b60006040820190506141e66000830185612a93565b6141f36020830184612a93565b9392505050565b7f455243313135353a2073657474696e6720617070726f76616c2073746174757360008201527f20666f722073656c660000000000000000000000000000000000000000000000602082015250565b6000614256602983612d12565b9150614261826141fa565b604082019050919050565b6000602082019050818103600083015261428581614249565b9050919050565b600061429782612a1d565b915060008214156142ab576142aa6137e1565b5b600182039050919050565b7f537472696e67733a20686578206c656e67746820696e73756666696369656e74600082015250565b60006142ec602083612d12565b91506142f7826142b6565b602082019050919050565b6000602082019050818103600083015261431b816142df565b9050919050565b600081519050919050565b600082825260208201905092915050565b600061434982614322565b614353818561432d565b9350614363818560208601612d23565b61436c81612b82565b840191505092915050565b600060a08201905061438c60008301886130cf565b61439960208301876130cf565b81810360408301526143ab81866133de565b905081810360608301526143bf81856133de565b905081810360808301526143d3818461433e565b90509695505050505050565b6000815190506143ee81612ae9565b92915050565b60006020828403121561440a576144096129b5565b5b6000614418848285016143df565b91505092915050565b60008160e01c9050919050565b600060033d111561444d5760046000803e61444a600051614421565b90505b90565b600060443d1015614460576144e3565b6144686129ab565b60043d036004823e80513d602482011167ffffffffffffffff821117156144905750506144e3565b808201805167ffffffffffffffff8111156144ae57505050506144e3565b80602083010160043d0385018111156144cb5750505050506144e3565b6144da82602001850186612bc2565b82955050505050505b90565b7f455243313135353a207472616e7366657220746f206e6f6e204552433131353560008201527f526563656976657220696d706c656d656e746572000000000000000000000000602082015250565b6000614542603483612d12565b915061454d826144e6565b604082019050919050565b6000602082019050818103600083015261457181614535565b9050919050565b7f455243313135353a204552433131353552656365697665722072656a6563746560008201527f6420746f6b656e73000000000000000000000000000000000000000000000000602082015250565b60006145d4602883612d12565b91506145df82614578565b604082019050919050565b60006020820190508181036000830152614603816145c7565b9050919050565b600060a08201905061461f60008301886130cf565b61462c60208301876130cf565b6146396040830186612a93565b6146466060830185612a93565b8181036080830152614658818461433e565b9050969550505050505056fea2646970667358221220799eef931465ff1acf4ce3a6f57f0882813a3e7d59db5c5b05509526b92fecfe64736f6c634300080b0033",
  "immutableReferences": {},
  "source": "// SPDX-License-Identifier: MIT\n\npragma solidity ^0.8.2;\n\nimport \"@openzeppelin/contracts/token/ERC1155/ERC1155.sol\";\nimport \"@openzeppelin/contracts/interfaces/IERC2981.sol\";\nimport \"@openzeppelin/contracts/utils/Counters.sol\";\nimport \"@openzeppelin/contracts/access/AccessControl.sol\";\n\n\ncontract BaseContract is ERC1155, AccessControl, IERC2981 {\n    using Counters for Counters.Counter;\n    Counters.Counter private _tokenIdCounter;\n\n    //OPERATOR = 0x523a704056dcd17bcf83bed8b68c59416dac1119be77755efe3bde0a64e46e0c\n    bytes32 public constant OPERATOR = keccak256(\"OPERATOR\");\n    string public name;\n    address private royaltiesRecipient;\n    uint8 royaltiesPercentage;\n\n    modifier tokenOwnerOnly(uint256 tokenId) {\n        require(this.balanceOf(msg.sender, tokenId) != 0, \"You don't have any token\");\n        _;\n    }\n\n    constructor(\n        string memory _contractURI, \n        string memory _name, \n        address _client, \n        uint8 _royaltiesPercentage,\n        address _royaltiesRecipient\n    ) ERC1155(_contractURI){\n        name = _name;\n        _setupRole(OPERATOR, _client); //Client Wallet\n        royaltiesRecipient = _royaltiesRecipient; //Can be PaymentSplitter contract\n        _setupRole(OPERATOR, msg.sender); //GoBlockchain\n        _setupRole(DEFAULT_ADMIN_ROLE, _client);\n        royaltiesPercentage = _royaltiesPercentage;\n    }\n    \n    function setURI(string memory newuri) external onlyRole(OPERATOR) {\n        _setURI(newuri);\n    }\n\n    function burn(address from, uint256 id, uint256 amount) external tokenOwnerOnly(id) {\n        _burn(from, id, amount);\n    }\n    \n    function burnBatch(address from, uint256[] memory ids, uint256[] memory amounts) external onlyRole(DEFAULT_ADMIN_ROLE) {\n        _burnBatch(from, ids, amounts);\n    }\n\n    function mint(address to, uint256 amount, bytes memory data) external onlyRole(OPERATOR) {\n        uint256 tokenId = _tokenIdCounter.current();\n        _tokenIdCounter.increment();\n        _mint(to, tokenId, amount, data);\n    }\n\n    function mintBatch(address to,uint256[] memory ids, uint256[] memory amounts, bytes memory data) external onlyRole(OPERATOR) {    \n        _mintBatch(to, ids, amounts, data);\n    }\n\n    /** @dev EIP2981 royalties implementation. */\n\n    // Maintain flexibility to modify royalties recipient (could also add basis points).\n    function _setRoyalties(address _newRecipient) internal {\n        require(_newRecipient != address(0), \"Royalties: new recipient is the zero address\");\n        royaltiesRecipient = _newRecipient;\n    }\n\n    function setRoyalties(address _newRecipient) external onlyRole(DEFAULT_ADMIN_ROLE) {\n        _setRoyalties(_newRecipient);\n    }\n\n    // EIP2981 standard royalties return.\n    function royaltyInfo(uint256, uint256 _salePrice) external view override\n        returns (address receiver, uint256 royaltyAmount)\n    {\n        //1 corresponds to 1%\n        return (royaltiesRecipient, (_salePrice * royaltiesPercentage * 100) / 10000);\n    }\n\n    // EIP2981 standard Interface return. Adds to ERC1155 and ERC165 Interface returns.\n    function supportsInterface(bytes4 interfaceId)\n        public\n        view\n        virtual\n        override(ERC1155, IERC165, AccessControl)\n        returns (bool)\n    {\n        //IERC165\n        return (\n            interfaceId == type(IERC2981).interfaceId || super.supportsInterface(interfaceId));\n    }\n}\n",
  "sourcePath": "/home/caiosa/contracts/official/contracts/Base1155.sol",
  "compiler": {
    "name": "solc",
    "version": "0.8.11+commit.d7f03943.Emscripten.clang"
  },
  "schemaVersion": "3.4.4",
  "updatedAt": "2022-04-01T05:15:21.640Z",
  "devdoc": {
    "kind": "dev",
    "methods": {
      "balanceOf(address,uint256)": {
        "details": "See {IERC1155-balanceOf}. Requirements: - `account` cannot be the zero address."
      },
      "balanceOfBatch(address[],uint256[])": {
        "details": "See {IERC1155-balanceOfBatch}. Requirements: - `accounts` and `ids` must have the same length."
      },
      "getRoleAdmin(bytes32)": {
        "details": "Returns the admin role that controls `role`. See {grantRole} and {revokeRole}. To change a role's admin, use {_setRoleAdmin}."
      },
      "grantRole(bytes32,address)": {
        "details": "Grants `role` to `account`. If `account` had not been already granted `role`, emits a {RoleGranted} event. Requirements: - the caller must have ``role``'s admin role."
      },
      "hasRole(bytes32,address)": {
        "details": "Returns `true` if `account` has been granted `role`."
      },
      "isApprovedForAll(address,address)": {
        "details": "See {IERC1155-isApprovedForAll}."
      },
      "renounceRole(bytes32,address)": {
        "details": "Revokes `role` from the calling account. Roles are often managed via {grantRole} and {revokeRole}: this function's purpose is to provide a mechanism for accounts to lose their privileges if they are compromised (such as when a trusted device is misplaced). If the calling account had been revoked `role`, emits a {RoleRevoked} event. Requirements: - the caller must be `account`."
      },
      "revokeRole(bytes32,address)": {
        "details": "Revokes `role` from `account`. If `account` had been granted `role`, emits a {RoleRevoked} event. Requirements: - the caller must have ``role``'s admin role."
      },
      "safeBatchTransferFrom(address,address,uint256[],uint256[],bytes)": {
        "details": "See {IERC1155-safeBatchTransferFrom}."
      },
      "safeTransferFrom(address,address,uint256,uint256,bytes)": {
        "details": "See {IERC1155-safeTransferFrom}."
      },
      "setApprovalForAll(address,bool)": {
        "details": "See {IERC1155-setApprovalForAll}."
      },
      "uri(uint256)": {
        "details": "See {IERC1155MetadataURI-uri}. This implementation returns the same URI for *all* token types. It relies on the token type ID substitution mechanism https://eips.ethereum.org/EIPS/eip-1155#metadata[defined in the EIP]. Clients calling this function must replace the `\\{id\\}` substring with the actual token type ID."
      }
    },
    "version": 1
  },
  "userdoc": {
    "kind": "user",
    "methods": {},
    "version": 1
  }
}