{
  "contractName": "StoreFunctions",
  "abi": [
    {
      "inputs": [
        {
          "internalType": "uint8",
          "name": "_feePercentage",
          "type": "uint8"
        },
        {
          "internalType": "address[]",
          "name": "_payees",
          "type": "address[]"
        },
        {
          "internalType": "uint256[]",
          "name": "_shares",
          "type": "uint256[]"
        },
        {
          "internalType": "address",
          "name": "_addr",
          "type": "address"
        }
      ],
      "stateMutability": "nonpayable",
      "type": "constructor"
    },
    {
      "anonymous": false,
      "inputs": [
        {
          "indexed": false,
          "internalType": "uint256",
          "name": "tokenId",
          "type": "uint256"
        },
        {
          "indexed": true,
          "internalType": "address",
          "name": "seller",
          "type": "address"
        },
        {
          "indexed": false,
          "internalType": "uint256",
          "name": "value",
          "type": "uint256"
        },
        {
          "indexed": false,
          "internalType": "uint64",
          "name": "amount",
          "type": "uint64"
        }
      ],
      "name": "CancelSellOffer",
      "type": "event"
    },
    {
      "anonymous": false,
      "inputs": [
        {
          "indexed": true,
          "internalType": "contract IERC20",
          "name": "token",
          "type": "address"
        },
        {
          "indexed": false,
          "internalType": "address",
          "name": "to",
          "type": "address"
        },
        {
          "indexed": false,
          "internalType": "uint256",
          "name": "amount",
          "type": "uint256"
        }
      ],
      "name": "ERC20PaymentReleased",
      "type": "event"
    },
    {
      "anonymous": false,
      "inputs": [
        {
          "indexed": false,
          "internalType": "uint256",
          "name": "tokenId",
          "type": "uint256"
        },
        {
          "indexed": true,
          "internalType": "address",
          "name": "seller",
          "type": "address"
        },
        {
          "indexed": false,
          "internalType": "uint256",
          "name": "value",
          "type": "uint256"
        },
        {
          "indexed": false,
          "internalType": "uint64",
          "name": "amount",
          "type": "uint64"
        },
        {
          "indexed": true,
          "internalType": "address",
          "name": "buyer",
          "type": "address"
        },
        {
          "indexed": false,
          "internalType": "uint256",
          "name": "itemSoldId",
          "type": "uint256"
        }
      ],
      "name": "ItemSold",
      "type": "event"
    },
    {
      "anonymous": false,
      "inputs": [
        {
          "indexed": true,
          "internalType": "address",
          "name": "_from",
          "type": "address"
        },
        {
          "indexed": false,
          "internalType": "uint256",
          "name": "_amount",
          "type": "uint256"
        }
      ],
      "name": "MoneyReceived",
      "type": "event"
    },
    {
      "anonymous": false,
      "inputs": [
        {
          "indexed": true,
          "internalType": "address",
          "name": "_beneficiary",
          "type": "address"
        },
        {
          "indexed": false,
          "internalType": "uint256",
          "name": "_amount",
          "type": "uint256"
        }
      ],
      "name": "MoneySent",
      "type": "event"
    },
    {
      "anonymous": false,
      "inputs": [
        {
          "indexed": false,
          "internalType": "uint256",
          "name": "tokenId",
          "type": "uint256"
        },
        {
          "indexed": true,
          "internalType": "address",
          "name": "seller",
          "type": "address"
        },
        {
          "indexed": false,
          "internalType": "uint256",
          "name": "value",
          "type": "uint256"
        },
        {
          "indexed": false,
          "internalType": "uint64",
          "name": "amount",
          "type": "uint64"
        }
      ],
      "name": "NewSellOffer",
      "type": "event"
    },
    {
      "anonymous": false,
      "inputs": [
        {
          "indexed": true,
          "internalType": "address",
          "name": "previousOwner",
          "type": "address"
        },
        {
          "indexed": true,
          "internalType": "address",
          "name": "newOwner",
          "type": "address"
        }
      ],
      "name": "OwnershipTransferred",
      "type": "event"
    },
    {
      "anonymous": false,
      "inputs": [
        {
          "indexed": false,
          "internalType": "address",
          "name": "account",
          "type": "address"
        }
      ],
      "name": "Paused",
      "type": "event"
    },
    {
      "anonymous": false,
      "inputs": [
        {
          "indexed": false,
          "internalType": "address",
          "name": "account",
          "type": "address"
        },
        {
          "indexed": false,
          "internalType": "uint256",
          "name": "shares",
          "type": "uint256"
        }
      ],
      "name": "PayeeAdded",
      "type": "event"
    },
    {
      "anonymous": false,
      "inputs": [
        {
          "indexed": false,
          "internalType": "address",
          "name": "from",
          "type": "address"
        },
        {
          "indexed": false,
          "internalType": "uint256",
          "name": "amount",
          "type": "uint256"
        }
      ],
      "name": "PaymentReceived",
      "type": "event"
    },
    {
      "anonymous": false,
      "inputs": [
        {
          "indexed": false,
          "internalType": "address",
          "name": "to",
          "type": "address"
        },
        {
          "indexed": false,
          "internalType": "uint256",
          "name": "amount",
          "type": "uint256"
        }
      ],
      "name": "PaymentReleased",
      "type": "event"
    },
    {
      "anonymous": false,
      "inputs": [
        {
          "indexed": false,
          "internalType": "address",
          "name": "account",
          "type": "address"
        }
      ],
      "name": "Unpaused",
      "type": "event"
    },
    {
      "inputs": [
        {
          "internalType": "uint256",
          "name": "",
          "type": "uint256"
        }
      ],
      "name": "activeSellOffers",
      "outputs": [
        {
          "internalType": "uint256",
          "name": "itemId",
          "type": "uint256"
        },
        {
          "internalType": "address",
          "name": "seller",
          "type": "address"
        },
        {
          "internalType": "uint256",
          "name": "price",
          "type": "uint256"
        },
        {
          "internalType": "uint64",
          "name": "initialAmount",
          "type": "uint64"
        },
        {
          "internalType": "uint64",
          "name": "amount",
          "type": "uint64"
        },
        {
          "internalType": "uint256",
          "name": "createTime",
          "type": "uint256"
        },
        {
          "internalType": "uint256",
          "name": "IDtoken",
          "type": "uint256"
        },
        {
          "internalType": "bool",
          "name": "sold",
          "type": "bool"
        }
      ],
      "stateMutability": "view",
      "type": "function"
    },
    {
      "inputs": [],
      "name": "addressOf1155",
      "outputs": [
        {
          "internalType": "address",
          "name": "",
          "type": "address"
        }
      ],
      "stateMutability": "view",
      "type": "function"
    },
    {
      "inputs": [],
      "name": "feePercentage",
      "outputs": [
        {
          "internalType": "uint8",
          "name": "",
          "type": "uint8"
        }
      ],
      "stateMutability": "view",
      "type": "function"
    },
    {
      "inputs": [],
      "name": "owner",
      "outputs": [
        {
          "internalType": "address",
          "name": "",
          "type": "address"
        }
      ],
      "stateMutability": "view",
      "type": "function"
    },
    {
      "inputs": [],
      "name": "paused",
      "outputs": [
        {
          "internalType": "bool",
          "name": "",
          "type": "bool"
        }
      ],
      "stateMutability": "view",
      "type": "function"
    },
    {
      "inputs": [
        {
          "internalType": "uint256",
          "name": "index",
          "type": "uint256"
        }
      ],
      "name": "payee",
      "outputs": [
        {
          "internalType": "address",
          "name": "",
          "type": "address"
        }
      ],
      "stateMutability": "view",
      "type": "function"
    },
    {
      "inputs": [
        {
          "internalType": "address payable",
          "name": "account",
          "type": "address"
        }
      ],
      "name": "release",
      "outputs": [],
      "stateMutability": "nonpayable",
      "type": "function"
    },
    {
      "inputs": [
        {
          "internalType": "contract IERC20",
          "name": "token",
          "type": "address"
        },
        {
          "internalType": "address",
          "name": "account",
          "type": "address"
        }
      ],
      "name": "release",
      "outputs": [],
      "stateMutability": "nonpayable",
      "type": "function"
    },
    {
      "inputs": [
        {
          "internalType": "contract IERC20",
          "name": "token",
          "type": "address"
        },
        {
          "internalType": "address",
          "name": "account",
          "type": "address"
        }
      ],
      "name": "released",
      "outputs": [
        {
          "internalType": "uint256",
          "name": "",
          "type": "uint256"
        }
      ],
      "stateMutability": "view",
      "type": "function"
    },
    {
      "inputs": [
        {
          "internalType": "address",
          "name": "account",
          "type": "address"
        }
      ],
      "name": "released",
      "outputs": [
        {
          "internalType": "uint256",
          "name": "",
          "type": "uint256"
        }
      ],
      "stateMutability": "view",
      "type": "function"
    },
    {
      "inputs": [],
      "name": "renounceOwnership",
      "outputs": [],
      "stateMutability": "nonpayable",
      "type": "function"
    },
    {
      "inputs": [
        {
          "internalType": "address",
          "name": "account",
          "type": "address"
        }
      ],
      "name": "shares",
      "outputs": [
        {
          "internalType": "uint256",
          "name": "",
          "type": "uint256"
        }
      ],
      "stateMutability": "view",
      "type": "function"
    },
    {
      "inputs": [
        {
          "internalType": "uint256",
          "name": "",
          "type": "uint256"
        }
      ],
      "name": "soldOffers",
      "outputs": [
        {
          "internalType": "uint256",
          "name": "itemSoldId",
          "type": "uint256"
        },
        {
          "internalType": "address",
          "name": "seller",
          "type": "address"
        },
        {
          "internalType": "address",
          "name": "buyer",
          "type": "address"
        },
        {
          "internalType": "uint256",
          "name": "blockId",
          "type": "uint256"
        },
        {
          "internalType": "uint256",
          "name": "price",
          "type": "uint256"
        },
        {
          "internalType": "uint64",
          "name": "initialAmount",
          "type": "uint64"
        },
        {
          "internalType": "uint64",
          "name": "amount",
          "type": "uint64"
        },
        {
          "internalType": "uint256",
          "name": "createTime",
          "type": "uint256"
        },
        {
          "internalType": "uint256",
          "name": "IDtoken",
          "type": "uint256"
        }
      ],
      "stateMutability": "view",
      "type": "function"
    },
    {
      "inputs": [
        {
          "internalType": "contract IERC20",
          "name": "token",
          "type": "address"
        }
      ],
      "name": "totalReleased",
      "outputs": [
        {
          "internalType": "uint256",
          "name": "",
          "type": "uint256"
        }
      ],
      "stateMutability": "view",
      "type": "function"
    },
    {
      "inputs": [],
      "name": "totalReleased",
      "outputs": [
        {
          "internalType": "uint256",
          "name": "",
          "type": "uint256"
        }
      ],
      "stateMutability": "view",
      "type": "function"
    },
    {
      "inputs": [],
      "name": "totalShares",
      "outputs": [
        {
          "internalType": "uint256",
          "name": "",
          "type": "uint256"
        }
      ],
      "stateMutability": "view",
      "type": "function"
    },
    {
      "inputs": [
        {
          "internalType": "address",
          "name": "newOwner",
          "type": "address"
        }
      ],
      "name": "transferOwnership",
      "outputs": [],
      "stateMutability": "nonpayable",
      "type": "function"
    },
    {
      "stateMutability": "payable",
      "type": "receive"
    },
    {
      "inputs": [],
      "name": "uri",
      "outputs": [
        {
          "internalType": "string",
          "name": "",
          "type": "string"
        }
      ],
      "stateMutability": "view",
      "type": "function"
    },
    {
      "inputs": [],
      "name": "balance",
      "outputs": [
        {
          "internalType": "uint256",
          "name": "",
          "type": "uint256"
        }
      ],
      "stateMutability": "view",
      "type": "function"
    },
    {
      "inputs": [],
      "name": "withdrawFunds",
      "outputs": [],
      "stateMutability": "nonpayable",
      "type": "function"
    },
    {
      "inputs": [],
      "name": "pause",
      "outputs": [],
      "stateMutability": "nonpayable",
      "type": "function"
    },
    {
      "inputs": [],
      "name": "unpause",
      "outputs": [],
      "stateMutability": "nonpayable",
      "type": "function"
    },
    {
      "inputs": [
        {
          "internalType": "uint256",
          "name": "tokenId",
          "type": "uint256"
        },
        {
          "internalType": "uint256",
          "name": "price",
          "type": "uint256"
        },
        {
          "internalType": "uint64",
          "name": "amount",
          "type": "uint64"
        }
      ],
      "name": "makeSellOffer",
      "outputs": [],
      "stateMutability": "nonpayable",
      "type": "function"
    },
    {
      "inputs": [
        {
          "internalType": "uint256[]",
          "name": "tokenId",
          "type": "uint256[]"
        },
        {
          "internalType": "uint64[]",
          "name": "amounts",
          "type": "uint64[]"
        },
        {
          "internalType": "uint256",
          "name": "price",
          "type": "uint256"
        }
      ],
      "name": "batchSellOffer",
      "outputs": [],
      "stateMutability": "nonpayable",
      "type": "function"
    },
    {
      "inputs": [
        {
          "internalType": "uint256",
          "name": "item",
          "type": "uint256"
        },
        {
          "internalType": "uint64",
          "name": "amount",
          "type": "uint64"
        }
      ],
      "name": "buyToken",
      "outputs": [
        {
          "components": [
            {
              "internalType": "uint256",
              "name": "itemId",
              "type": "uint256"
            },
            {
              "internalType": "address",
              "name": "seller",
              "type": "address"
            },
            {
              "internalType": "uint256",
              "name": "price",
              "type": "uint256"
            },
            {
              "internalType": "uint64",
              "name": "initialAmount",
              "type": "uint64"
            },
            {
              "internalType": "uint64",
              "name": "amount",
              "type": "uint64"
            },
            {
              "internalType": "uint256",
              "name": "createTime",
              "type": "uint256"
            },
            {
              "internalType": "uint256",
              "name": "IDtoken",
              "type": "uint256"
            },
            {
              "internalType": "bool",
              "name": "sold",
              "type": "bool"
            }
          ],
          "internalType": "struct StoreFunctions.SellOffer",
          "name": "",
          "type": "tuple"
        }
      ],
      "stateMutability": "payable",
      "type": "function"
    },
    {
      "inputs": [
        {
          "internalType": "uint256",
          "name": "_pageNumber",
          "type": "uint256"
        },
        {
          "internalType": "uint256",
          "name": "_resultsPerPage",
          "type": "uint256"
        }
      ],
      "name": "fetchMarketItems",
      "outputs": [
        {
          "components": [
            {
              "internalType": "uint256",
              "name": "itemId",
              "type": "uint256"
            },
            {
              "internalType": "address",
              "name": "seller",
              "type": "address"
            },
            {
              "internalType": "uint256",
              "name": "price",
              "type": "uint256"
            },
            {
              "internalType": "uint64",
              "name": "initialAmount",
              "type": "uint64"
            },
            {
              "internalType": "uint64",
              "name": "amount",
              "type": "uint64"
            },
            {
              "internalType": "uint256",
              "name": "createTime",
              "type": "uint256"
            },
            {
              "internalType": "uint256",
              "name": "IDtoken",
              "type": "uint256"
            },
            {
              "internalType": "bool",
              "name": "sold",
              "type": "bool"
            }
          ],
          "internalType": "struct StoreFunctions.SellOffer[]",
          "name": "",
          "type": "tuple[]"
        }
      ],
      "stateMutability": "view",
      "type": "function"
    }
  ],
  "bytecode": "0x60806040523480156200001157600080fd5b5060405162005b8d38038062005b8d833981810160405281019062000037919062000823565b8282620000596200004d620001e060201b60201c565b620001e860201b60201c565b60008060146101000a81548160ff021916908315150217905550600180819055508051825114620000c1576040517f08c379a0000000000000000000000000000000000000000000000000000000008152600401620000b8906200095a565b60405180910390fd5b600082511162000108576040517f08c379a0000000000000000000000000000000000000000000000000000000008152600401620000ff90620009cc565b60405180910390fd5b60005b82518110156200017757620001618382815181106200012f576200012e620009ee565b5b60200260200101518383815181106200014d576200014c620009ee565b5b6020026020010151620002ac60201b60201c565b80806200016e9062000a4c565b9150506200010b565b50505080600e60006101000a81548173ffffffffffffffffffffffffffffffffffffffff021916908373ffffffffffffffffffffffffffffffffffffffff16021790555083600e60146101000a81548160ff021916908360ff1602179055505050505062000ce8565b600033905090565b60008060009054906101000a900473ffffffffffffffffffffffffffffffffffffffff169050816000806101000a81548173ffffffffffffffffffffffffffffffffffffffff021916908373ffffffffffffffffffffffffffffffffffffffff1602179055508173ffffffffffffffffffffffffffffffffffffffff168173ffffffffffffffffffffffffffffffffffffffff167f8be0079c531659141344cd1fd0a4f28419497f9722a3daafe3b4186f6b6457e060405160405180910390a35050565b600073ffffffffffffffffffffffffffffffffffffffff168273ffffffffffffffffffffffffffffffffffffffff1614156200031f576040517f08c379a0000000000000000000000000000000000000000000000000000000008152600401620003169062000b10565b60405180910390fd5b6000811162000365576040517f08c379a00000000000000000000000000000000000000000000000000000000081526004016200035c9062000b82565b60405180910390fd5b6000600460008473ffffffffffffffffffffffffffffffffffffffff1673ffffffffffffffffffffffffffffffffffffffff1681526020019081526020016000205414620003ea576040517f08c379a0000000000000000000000000000000000000000000000000000000008152600401620003e19062000c1a565b60405180910390fd5b6006829080600181540180825580915050600190039060005260206000200160009091909190916101000a81548173ffffffffffffffffffffffffffffffffffffffff021916908373ffffffffffffffffffffffffffffffffffffffff16021790555080600460008473ffffffffffffffffffffffffffffffffffffffff1673ffffffffffffffffffffffffffffffffffffffff1681526020019081526020016000208190555080600254620004a1919062000c3c565b6002819055507f40c340f65e17194d14ddddb073d3c9f888e3cb52b5aae0c6c7706b4fbc905fac8282604051620004da92919062000cbb565b60405180910390a15050565b6000604051905090565b600080fd5b600080fd5b600060ff82169050919050565b6200051281620004fa565b81146200051e57600080fd5b50565b600081519050620005328162000507565b92915050565b600080fd5b6000601f19601f8301169050919050565b7f4e487b7100000000000000000000000000000000000000000000000000000000600052604160045260246000fd5b62000588826200053d565b810181811067ffffffffffffffff82111715620005aa57620005a96200054e565b5b80604052505050565b6000620005bf620004e6565b9050620005cd82826200057d565b919050565b600067ffffffffffffffff821115620005f057620005ef6200054e565b5b602082029050602081019050919050565b600080fd5b600073ffffffffffffffffffffffffffffffffffffffff82169050919050565b6000620006338262000606565b9050919050565b620006458162000626565b81146200065157600080fd5b50565b60008151905062000665816200063a565b92915050565b6000620006826200067c84620005d2565b620005b3565b90508083825260208201905060208402830185811115620006a857620006a762000601565b5b835b81811015620006d55780620006c0888262000654565b845260208401935050602081019050620006aa565b5050509392505050565b600082601f830112620006f757620006f662000538565b5b8151620007098482602086016200066b565b91505092915050565b600067ffffffffffffffff82111562000730576200072f6200054e565b5b602082029050602081019050919050565b6000819050919050565b620007568162000741565b81146200076257600080fd5b50565b60008151905062000776816200074b565b92915050565b6000620007936200078d8462000712565b620005b3565b90508083825260208201905060208402830185811115620007b957620007b862000601565b5b835b81811015620007e65780620007d1888262000765565b845260208401935050602081019050620007bb565b5050509392505050565b600082601f83011262000808576200080762000538565b5b81516200081a8482602086016200077c565b91505092915050565b6000806000806080858703121562000840576200083f620004f0565b5b6000620008508782880162000521565b945050602085015167ffffffffffffffff811115620008745762000873620004f5565b5b6200088287828801620006df565b935050604085015167ffffffffffffffff811115620008a657620008a5620004f5565b5b620008b487828801620007f0565b9250506060620008c78782880162000654565b91505092959194509250565b600082825260208201905092915050565b7f5061796d656e7453706c69747465723a2070617965657320616e64207368617260008201527f6573206c656e677468206d69736d617463680000000000000000000000000000602082015250565b600062000942603283620008d3565b91506200094f82620008e4565b604082019050919050565b60006020820190508181036000830152620009758162000933565b9050919050565b7f5061796d656e7453706c69747465723a206e6f20706179656573000000000000600082015250565b6000620009b4601a83620008d3565b9150620009c1826200097c565b602082019050919050565b60006020820190508181036000830152620009e781620009a5565b9050919050565b7f4e487b7100000000000000000000000000000000000000000000000000000000600052603260045260246000fd5b7f4e487b7100000000000000000000000000000000000000000000000000000000600052601160045260246000fd5b600062000a598262000741565b91507fffffffffffffffffffffffffffffffffffffffffffffffffffffffffffffffff82141562000a8f5762000a8e62000a1d565b5b600182019050919050565b7f5061796d656e7453706c69747465723a206163636f756e74206973207468652060008201527f7a65726f20616464726573730000000000000000000000000000000000000000602082015250565b600062000af8602c83620008d3565b915062000b058262000a9a565b604082019050919050565b6000602082019050818103600083015262000b2b8162000ae9565b9050919050565b7f5061796d656e7453706c69747465723a20736861726573206172652030000000600082015250565b600062000b6a601d83620008d3565b915062000b778262000b32565b602082019050919050565b6000602082019050818103600083015262000b9d8162000b5b565b9050919050565b7f5061796d656e7453706c69747465723a206163636f756e7420616c726561647960008201527f2068617320736861726573000000000000000000000000000000000000000000602082015250565b600062000c02602b83620008d3565b915062000c0f8262000ba4565b604082019050919050565b6000602082019050818103600083015262000c358162000bf3565b9050919050565b600062000c498262000741565b915062000c568362000741565b9250827fffffffffffffffffffffffffffffffffffffffffffffffffffffffffffffffff0382111562000c8e5762000c8d62000a1d565b5b828201905092915050565b62000ca48162000626565b82525050565b62000cb58162000741565b82525050565b600060408201905062000cd2600083018562000c99565b62000ce1602083018462000caa565b9392505050565b614e958062000cf86000396000f3fe6080604052600436106101855760003560e01c8063871dc151116100d1578063a325f7fd1161008a578063d79779b211610064578063d79779b2146105bd578063e33b7de3146105fa578063eac989f814610625578063f2fde38b14610650576101cc565b8063a325f7fd1461052c578063b69ef8a814610555578063ce7c2ac214610580576101cc565b8063871dc151146104035780638b83209b146104335780638d82cca7146104705780638da5cb5b146104995780639852595c146104c4578063a001ecdd14610501576101cc565b806348b750441161013e5780637063b64e116101185780637063b64e14610353578063715018a61461039057806373ae783e146103a75780638456cb59146103ec576101cc565b806348b75044146102d45780635c975abb146102fd578063629b467514610328576101cc565b806303c55649146101d1578063191655871461021557806324600fc31461023e5780633a98ef39146102555780633f4ba83a14610280578063406072a914610297576101cc565b366101cc577f6ef95f06320e7a25a04a175ca677b7052bdd97131872c2192525a629f51be7706101b3610679565b346040516101c2929190613285565b60405180910390a1005b600080fd5b3480156101dd57600080fd5b506101f860048036038101906101f391906132ee565b610681565b60405161020c989796959493929190613359565b60405180910390f35b34801561022157600080fd5b5061023c60048036038101906102379190613415565b61071e565b005b34801561024a57600080fd5b506102536108c9565b005b34801561026157600080fd5b5061026a6109e3565b6040516102779190613442565b60405180910390f35b34801561028c57600080fd5b506102956109ed565b005b3480156102a357600080fd5b506102be60048036038101906102b991906134c7565b610a73565b6040516102cb9190613442565b60405180910390f35b3480156102e057600080fd5b506102fb60048036038101906102f691906134c7565b610afa565b005b34801561030957600080fd5b50610312610db3565b60405161031f9190613507565b60405180910390f35b34801561033457600080fd5b5061033d610dc9565b60405161034a9190613522565b60405180910390f35b34801561035f57600080fd5b5061037a6004803603810190610375919061353d565b610def565b604051610387919061370b565b60405180910390f35b34801561039c57600080fd5b506103a5611198565b005b3480156103b357600080fd5b506103ce60048036038101906103c991906132ee565b611220565b6040516103e39998979695949392919061372d565b60405180910390f35b3480156103f857600080fd5b506104016112d6565b005b61041d600480360381019061041891906137e6565b61135c565b60405161042a91906138c8565b60405180910390f35b34801561043f57600080fd5b5061045a600480360381019061045591906132ee565b611fd4565b6040516104679190613522565b60405180910390f35b34801561047c57600080fd5b5061049760048036038101906104929190613b00565b61201c565b005b3480156104a557600080fd5b506104ae612476565b6040516104bb9190613522565b60405180910390f35b3480156104d057600080fd5b506104eb60048036038101906104e69190613b8b565b61249f565b6040516104f89190613442565b60405180910390f35b34801561050d57600080fd5b506105166124e8565b6040516105239190613bd4565b60405180910390f35b34801561053857600080fd5b50610553600480360381019061054e9190613bef565b6124fb565b005b34801561056157600080fd5b5061056a6128e4565b6040516105779190613442565b60405180910390f35b34801561058c57600080fd5b506105a760048036038101906105a29190613b8b565b6128ec565b6040516105b49190613442565b60405180910390f35b3480156105c957600080fd5b506105e460048036038101906105df9190613c42565b612935565b6040516105f19190613442565b60405180910390f35b34801561060657600080fd5b5061060f61297e565b60405161061c9190613442565b60405180910390f35b34801561063157600080fd5b5061063a612988565b6040516106479190613cf7565b60405180910390f35b34801561065c57600080fd5b5061067760048036038101906106729190613b8b565b612a31565b005b600033905090565b600c6020528060005260406000206000915090508060000154908060010160009054906101000a900473ffffffffffffffffffffffffffffffffffffffff16908060020154908060030160009054906101000a900467ffffffffffffffff16908060030160089054906101000a900467ffffffffffffffff16908060040154908060050154908060060160009054906101000a900460ff16905088565b6000600460008373ffffffffffffffffffffffffffffffffffffffff1673ffffffffffffffffffffffffffffffffffffffff16815260200190815260200160002054116107a0576040517f08c379a000000000000000000000000000000000000000000000000000000000815260040161079790613d8b565b60405180910390fd5b60006107aa61297e565b476107b59190613dda565b905060006107cc83836107c78661249f565b612b29565b90506000811415610812576040517f08c379a000000000000000000000000000000000000000000000000000000000815260040161080990613ea2565b60405180910390fd5b80600560008573ffffffffffffffffffffffffffffffffffffffff1673ffffffffffffffffffffffffffffffffffffffff16815260200190815260200160002060008282546108619190613dda565b92505081905550806003600082825461087a9190613dda565b9250508190555061088b8382612b97565b7fdf20fd1e76bc69d672e4814fafb2c449bba3a5369d8359adf9e05e6fde87b05683826040516108bc929190613f21565b60405180910390a1505050565b6108d1610679565b73ffffffffffffffffffffffffffffffffffffffff166108ef612476565b73ffffffffffffffffffffffffffffffffffffffff1614610945576040517f08c379a000000000000000000000000000000000000000000000000000000000815260040161093c90613f96565b60405180910390fd5b6002600154141561098b576040517f08c379a000000000000000000000000000000000000000000000000000000000815260040161098290614002565b60405180910390fd5b60026001819055503373ffffffffffffffffffffffffffffffffffffffff166108fc479081150290604051600060405180830381858888f193505050501580156109d9573d6000803e3d6000fd5b5060018081905550565b6000600254905090565b6109f5610679565b73ffffffffffffffffffffffffffffffffffffffff16610a13612476565b73ffffffffffffffffffffffffffffffffffffffff1614610a69576040517f08c379a0000000000000000000000000000000000000000000000000000000008152600401610a6090613f96565b60405180910390fd5b610a71612c8b565b565b6000600860008473ffffffffffffffffffffffffffffffffffffffff1673ffffffffffffffffffffffffffffffffffffffff16815260200190815260200160002060008373ffffffffffffffffffffffffffffffffffffffff1673ffffffffffffffffffffffffffffffffffffffff16815260200190815260200160002054905092915050565b6000600460008373ffffffffffffffffffffffffffffffffffffffff1673ffffffffffffffffffffffffffffffffffffffff1681526020019081526020016000205411610b7c576040517f08c379a0000000000000000000000000000000000000000000000000000000008152600401610b7390613d8b565b60405180910390fd5b6000610b8783612935565b8373ffffffffffffffffffffffffffffffffffffffff166370a08231306040518263ffffffff1660e01b8152600401610bc09190613522565b602060405180830381865afa158015610bdd573d6000803e3d6000fd5b505050506040513d601f19601f82011682018060405250810190610c019190614037565b610c0b9190613dda565b90506000610c238383610c1e8787610a73565b612b29565b90506000811415610c69576040517f08c379a0000000000000000000000000000000000000000000000000000000008152600401610c6090613ea2565b60405180910390fd5b80600860008673ffffffffffffffffffffffffffffffffffffffff1673ffffffffffffffffffffffffffffffffffffffff16815260200190815260200160002060008573ffffffffffffffffffffffffffffffffffffffff1673ffffffffffffffffffffffffffffffffffffffff1681526020019081526020016000206000828254610cf59190613dda565b9250508190555080600760008673ffffffffffffffffffffffffffffffffffffffff1673ffffffffffffffffffffffffffffffffffffffff1681526020019081526020016000206000828254610d4b9190613dda565b92505081905550610d5d848483612d2c565b8373ffffffffffffffffffffffffffffffffffffffff167f3be5b7a71e84ed12875d241991c70855ac5817d847039e17a9d895c1ceb0f18a8483604051610da5929190613285565b60405180910390a250505050565b60008060149054906101000a900460ff16905090565b600e60009054906101000a900473ffffffffffffffffffffffffffffffffffffffff1681565b60606000610dfd600b612db2565b90506000808267ffffffffffffffff811115610e1c57610e1b6138fa565b5b604051908082528060200260200182016040528015610e5557816020015b610e426131ba565b815260200190600190039081610e3a5790505b50905060005b83811015610fe1576000600c60008381526020019081526020016000206000015490506000600c600083815260200190815260200160002090508060405180610100016040529081600082015481526020016001820160009054906101000a900473ffffffffffffffffffffffffffffffffffffffff1673ffffffffffffffffffffffffffffffffffffffff1673ffffffffffffffffffffffffffffffffffffffff168152602001600282015481526020016003820160009054906101000a900467ffffffffffffffff1667ffffffffffffffff1667ffffffffffffffff1681526020016003820160089054906101000a900467ffffffffffffffff1667ffffffffffffffff1667ffffffffffffffff16815260200160048201548152602001600582015481526020016006820160009054906101000a900460ff161515151581525050848681518110610fb257610fb1614064565b5b6020026020010181905250600185610fca9190613dda565b945050508080610fd990614093565b915050610e5b565b506000858787610ff191906140dc565b610ffb9190614136565b90506000825114806110195750600182516110169190614136565b81115b1561107e57600067ffffffffffffffff811115611039576110386138fa565b5b60405190808252806020026020018201604052801561107257816020015b61105f6131ba565b8152602001906001900390816110575790505b50945050505050611192565b60008667ffffffffffffffff81111561109a576110996138fa565b5b6040519080825280602002602001820160405280156110d357816020015b6110c06131ba565b8152602001906001900390816110b85790505b50905060005b88886110e591906140dc565b83101561118857600184516110fa9190614136565b831161113e5783838151811061111357611112614064565b5b602002602001015182828151811061112e5761112d614064565b5b6020026020010181905250611167565b6111466131ba565b8083838151811061115a57611159614064565b5b6020026020010181905250505b808061117290614093565b915050828061118090614093565b9350506110d9565b8196505050505050505b92915050565b6111a0610679565b73ffffffffffffffffffffffffffffffffffffffff166111be612476565b73ffffffffffffffffffffffffffffffffffffffff1614611214576040517f08c379a000000000000000000000000000000000000000000000000000000000815260040161120b90613f96565b60405180910390fd5b61121e6000612dc0565b565b600d6020528060005260406000206000915090508060000154908060010160009054906101000a900473ffffffffffffffffffffffffffffffffffffffff16908060020160009054906101000a900473ffffffffffffffffffffffffffffffffffffffff16908060030154908060040154908060050160009054906101000a900467ffffffffffffffff16908060050160089054906101000a900467ffffffffffffffff16908060060154908060070154905089565b6112de610679565b73ffffffffffffffffffffffffffffffffffffffff166112fc612476565b73ffffffffffffffffffffffffffffffffffffffff1614611352576040517f08c379a000000000000000000000000000000000000000000000000000000000815260040161134990613f96565b60405180910390fd5b61135a612e84565b565b6113646131ba565b61136c610db3565b156113ac576040517f08c379a00000000000000000000000000000000000000000000000000000000081526004016113a3906141b6565b60405180910390fd5b600260015414156113f2576040517f08c379a00000000000000000000000000000000000000000000000000000000081526004016113e990614002565b60405180910390fd5b60026001819055506000600c600085815260200190815260200160002090508060020154341015611458576040517f08c379a000000000000000000000000000000000000000000000000000000000815260040161144f90614248565b60405180910390fd5b60008367ffffffffffffffff16116114a5576040517f08c379a000000000000000000000000000000000000000000000000000000000815260040161149c906142b4565b60405180910390fd5b60008160030160089054906101000a900467ffffffffffffffff1667ffffffffffffffff161161150a576040517f08c379a000000000000000000000000000000000000000000000000000000000815260040161150190614320565b60405180910390fd5b8267ffffffffffffffff168160030160089054906101000a900467ffffffffffffffff1667ffffffffffffffff161015611579576040517f08c379a0000000000000000000000000000000000000000000000000000000008152600401611570906143b2565b60405180910390fd5b3481600201548467ffffffffffffffff1661159491906140dc565b11156115d5576040517f08c379a00000000000000000000000000000000000000000000000000000000081526004016115cc90614444565b60405180910390fd5b600015158160060160009054906101000a900460ff1615151461162d576040517f08c379a0000000000000000000000000000000000000000000000000000000008152600401611624906144b0565b60405180910390fd5b60003490503373ffffffffffffffffffffffffffffffffffffffff167f27b15ed4cf832749ed39f33a64e4707ed60a761485e41ffec7343ecaddc0c02a346040516116789190613442565b60405180910390a260006127106064600e60149054906101000a900460ff1660ff16346116a591906140dc565b6116af91906140dc565b6116b991906144ff565b905080826116c79190614136565b91508260010160009054906101000a900473ffffffffffffffffffffffffffffffffffffffff1673ffffffffffffffffffffffffffffffffffffffff166108fc839081150290604051600060405180830381858888f19350505050158015611733573d6000803e3d6000fd5b508260010160009054906101000a900473ffffffffffffffffffffffffffffffffffffffff1673ffffffffffffffffffffffffffffffffffffffff167f7f51d406915971d4ac1c91af96be5187ea6ab64753785aad519a533def80a41e8360405161179e9190613442565b60405180910390a260006117b2600a612db2565b90506117be600a612f27565b6040518061012001604052808281526020018560010160009054906101000a900473ffffffffffffffffffffffffffffffffffffffff1673ffffffffffffffffffffffffffffffffffffffff1681526020013373ffffffffffffffffffffffffffffffffffffffff168152602001438152602001856002015481526020018560030160009054906101000a900467ffffffffffffffff1667ffffffffffffffff1681526020018767ffffffffffffffff1681526020014281526020018560050154815250600d60008381526020019081526020016000206000820151816000015560208201518160010160006101000a81548173ffffffffffffffffffffffffffffffffffffffff021916908373ffffffffffffffffffffffffffffffffffffffff16021790555060408201518160020160006101000a81548173ffffffffffffffffffffffffffffffffffffffff021916908373ffffffffffffffffffffffffffffffffffffffff160217905550606082015181600301556080820151816004015560a08201518160050160006101000a81548167ffffffffffffffff021916908367ffffffffffffffff16021790555060c08201518160050160086101000a81548167ffffffffffffffff021916908367ffffffffffffffff16021790555060e0820151816006015561010082015181600701559050503373ffffffffffffffffffffffffffffffffffffffff168460010160009054906101000a900473ffffffffffffffffffffffffffffffffffffffff1673ffffffffffffffffffffffffffffffffffffffff167fc1e2151078761874e3c704184d54d368acc68e30f01cb08ffcc7d55ca1b3c18b866005015487600201548a86604051611a469493929190614530565b60405180910390a36000868560030160089054906101000a900467ffffffffffffffff16611a749190614575565b905060008167ffffffffffffffff161115611c4457604051806101000160405280866000015481526020018660010160009054906101000a900473ffffffffffffffffffffffffffffffffffffffff1673ffffffffffffffffffffffffffffffffffffffff168152602001866002015481526020018660030160009054906101000a900467ffffffffffffffff1667ffffffffffffffff1681526020018267ffffffffffffffff168152602001866004015481526020018660050154815260200160001515815250600c60008a81526020019081526020016000206000820151816000015560208201518160010160006101000a81548173ffffffffffffffffffffffffffffffffffffffff021916908373ffffffffffffffffffffffffffffffffffffffff1602179055506040820151816002015560608201518160030160006101000a81548167ffffffffffffffff021916908367ffffffffffffffff16021790555060808201518160030160086101000a81548167ffffffffffffffff021916908367ffffffffffffffff16021790555060a0820151816004015560c0820151816005015560e08201518160060160006101000a81548160ff021916908315150217905550905050611dfb565b604051806101000160405280866000015481526020018660010160009054906101000a900473ffffffffffffffffffffffffffffffffffffffff1673ffffffffffffffffffffffffffffffffffffffff168152602001866002015481526020018660030160009054906101000a900467ffffffffffffffff1667ffffffffffffffff1681526020018267ffffffffffffffff168152602001866004015481526020018660050154815260200160011515815250600c60008a81526020019081526020016000206000820151816000015560208201518160010160006101000a81548173ffffffffffffffffffffffffffffffffffffffff021916908373ffffffffffffffffffffffffffffffffffffffff1602179055506040820151816002015560608201518160030160006101000a81548167ffffffffffffffff021916908367ffffffffffffffff16021790555060808201518160030160086101000a81548167ffffffffffffffff021916908367ffffffffffffffff16021790555060a0820151816004015560c0820151816005015560e08201518160060160006101000a81548160ff0219169083151502179055509050505b600e60009054906101000a900473ffffffffffffffffffffffffffffffffffffffff1673ffffffffffffffffffffffffffffffffffffffff1663f242432a8660010160009054906101000a900473ffffffffffffffffffffffffffffffffffffffff163388600501548b6040518563ffffffff1660e01b8152600401611e849493929190614637565b600060405180830381600087803b158015611e9e57600080fd5b505af1158015611eb2573d6000803e3d6000fd5b505050508460405180610100016040529081600082015481526020016001820160009054906101000a900473ffffffffffffffffffffffffffffffffffffffff1673ffffffffffffffffffffffffffffffffffffffff1673ffffffffffffffffffffffffffffffffffffffff168152602001600282015481526020016003820160009054906101000a900467ffffffffffffffff1667ffffffffffffffff1667ffffffffffffffff1681526020016003820160089054906101000a900467ffffffffffffffff1667ffffffffffffffff1667ffffffffffffffff16815260200160048201548152602001600582015481526020016006820160009054906101000a900460ff161515151581525050955050505050506001808190555092915050565b600060068281548110611fea57611fe9614064565b5b9060005260206000200160009054906101000a900473ffffffffffffffffffffffffffffffffffffffff169050919050565b612024610db3565b15612064576040517f08c379a000000000000000000000000000000000000000000000000000000000815260040161205b906141b6565b60405180910390fd5b600260015414156120aa576040517f08c379a00000000000000000000000000000000000000000000000000000000081526004016120a190614002565b60405180910390fd5b600260018190555060005b83518110156124695760008211612101576040517f08c379a00000000000000000000000000000000000000000000000000000000081526004016120f8906146db565b60405180910390fd5b600083828151811061211657612115614064565b5b602002602001015167ffffffffffffffff1611612168576040517f08c379a000000000000000000000000000000000000000000000000000000000815260040161215f90614747565b60405180910390fd5b82818151811061217b5761217a614064565b5b602002602001015167ffffffffffffffff16600e60009054906101000a900473ffffffffffffffffffffffffffffffffffffffff1673ffffffffffffffffffffffffffffffffffffffff1662fdd58e328785815181106121de576121dd614064565b5b60200260200101516040518363ffffffff1660e01b8152600401612203929190613285565b602060405180830381865afa158015612220573d6000803e3d6000fd5b505050506040513d601f19601f820116820180604052508101906122449190614037565b1015612285576040517f08c379a000000000000000000000000000000000000000000000000000000000815260040161227c906147d9565b60405180910390fd5b6000612291600b612db2565b905061229d600b612f27565b6040518061010001604052808281526020013373ffffffffffffffffffffffffffffffffffffffff1681526020018481526020018584815181106122e4576122e3614064565b5b602002602001015167ffffffffffffffff16815260200185848151811061230e5761230d614064565b5b602002602001015167ffffffffffffffff16815260200142815260200186848151811061233e5761233d614064565b5b6020026020010151815260200160001515815250600c60008381526020019081526020016000206000820151816000015560208201518160010160006101000a81548173ffffffffffffffffffffffffffffffffffffffff021916908373ffffffffffffffffffffffffffffffffffffffff1602179055506040820151816002015560608201518160030160006101000a81548167ffffffffffffffff021916908367ffffffffffffffff16021790555060808201518160030160086101000a81548167ffffffffffffffff021916908367ffffffffffffffff16021790555060a0820151816004015560c0820151816005015560e08201518160060160006101000a81548160ff02191690831515021790555090505050808061246190614093565b9150506120b5565b5060018081905550505050565b60008060009054906101000a900473ffffffffffffffffffffffffffffffffffffffff16905090565b6000600560008373ffffffffffffffffffffffffffffffffffffffff1673ffffffffffffffffffffffffffffffffffffffff168152602001908152602001600020549050919050565b600e60149054906101000a900460ff1681565b612503610db3565b15612543576040517f08c379a000000000000000000000000000000000000000000000000000000000815260040161253a906141b6565b60405180910390fd5b60026001541415612589576040517f08c379a000000000000000000000000000000000000000000000000000000000815260040161258090614002565b60405180910390fd5b6002600181905550826000600e60009054906101000a900473ffffffffffffffffffffffffffffffffffffffff1673ffffffffffffffffffffffffffffffffffffffff1662fdd58e32846040518363ffffffff1660e01b81526004016125f0929190613285565b602060405180830381865afa15801561260d573d6000803e3d6000fd5b505050506040513d601f19601f820116820180604052508101906126319190614037565b1415612672576040517f08c379a000000000000000000000000000000000000000000000000000000000815260040161266990614845565b60405180910390fd5b600083116126b5576040517f08c379a00000000000000000000000000000000000000000000000000000000081526004016126ac906146db565b60405180910390fd5b60008267ffffffffffffffff1611612702576040517f08c379a00000000000000000000000000000000000000000000000000000000081526004016126f990614747565b60405180910390fd5b600061270e600b612db2565b905061271a600b612f27565b6040518061010001604052808281526020013373ffffffffffffffffffffffffffffffffffffffff1681526020018581526020018467ffffffffffffffff1681526020018467ffffffffffffffff16815260200142815260200186815260200160001515815250600c60008381526020019081526020016000206000820151816000015560208201518160010160006101000a81548173ffffffffffffffffffffffffffffffffffffffff021916908373ffffffffffffffffffffffffffffffffffffffff1602179055506040820151816002015560608201518160030160006101000a81548167ffffffffffffffff021916908367ffffffffffffffff16021790555060808201518160030160086101000a81548167ffffffffffffffff021916908367ffffffffffffffff16021790555060a0820151816004015560c0820151816005015560e08201518160060160006101000a81548160ff0219169083151502179055509050503373ffffffffffffffffffffffffffffffffffffffff167fc8c599d7b89c50312627212263226d393b020feea1ba2ae355b166b10a1ba7798686866040516128ce93929190614865565b60405180910390a2505060018081905550505050565b600047905090565b6000600460008373ffffffffffffffffffffffffffffffffffffffff1673ffffffffffffffffffffffffffffffffffffffff168152602001908152602001600020549050919050565b6000600760008373ffffffffffffffffffffffffffffffffffffffff1673ffffffffffffffffffffffffffffffffffffffff168152602001908152602001600020549050919050565b6000600354905090565b6060600e60009054906101000a900473ffffffffffffffffffffffffffffffffffffffff1673ffffffffffffffffffffffffffffffffffffffff16630e89341c60006040518263ffffffff1660e01b81526004016129e691906148d7565b600060405180830381865afa158015612a03573d6000803e3d6000fd5b505050506040513d6000823e3d601f19601f82011682018060405250810190612a2c9190614998565b905090565b612a39610679565b73ffffffffffffffffffffffffffffffffffffffff16612a57612476565b73ffffffffffffffffffffffffffffffffffffffff1614612aad576040517f08c379a0000000000000000000000000000000000000000000000000000000008152600401612aa490613f96565b60405180910390fd5b600073ffffffffffffffffffffffffffffffffffffffff168173ffffffffffffffffffffffffffffffffffffffff161415612b1d576040517f08c379a0000000000000000000000000000000000000000000000000000000008152600401612b1490614a53565b60405180910390fd5b612b2681612dc0565b50565b600081600254600460008773ffffffffffffffffffffffffffffffffffffffff1673ffffffffffffffffffffffffffffffffffffffff1681526020019081526020016000205485612b7a91906140dc565b612b8491906144ff565b612b8e9190614136565b90509392505050565b80471015612bda576040517f08c379a0000000000000000000000000000000000000000000000000000000008152600401612bd190614abf565b60405180910390fd5b60008273ffffffffffffffffffffffffffffffffffffffff1682604051612c0090614b10565b60006040518083038185875af1925050503d8060008114612c3d576040519150601f19603f3d011682016040523d82523d6000602084013e612c42565b606091505b5050905080612c86576040517f08c379a0000000000000000000000000000000000000000000000000000000008152600401612c7d90614b97565b60405180910390fd5b505050565b612c93610db3565b612cd2576040517f08c379a0000000000000000000000000000000000000000000000000000000008152600401612cc990614c03565b60405180910390fd5b60008060146101000a81548160ff0219169083151502179055507f5db9ee0a495bf2e6ff9c91a7834c1ba4fdd244a5e8aa4e537bd38aeae4b073aa612d15610679565b604051612d229190613522565b60405180910390a1565b612dad8363a9059cbb60e01b8484604051602401612d4b929190613285565b604051602081830303815290604052907bffffffffffffffffffffffffffffffffffffffffffffffffffffffff19166020820180517bffffffffffffffffffffffffffffffffffffffffffffffffffffffff8381831617835250505050612f3d565b505050565b600081600001549050919050565b60008060009054906101000a900473ffffffffffffffffffffffffffffffffffffffff169050816000806101000a81548173ffffffffffffffffffffffffffffffffffffffff021916908373ffffffffffffffffffffffffffffffffffffffff1602179055508173ffffffffffffffffffffffffffffffffffffffff168173ffffffffffffffffffffffffffffffffffffffff167f8be0079c531659141344cd1fd0a4f28419497f9722a3daafe3b4186f6b6457e060405160405180910390a35050565b612e8c610db3565b15612ecc576040517f08c379a0000000000000000000000000000000000000000000000000000000008152600401612ec3906141b6565b60405180910390fd5b6001600060146101000a81548160ff0219169083151502179055507f62e78cea01bee320cd4e420270b5ea74000d11b0c9f74754ebdbfc544b05a258612f10610679565b604051612f1d9190613522565b60405180910390a1565b6001816000016000828254019250508190555050565b6000612f9f826040518060400160405280602081526020017f5361666545524332303a206c6f772d6c6576656c2063616c6c206661696c65648152508573ffffffffffffffffffffffffffffffffffffffff166130049092919063ffffffff16565b9050600081511115612fff5780806020019051810190612fbf9190614c4f565b612ffe576040517f08c379a0000000000000000000000000000000000000000000000000000000008152600401612ff590614cee565b60405180910390fd5b5b505050565b6060613013848460008561301c565b90509392505050565b606082471015613061576040517f08c379a000000000000000000000000000000000000000000000000000000000815260040161305890614d80565b60405180910390fd5b61306a85613130565b6130a9576040517f08c379a00000000000000000000000000000000000000000000000000000000081526004016130a090614dec565b60405180910390fd5b6000808673ffffffffffffffffffffffffffffffffffffffff1685876040516130d29190614e48565b60006040518083038185875af1925050503d806000811461310f576040519150601f19603f3d011682016040523d82523d6000602084013e613114565b606091505b5091509150613124828286613153565b92505050949350505050565b6000808273ffffffffffffffffffffffffffffffffffffffff163b119050919050565b60608315613163578290506131b3565b6000835111156131765782518084602001fd5b816040517f08c379a00000000000000000000000000000000000000000000000000000000081526004016131aa9190613cf7565b60405180910390fd5b9392505050565b60405180610100016040528060008152602001600073ffffffffffffffffffffffffffffffffffffffff16815260200160008152602001600067ffffffffffffffff168152602001600067ffffffffffffffff16815260200160008152602001600081526020016000151581525090565b600073ffffffffffffffffffffffffffffffffffffffff82169050919050565b60006132568261322b565b9050919050565b6132668161324b565b82525050565b6000819050919050565b61327f8161326c565b82525050565b600060408201905061329a600083018561325d565b6132a76020830184613276565b9392505050565b6000604051905090565b600080fd5b600080fd5b6132cb8161326c565b81146132d657600080fd5b50565b6000813590506132e8816132c2565b92915050565b600060208284031215613304576133036132b8565b5b6000613312848285016132d9565b91505092915050565b600067ffffffffffffffff82169050919050565b6133388161331b565b82525050565b60008115159050919050565b6133538161333e565b82525050565b60006101008201905061336f600083018b613276565b61337c602083018a61325d565b6133896040830189613276565b613396606083018861332f565b6133a3608083018761332f565b6133b060a0830186613276565b6133bd60c0830185613276565b6133ca60e083018461334a565b9998505050505050505050565b60006133e28261322b565b9050919050565b6133f2816133d7565b81146133fd57600080fd5b50565b60008135905061340f816133e9565b92915050565b60006020828403121561342b5761342a6132b8565b5b600061343984828501613400565b91505092915050565b60006020820190506134576000830184613276565b92915050565b60006134688261324b565b9050919050565b6134788161345d565b811461348357600080fd5b50565b6000813590506134958161346f565b92915050565b6134a48161324b565b81146134af57600080fd5b50565b6000813590506134c18161349b565b92915050565b600080604083850312156134de576134dd6132b8565b5b60006134ec85828601613486565b92505060206134fd858286016134b2565b9150509250929050565b600060208201905061351c600083018461334a565b92915050565b6000602082019050613537600083018461325d565b92915050565b60008060408385031215613554576135536132b8565b5b6000613562858286016132d9565b9250506020613573858286016132d9565b9150509250929050565b600081519050919050565b600082825260208201905092915050565b6000819050602082019050919050565b6135b28161326c565b82525050565b6135c18161324b565b82525050565b6135d08161331b565b82525050565b6135df8161333e565b82525050565b610100820160008201516135fc60008501826135a9565b50602082015161360f60208501826135b8565b50604082015161362260408501826135a9565b50606082015161363560608501826135c7565b50608082015161364860808501826135c7565b5060a082015161365b60a08501826135a9565b5060c082015161366e60c08501826135a9565b5060e082015161368160e08501826135d6565b50505050565b600061369383836135e5565b6101008301905092915050565b6000602082019050919050565b60006136b88261357d565b6136c28185613588565b93506136cd83613599565b8060005b838110156136fe5781516136e58882613687565b97506136f0836136a0565b9250506001810190506136d1565b5085935050505092915050565b6000602082019050818103600083015261372581846136ad565b905092915050565b600061012082019050613743600083018c613276565b613750602083018b61325d565b61375d604083018a61325d565b61376a6060830189613276565b6137776080830188613276565b61378460a083018761332f565b61379160c083018661332f565b61379e60e0830185613276565b6137ac610100830184613276565b9a9950505050505050505050565b6137c38161331b565b81146137ce57600080fd5b50565b6000813590506137e0816137ba565b92915050565b600080604083850312156137fd576137fc6132b8565b5b600061380b858286016132d9565b925050602061381c858286016137d1565b9150509250929050565b6101008201600082015161383d60008501826135a9565b50602082015161385060208501826135b8565b50604082015161386360408501826135a9565b50606082015161387660608501826135c7565b50608082015161388960808501826135c7565b5060a082015161389c60a08501826135a9565b5060c08201516138af60c08501826135a9565b5060e08201516138c260e08501826135d6565b50505050565b6000610100820190506138de6000830184613826565b92915050565b600080fd5b6000601f19601f8301169050919050565b7f4e487b7100000000000000000000000000000000000000000000000000000000600052604160045260246000fd5b613932826138e9565b810181811067ffffffffffffffff82111715613951576139506138fa565b5b80604052505050565b60006139646132ae565b90506139708282613929565b919050565b600067ffffffffffffffff8211156139905761398f6138fa565b5b602082029050602081019050919050565b600080fd5b60006139b96139b484613975565b61395a565b905080838252602082019050602084028301858111156139dc576139db6139a1565b5b835b81811015613a0557806139f188826132d9565b8452602084019350506020810190506139de565b5050509392505050565b600082601f830112613a2457613a236138e4565b5b8135613a348482602086016139a6565b91505092915050565b600067ffffffffffffffff821115613a5857613a576138fa565b5b602082029050602081019050919050565b6000613a7c613a7784613a3d565b61395a565b90508083825260208201905060208402830185811115613a9f57613a9e6139a1565b5b835b81811015613ac85780613ab488826137d1565b845260208401935050602081019050613aa1565b5050509392505050565b600082601f830112613ae757613ae66138e4565b5b8135613af7848260208601613a69565b91505092915050565b600080600060608486031215613b1957613b186132b8565b5b600084013567ffffffffffffffff811115613b3757613b366132bd565b5b613b4386828701613a0f565b935050602084013567ffffffffffffffff811115613b6457613b636132bd565b5b613b7086828701613ad2565b9250506040613b81868287016132d9565b9150509250925092565b600060208284031215613ba157613ba06132b8565b5b6000613baf848285016134b2565b91505092915050565b600060ff82169050919050565b613bce81613bb8565b82525050565b6000602082019050613be96000830184613bc5565b92915050565b600080600060608486031215613c0857613c076132b8565b5b6000613c16868287016132d9565b9350506020613c27868287016132d9565b9250506040613c38868287016137d1565b9150509250925092565b600060208284031215613c5857613c576132b8565b5b6000613c6684828501613486565b91505092915050565b600081519050919050565b600082825260208201905092915050565b60005b83811015613ca9578082015181840152602081019050613c8e565b83811115613cb8576000848401525b50505050565b6000613cc982613c6f565b613cd38185613c7a565b9350613ce3818560208601613c8b565b613cec816138e9565b840191505092915050565b60006020820190508181036000830152613d118184613cbe565b905092915050565b7f5061796d656e7453706c69747465723a206163636f756e7420686173206e6f2060008201527f7368617265730000000000000000000000000000000000000000000000000000602082015250565b6000613d75602683613c7a565b9150613d8082613d19565b604082019050919050565b60006020820190508181036000830152613da481613d68565b9050919050565b7f4e487b7100000000000000000000000000000000000000000000000000000000600052601160045260246000fd5b6000613de58261326c565b9150613df08361326c565b9250827fffffffffffffffffffffffffffffffffffffffffffffffffffffffffffffffff03821115613e2557613e24613dab565b5b828201905092915050565b7f5061796d656e7453706c69747465723a206163636f756e74206973206e6f742060008201527f647565207061796d656e74000000000000000000000000000000000000000000602082015250565b6000613e8c602b83613c7a565b9150613e9782613e30565b604082019050919050565b60006020820190508181036000830152613ebb81613e7f565b9050919050565b6000819050919050565b6000613ee7613ee2613edd8461322b565b613ec2565b61322b565b9050919050565b6000613ef982613ecc565b9050919050565b6000613f0b82613eee565b9050919050565b613f1b81613f00565b82525050565b6000604082019050613f366000830185613f12565b613f436020830184613276565b9392505050565b7f4f776e61626c653a2063616c6c6572206973206e6f7420746865206f776e6572600082015250565b6000613f80602083613c7a565b9150613f8b82613f4a565b602082019050919050565b60006020820190508181036000830152613faf81613f73565b9050919050565b7f5265656e7472616e637947756172643a207265656e7472616e742063616c6c00600082015250565b6000613fec601f83613c7a565b9150613ff782613fb6565b602082019050919050565b6000602082019050818103600083015261401b81613fdf565b9050919050565b600081519050614031816132c2565b92915050565b60006020828403121561404d5761404c6132b8565b5b600061405b84828501614022565b91505092915050565b7f4e487b7100000000000000000000000000000000000000000000000000000000600052603260045260246000fd5b600061409e8261326c565b91507fffffffffffffffffffffffffffffffffffffffffffffffffffffffffffffffff8214156140d1576140d0613dab565b5b600182019050919050565b60006140e78261326c565b91506140f28361326c565b9250817fffffffffffffffffffffffffffffffffffffffffffffffffffffffffffffffff048311821515161561412b5761412a613dab565b5b828202905092915050565b60006141418261326c565b915061414c8361326c565b92508282101561415f5761415e613dab565b5b828203905092915050565b7f5061757361626c653a2070617573656400000000000000000000000000000000600082015250565b60006141a0601083613c7a565b91506141ab8261416a565b602082019050919050565b600060208201905081810360008301526141cf81614193565b9050919050565b7f596f752063616e27742073656e64206c657373207468616e20746865206f666660008201527f6572207072696365210000000000000000000000000000000000000000000000602082015250565b6000614232602983613c7a565b915061423d826141d6565b604082019050919050565b6000602082019050818103600083015261426181614225565b9050919050565b7f596f752063616e277420627579203020746f6b656e7321000000000000000000600082015250565b600061429e601783613c7a565b91506142a982614268565b602082019050919050565b600060208201905081810360008301526142cd81614291565b9050919050565b7f54686973206f66666572206973206e6f2076616c696421000000000000000000600082015250565b600061430a601783613c7a565b9150614315826142d4565b602082019050919050565b60006020820190508181036000830152614339816142fd565b9050919050565b7f596f752061726520747279696e6720746f20627579206d6f7265207468616e2060008201527f746865206f6666657220616d6f756e7421000000000000000000000000000000602082015250565b600061439c603183613c7a565b91506143a782614340565b604082019050919050565b600060208201905081810360008301526143cb8161438f565b9050919050565b7f596f752063616e20706179206c657373207468616e207468652062757920766160008201527f6c75652100000000000000000000000000000000000000000000000000000000602082015250565b600061442e602483613c7a565b9150614439826143d2565b604082019050919050565b6000602082019050818103600083015261445d81614421565b9050919050565b7f54686973206f6666657220616c726561647920736f6c64210000000000000000600082015250565b600061449a601883613c7a565b91506144a582614464565b602082019050919050565b600060208201905081810360008301526144c98161448d565b9050919050565b7f4e487b7100000000000000000000000000000000000000000000000000000000600052601260045260246000fd5b600061450a8261326c565b91506145158361326c565b925082614525576145246144d0565b5b828204905092915050565b60006080820190506145456000830187613276565b6145526020830186613276565b61455f604083018561332f565b61456c6060830184613276565b95945050505050565b60006145808261331b565b915061458b8361331b565b92508282101561459e5761459d613dab565b5b828203905092915050565b60006145c46145bf6145ba8461331b565b613ec2565b61326c565b9050919050565b6145d4816145a9565b82525050565b600082825260208201905092915050565b7f3078000000000000000000000000000000000000000000000000000000000000600082015250565b60006146216002836145da565b915061462c826145eb565b602082019050919050565b600060a08201905061464c600083018761325d565b614659602083018661325d565b6146666040830185613276565b61467360608301846145cb565b818103608083015261468481614614565b905095945050505050565b7f5072696365206d757374206265206174206c6561737420312077656900000000600082015250565b60006146c5601c83613c7a565b91506146d08261468f565b602082019050919050565b600060208201905081810360008301526146f4816146b8565b9050919050565b7f596f752063616e27742073656c6c203020746f6b656e73000000000000000000600082015250565b6000614731601783613c7a565b915061473c826146fb565b602082019050919050565b6000602082019050818103600083015261476081614724565b9050919050565b7f596f7520646f6e277420686176652073756666696369656e742062616c616e6360008201527f6500000000000000000000000000000000000000000000000000000000000000602082015250565b60006147c3602183613c7a565b91506147ce82614767565b604082019050919050565b600060208201905081810360008301526147f2816147b6565b9050919050565b7f596f7520646f6e2774206861766520616e7920746f6b656e0000000000000000600082015250565b600061482f601883613c7a565b915061483a826147f9565b602082019050919050565b6000602082019050818103600083015261485e81614822565b9050919050565b600060608201905061487a6000830186613276565b6148876020830185613276565b614894604083018461332f565b949350505050565b6000819050919050565b60006148c16148bc6148b78461489c565b613ec2565b61326c565b9050919050565b6148d1816148a6565b82525050565b60006020820190506148ec60008301846148c8565b92915050565b600080fd5b600067ffffffffffffffff821115614912576149116138fa565b5b61491b826138e9565b9050602081019050919050565b600061493b614936846148f7565b61395a565b905082815260208101848484011115614957576149566148f2565b5b614962848285613c8b565b509392505050565b600082601f83011261497f5761497e6138e4565b5b815161498f848260208601614928565b91505092915050565b6000602082840312156149ae576149ad6132b8565b5b600082015167ffffffffffffffff8111156149cc576149cb6132bd565b5b6149d88482850161496a565b91505092915050565b7f4f776e61626c653a206e6577206f776e657220697320746865207a65726f206160008201527f6464726573730000000000000000000000000000000000000000000000000000602082015250565b6000614a3d602683613c7a565b9150614a48826149e1565b604082019050919050565b60006020820190508181036000830152614a6c81614a30565b9050919050565b7f416464726573733a20696e73756666696369656e742062616c616e6365000000600082015250565b6000614aa9601d83613c7a565b9150614ab482614a73565b602082019050919050565b60006020820190508181036000830152614ad881614a9c565b9050919050565b600081905092915050565b50565b6000614afa600083614adf565b9150614b0582614aea565b600082019050919050565b6000614b1b82614aed565b9150819050919050565b7f416464726573733a20756e61626c6520746f2073656e642076616c75652c207260008201527f6563697069656e74206d61792068617665207265766572746564000000000000602082015250565b6000614b81603a83613c7a565b9150614b8c82614b25565b604082019050919050565b60006020820190508181036000830152614bb081614b74565b9050919050565b7f5061757361626c653a206e6f7420706175736564000000000000000000000000600082015250565b6000614bed601483613c7a565b9150614bf882614bb7565b602082019050919050565b60006020820190508181036000830152614c1c81614be0565b9050919050565b614c2c8161333e565b8114614c3757600080fd5b50565b600081519050614c4981614c23565b92915050565b600060208284031215614c6557614c646132b8565b5b6000614c7384828501614c3a565b91505092915050565b7f5361666545524332303a204552433230206f7065726174696f6e20646964206e60008201527f6f74207375636365656400000000000000000000000000000000000000000000602082015250565b6000614cd8602a83613c7a565b9150614ce382614c7c565b604082019050919050565b60006020820190508181036000830152614d0781614ccb565b9050919050565b7f416464726573733a20696e73756666696369656e742062616c616e636520666f60008201527f722063616c6c0000000000000000000000000000000000000000000000000000602082015250565b6000614d6a602683613c7a565b9150614d7582614d0e565b604082019050919050565b60006020820190508181036000830152614d9981614d5d565b9050919050565b7f416464726573733a2063616c6c20746f206e6f6e2d636f6e7472616374000000600082015250565b6000614dd6601d83613c7a565b9150614de182614da0565b602082019050919050565b60006020820190508181036000830152614e0581614dc9565b9050919050565b600081519050919050565b6000614e2282614e0c565b614e2c8185614adf565b9350614e3c818560208601613c8b565b80840191505092915050565b6000614e548284614e17565b91508190509291505056fea2646970667358221220bdff78ccaeda62306b753517457c4961ba43dd74f553deb1a909dd958d69926a64736f6c634300080b0033",
  "immutableReferences": {},
  "source": "// SPDX-License-Identifier: MIT\npragma solidity ^0.8.10;\n\nimport \"@openzeppelin/contracts/utils/Counters.sol\";\nimport \"@openzeppelin/contracts/access/Ownable.sol\";\nimport \"@openzeppelin/contracts/security/Pausable.sol\";\nimport \"@openzeppelin/contracts/security/ReentrancyGuard.sol\";\nimport \"@openzeppelin/contracts/finance/PaymentSplitter.sol\";\n\n\ninterface IBaseContract {\n    function setURI(string memory newuri) external;\n    function burn(address from, uint256 id, uint256 amount) external;\n    function burnBatch(address from, uint256[] memory ids, uint256[] memory amounts) external;\n    function supportsInterface(bytes4 interfaceId) external view returns (bool);\n    function uri(uint256) external view returns (string memory);\n    function balanceOf(address account, uint256 id) external view returns (uint256);\n    function balanceOfBatch(address[] memory accounts, uint256[] memory ids) external view returns (uint256[] memory);\n    function isApprovedForAll(address account, address operator) external view returns (bool);\n    function safeTransferFrom(address from, address to, uint256 id, uint256 amount, bytes memory data) external; \n    function safeBatchTransferFrom(address from, address to, uint256[] memory ids, uint256[] memory amounts, bytes memory data) external;\n    function name() external view returns(string memory);\n    function setApprovalForAll(address operator, bool approved) external;\n    function mint(address to, uint256 id, uint256 amount, bytes memory data) external;\n    function mintBatch(address to,uint256[] memory ids, uint256[] memory amounts, bytes memory data) external;\n    function OPERATOR() external view returns(bytes32);\n    //function hasRole(bytes32 role, address account) external view returns (bool);\n}\n\ncontract StoreFunctions is Ownable, Pausable, ReentrancyGuard, PaymentSplitter{\n    using Counters for Counters.Counter;\n    Counters.Counter private _tokenIdCounter;\n    Counters.Counter private _itemsSold;\n    Counters.Counter private _itemIds;\n\n    struct SellOffer {\n        uint256 itemId;\n        address seller;\n        uint256 price;\n        uint64 initialAmount;\n        uint64 amount;\n        uint256 createTime;\n        uint256 IDtoken;\n        bool sold;\n    }\n    struct SoldItem {\n        uint256 itemSoldId;\n        address seller;\n        address buyer;\n        uint256 blockId;\n        uint256 price;\n        uint64 initialAmount;\n        uint64 amount;\n        uint256 createTime;\n        uint256 IDtoken;\n    }\n\n    event ItemSold(uint256 tokenId, address indexed seller, uint256 value, uint64 amount, address indexed buyer, uint256 itemSoldId);\n    event NewSellOffer(uint256 tokenId, address indexed seller, uint256 value, uint64 amount);\n    event CancelSellOffer(uint256 tokenId, address indexed seller, uint256 value, uint64 amount);\n    event MoneySent(address indexed _beneficiary, uint _amount);\n    event MoneyReceived(address indexed _from, uint _amount);\n\n    mapping(uint256 => SellOffer) public activeSellOffers;\n    mapping(uint256 => SoldItem) public soldOffers;\n\n    address public addressOf1155;\n    //address[] public feeRecipients; //accounts to receive taxes\n    uint8 public feePercentage; //percentages of each recipient of taxes\n\n    modifier tokenOwnerOnly(uint256 tokenId) {\n        require(IBaseContract(addressOf1155).balanceOf(tx.origin, tokenId) != 0, \"You don't have any token\");\n        _;\n    }\n\n    //As we are deploying for people, we'll need to put 90 as the _feePercentage and \n    //then we'll receive 10% of the sellings in the moment. The owner needs to withdraw.\n    //If he deploys, then perfect: he receives on the selling and we withdraw the fee.\n    constructor(uint8 _feePercentage,address[] memory _payees, uint256[] memory _shares, address _addr) PaymentSplitter(_payees, _shares) {\n        addressOf1155 = _addr;\n        feePercentage = _feePercentage;\n\n    }\n\n    function uri() external view returns(string memory){\n        return IBaseContract(addressOf1155).uri(0);\n    }\n\n    function balance() public view returns (uint256){\n        return address(this).balance;\n    }\n\n    function withdrawFunds() public onlyOwner nonReentrant {\n        payable(msg.sender).transfer(address(this).balance);\n    }\n\n    function pause() public onlyOwner {\n        _pause();\n    }\n\n    function unpause() public onlyOwner {\n        _unpause();\n    }\n\n    function makeSellOffer(uint256 tokenId, uint256 price, uint64 amount) external whenNotPaused nonReentrant tokenOwnerOnly(tokenId) {\n        require(price > 0, \"Price must be at least 1 wei\");\n        require(amount > 0, \"You can't sell 0 tokens\");\n\n        uint256 itemId = _itemIds.current();\n        _itemIds.increment();\n        activeSellOffers[itemId] = SellOffer({itemId: itemId, seller : msg.sender, price : price, initialAmount: amount, amount: amount, createTime: block.timestamp, IDtoken: tokenId, sold: false});\n        emit NewSellOffer(tokenId, msg.sender, price, amount);\n    }\n\n    function batchSellOffer(uint256[] memory tokenId, uint64[] memory amounts, uint256 price) external whenNotPaused nonReentrant {    \n        for (uint256 i = 0; i < tokenId.length; i++) {\n            require(price > 0, \"Price must be at least 1 wei\");\n            require(amounts[i] > 0, \"You can't sell 0 tokens\");\n            require(IBaseContract(addressOf1155).balanceOf(tx.origin, tokenId[i]) >= amounts[i], \"You don't have sufficient balance\");\n\n            uint256 itemId = _itemIds.current();\n            _itemIds.increment();\n            activeSellOffers[itemId] = SellOffer({itemId: itemId, seller : msg.sender, price : price, initialAmount: amounts[i], amount: amounts[i], createTime: block.timestamp, IDtoken: tokenId[i], sold: false});\n        }\n    }\n\n    function buyToken(uint256 item, uint64 amount) public payable whenNotPaused nonReentrant returns (SellOffer memory) {\n        SellOffer storage offer = activeSellOffers[item];\n        require(msg.value >= offer.price, \"You can't send less than the offer price!\");\n        require(amount > 0, \"You can't buy 0 tokens!\");\n        require(offer.amount > 0, \"This offer is no valid!\");\n        require(offer.amount >= amount, \"You are trying to buy more than the offer amount!\");\n        require((amount * offer.price) <= msg.value, \"You can pay less than the buy value!\");\n        require(offer.sold == false, \"This offer already sold!\");\n        uint256 seller_ammount = msg.value;\n        emit MoneyReceived(msg.sender, msg.value);\n        uint256 fee_tax = (msg.value * feePercentage * 100 / 10000);\n        seller_ammount = seller_ammount - fee_tax; \n        payable(offer.seller).transfer(seller_ammount);\n        emit MoneySent(address(offer.seller), seller_ammount);\n        uint256 itemSoldId = _itemsSold.current();\n        _itemsSold.increment();\n        soldOffers[itemSoldId] = SoldItem({\n            itemSoldId: itemSoldId,\n            seller: offer.seller,\n            buyer: msg.sender,\n            blockId: block.number,\n            price: offer.price,\n            initialAmount: offer.initialAmount,\n            amount: amount,\n            createTime: block.timestamp,\n            IDtoken: offer.IDtoken\n        });\n        emit ItemSold(offer.IDtoken, offer.seller, offer.price, amount, msg.sender, itemSoldId);\n        uint64 rest = offer.amount - amount;\n        if(rest > 0){\n            activeSellOffers[item] = SellOffer({\n                itemId: offer.itemId,\n                seller : offer.seller,\n                price : offer.price,\n                amount: rest,\n                initialAmount: offer.initialAmount,\n                createTime: offer.createTime,\n                IDtoken: offer.IDtoken,\n                sold: false\n            });\n        } else {\n            activeSellOffers[item] = SellOffer({\n                itemId: offer.itemId,\n                seller : offer.seller,\n                price : offer.price,\n                initialAmount: offer.initialAmount,\n                amount: rest,\n                createTime: offer.createTime,\n                IDtoken: offer.IDtoken,\n                sold: true\n            });\n        }\n        IBaseContract(addressOf1155).safeTransferFrom(offer.seller, address(msg.sender), offer.IDtoken, amount, \"0x\");\n        return offer;\n    }\n\n    function fetchMarketItems(uint256 _pageNumber, uint256 _resultsPerPage) public view returns (SellOffer[] memory) {\n        //First, it creates the items array\n        uint256 itemCount = _itemIds.current();\n        uint256 currentIndex = 0;\n\n        SellOffer[] memory items = new SellOffer[](itemCount);\n\n        for (uint256 i = 0; i < itemCount; i++) {\n            uint256 currentId = activeSellOffers[i].itemId;\n            SellOffer storage currentItem = activeSellOffers[currentId];\n            items[currentIndex] = currentItem;\n            currentIndex += 1;\n        }\n        //return items;\n        //Second, returns only the requested page with its items.\n        uint256 _itemIndexToStart = _resultsPerPage * _pageNumber - _resultsPerPage;\n\n        if(\n            items.length == 0 ||\n            _itemIndexToStart > items.length -1\n        ){\n            return new SellOffer[](0);\n        }\n\n        SellOffer[] memory _itemsInThePage = new SellOffer[](_resultsPerPage);\n\n        uint256 _returnCounter = 0;\n\n        for(\n            _itemIndexToStart; \n            _itemIndexToStart < _resultsPerPage * _pageNumber;\n            _itemIndexToStart++\n        ){\n            if(_itemIndexToStart <= items.length - 1){\n                _itemsInThePage[_returnCounter] = items[_itemIndexToStart];\n            } else {\n                SellOffer memory offer;\n                _itemsInThePage[_returnCounter] = offer ;\n            }\n\n            _returnCounter++;\n        }\n\n        return _itemsInThePage;\n    }\n}\n\n",
  "sourcePath": "/home/caiosa/contracts/official/contracts/StoreFunctions.sol",
  "compiler": {
    "name": "solc",
    "version": "0.8.11+commit.d7f03943.Emscripten.clang"
  },
  "schemaVersion": "3.4.4",
  "updatedAt": "2022-04-01T05:15:21.747Z",
  "devdoc": {
    "kind": "dev",
    "methods": {
      "owner()": {
        "details": "Returns the address of the current owner."
      },
      "paused()": {
        "details": "Returns true if the contract is paused, and false otherwise."
      },
      "payee(uint256)": {
        "details": "Getter for the address of the payee number `index`."
      },
      "release(address)": {
        "details": "Triggers a transfer to `account` of the amount of Ether they are owed, according to their percentage of the total shares and their previous withdrawals."
      },
      "release(address,address)": {
        "details": "Triggers a transfer to `account` of the amount of `token` tokens they are owed, according to their percentage of the total shares and their previous withdrawals. `token` must be the address of an IERC20 contract."
      },
      "released(address)": {
        "details": "Getter for the amount of Ether already released to a payee."
      },
      "released(address,address)": {
        "details": "Getter for the amount of `token` tokens already released to a payee. `token` should be the address of an IERC20 contract."
      },
      "renounceOwnership()": {
        "details": "Leaves the contract without owner. It will not be possible to call `onlyOwner` functions anymore. Can only be called by the current owner. NOTE: Renouncing ownership will leave the contract without an owner, thereby removing any functionality that is only available to the owner."
      },
      "shares(address)": {
        "details": "Getter for the amount of shares held by an account."
      },
      "totalReleased()": {
        "details": "Getter for the total amount of Ether already released."
      },
      "totalReleased(address)": {
        "details": "Getter for the total amount of `token` already released. `token` should be the address of an IERC20 contract."
      },
      "totalShares()": {
        "details": "Getter for the total shares held by payees."
      },
      "transferOwnership(address)": {
        "details": "Transfers ownership of the contract to a new account (`newOwner`). Can only be called by the current owner."
      }
    },
    "version": 1
  },
  "userdoc": {
    "kind": "user",
    "methods": {},
    "version": 1
  }
}